{
  "contractName": "Charity",
  "abi": [
    {
      "anonymous": false,
      "inputs": [
        {
          "indexed": true,
          "internalType": "address",
          "name": "_from",
          "type": "address"
        },
        {
          "indexed": true,
          "internalType": "address",
          "name": "_contract",
          "type": "address"
        },
        {
          "indexed": false,
          "internalType": "uint256",
          "name": "_value",
          "type": "uint256"
        }
      ],
      "name": "Funds_Donated",
      "type": "event"
    },
    {
      "anonymous": false,
      "inputs": [
        {
          "indexed": true,
          "internalType": "address",
          "name": "_from",
          "type": "address"
        },
        {
          "indexed": true,
          "internalType": "address",
          "name": "_contract",
          "type": "address"
        },
        {
          "indexed": false,
          "internalType": "uint256",
          "name": "_value",
          "type": "uint256"
        }
      ],
      "name": "Goal_Reached",
      "type": "event"
    },
    {
      "anonymous": false,
      "inputs": [
        {
          "indexed": true,
          "internalType": "address",
          "name": "_from",
          "type": "address"
        },
        {
          "indexed": true,
          "internalType": "address",
          "name": "_project",
          "type": "address"
        },
        {
          "indexed": false,
          "internalType": "string",
          "name": "_desription",
          "type": "string"
        }
      ],
      "name": "Project_Created",
      "type": "event"
    },
    {
      "anonymous": false,
      "inputs": [
        {
          "indexed": true,
          "internalType": "address",
          "name": "_from",
          "type": "address"
        },
        {
          "indexed": true,
          "internalType": "address",
          "name": "_contract",
          "type": "address"
        },
        {
          "indexed": false,
          "internalType": "uint256",
          "name": "_value",
          "type": "uint256"
        }
      ],
      "name": "Project_Ended",
      "type": "event"
    },
    {
      "inputs": [
        {
          "internalType": "uint256",
          "name": "",
          "type": "uint256"
        }
      ],
      "name": "allDonors",
      "outputs": [
        {
          "internalType": "address",
          "name": "donorAddress",
          "type": "address"
        },
        {
          "internalType": "uint256",
          "name": "amount",
          "type": "uint256"
        },
        {
          "internalType": "uint256",
          "name": "projectID",
          "type": "uint256"
        }
      ],
      "stateMutability": "view",
      "type": "function",
      "constant": true
    },
    {
      "inputs": [
        {
          "internalType": "uint256",
          "name": "",
          "type": "uint256"
        }
      ],
      "name": "allProjects",
      "outputs": [
        {
          "internalType": "uint256",
          "name": "id",
          "type": "uint256"
        },
        {
          "internalType": "address",
          "name": "recipient",
          "type": "address"
        },
        {
          "internalType": "string",
          "name": "projectName",
          "type": "string"
        },
        {
          "internalType": "string",
          "name": "description",
          "type": "string"
        },
        {
          "internalType": "uint256",
          "name": "amountNeeded",
          "type": "uint256"
        },
        {
          "internalType": "uint256",
          "name": "amountDonated",
          "type": "uint256"
        },
        {
          "internalType": "string",
          "name": "imageUrl",
          "type": "string"
        },
        {
          "internalType": "bool",
          "name": "ongoing",
          "type": "bool"
        },
        {
          "internalType": "address",
          "name": "projectAddress",
          "type": "address"
        }
      ],
      "stateMutability": "view",
      "type": "function",
      "constant": true
    },
    {
      "inputs": [],
      "name": "nextId",
      "outputs": [
        {
          "internalType": "uint256",
          "name": "",
          "type": "uint256"
        }
      ],
      "stateMutability": "view",
      "type": "function",
      "constant": true
    },
    {
      "inputs": [
        {
          "internalType": "uint256",
          "name": "id",
          "type": "uint256"
        }
      ],
      "name": "donate",
      "outputs": [],
      "stateMutability": "payable",
      "type": "function",
      "payable": true
    },
    {
      "inputs": [
        {
          "internalType": "string",
          "name": "name",
          "type": "string"
        },
        {
          "internalType": "string",
          "name": "description",
          "type": "string"
        },
        {
          "internalType": "uint256",
          "name": "amountNeeded",
          "type": "uint256"
        },
        {
          "internalType": "string",
          "name": "imageUrl",
          "type": "string"
        }
      ],
      "name": "createProjectStruct",
      "outputs": [],
      "stateMutability": "nonpayable",
      "type": "function"
    },
    {
      "inputs": [],
      "name": "getAllProjects",
      "outputs": [
        {
          "components": [
            {
              "internalType": "uint256",
              "name": "id",
              "type": "uint256"
            },
            {
              "internalType": "address",
              "name": "recipient",
              "type": "address"
            },
            {
              "internalType": "string",
              "name": "projectName",
              "type": "string"
            },
            {
              "internalType": "string",
              "name": "description",
              "type": "string"
            },
            {
              "internalType": "uint256",
              "name": "amountNeeded",
              "type": "uint256"
            },
            {
              "internalType": "uint256",
              "name": "amountDonated",
              "type": "uint256"
            },
            {
              "internalType": "string",
              "name": "imageUrl",
              "type": "string"
            },
            {
              "internalType": "bool",
              "name": "ongoing",
              "type": "bool"
            },
            {
              "internalType": "address",
              "name": "projectAddress",
              "type": "address"
            }
          ],
          "internalType": "struct Charity.Project[]",
          "name": "",
          "type": "tuple[]"
        }
      ],
      "stateMutability": "view",
      "type": "function",
      "constant": true
    },
    {
      "inputs": [],
      "name": "getAllProjectsLength",
      "outputs": [
        {
          "internalType": "uint256",
          "name": "",
          "type": "uint256"
        }
      ],
      "stateMutability": "view",
      "type": "function",
      "constant": true
    },
    {
      "inputs": [
        {
          "internalType": "uint256",
          "name": "id",
          "type": "uint256"
        }
      ],
      "name": "readSingleProject",
      "outputs": [
        {
          "internalType": "uint256",
          "name": "",
          "type": "uint256"
        },
        {
          "internalType": "address",
          "name": "",
          "type": "address"
        },
        {
          "internalType": "string",
          "name": "",
          "type": "string"
        },
        {
          "internalType": "string",
          "name": "",
          "type": "string"
        },
        {
          "internalType": "uint256",
          "name": "",
          "type": "uint256"
        },
        {
          "internalType": "uint256",
          "name": "",
          "type": "uint256"
        },
        {
          "internalType": "bool",
          "name": "",
          "type": "bool"
        },
        {
          "internalType": "string",
          "name": "",
          "type": "string"
        },
        {
          "internalType": "address",
          "name": "",
          "type": "address"
        }
      ],
      "stateMutability": "view",
      "type": "function",
      "constant": true
    },
    {
      "inputs": [],
      "name": "isCharity",
      "outputs": [
        {
          "internalType": "bool",
          "name": "",
          "type": "bool"
        }
      ],
      "stateMutability": "view",
      "type": "function",
      "constant": true
    }
  ],
  "bytecode": "0x6080604052600160005534801561001557600080fd5b506115ae806100256000396000f3fe6080604052600436106100865760003560e01c806361b8ce8c1161005957806361b8ce8c1461014f5780636d7932d11461017157806380d0382914610193578063efd5bf8b146101b5578063f14faf6f146101ca57610086565b80632c3e69631461008b5780633330d8ca146100c357806346770621146100f857806353b3194c1461011a575b600080fd5b34801561009757600080fd5b506100ab6100a636600461113b565b6101dd565b6040516100ba939291906111b1565b60405180910390f35b3480156100cf57600080fd5b506100e36100de36600461113b565b61021a565b6040516100ba999897969594939291906113d8565b34801561010457600080fd5b506101186101133660046110ad565b6105f4565b005b34801561012657600080fd5b5061013a61013536600461113b565b6107d6565b6040516100ba9998979695949392919061145b565b34801561015b57600080fd5b506101646109e1565b6040516100ba91906113cf565b34801561017d57600080fd5b506101866109e7565b6040516100ba91906112cf565b34801561019f57600080fd5b506101a8610a68565b6040516100ba91906111d2565b3480156101c157600080fd5b50610164610ce0565b6101186101d836600461113b565b610ce6565b600181815481106101ed57600080fd5b60009182526020909120600390910201805460018201546002909201546001600160a01b03909116925083565b600080606080600080600060606000806102338b610e55565b90506002818154811061025657634e487b7160e01b600052603260045260246000fd5b9060005260206000209060080201600001546002828154811061028957634e487b7160e01b600052603260045260246000fd5b906000526020600020906008020160010160009054906101000a90046001600160a01b0316600283815481106102cf57634e487b7160e01b600052603260045260246000fd5b90600052602060002090600802016002016002848154811061030157634e487b7160e01b600052603260045260246000fd5b90600052602060002090600802016003016002858154811061033357634e487b7160e01b600052603260045260246000fd5b9060005260206000209060080201600401546002868154811061036657634e487b7160e01b600052603260045260246000fd5b9060005260206000209060080201600501546002878154811061039957634e487b7160e01b600052603260045260246000fd5b906000526020600020906008020160070160009054906101000a900460ff16600288815481106103d957634e487b7160e01b600052603260045260246000fd5b90600052602060002090600802016006016002898154811061040b57634e487b7160e01b600052603260045260246000fd5b906000526020600020906008020160070160019054906101000a90046001600160a01b031686805461043c906114f6565b80601f0160208091040260200160405190810160405280929190818152602001828054610468906114f6565b80156104b55780601f1061048a576101008083540402835291602001916104b5565b820191906000526020600020905b81548152906001019060200180831161049857829003601f168201915b505050505096508580546104c8906114f6565b80601f01602080910402602001604051908101604052809291908181526020018280546104f4906114f6565b80156105415780601f1061051657610100808354040283529160200191610541565b820191906000526020600020905b81548152906001019060200180831161052457829003601f168201915b50505050509550818054610554906114f6565b80601f0160208091040260200160405190810160405280929190818152602001828054610580906114f6565b80156105cd5780601f106105a2576101008083540402835291602001916105cd565b820191906000526020600020905b8154815290600101906020018083116105b057829003601f168201915b50505050509150995099509950995099509950995099509950509193959799909294969850565b6040805161012081018252600080548252336020808401918252938301888152606084018890526080840187905260a0840183905260c08401869052600160e0850181905230610100860152600280549182018155909352835160089093027f405787fa12a823e0f2b7631cc41b3ba8828b3321ca811111fa75cd3aa3bb5ace810193845591517f405787fa12a823e0f2b7631cc41b3ba8828b3321ca811111fa75cd3aa3bb5acf830180546001600160a01b03929092166001600160a01b0319909216919091179055518051939485946106f5937f405787fa12a823e0f2b7631cc41b3ba8828b3321ca811111fa75cd3aa3bb5ad0019290910190610f93565b5060608201518051610711916003840191602090910190610f93565b506080820151600482015560a0820151600582015560c08201518051610741916006840191602090910190610f93565b5060e082015160079190910180546101009384015160ff1990911692151592909217610100600160a81b0319166001600160a01b0390921690920217905560008054908061078e83611531565b9091555050604051309033907fb3baea71d4ddbfbb72a19472613826fbe33d620e97614dae28fd277f229fedd8906107c79088906112da565b60405180910390a35050505050565b600281815481106107e657600080fd5b60009182526020909120600890910201805460018201546002830180549294506001600160a01b03909116929161081c906114f6565b80601f0160208091040260200160405190810160405280929190818152602001828054610848906114f6565b80156108955780601f1061086a57610100808354040283529160200191610895565b820191906000526020600020905b81548152906001019060200180831161087857829003601f168201915b5050505050908060030180546108aa906114f6565b80601f01602080910402602001604051908101604052809291908181526020018280546108d6906114f6565b80156109235780601f106108f857610100808354040283529160200191610923565b820191906000526020600020905b81548152906001019060200180831161090657829003601f168201915b505050505090806004015490806005015490806006018054610944906114f6565b80601f0160208091040260200160405190810160405280929190818152602001828054610970906114f6565b80156109bd5780601f10610992576101008083540402835291602001916109bd565b820191906000526020600020905b8154815290600101906020018083116109a057829003601f168201915b5050506007909301549192505060ff8116906001600160a01b036101009091041689565b60005481565b6000805b600254811015610a5f57336001600160a01b031660028281548110610a2057634e487b7160e01b600052603260045260246000fd5b60009182526020909120600160089092020101546001600160a01b03161415610a4d576001915050610a65565b80610a5781611531565b9150506109eb565b50600090505b90565b60606002805480602002602001604051908101604052809291908181526020016000905b82821015610cd75760008481526020908190206040805161012081018252600886029092018054835260018101546001600160a01b03169383019390935260028301805492939291840191610ae0906114f6565b80601f0160208091040260200160405190810160405280929190818152602001828054610b0c906114f6565b8015610b595780601f10610b2e57610100808354040283529160200191610b59565b820191906000526020600020905b815481529060010190602001808311610b3c57829003601f168201915b50505050508152602001600382018054610b72906114f6565b80601f0160208091040260200160405190810160405280929190818152602001828054610b9e906114f6565b8015610beb5780601f10610bc057610100808354040283529160200191610beb565b820191906000526020600020905b815481529060010190602001808311610bce57829003601f168201915b505050505081526020016004820154815260200160058201548152602001600682018054610c18906114f6565b80601f0160208091040260200160405190810160405280929190818152602001828054610c44906114f6565b8015610c915780601f10610c6657610100808354040283529160200191610c91565b820191906000526020600020905b815481529060010190602001808311610c7457829003601f168201915b50505091835250506007919091015460ff811615156020808401919091526101009091046001600160a01b03166040909201919091529082526001929092019101610a8c565b50505050905090565b60025490565b60003411610d0f5760405162461bcd60e51b8152600401610d0690611372565b60405180910390fd5b6000610d1a82610e55565b9050610d246109e7565b15610d415760405162461bcd60e51b8152600401610d06906113a7565b60028181548110610d6257634e487b7160e01b600052603260045260246000fd5b90600052602060002090600802016004015460028281548110610d9557634e487b7160e01b600052603260045260246000fd5b90600052602060002090600802016005015410610dc45760405162461bcd60e51b8152600401610d069061132b565b610dce3483610ed4565b3460028281548110610df057634e487b7160e01b600052603260045260246000fd5b90600052602060002090600802016005016000828254610e1091906114de565b9091555050604051309033907f702ce8e2a7e3a8bc7ba50d9187386c652637c1e0a97f4c8ad4c2481e1ae0861a90610e499034906113cf565b60405180910390a35050565b6000805b600254811015610eb6578260028281548110610e8557634e487b7160e01b600052603260045260246000fd5b9060005260206000209060080201600001541415610ea4579050610ecf565b80610eae81611531565b915050610e59565b5060405162461bcd60e51b8152600401610d06906112f4565b919050565b604080516060810182523381526020810193845290810191825260018054808201825560009190915290517fb10e2d527612073b26eecdfd717e6a320cf44b4afac2b0732d9fcbe2b7fa0cf6600390920291820180546001600160a01b0319166001600160a01b0390921691909117905591517fb10e2d527612073b26eecdfd717e6a320cf44b4afac2b0732d9fcbe2b7fa0cf7830155517fb10e2d527612073b26eecdfd717e6a320cf44b4afac2b0732d9fcbe2b7fa0cf890910155565b828054610f9f906114f6565b90600052602060002090601f016020900481019282610fc15760008555611007565b82601f10610fda57805160ff1916838001178555611007565b82800160010185558215611007579182015b82811115611007578251825591602001919060010190610fec565b50611013929150611017565b5090565b5b808211156110135760008155600101611018565b600082601f83011261103c578081fd5b813567ffffffffffffffff8082111561105757611057611562565b604051601f8301601f19168101602001828111828210171561107b5761107b611562565b604052828152848301602001861015611092578384fd5b82602086016020830137918201602001929092529392505050565b600080600080608085870312156110c2578384fd5b843567ffffffffffffffff808211156110d9578586fd5b6110e58883890161102c565b955060208701359150808211156110fa578485fd5b6111068883890161102c565b9450604087013593506060870135915080821115611122578283fd5b5061112f8782880161102c565b91505092959194509250565b60006020828403121561114c578081fd5b5035919050565b6001600160a01b03169052565b15159052565b60008151808452815b8181101561118b5760208185018101518683018201520161116f565b8181111561119c5782602083870101525b50601f01601f19169290920160200192915050565b6001600160a01b039390931683526020830191909152604082015260600190565b60208082528251828201819052600091906040908185019080840286018301878501865b838110156112c157603f19898403018552815161012081518552888201516112208a870182611153565b5087820151818987015261123682870182611166565b915050606080830151868303828801526112508382611166565b92505050608080830151818701525060a080830151818701525060c080830151868303828801526112818382611166565b9250505060e08083015161129782880182611160565b505061010091820151916112ad86820184611153565b5095880195935050908601906001016111f6565b509098975050505050505050565b901515815260200190565b6000602082526112ed6020830184611166565b9392505050565b60208082526017908201527f50726f6a65637420646f6573206e6f7420657869737421000000000000000000604082015260600190565b60208082526027908201527f7468652070726f6a65637420616c72656164792072616973656420656e6f756760408201526668206d6f6e657960c81b606082015260800190565b6020808252818101527f506c6561736520646f6e6f7465206d6f7265207468656e203020616d6f756e74604082015260600190565b6020808252600e908201526d31b0b73737ba103237b730ba329760911b604082015260600190565b90815260200190565b8981526001600160a01b038981166020830152610120604083018190526000916114048483018c611166565b91508382036060850152611418828b611166565b91508860808501528760a085015286151560c085015283820360e08501526114408287611166565b925080851661010085015250509a9950505050505050505050565b8981526001600160a01b038981166020830152610120604083018190526000916114878483018c611166565b9150838203606085015261149b828b611166565b91508860808501528760a085015283820360c08501526114bb8288611166565b925085151560e085015280851661010085015250509a9950505050505050505050565b600082198211156114f1576114f161154c565b500190565b60028104600182168061150a57607f821691505b6020821081141561152b57634e487b7160e01b600052602260045260246000fd5b50919050565b60006000198214156115455761154561154c565b5060010190565b634e487b7160e01b600052601160045260246000fd5b634e487b7160e01b600052604160045260246000fdfea264697066735822122041bf6029a50657669bbe4f67b033235ac58a1433c8b84855dd9069414c4d92ae64736f6c63430008000033",
  "immutableReferences": {},
  "source": "// SPDX-License-Identifier: MIT\npragma solidity ^0.8.0;\n\ncontract Charity {\n    struct Project {\n        uint256 id;\n        address recipient;\n        string projectName;\n        string description;\n        uint256 amountNeeded;\n        uint256 amountDonated;\n        string imageUrl;\n        bool ongoing;\n        address projectAddress;\n    }\n    struct Donor {\n        address donorAddress;\n        uint256 amount;\n        uint256 projectID;\n    }\n    uint256 public nextId = 1;\n    Donor[] public allDonors;\n    Project[] public allProjects; //mang project.\n\n    function createDonationStruct(uint256 amount, uint256 id) internal {Donor memory newDonor = Donor(\n        {donorAddress: msg.sender,\n            amount: amount,\n            projectID: id\n        });\n        allDonors.push(newDonor);\n    }\n\n    function donate(uint256 id) public payable {\n        //click donate on project\n        //find project\n        require(msg.value > 0, 'Please donote more then 0 amount');\n        uint256 i = find(id);\n        // require(\n        //     allProjects[i].recipient != msg.sender,\n        //     'Please donate from another wallet'\n        // );\n        require(isCharity() == false, 'cannot donate.');\n        require(allProjects[i].amountDonated < allProjects[i].amountNeeded, 'the project already raised enough money');\n        createDonationStruct(msg.value, id);\n        // this.balance.transfer(msg.value);\n        allProjects[i].amountDonated += msg.value;\n        emit Funds_Donated(msg.sender, address(this), msg.value);\n        // if (allProjects[i].amountDonated >= allProjects[i].amountNeeded) {\n        //     //run function to end the project\n        //     //endProject(allProjects[i].id);\n        //     emit Goal_Reached(\n        //         allProjects[i].recipient,\n        //         address(this),\n        //         allProjects[i].amountDonated\n        //     );\n        // }\n    }\n\n    function createProjectStruct(string memory name,string memory description,uint256 amountNeeded,string memory imageUrl) public {\n        Project memory newProject = Project({\n            id: nextId,\n            recipient: msg.sender,\n            projectName: name,\n            description: description,\n            amountNeeded: amountNeeded,\n            amountDonated: 0,\n            imageUrl: imageUrl,\n            ongoing: true,\n            projectAddress: address(this)\n        });\n        allProjects.push(newProject);\n        nextId++;\n        emit Project_Created(msg.sender, address(this), description);\n    }\n    \n    function getAllProjects() public view returns(Project[] memory){\n        return allProjects;\n    }\n\n    function find(uint256 id) internal view returns (uint256) {\n        for (uint256 i = 0; i < allProjects.length; i++) {\n            if (allProjects[i].id == id) {\n                return i;\n            }\n        }\n        revert('Project does not exist!');\n    }\n\n    function getAllProjectsLength() public view returns (uint256) {\n        return allProjects.length;\n    }\n\n    // function endProject(uint256 id) public payable {\n    //     uint256 i = find(id);\n    //     require(\n    //         allProjects[i].amountDonated >= allProjects[i].amountNeeded,\n    //         'This project has not rasied enough money'\n    //     );\n    //     emit Goal_Reached(\n    //         allProjects[i].recipient,\n    //         address(this),\n    //         allProjects[i].amountDonated\n    //     );\n    //     allProjects[i].ongoing = false;\n    //     emit Project_Ended(\n    //         allProjects[i].recipient,\n    //         address(this),\n    //         allProjects[i].amountDonated\n    //     );\n    //     allProjects[i].recipient.transfer(allProjects[i].amountDonated); // sends the account balance to recipient\n    // }\n\n    //use this to render single project view\n    function readSingleProject(uint256 id)\n        public\n        view\n        returns (\n            uint256,\n            address,\n            string memory,\n            string memory,\n            uint256,\n            uint256,\n            bool,\n            string memory,\n            address\n        )\n    {\n        uint256 i = find(id);\n        return (\n            allProjects[i].id,\n            allProjects[i].recipient,\n            allProjects[i].projectName,\n            allProjects[i].description,\n            allProjects[i].amountNeeded,\n            allProjects[i].amountDonated,\n            allProjects[i].ongoing,\n            allProjects[i].imageUrl,\n            allProjects[i].projectAddress\n        );\n    }\n\n    function isCharity() public view returns (bool) {\n        for (uint256 i = 0; i < allProjects.length; i++) {\n            if (allProjects[i].recipient == msg.sender) {\n                return true;\n            }\n        }\n        return false;\n    }\n    // function () external fall {\n    //     revert('not sure what you are doing');\n    // }\n\n\n\n    //     //EVENTS\n    //event for when a contract is created. Shows owner address, contract address and description of fundraiser\n    event Project_Created(\n        address indexed _from,\n        address indexed _project,\n        string _desription\n    );\n    // event for when money is donated. Shows address of donor, fundraiser contract donated to and value donated\n    event Funds_Donated(\n        address indexed _from,\n        address indexed _contract,\n        uint256 _value\n    );\n    //event for when the fundraising goal is reached. Shows recipient address, contract address and amount raised\n    event Goal_Reached(\n        address indexed _from,\n        address indexed _contract,\n        uint256 _value\n    );\n    //event for when recipient/contract owner ends fundraiser. Shows the owner address, contract address and amount rasied\n    event Project_Ended(\n        address indexed _from,\n        address indexed _contract,\n        uint256 _value\n    );\n}",
  "sourcePath": "/Users/nguyenngocha/Desktop/project-game-truffle-dapp/contracts/Charity.sol",
  "compiler": {
    "name": "solc",
    "version": "0.8.0+commit.c7dfd78e.Emscripten.clang"
  },
  "schemaVersion": "3.4.3",
  "updatedAt": "2021-11-10T23:39:58.061Z",
  "networkType": "ethereum",
  "devdoc": {
    "kind": "dev",
    "methods": {},
    "version": 1
  },
  "userdoc": {
    "kind": "user",
    "methods": {},
    "version": 1
  }
}