{
  "contractName": "Charity",
  "abi": [
    {
      "anonymous": false,
      "inputs": [
        {
          "indexed": true,
          "internalType": "address",
          "name": "_from",
          "type": "address"
        },
        {
          "indexed": true,
          "internalType": "address",
          "name": "_contract",
          "type": "address"
        },
        {
          "indexed": false,
          "internalType": "uint256",
          "name": "_value",
          "type": "uint256"
        }
      ],
      "name": "Funds_Donated",
      "type": "event"
    },
    {
      "anonymous": false,
      "inputs": [
        {
          "indexed": true,
          "internalType": "address",
          "name": "_from",
          "type": "address"
        },
        {
          "indexed": true,
          "internalType": "address",
          "name": "_contract",
          "type": "address"
        },
        {
          "indexed": false,
          "internalType": "uint256",
          "name": "_value",
          "type": "uint256"
        }
      ],
      "name": "Goal_Reached",
      "type": "event"
    },
    {
      "anonymous": false,
      "inputs": [
        {
          "indexed": true,
          "internalType": "address",
          "name": "_from",
          "type": "address"
        },
        {
          "indexed": true,
          "internalType": "address",
          "name": "_project",
          "type": "address"
        },
        {
          "indexed": false,
          "internalType": "string",
          "name": "_desription",
          "type": "string"
        }
      ],
      "name": "Project_Created",
      "type": "event"
    },
    {
      "anonymous": false,
      "inputs": [
        {
          "indexed": true,
          "internalType": "address",
          "name": "_from",
          "type": "address"
        },
        {
          "indexed": true,
          "internalType": "address",
          "name": "_contract",
          "type": "address"
        },
        {
          "indexed": false,
          "internalType": "uint256",
          "name": "_value",
          "type": "uint256"
        }
      ],
      "name": "Project_Ended",
      "type": "event"
    },
    {
      "inputs": [
        {
          "internalType": "uint256",
          "name": "",
          "type": "uint256"
        }
      ],
      "name": "allDonors",
      "outputs": [
        {
          "internalType": "address",
          "name": "donorAddress",
          "type": "address"
        },
        {
          "internalType": "uint256",
          "name": "amount",
          "type": "uint256"
        },
        {
          "internalType": "uint256",
          "name": "projectID",
          "type": "uint256"
        }
      ],
      "stateMutability": "view",
      "type": "function",
      "constant": true
    },
    {
      "inputs": [
        {
          "internalType": "uint256",
          "name": "",
          "type": "uint256"
        }
      ],
      "name": "allProjects",
      "outputs": [
        {
          "internalType": "uint256",
          "name": "id",
          "type": "uint256"
        },
        {
          "internalType": "address payable",
          "name": "recipient",
          "type": "address"
        },
        {
          "internalType": "string",
          "name": "projectName",
          "type": "string"
        },
        {
          "internalType": "string",
          "name": "location",
          "type": "string"
        },
        {
          "internalType": "string",
          "name": "description",
          "type": "string"
        },
        {
          "internalType": "uint256",
          "name": "amountNeeded",
          "type": "uint256"
        },
        {
          "internalType": "uint256",
          "name": "amountDonated",
          "type": "uint256"
        },
        {
          "internalType": "string",
          "name": "imageUrl",
          "type": "string"
        },
        {
          "internalType": "bool",
          "name": "ongoing",
          "type": "bool"
        },
        {
          "internalType": "address",
          "name": "projectAddress",
          "type": "address"
        }
      ],
      "stateMutability": "view",
      "type": "function",
      "constant": true
    },
    {
      "inputs": [],
      "name": "nextId",
      "outputs": [
        {
          "internalType": "uint256",
          "name": "",
          "type": "uint256"
        }
      ],
      "stateMutability": "view",
      "type": "function",
      "constant": true
    },
    {
      "inputs": [
        {
          "internalType": "uint256",
          "name": "",
          "type": "uint256"
        }
      ],
      "name": "ownerDonateAmount",
      "outputs": [
        {
          "internalType": "uint256",
          "name": "",
          "type": "uint256"
        }
      ],
      "stateMutability": "view",
      "type": "function",
      "constant": true
    },
    {
      "inputs": [
        {
          "internalType": "address",
          "name": "",
          "type": "address"
        }
      ],
      "name": "ownerProjectAmount",
      "outputs": [
        {
          "internalType": "uint256",
          "name": "",
          "type": "uint256"
        }
      ],
      "stateMutability": "view",
      "type": "function",
      "constant": true
    },
    {
      "inputs": [
        {
          "internalType": "uint256",
          "name": "id",
          "type": "uint256"
        }
      ],
      "name": "donate",
      "outputs": [],
      "stateMutability": "payable",
      "type": "function",
      "payable": true
    },
    {
      "inputs": [
        {
          "internalType": "string",
          "name": "name",
          "type": "string"
        },
        {
          "internalType": "string",
          "name": "location",
          "type": "string"
        },
        {
          "internalType": "string",
          "name": "description",
          "type": "string"
        },
        {
          "internalType": "uint256",
          "name": "amountNeeded",
          "type": "uint256"
        },
        {
          "internalType": "string",
          "name": "imageUrl",
          "type": "string"
        }
      ],
      "name": "createProjectStruct",
      "outputs": [],
      "stateMutability": "nonpayable",
      "type": "function"
    },
    {
      "inputs": [],
      "name": "getAllDonors",
      "outputs": [
        {
          "components": [
            {
              "internalType": "address",
              "name": "donorAddress",
              "type": "address"
            },
            {
              "internalType": "uint256",
              "name": "amount",
              "type": "uint256"
            },
            {
              "internalType": "uint256",
              "name": "projectID",
              "type": "uint256"
            }
          ],
          "internalType": "struct Charity.Donor[]",
          "name": "",
          "type": "tuple[]"
        }
      ],
      "stateMutability": "view",
      "type": "function",
      "constant": true
    },
    {
      "inputs": [],
      "name": "getAllProjects",
      "outputs": [
        {
          "components": [
            {
              "internalType": "uint256",
              "name": "id",
              "type": "uint256"
            },
            {
              "internalType": "address payable",
              "name": "recipient",
              "type": "address"
            },
            {
              "internalType": "string",
              "name": "projectName",
              "type": "string"
            },
            {
              "internalType": "string",
              "name": "location",
              "type": "string"
            },
            {
              "internalType": "string",
              "name": "description",
              "type": "string"
            },
            {
              "internalType": "uint256",
              "name": "amountNeeded",
              "type": "uint256"
            },
            {
              "internalType": "uint256",
              "name": "amountDonated",
              "type": "uint256"
            },
            {
              "internalType": "string",
              "name": "imageUrl",
              "type": "string"
            },
            {
              "internalType": "bool",
              "name": "ongoing",
              "type": "bool"
            },
            {
              "internalType": "address",
              "name": "projectAddress",
              "type": "address"
            }
          ],
          "internalType": "struct Charity.Project[]",
          "name": "",
          "type": "tuple[]"
        }
      ],
      "stateMutability": "view",
      "type": "function",
      "constant": true
    },
    {
      "inputs": [
        {
          "internalType": "uint256",
          "name": "id",
          "type": "uint256"
        }
      ],
      "name": "getAllOwnerDonateLength",
      "outputs": [
        {
          "internalType": "uint256",
          "name": "",
          "type": "uint256"
        }
      ],
      "stateMutability": "view",
      "type": "function",
      "constant": true
    },
    {
      "inputs": [
        {
          "internalType": "uint256",
          "name": "id",
          "type": "uint256"
        }
      ],
      "name": "getDonor",
      "outputs": [
        {
          "components": [
            {
              "internalType": "address",
              "name": "donorAddress",
              "type": "address"
            },
            {
              "internalType": "uint256",
              "name": "amount",
              "type": "uint256"
            },
            {
              "internalType": "uint256",
              "name": "projectID",
              "type": "uint256"
            }
          ],
          "internalType": "struct Charity.Donor[]",
          "name": "",
          "type": "tuple[]"
        }
      ],
      "stateMutability": "view",
      "type": "function",
      "constant": true
    },
    {
      "inputs": [
        {
          "internalType": "address",
          "name": "_owner",
          "type": "address"
        }
      ],
      "name": "getAllOwnerProjectsLength",
      "outputs": [
        {
          "internalType": "uint256",
          "name": "",
          "type": "uint256"
        }
      ],
      "stateMutability": "view",
      "type": "function",
      "constant": true
    },
    {
      "inputs": [
        {
          "internalType": "address",
          "name": "_owner",
          "type": "address"
        }
      ],
      "name": "getOwnerProjects",
      "outputs": [
        {
          "components": [
            {
              "internalType": "uint256",
              "name": "id",
              "type": "uint256"
            },
            {
              "internalType": "address payable",
              "name": "recipient",
              "type": "address"
            },
            {
              "internalType": "string",
              "name": "projectName",
              "type": "string"
            },
            {
              "internalType": "string",
              "name": "location",
              "type": "string"
            },
            {
              "internalType": "string",
              "name": "description",
              "type": "string"
            },
            {
              "internalType": "uint256",
              "name": "amountNeeded",
              "type": "uint256"
            },
            {
              "internalType": "uint256",
              "name": "amountDonated",
              "type": "uint256"
            },
            {
              "internalType": "string",
              "name": "imageUrl",
              "type": "string"
            },
            {
              "internalType": "bool",
              "name": "ongoing",
              "type": "bool"
            },
            {
              "internalType": "address",
              "name": "projectAddress",
              "type": "address"
            }
          ],
          "internalType": "struct Charity.Project[]",
          "name": "",
          "type": "tuple[]"
        }
      ],
      "stateMutability": "view",
      "type": "function",
      "constant": true
    },
    {
      "inputs": [],
      "name": "getAllProjectsLength",
      "outputs": [
        {
          "internalType": "uint256",
          "name": "",
          "type": "uint256"
        }
      ],
      "stateMutability": "view",
      "type": "function",
      "constant": true
    },
    {
      "inputs": [
        {
          "internalType": "uint256",
          "name": "id",
          "type": "uint256"
        }
      ],
      "name": "endProject",
      "outputs": [],
      "stateMutability": "payable",
      "type": "function",
      "payable": true
    },
    {
      "inputs": [
        {
          "internalType": "uint256",
          "name": "id",
          "type": "uint256"
        }
      ],
      "name": "readSingleProject",
      "outputs": [
        {
          "internalType": "uint256",
          "name": "",
          "type": "uint256"
        },
        {
          "internalType": "address",
          "name": "",
          "type": "address"
        },
        {
          "internalType": "string",
          "name": "",
          "type": "string"
        },
        {
          "internalType": "string",
          "name": "",
          "type": "string"
        },
        {
          "internalType": "string",
          "name": "",
          "type": "string"
        },
        {
          "internalType": "uint256",
          "name": "",
          "type": "uint256"
        },
        {
          "internalType": "uint256",
          "name": "",
          "type": "uint256"
        },
        {
          "internalType": "bool",
          "name": "",
          "type": "bool"
        },
        {
          "internalType": "string",
          "name": "",
          "type": "string"
        },
        {
          "internalType": "address",
          "name": "",
          "type": "address"
        }
      ],
      "stateMutability": "view",
      "type": "function",
      "constant": true
    },
    {
      "inputs": [],
      "name": "isCharity",
      "outputs": [
        {
          "internalType": "bool",
          "name": "",
          "type": "bool"
        }
      ],
      "stateMutability": "view",
      "type": "function",
      "constant": true
    }
  ],
  "bytecode": "0x6080604052600160005534801561001557600080fd5b506125ba806100256000396000f3fe6080604052600436106100fe5760003560e01c80636d7932d11161009557806398e36b041161006457806398e36b04146102cf5780639ba47346146102e4578063c588c5b814610304578063efd5bf8b14610324578063f14faf6f14610339576100fe565b80636d7932d114610265578063744bc3691461028757806380d038291461029a57806396d7e11d146102af576100fe565b806340e8c11e116100d157806340e8c11e146101c057806353b3194c146101ed5780636136a9061461022357806361b8ce8c14610250576100fe565b8063246f220b146101035780632c3e6963146101395780633330d8ca146101685780633c00ce5e1461019e575b600080fd5b34801561010f57600080fd5b5061012361011e366004611fbe565b61034c565b6040516101309190612197565b60405180910390f35b34801561014557600080fd5b5061015961015436600461209e565b610775565b60405161013093929190612114565b34801561017457600080fd5b5061018861018336600461209e565b6107b2565b6040516101309a99989796959493929190612451565b3480156101aa57600080fd5b506101be6101b9366004611fec565b610c4e565b005b3480156101cc57600080fd5b506101e06101db36600461209e565b610e86565b60405161013091906123af565b3480156101f957600080fd5b5061020d61020836600461209e565b610e98565b6040516101309a999897969594939291906123b8565b34801561022f57600080fd5b5061024361023e36600461209e565b611131565b6040516101309190612135565b34801561025c57600080fd5b506101e06112a0565b34801561027157600080fd5b5061027a6112a6565b60405161013091906122b0565b6101be61029536600461209e565b611327565b3480156102a657600080fd5b50610123611645565b3480156102bb57600080fd5b506101e06102ca366004611fbe565b61194f565b3480156102db57600080fd5b5061024361196a565b3480156102f057600080fd5b506101e06102ff366004611fbe565b6119e3565b34801561031057600080fd5b506101e061031f36600461209e565b6119f5565b34801561033057600080fd5b506101e0611a07565b6101be61034736600461209e565b611a0d565b6001600160a01b0381166000908152600360205260408120546060919067ffffffffffffffff81111561038f57634e487b7160e01b600052604160045260246000fd5b6040519080825280602002602001820160405280156103c857816020015b6103b5611e13565b8152602001906001900390816103ad5790505b5090506000805b60025481101561076a57846001600160a01b03166002828154811061040457634e487b7160e01b600052603260045260246000fd5b60009182526020909120600160099092020101546001600160a01b03161415610758576002818154811061044857634e487b7160e01b600052603260045260246000fd5b906000526020600020906009020160405180610140016040529081600082015481526020016001820160009054906101000a90046001600160a01b03166001600160a01b03166001600160a01b031681526020016002820180546104ab90612502565b80601f01602080910402602001604051908101604052809291908181526020018280546104d790612502565b80156105245780601f106104f957610100808354040283529160200191610524565b820191906000526020600020905b81548152906001019060200180831161050757829003601f168201915b5050505050815260200160038201805461053d90612502565b80601f016020809104026020016040519081016040528092919081815260200182805461056990612502565b80156105b65780601f1061058b576101008083540402835291602001916105b6565b820191906000526020600020905b81548152906001019060200180831161059957829003601f168201915b505050505081526020016004820180546105cf90612502565b80601f01602080910402602001604051908101604052809291908181526020018280546105fb90612502565b80156106485780601f1061061d57610100808354040283529160200191610648565b820191906000526020600020905b81548152906001019060200180831161062b57829003601f168201915b50505050508152602001600582015481526020016006820154815260200160078201805461067590612502565b80601f01602080910402602001604051908101604052809291908181526020018280546106a190612502565b80156106ee5780601f106106c3576101008083540402835291602001916106ee565b820191906000526020600020905b8154815290600101906020018083116106d157829003601f168201915b50505091835250506008919091015460ff81161515602083015261010090046001600160a01b0316604090910152835184908490811061073e57634e487b7160e01b600052603260045260246000fd5b602002602001018190525081806107549061253d565b9250505b806107628161253d565b9150506103cf565b50909150505b919050565b6001818154811061078557600080fd5b60009182526020909120600390910201805460018201546002909201546001600160a01b03909116925083565b6000806060806060600080600060606000806107cd8c611cb7565b9050600281815481106107f057634e487b7160e01b600052603260045260246000fd5b9060005260206000209060090201600001546002828154811061082357634e487b7160e01b600052603260045260246000fd5b906000526020600020906009020160010160009054906101000a90046001600160a01b03166002838154811061086957634e487b7160e01b600052603260045260246000fd5b90600052602060002090600902016002016002848154811061089b57634e487b7160e01b600052603260045260246000fd5b9060005260206000209060090201600301600285815481106108cd57634e487b7160e01b600052603260045260246000fd5b9060005260206000209060090201600401600286815481106108ff57634e487b7160e01b600052603260045260246000fd5b9060005260206000209060090201600501546002878154811061093257634e487b7160e01b600052603260045260246000fd5b9060005260206000209060090201600601546002888154811061096557634e487b7160e01b600052603260045260246000fd5b906000526020600020906009020160080160009054906101000a900460ff16600289815481106109a557634e487b7160e01b600052603260045260246000fd5b906000526020600020906009020160070160028a815481106109d757634e487b7160e01b600052603260045260246000fd5b906000526020600020906009020160080160019054906101000a90046001600160a01b0316878054610a0890612502565b80601f0160208091040260200160405190810160405280929190818152602001828054610a3490612502565b8015610a815780601f10610a5657610100808354040283529160200191610a81565b820191906000526020600020905b815481529060010190602001808311610a6457829003601f168201915b50505050509750868054610a9490612502565b80601f0160208091040260200160405190810160405280929190818152602001828054610ac090612502565b8015610b0d5780601f10610ae257610100808354040283529160200191610b0d565b820191906000526020600020905b815481529060010190602001808311610af057829003601f168201915b50505050509650858054610b2090612502565b80601f0160208091040260200160405190810160405280929190818152602001828054610b4c90612502565b8015610b995780601f10610b6e57610100808354040283529160200191610b99565b820191906000526020600020905b815481529060010190602001808311610b7c57829003601f168201915b50505050509550818054610bac90612502565b80601f0160208091040260200160405190810160405280929190818152602001828054610bd890612502565b8015610c255780601f10610bfa57610100808354040283529160200191610c25565b820191906000526020600020905b815481529060010190602001808311610c0857829003601f168201915b505050505091509a509a509a509a509a509a509a509a509a509a50509193959799509193959799565b6040805161014081018252600080548252336020808401918252938301898152606084018990526080840188905260a0840187905260c0840183905260e084018690526001610100850181905230610120860152600280549182018155909352835160099093027f405787fa12a823e0f2b7631cc41b3ba8828b3321ca811111fa75cd3aa3bb5ace810193845591517f405787fa12a823e0f2b7631cc41b3ba8828b3321ca811111fa75cd3aa3bb5acf830180546001600160a01b03929092166001600160a01b031990921691909117905551805193948594610d57937f405787fa12a823e0f2b7631cc41b3ba8828b3321ca811111fa75cd3aa3bb5ad0019290910190611e7a565b5060608201518051610d73916003840191602090910190611e7a565b5060808201518051610d8f916004840191602090910190611e7a565b5060a0820151600582015560c0820151600682015560e08201518051610dbf916007840191602090910190611e7a565b506101008281015160089290920180546101209094015160ff1990941692151592909217610100600160a81b0319166001600160a01b0390931602919091179055600080549080610e0f8361253d565b90915550506020808201516001600160a01b03166000908152600390915260408120805491610e3d8361253d565b9091555050604051309033907fb3baea71d4ddbfbb72a19472613826fbe33d620e97614dae28fd277f229fedd890610e769088906122bb565b60405180910390a3505050505050565b60046020526000908152604090205481565b60028181548110610ea857600080fd5b60009182526020909120600990910201805460018201546002830180549294506001600160a01b039091169291610ede90612502565b80601f0160208091040260200160405190810160405280929190818152602001828054610f0a90612502565b8015610f575780601f10610f2c57610100808354040283529160200191610f57565b820191906000526020600020905b815481529060010190602001808311610f3a57829003601f168201915b505050505090806003018054610f6c90612502565b80601f0160208091040260200160405190810160405280929190818152602001828054610f9890612502565b8015610fe55780601f10610fba57610100808354040283529160200191610fe5565b820191906000526020600020905b815481529060010190602001808311610fc857829003601f168201915b505050505090806004018054610ffa90612502565b80601f016020809104026020016040519081016040528092919081815260200182805461102690612502565b80156110735780601f1061104857610100808354040283529160200191611073565b820191906000526020600020905b81548152906001019060200180831161105657829003601f168201915b50505050509080600501549080600601549080600701805461109490612502565b80601f01602080910402602001604051908101604052809291908181526020018280546110c090612502565b801561110d5780601f106110e25761010080835404028352916020019161110d565b820191906000526020600020905b8154815290600101906020018083116110f057829003601f168201915b5050506008909301549192505060ff8116906001600160a01b03610100909104168a565b6000818152600460205260408120546060919067ffffffffffffffff81111561116a57634e487b7160e01b600052604160045260246000fd5b6040519080825280602002602001820160405280156111a357816020015b611190611efe565b8152602001906001900390816111885790505b5090506000805b60015481101561076a5784600182815481106111d657634e487b7160e01b600052603260045260246000fd5b906000526020600020906003020160020154141561128e576001818154811061120f57634e487b7160e01b600052603260045260246000fd5b600091825260209182902060408051606081018252600390930290910180546001600160a01b0316835260018101549383019390935260029092015491810191909152835184908490811061127457634e487b7160e01b600052603260045260246000fd5b6020026020010181905250818061128a9061253d565b9250505b806112988161253d565b9150506111aa565b60005481565b6000805b60025481101561131e57336001600160a01b0316600282815481106112df57634e487b7160e01b600052603260045260246000fd5b60009182526020909120600160099092020101546001600160a01b0316141561130c576001915050611324565b806113168161253d565b9150506112aa565b50600090505b90565b600061133282611cb7565b90506002818154811061135557634e487b7160e01b600052603260045260246000fd5b9060005260206000209060090201600501546002828154811061138857634e487b7160e01b600052603260045260246000fd5b90600052602060002090600902016006015410156113c15760405162461bcd60e51b81526004016113b89061234a565b60405180910390fd5b306001600160a01b0316600282815481106113ec57634e487b7160e01b600052603260045260246000fd5b906000526020600020906009020160010160009054906101000a90046001600160a01b03166001600160a01b03167fc677ee22205cecb2dd893a25f6fb1ead51dba3b724dbc541169086863a2ca3966002848154811061145c57634e487b7160e01b600052603260045260246000fd5b90600052602060002090600902016006015460405161147b91906123af565b60405180910390a36000600282815481106114a657634e487b7160e01b600052603260045260246000fd5b906000526020600020906009020160080160006101000a81548160ff021916908315150217905550306001600160a01b0316600282815481106114f957634e487b7160e01b600052603260045260246000fd5b906000526020600020906009020160010160009054906101000a90046001600160a01b03166001600160a01b03167fa43e0a4d4c286e55da31fef2f0f60c4887ad5eed3cac930656a11a77dc9fe7a46002848154811061156957634e487b7160e01b600052603260045260246000fd5b90600052602060002090600902016006015460405161158891906123af565b60405180910390a3600281815481106115b157634e487b7160e01b600052603260045260246000fd5b906000526020600020906009020160010160009054906101000a90046001600160a01b03166001600160a01b03166108fc6002838154811061160357634e487b7160e01b600052603260045260246000fd5b9060005260206000209060090201600601549081150290604051600060405180830381858888f19350505050158015611640573d6000803e3d6000fd5b505050565b60606002805480602002602001604051908101604052809291908181526020016000905b828210156119465760008481526020908190206040805161014081018252600986029092018054835260018101546001600160a01b031693830193909352600283018054929392918401916116bd90612502565b80601f01602080910402602001604051908101604052809291908181526020018280546116e990612502565b80156117365780601f1061170b57610100808354040283529160200191611736565b820191906000526020600020905b81548152906001019060200180831161171957829003601f168201915b5050505050815260200160038201805461174f90612502565b80601f016020809104026020016040519081016040528092919081815260200182805461177b90612502565b80156117c85780601f1061179d576101008083540402835291602001916117c8565b820191906000526020600020905b8154815290600101906020018083116117ab57829003601f168201915b505050505081526020016004820180546117e190612502565b80601f016020809104026020016040519081016040528092919081815260200182805461180d90612502565b801561185a5780601f1061182f5761010080835404028352916020019161185a565b820191906000526020600020905b81548152906001019060200180831161183d57829003601f168201915b50505050508152602001600582015481526020016006820154815260200160078201805461188790612502565b80601f01602080910402602001604051908101604052809291908181526020018280546118b390612502565b80156119005780601f106118d557610100808354040283529160200191611900565b820191906000526020600020905b8154815290600101906020018083116118e357829003601f168201915b50505091835250506008919091015460ff811615156020808401919091526101009091046001600160a01b03166040909201919091529082526001929092019101611669565b50505050905090565b6001600160a01b031660009081526003602052604090205490565b60606001805480602002602001604051908101604052809291908181526020016000905b82821015611946576000848152602090819020604080516060810182526003860290920180546001600160a01b031683526001808201548486015260029091015491830191909152908352909201910161198e565b60036020526000908152604090205481565b60009081526004602052604090205490565b60025490565b60003411611a2d5760405162461bcd60e51b81526004016113b890612315565b6000611a3882611cb7565b905060028181548110611a5b57634e487b7160e01b600052603260045260246000fd5b90600052602060002090600902016005015460028281548110611a8e57634e487b7160e01b600052603260045260246000fd5b90600052602060002090600902016006015410611abd5760405162461bcd60e51b81526004016113b8906122ce565b611ac73483611d31565b3460028281548110611ae957634e487b7160e01b600052603260045260246000fd5b90600052602060002090600902016006016000828254611b0991906124ea565b9091555050604051309033907f702ce8e2a7e3a8bc7ba50d9187386c652637c1e0a97f4c8ad4c2481e1ae0861a90611b429034906123af565b60405180910390a360028181548110611b6b57634e487b7160e01b600052603260045260246000fd5b90600052602060002090600902016005015460028281548110611b9e57634e487b7160e01b600052603260045260246000fd5b90600052602060002090600902016006015410611cb357611bf060028281548110611bd957634e487b7160e01b600052603260045260246000fd5b906000526020600020906009020160000154611327565b306001600160a01b031660028281548110611c1b57634e487b7160e01b600052603260045260246000fd5b906000526020600020906009020160010160009054906101000a90046001600160a01b03166001600160a01b03167fc677ee22205cecb2dd893a25f6fb1ead51dba3b724dbc541169086863a2ca39660028481548110611c8b57634e487b7160e01b600052603260045260246000fd5b906000526020600020906009020160060154604051611caa91906123af565b60405180910390a35b5050565b6000805b600254811015611d18578260028281548110611ce757634e487b7160e01b600052603260045260246000fd5b9060005260206000209060090201600001541415611d06579050610770565b80611d108161253d565b915050611cbb565b5060405162461bcd60e51b81526004016113b89061237f565b604080516060810182523381526020808201858152828401858152600180548082018255600091825285517fb10e2d527612073b26eecdfd717e6a320cf44b4afac2b0732d9fcbe2b7fa0cf6600390920291820180546001600160a01b0319166001600160a01b0390921691909117905592517fb10e2d527612073b26eecdfd717e6a320cf44b4afac2b0732d9fcbe2b7fa0cf784015590517fb10e2d527612073b26eecdfd717e6a320cf44b4afac2b0732d9fcbe2b7fa0cf8909201829055908152600490915291822080549192611e098361253d565b9190505550505050565b6040518061014001604052806000815260200160006001600160a01b0316815260200160608152602001606081526020016060815260200160008152602001600081526020016060815260200160001515815260200160006001600160a01b031681525090565b828054611e8690612502565b90600052602060002090601f016020900481019282611ea85760008555611eee565b82601f10611ec157805160ff1916838001178555611eee565b82800160010185558215611eee579182015b82811115611eee578251825591602001919060010190611ed3565b50611efa929150611f28565b5090565b604051806060016040528060006001600160a01b0316815260200160008152602001600081525090565b5b80821115611efa5760008155600101611f29565b600082601f830112611f4d578081fd5b813567ffffffffffffffff80821115611f6857611f6861256e565b604051601f8301601f191681016020018281118282101715611f8c57611f8c61256e565b604052828152848301602001861015611fa3578384fd5b82602086016020830137918201602001929092529392505050565b600060208284031215611fcf578081fd5b81356001600160a01b0381168114611fe5578182fd5b9392505050565b600080600080600060a08688031215612003578081fd5b853567ffffffffffffffff8082111561201a578283fd5b61202689838a01611f3d565b9650602088013591508082111561203b578283fd5b61204789838a01611f3d565b9550604088013591508082111561205c578283fd5b61206889838a01611f3d565b9450606088013593506080880135915080821115612084578283fd5b5061209188828901611f3d565b9150509295509295909350565b6000602082840312156120af578081fd5b5035919050565b6001600160a01b03169052565b15159052565b60008151808452815b818110156120ee576020818501810151868301820152016120d2565b818111156120ff5782602083870101525b50601f01601f19169290920160200192915050565b6001600160a01b039390931683526020830191909152604082015260600190565b602080825282518282018190526000919060409081850190868401855b8281101561218a57815180516001600160a01b0316855286810151878601528501518585015260609093019290850190600101612152565b5091979650505050505050565b60208082528251828201819052600091906040908185019080840286018301878501865b838110156122a257603f19898403018552815161014081518552888201516121e58a8701826120b6565b508782015181898701526121fb828701826120c9565b9150506060808301518683038288015261221583826120c9565b925050506080808301518683038288015261223083826120c9565b9250505060a080830151818701525060c080830151818701525060e0808301518683038288015261226183826120c9565b9250505061010080830151612278828801826120c3565b5050610120918201519161228e868201846120b6565b5095880195935050908601906001016121bb565b509098975050505050505050565b901515815260200190565b600060208252611fe560208301846120c9565b60208082526027908201527f7468652070726f6a65637420616c72656164792072616973656420656e6f756760408201526668206d6f6e657960c81b606082015260800190565b6020808252818101527f506c6561736520646f6e6f7465206d6f7265207468656e203020616d6f756e74604082015260600190565b6020808252818101527f70726f6a65637420646f65736e74206861766520656e6f756768206d6f6e6579604082015260600190565b602080825260169082015275141c9bda9958dd08191bd95cc81b9bdd08195e1a5cdd60521b604082015260600190565b90815260200190565b8a81526001600160a01b038a81166020830152610140604083018190526000916123e48483018d6120c9565b915083820360608501526123f8828c6120c9565b9150838203608085015261240c828b6120c9565b91508860a08501528760c085015283820360e085015261242c82886120c9565b925085151561010085015280851661012085015250509b9a5050505050505050505050565b8a81526001600160a01b038a811660208301526101406040830181905260009161247d8483018d6120c9565b91508382036060850152612491828c6120c9565b915083820360808501526124a5828b6120c9565b91508860a08501528760c085015286151560e08501528382036101008501526124ce82876120c9565b925080851661012085015250509b9a5050505050505050505050565b600082198211156124fd576124fd612558565b500190565b60028104600182168061251657607f821691505b6020821081141561253757634e487b7160e01b600052602260045260246000fd5b50919050565b600060001982141561255157612551612558565b5060010190565b634e487b7160e01b600052601160045260246000fd5b634e487b7160e01b600052604160045260246000fdfea26469706673582212209f6d499c5beb0784f2a331485fd393945f9a8691b593cde091900a39eff2c73564736f6c63430008000033",
  "immutableReferences": {},
  "source": "// SPDX-License-Identifier: MIT\npragma solidity ^0.8.0;\n\ncontract Charity {\n    \n    struct Project {\n        uint256 id;\n        address payable recipient;\n        string projectName;\n        string location;\n        string description;\n        uint256 amountNeeded;\n        uint256 amountDonated;\n        string imageUrl;\n        bool ongoing;\n        address projectAddress;\n    }\n\n    struct Donor {\n        address donorAddress;\n        uint256 amount;\n        uint256 projectID;\n    }\n    uint256 public nextId = 1;\n    Donor[] public allDonors;\n    Project[] public allProjects; //mang project.\n    mapping (address => uint256) public ownerProjectAmount;\n    mapping (uint256 => uint256) public ownerDonateAmount;\n    \n    function createDonationStruct(uint256 amount, uint256 id) internal {Donor memory newDonor = Donor(\n        {donorAddress: msg.sender,\n            amount: amount,\n            projectID: id\n        });\n        allDonors.push(newDonor);\n        ownerDonateAmount[newDonor.projectID]++;\n    }\n\n    function donate(uint256 id) public payable {\n        require(msg.value > 0, 'Please donote more then 0 amount');\n        //tm project\n        uint256 i = find(id);\n        // require(\n        //     allProjects[i].recipient != msg.sender,\n        //     'Please donate from another wallet'\n        // );\n        //require(isCharity() == false, 'cannot donate.');\n        require(allProjects[i].amountDonated < allProjects[i].amountNeeded, 'the project already raised enough money');\n        createDonationStruct(msg.value, id);\n        // this.balance.transfer(msg.value);\n        allProjects[i].amountDonated += msg.value;\n        emit Funds_Donated(msg.sender, address(this), msg.value);\n        if (allProjects[i].amountDonated >= allProjects[i].amountNeeded) {\n            //chy chc nng  kt thc d n\n            endProject(allProjects[i].id);\n            emit Goal_Reached(\n                allProjects[i].recipient,\n                address(this),\n                allProjects[i].amountDonated\n            );\n        }\n    }\n    // to  project ku gi ng h (tn, m t, s tin cn, nh)\n    function createProjectStruct(string memory name,string memory location,string memory description,uint256 amountNeeded,string memory imageUrl) public {\n        Project memory newProject = Project({\n            id: nextId,\n            recipient: payable(msg.sender),\n            projectName: name,\n            location:location,\n            description: description,\n            amountNeeded: amountNeeded,\n            amountDonated: 0,\n            imageUrl: imageUrl,\n            ongoing: true,\n            projectAddress: address(this)\n        });\n        allProjects.push(newProject);\n        nextId++;\n        ownerProjectAmount[newProject.recipient]++;\n        \n        emit Project_Created(msg.sender, address(this), description);\n    }\n    function getAllDonors()public view returns(Donor[] memory){\n        return allDonors;\n    }\n    \n    function getAllProjects() public view returns(Project[] memory){\n        return allProjects;\n    }\n    \n    function getAllOwnerDonateLength(uint256 id) public view returns (uint256) {\n        return ownerDonateAmount[id];\n    }\n    function getDonor(uint256 id)public view returns(Donor[] memory){\n        Donor[] memory result = new Donor[](ownerDonateAmount[id]);\n        uint256 count;\n        for(uint256 i=0;i<allDonors.length;i++){\n            if(allDonors[i].projectID == id){\n                result[count] = allDonors[i];\n                count++;\n            }\n          }\n      return result;\n    }\n    \n    function getAllOwnerProjectsLength(address _owner) public view returns (uint256) {\n        return ownerProjectAmount[_owner];\n    }\n    \n    \n    function getOwnerProjects(address _owner) public view returns (Project[] memory ) {\n        Project[] memory result = new Project[](ownerProjectAmount[_owner]);\n        \n      uint count=0;\n      for(uint i=0;i<allProjects.length;i++){\n          if(allProjects[i].recipient == _owner){\n              result[count]=allProjects[i];\n              count++;\n          }\n      }\n      return result;\n      \n    }\n    \n    // tm project theo id\n    function find(uint256 id) internal view returns (uint256) {\n        for (uint256 i = 0; i < allProjects.length; i++) {\n            if (allProjects[i].id == id) {\n                return i;\n            }\n        }\n        revert('Project does not exist');\n    }\n\n    function getAllProjectsLength() public view returns (uint256) {\n        return allProjects.length;\n    }\n    \n    \n    function endProject(uint256 id) public payable {\n        uint256 i = find(id);\n        require(\n            allProjects[i].amountDonated >= allProjects[i].amountNeeded,\n            'project doesnt have enough money'\n        );\n        emit Goal_Reached(\n            allProjects[i].recipient,\n            address(this),\n            allProjects[i].amountDonated\n        );\n        allProjects[i].ongoing = false;\n        emit Project_Ended(\n            allProjects[i].recipient,\n            address(this),\n            allProjects[i].amountDonated\n        );\n      \n        allProjects[i].recipient.transfer(allProjects[i].amountDonated); // sends the account balance to recipient\n    }\n\n    //xem mt project\n    function readSingleProject(uint256 id)\n        public\n        view\n        returns (\n            uint256,\n            address,\n            string memory,\n            string memory,\n            string memory,\n            uint256,\n            uint256,\n            bool,\n            string memory,\n            address\n        )\n    {\n        uint256 i = find(id);\n        return (\n            allProjects[i].id,\n            allProjects[i].recipient,\n            allProjects[i].projectName,\n            allProjects[i].location,\n            allProjects[i].description,\n            allProjects[i].amountNeeded,\n            allProjects[i].amountDonated,\n            allProjects[i].ongoing,\n            allProjects[i].imageUrl,\n            allProjects[i].projectAddress\n        );\n    }\n    // kim tra c project ca a ch ny hay khng\n    function isCharity() public view returns (bool) {\n        for (uint256 i = 0; i < allProjects.length; i++) {\n            if (allProjects[i].recipient == msg.sender) {\n                return true;\n            }\n        }\n        return false;\n    }\n    // function () external fall {\n    //     revert('not sure what you are doing');\n    // }\n\n\n\n    //     //EVENTS\n    // s kin khi hp ng c to. Hin th a ch ch s hu, a ch hp ng v m t v hot ng gy qu\n    event Project_Created(\n        address indexed _from,\n        address indexed _project,\n        string _desription\n    );\n    // s kin khi tin c tng. Hin th a ch ca nh ti tr, hp ng gy qu c tng v gi tr c tng\n    event Funds_Donated(\n        address indexed _from,\n        address indexed _contract,\n        uint256 _value\n    );\n    // s kin khi t c mc tiu gy qu. Hin th a ch ngi nhn, a ch hp ng v s tin huy ng c\n    event Goal_Reached(\n        address indexed _from,\n        address indexed _contract,\n        uint256 _value\n    );\n    // s kin khi ngi nhn / ch s hu hp ng kt thc t gy qu. Hin th a ch ch s hu, a ch hp ng v s tin b k khai\n    event Project_Ended(\n        address indexed _from,\n        address indexed _contract,\n        uint256 _value\n    );\n}",
  "sourcePath": "/Users/nguyenngocha/Desktop/project-charity-dapp/contracts/Charity.sol",
  "compiler": {
    "name": "solc",
    "version": "0.8.0+commit.c7dfd78e.Emscripten.clang"
  },
  "schemaVersion": "3.4.3",
  "updatedAt": "2021-11-14T13:43:47.886Z",
  "networkType": "ethereum",
  "devdoc": {
    "kind": "dev",
    "methods": {},
    "version": 1
  },
  "userdoc": {
    "kind": "user",
    "methods": {},
    "version": 1
  }
}