{
  "contractName": "Charity",
  "abi": [
    {
      "anonymous": false,
      "inputs": [
        {
          "indexed": true,
          "internalType": "address",
          "name": "_from",
          "type": "address"
        },
        {
          "indexed": true,
          "internalType": "address",
          "name": "_contract",
          "type": "address"
        },
        {
          "indexed": false,
          "internalType": "uint256",
          "name": "_value",
          "type": "uint256"
        }
      ],
      "name": "Funds_Donated",
      "type": "event"
    },
    {
      "anonymous": false,
      "inputs": [
        {
          "indexed": true,
          "internalType": "address",
          "name": "_from",
          "type": "address"
        },
        {
          "indexed": true,
          "internalType": "address",
          "name": "_contract",
          "type": "address"
        },
        {
          "indexed": false,
          "internalType": "uint256",
          "name": "_value",
          "type": "uint256"
        }
      ],
      "name": "Goal_Reached",
      "type": "event"
    },
    {
      "anonymous": false,
      "inputs": [
        {
          "indexed": true,
          "internalType": "address",
          "name": "_from",
          "type": "address"
        },
        {
          "indexed": true,
          "internalType": "address",
          "name": "_project",
          "type": "address"
        },
        {
          "indexed": false,
          "internalType": "string",
          "name": "_desription",
          "type": "string"
        }
      ],
      "name": "Project_Created",
      "type": "event"
    },
    {
      "anonymous": false,
      "inputs": [
        {
          "indexed": true,
          "internalType": "address",
          "name": "_from",
          "type": "address"
        },
        {
          "indexed": true,
          "internalType": "address",
          "name": "_contract",
          "type": "address"
        },
        {
          "indexed": false,
          "internalType": "uint256",
          "name": "_value",
          "type": "uint256"
        }
      ],
      "name": "Project_Ended",
      "type": "event"
    },
    {
      "inputs": [
        {
          "internalType": "uint256",
          "name": "",
          "type": "uint256"
        }
      ],
      "name": "IDDonateAmount",
      "outputs": [
        {
          "internalType": "uint256",
          "name": "",
          "type": "uint256"
        }
      ],
      "stateMutability": "view",
      "type": "function",
      "constant": true
    },
    {
      "inputs": [
        {
          "internalType": "uint256",
          "name": "",
          "type": "uint256"
        }
      ],
      "name": "IDReceiverAmount",
      "outputs": [
        {
          "internalType": "uint256",
          "name": "",
          "type": "uint256"
        }
      ],
      "stateMutability": "view",
      "type": "function",
      "constant": true
    },
    {
      "inputs": [
        {
          "internalType": "uint256",
          "name": "",
          "type": "uint256"
        }
      ],
      "name": "IDReceiverAmountTake",
      "outputs": [
        {
          "internalType": "uint256",
          "name": "",
          "type": "uint256"
        }
      ],
      "stateMutability": "view",
      "type": "function",
      "constant": true
    },
    {
      "inputs": [
        {
          "internalType": "bool",
          "name": "",
          "type": "bool"
        }
      ],
      "name": "ReceiverAmountTake",
      "outputs": [
        {
          "internalType": "uint256",
          "name": "",
          "type": "uint256"
        }
      ],
      "stateMutability": "view",
      "type": "function",
      "constant": true
    },
    {
      "inputs": [
        {
          "internalType": "uint256",
          "name": "",
          "type": "uint256"
        }
      ],
      "name": "allDonors",
      "outputs": [
        {
          "internalType": "address",
          "name": "donorAddress",
          "type": "address"
        },
        {
          "internalType": "uint256",
          "name": "amount",
          "type": "uint256"
        },
        {
          "internalType": "uint256",
          "name": "projectID",
          "type": "uint256"
        }
      ],
      "stateMutability": "view",
      "type": "function",
      "constant": true
    },
    {
      "inputs": [
        {
          "internalType": "uint256",
          "name": "",
          "type": "uint256"
        }
      ],
      "name": "allProjects",
      "outputs": [
        {
          "internalType": "uint256",
          "name": "id",
          "type": "uint256"
        },
        {
          "internalType": "address payable",
          "name": "program_creator",
          "type": "address"
        },
        {
          "internalType": "string",
          "name": "projectName",
          "type": "string"
        },
        {
          "internalType": "string",
          "name": "location",
          "type": "string"
        },
        {
          "internalType": "string",
          "name": "description",
          "type": "string"
        },
        {
          "internalType": "uint256",
          "name": "amountNeeded",
          "type": "uint256"
        },
        {
          "internalType": "uint256",
          "name": "amountDonated",
          "type": "uint256"
        },
        {
          "internalType": "string",
          "name": "imageUrl",
          "type": "string"
        },
        {
          "internalType": "string",
          "name": "imageUrl1",
          "type": "string"
        },
        {
          "internalType": "bool",
          "name": "ongoing",
          "type": "bool"
        },
        {
          "internalType": "address payable",
          "name": "recipient",
          "type": "address"
        },
        {
          "internalType": "uint32",
          "name": "readyTime",
          "type": "uint32"
        }
      ],
      "stateMutability": "view",
      "type": "function",
      "constant": true
    },
    {
      "inputs": [
        {
          "internalType": "uint256",
          "name": "",
          "type": "uint256"
        }
      ],
      "name": "allReceviver",
      "outputs": [
        {
          "internalType": "address payable",
          "name": "receiverAddress",
          "type": "address"
        },
        {
          "internalType": "uint256",
          "name": "projectID",
          "type": "uint256"
        },
        {
          "internalType": "string",
          "name": "nameR",
          "type": "string"
        },
        {
          "internalType": "string",
          "name": "locationR",
          "type": "string"
        },
        {
          "internalType": "string",
          "name": "descriptionR",
          "type": "string"
        },
        {
          "internalType": "string",
          "name": "CMND",
          "type": "string"
        },
        {
          "internalType": "string",
          "name": "imageUrlR",
          "type": "string"
        },
        {
          "internalType": "string",
          "name": "imageUrl1R",
          "type": "string"
        },
        {
          "internalType": "bool",
          "name": "take",
          "type": "bool"
        },
        {
          "internalType": "bool",
          "name": "asked",
          "type": "bool"
        }
      ],
      "stateMutability": "view",
      "type": "function",
      "constant": true
    },
    {
      "inputs": [],
      "name": "cooldownTime",
      "outputs": [
        {
          "internalType": "uint256",
          "name": "",
          "type": "uint256"
        }
      ],
      "stateMutability": "view",
      "type": "function",
      "constant": true
    },
    {
      "inputs": [],
      "name": "end",
      "outputs": [
        {
          "internalType": "uint256",
          "name": "",
          "type": "uint256"
        }
      ],
      "stateMutability": "view",
      "type": "function",
      "constant": true
    },
    {
      "inputs": [],
      "name": "nextId",
      "outputs": [
        {
          "internalType": "uint256",
          "name": "",
          "type": "uint256"
        }
      ],
      "stateMutability": "view",
      "type": "function",
      "constant": true
    },
    {
      "inputs": [
        {
          "internalType": "address",
          "name": "",
          "type": "address"
        }
      ],
      "name": "ownerProjectAmount",
      "outputs": [
        {
          "internalType": "uint256",
          "name": "",
          "type": "uint256"
        }
      ],
      "stateMutability": "view",
      "type": "function",
      "constant": true
    },
    {
      "inputs": [
        {
          "internalType": "uint256",
          "name": "id",
          "type": "uint256"
        }
      ],
      "name": "donate",
      "outputs": [],
      "stateMutability": "payable",
      "type": "function",
      "payable": true
    },
    {
      "inputs": [
        {
          "internalType": "string",
          "name": "name",
          "type": "string"
        },
        {
          "internalType": "string",
          "name": "location",
          "type": "string"
        },
        {
          "internalType": "string",
          "name": "description",
          "type": "string"
        },
        {
          "internalType": "uint256",
          "name": "amountNeeded",
          "type": "uint256"
        },
        {
          "internalType": "string",
          "name": "imageUrl",
          "type": "string"
        },
        {
          "internalType": "string",
          "name": "imageUrl1",
          "type": "string"
        },
        {
          "internalType": "address",
          "name": "recipient",
          "type": "address"
        }
      ],
      "name": "createProjectStruct",
      "outputs": [],
      "stateMutability": "nonpayable",
      "type": "function"
    },
    {
      "inputs": [],
      "name": "getAllDonors",
      "outputs": [
        {
          "components": [
            {
              "internalType": "address",
              "name": "donorAddress",
              "type": "address"
            },
            {
              "internalType": "uint256",
              "name": "amount",
              "type": "uint256"
            },
            {
              "internalType": "uint256",
              "name": "projectID",
              "type": "uint256"
            }
          ],
          "internalType": "struct Charity.Donor[]",
          "name": "",
          "type": "tuple[]"
        }
      ],
      "stateMutability": "view",
      "type": "function",
      "constant": true
    },
    {
      "inputs": [],
      "name": "getAllProjects",
      "outputs": [
        {
          "components": [
            {
              "internalType": "uint256",
              "name": "id",
              "type": "uint256"
            },
            {
              "internalType": "address payable",
              "name": "program_creator",
              "type": "address"
            },
            {
              "internalType": "string",
              "name": "projectName",
              "type": "string"
            },
            {
              "internalType": "string",
              "name": "location",
              "type": "string"
            },
            {
              "internalType": "string",
              "name": "description",
              "type": "string"
            },
            {
              "internalType": "uint256",
              "name": "amountNeeded",
              "type": "uint256"
            },
            {
              "internalType": "uint256",
              "name": "amountDonated",
              "type": "uint256"
            },
            {
              "internalType": "string",
              "name": "imageUrl",
              "type": "string"
            },
            {
              "internalType": "string",
              "name": "imageUrl1",
              "type": "string"
            },
            {
              "internalType": "bool",
              "name": "ongoing",
              "type": "bool"
            },
            {
              "internalType": "address payable",
              "name": "recipient",
              "type": "address"
            },
            {
              "internalType": "uint32",
              "name": "readyTime",
              "type": "uint32"
            }
          ],
          "internalType": "struct Charity.Project[]",
          "name": "",
          "type": "tuple[]"
        }
      ],
      "stateMutability": "view",
      "type": "function",
      "constant": true
    },
    {
      "inputs": [
        {
          "internalType": "uint256",
          "name": "id",
          "type": "uint256"
        }
      ],
      "name": "getAllidDonateLength",
      "outputs": [
        {
          "internalType": "uint256",
          "name": "",
          "type": "uint256"
        }
      ],
      "stateMutability": "view",
      "type": "function",
      "constant": true
    },
    {
      "inputs": [
        {
          "internalType": "uint256",
          "name": "id",
          "type": "uint256"
        }
      ],
      "name": "getDonor",
      "outputs": [
        {
          "components": [
            {
              "internalType": "address",
              "name": "donorAddress",
              "type": "address"
            },
            {
              "internalType": "uint256",
              "name": "amount",
              "type": "uint256"
            },
            {
              "internalType": "uint256",
              "name": "projectID",
              "type": "uint256"
            }
          ],
          "internalType": "struct Charity.Donor[]",
          "name": "",
          "type": "tuple[]"
        }
      ],
      "stateMutability": "view",
      "type": "function",
      "constant": true
    },
    {
      "inputs": [
        {
          "internalType": "address",
          "name": "_owner",
          "type": "address"
        }
      ],
      "name": "getAllOwnerProjectsLength",
      "outputs": [
        {
          "internalType": "uint256",
          "name": "",
          "type": "uint256"
        }
      ],
      "stateMutability": "view",
      "type": "function",
      "constant": true
    },
    {
      "inputs": [
        {
          "internalType": "address",
          "name": "_owner",
          "type": "address"
        }
      ],
      "name": "getOwnerProjects",
      "outputs": [
        {
          "components": [
            {
              "internalType": "uint256",
              "name": "id",
              "type": "uint256"
            },
            {
              "internalType": "address payable",
              "name": "program_creator",
              "type": "address"
            },
            {
              "internalType": "string",
              "name": "projectName",
              "type": "string"
            },
            {
              "internalType": "string",
              "name": "location",
              "type": "string"
            },
            {
              "internalType": "string",
              "name": "description",
              "type": "string"
            },
            {
              "internalType": "uint256",
              "name": "amountNeeded",
              "type": "uint256"
            },
            {
              "internalType": "uint256",
              "name": "amountDonated",
              "type": "uint256"
            },
            {
              "internalType": "string",
              "name": "imageUrl",
              "type": "string"
            },
            {
              "internalType": "string",
              "name": "imageUrl1",
              "type": "string"
            },
            {
              "internalType": "bool",
              "name": "ongoing",
              "type": "bool"
            },
            {
              "internalType": "address payable",
              "name": "recipient",
              "type": "address"
            },
            {
              "internalType": "uint32",
              "name": "readyTime",
              "type": "uint32"
            }
          ],
          "internalType": "struct Charity.Project[]",
          "name": "",
          "type": "tuple[]"
        }
      ],
      "stateMutability": "view",
      "type": "function",
      "constant": true
    },
    {
      "inputs": [],
      "name": "getAllProjectsLength",
      "outputs": [
        {
          "internalType": "uint256",
          "name": "",
          "type": "uint256"
        }
      ],
      "stateMutability": "view",
      "type": "function",
      "constant": true
    },
    {
      "inputs": [
        {
          "internalType": "uint256",
          "name": "id",
          "type": "uint256"
        }
      ],
      "name": "endProject",
      "outputs": [],
      "stateMutability": "nonpayable",
      "type": "function"
    },
    {
      "inputs": [
        {
          "internalType": "uint256",
          "name": "id",
          "type": "uint256"
        }
      ],
      "name": "pay",
      "outputs": [
        {
          "internalType": "uint256",
          "name": "ethers",
          "type": "uint256"
        }
      ],
      "stateMutability": "payable",
      "type": "function",
      "payable": true
    },
    {
      "inputs": [
        {
          "internalType": "uint256",
          "name": "id",
          "type": "uint256"
        }
      ],
      "name": "readSingleProject",
      "outputs": [
        {
          "internalType": "uint256",
          "name": "",
          "type": "uint256"
        },
        {
          "internalType": "address",
          "name": "",
          "type": "address"
        },
        {
          "internalType": "string",
          "name": "",
          "type": "string"
        },
        {
          "internalType": "string",
          "name": "",
          "type": "string"
        },
        {
          "internalType": "string",
          "name": "",
          "type": "string"
        },
        {
          "internalType": "uint256",
          "name": "",
          "type": "uint256"
        },
        {
          "internalType": "uint256",
          "name": "",
          "type": "uint256"
        },
        {
          "internalType": "bool",
          "name": "",
          "type": "bool"
        },
        {
          "internalType": "string",
          "name": "",
          "type": "string"
        },
        {
          "internalType": "address",
          "name": "",
          "type": "address"
        }
      ],
      "stateMutability": "view",
      "type": "function",
      "constant": true
    },
    {
      "inputs": [],
      "name": "isCharity",
      "outputs": [
        {
          "internalType": "bool",
          "name": "",
          "type": "bool"
        }
      ],
      "stateMutability": "view",
      "type": "function",
      "constant": true
    },
    {
      "inputs": [
        {
          "internalType": "uint256",
          "name": "id",
          "type": "uint256"
        },
        {
          "internalType": "string",
          "name": "nameR",
          "type": "string"
        },
        {
          "internalType": "string",
          "name": "locationR",
          "type": "string"
        },
        {
          "internalType": "string",
          "name": "descriptionR",
          "type": "string"
        },
        {
          "internalType": "string",
          "name": "CMND",
          "type": "string"
        },
        {
          "internalType": "string",
          "name": "imageUrlR",
          "type": "string"
        },
        {
          "internalType": "string",
          "name": "imageUrl1R",
          "type": "string"
        }
      ],
      "name": "createRegistered_recipientStruct",
      "outputs": [],
      "stateMutability": "nonpayable",
      "type": "function"
    },
    {
      "inputs": [],
      "name": "getAllReceiver",
      "outputs": [
        {
          "components": [
            {
              "internalType": "address payable",
              "name": "receiverAddress",
              "type": "address"
            },
            {
              "internalType": "uint256",
              "name": "projectID",
              "type": "uint256"
            },
            {
              "internalType": "string",
              "name": "nameR",
              "type": "string"
            },
            {
              "internalType": "string",
              "name": "locationR",
              "type": "string"
            },
            {
              "internalType": "string",
              "name": "descriptionR",
              "type": "string"
            },
            {
              "internalType": "string",
              "name": "CMND",
              "type": "string"
            },
            {
              "internalType": "string",
              "name": "imageUrlR",
              "type": "string"
            },
            {
              "internalType": "string",
              "name": "imageUrl1R",
              "type": "string"
            },
            {
              "internalType": "bool",
              "name": "take",
              "type": "bool"
            },
            {
              "internalType": "bool",
              "name": "asked",
              "type": "bool"
            }
          ],
          "internalType": "struct Charity.Receiver[]",
          "name": "",
          "type": "tuple[]"
        }
      ],
      "stateMutability": "view",
      "type": "function",
      "constant": true
    },
    {
      "inputs": [
        {
          "internalType": "uint256",
          "name": "id",
          "type": "uint256"
        }
      ],
      "name": "getIdReceiver",
      "outputs": [
        {
          "components": [
            {
              "internalType": "address payable",
              "name": "receiverAddress",
              "type": "address"
            },
            {
              "internalType": "uint256",
              "name": "projectID",
              "type": "uint256"
            },
            {
              "internalType": "string",
              "name": "nameR",
              "type": "string"
            },
            {
              "internalType": "string",
              "name": "locationR",
              "type": "string"
            },
            {
              "internalType": "string",
              "name": "descriptionR",
              "type": "string"
            },
            {
              "internalType": "string",
              "name": "CMND",
              "type": "string"
            },
            {
              "internalType": "string",
              "name": "imageUrlR",
              "type": "string"
            },
            {
              "internalType": "string",
              "name": "imageUrl1R",
              "type": "string"
            },
            {
              "internalType": "bool",
              "name": "take",
              "type": "bool"
            },
            {
              "internalType": "bool",
              "name": "asked",
              "type": "bool"
            }
          ],
          "internalType": "struct Charity.Receiver[]",
          "name": "",
          "type": "tuple[]"
        }
      ],
      "stateMutability": "view",
      "type": "function",
      "constant": true
    },
    {
      "inputs": [],
      "name": "SetTake",
      "outputs": [
        {
          "components": [
            {
              "internalType": "address payable",
              "name": "receiverAddress",
              "type": "address"
            },
            {
              "internalType": "uint256",
              "name": "projectID",
              "type": "uint256"
            },
            {
              "internalType": "string",
              "name": "nameR",
              "type": "string"
            },
            {
              "internalType": "string",
              "name": "locationR",
              "type": "string"
            },
            {
              "internalType": "string",
              "name": "descriptionR",
              "type": "string"
            },
            {
              "internalType": "string",
              "name": "CMND",
              "type": "string"
            },
            {
              "internalType": "string",
              "name": "imageUrlR",
              "type": "string"
            },
            {
              "internalType": "string",
              "name": "imageUrl1R",
              "type": "string"
            },
            {
              "internalType": "bool",
              "name": "take",
              "type": "bool"
            },
            {
              "internalType": "bool",
              "name": "asked",
              "type": "bool"
            }
          ],
          "internalType": "struct Charity.Receiver[]",
          "name": "",
          "type": "tuple[]"
        }
      ],
      "stateMutability": "view",
      "type": "function",
      "constant": true
    },
    {
      "inputs": [
        {
          "internalType": "uint256",
          "name": "id",
          "type": "uint256"
        }
      ],
      "name": "getIdRTake",
      "outputs": [
        {
          "components": [
            {
              "internalType": "address payable",
              "name": "receiverAddress",
              "type": "address"
            },
            {
              "internalType": "uint256",
              "name": "projectID",
              "type": "uint256"
            },
            {
              "internalType": "string",
              "name": "nameR",
              "type": "string"
            },
            {
              "internalType": "string",
              "name": "locationR",
              "type": "string"
            },
            {
              "internalType": "string",
              "name": "descriptionR",
              "type": "string"
            },
            {
              "internalType": "string",
              "name": "CMND",
              "type": "string"
            },
            {
              "internalType": "string",
              "name": "imageUrlR",
              "type": "string"
            },
            {
              "internalType": "string",
              "name": "imageUrl1R",
              "type": "string"
            },
            {
              "internalType": "bool",
              "name": "take",
              "type": "bool"
            },
            {
              "internalType": "bool",
              "name": "asked",
              "type": "bool"
            }
          ],
          "internalType": "struct Charity.Receiver[]",
          "name": "",
          "type": "tuple[]"
        }
      ],
      "stateMutability": "view",
      "type": "function",
      "constant": true
    },
    {
      "inputs": [
        {
          "internalType": "uint256",
          "name": "id",
          "type": "uint256"
        },
        {
          "internalType": "address",
          "name": "a",
          "type": "address"
        }
      ],
      "name": "approveReceiver",
      "outputs": [
        {
          "internalType": "bool",
          "name": "b",
          "type": "bool"
        }
      ],
      "stateMutability": "nonpayable",
      "type": "function"
    },
    {
      "inputs": [
        {
          "internalType": "address",
          "name": "a",
          "type": "address"
        }
      ],
      "name": "readSingleReceiver",
      "outputs": [
        {
          "internalType": "address",
          "name": "",
          "type": "address"
        },
        {
          "internalType": "uint256",
          "name": "",
          "type": "uint256"
        },
        {
          "internalType": "string",
          "name": "",
          "type": "string"
        },
        {
          "internalType": "string",
          "name": "",
          "type": "string"
        },
        {
          "internalType": "string",
          "name": "",
          "type": "string"
        },
        {
          "internalType": "string",
          "name": "",
          "type": "string"
        },
        {
          "internalType": "string",
          "name": "",
          "type": "string"
        },
        {
          "internalType": "string",
          "name": "",
          "type": "string"
        },
        {
          "internalType": "bool",
          "name": "",
          "type": "bool"
        }
      ],
      "stateMutability": "view",
      "type": "function",
      "constant": true
    }
  ],
  "bytecode": "0x6080604052600160005561025860015534801561001b57600080fd5b506154568061002b6000396000f3fe6080604052600436106101d85760003560e01c806380d0382911610102578063b319c6b711610095578063ecb85d3411610064578063ecb85d3414610597578063efbe1c1c146105b7578063efd5bf8b146105cc578063f14faf6f146105e1576101d8565b8063b319c6b71461051a578063bc5edcdf1461052f578063be88322b14610564578063c290d69114610584576101d8565b8063a1ff4814116100d1578063a1ff48141461049a578063a74bb4ad146104ba578063a7a51ad5146104da578063aa8c508f146104fa576101d8565b806380d038291461043057806396d7e11d1461044557806398e36b04146104655780639ba473461461047a576101d8565b80635529274e1161017a5780636d7932d1116101495780636d7932d1146103ac578063744bc369146103ce5780637a5bdeb1146103f05780637ad82ad214610410576101d8565b80635529274e1461031f578063561ff027146103555780636136a9061461036a57806361b8ce8c14610397576101d8565b806336a44c69116101b657806336a44c691461027857806338d43403146102a557806346fa52a2146102c757806353b3194c146102e7576101d8565b8063246f220b146101dd5780632c3e6963146102135780633330d8ca14610242575b600080fd5b3480156101e957600080fd5b506101fd6101f83660046148fa565b6105f4565b60405161020a9190614da3565b60405180910390f35b34801561021f57600080fd5b5061023361022e366004614a21565b610ac1565b60405161020a93929190614d20565b34801561024e57600080fd5b5061026261025d366004614a21565b610afe565b60405161020a9a999897969594939291906152cd565b34801561028457600080fd5b50610298610293366004614a21565b610f9a565b60405161020a91906151fe565b3480156102b157600080fd5b506102ba610fac565b60405161020a9190614eed565b3480156102d357600080fd5b506102ba6102e2366004614a21565b6114e8565b3480156102f357600080fd5b50610307610302366004614a21565b6119f4565b60405161020a9c9b9a99989796959493929190615207565b34801561032b57600080fd5b5061033f61033a366004614a21565b611d29565b60405161020a9a99989796959493929190614bc5565b34801561036157600080fd5b506102ba6120ca565b34801561037657600080fd5b5061038a610385366004614a21565b6124df565b60405161020a9190614d41565b3480156103a357600080fd5b5061029861264e565b3480156103b857600080fd5b506103c1612654565b60405161020a9190615016565b3480156103da57600080fd5b506103ee6103e9366004614a21565b6126d4565b005b3480156103fc57600080fd5b506103ee61040b366004614a64565b612a10565b34801561041c57600080fd5b506103c161042b366004614a39565b612ef8565b34801561043c57600080fd5b506101fd61310a565b34801561045157600080fd5b506102986104603660046148fa565b6134af565b34801561047157600080fd5b5061038a6134ca565b34801561048657600080fd5b506102986104953660046148fa565b613543565b3480156104a657600080fd5b506102986104b536600461491b565b613555565b3480156104c657600080fd5b506102986104d5366004614a21565b613567565b3480156104e657600080fd5b506102ba6104f5366004614a21565b613579565b34801561050657600080fd5b50610298610515366004614a21565b613748565b34801561052657600080fd5b5061029861375a565b34801561053b57600080fd5b5061054f61054a3660046148fa565b613760565b60405161020a99989796959493929190614c76565b34801561057057600080fd5b506103ee61057f36600461493b565b613cc0565b610298610592366004614a21565b614033565b3480156105a357600080fd5b506102986105b2366004614a21565b614358565b3480156105c357600080fd5b5061029861436a565b3480156105d857600080fd5b50610298614370565b6103ee6105ef366004614a21565b614376565b6001600160a01b0381166000908152600660205260408120546060919067ffffffffffffffff81111561063757634e487b7160e01b600052604160045260246000fd5b60405190808252806020026020018201604052801561067057816020015b61065d6146c4565b8152602001906001900390816106555790505b5090506000805b600454811015610ab657846001600160a01b0316600482815481106106ac57634e487b7160e01b600052603260045260246000fd5b600091825260209091206001600a9092020101546001600160a01b03161415610aa457600481815481106106f057634e487b7160e01b600052603260045260246000fd5b90600052602060002090600a020160405180610180016040529081600082015481526020016001820160009054906101000a90046001600160a01b03166001600160a01b03166001600160a01b031681526020016002820180546107539061539e565b80601f016020809104026020016040519081016040528092919081815260200182805461077f9061539e565b80156107cc5780601f106107a1576101008083540402835291602001916107cc565b820191906000526020600020905b8154815290600101906020018083116107af57829003601f168201915b505050505081526020016003820180546107e59061539e565b80601f01602080910402602001604051908101604052809291908181526020018280546108119061539e565b801561085e5780601f106108335761010080835404028352916020019161085e565b820191906000526020600020905b81548152906001019060200180831161084157829003601f168201915b505050505081526020016004820180546108779061539e565b80601f01602080910402602001604051908101604052809291908181526020018280546108a39061539e565b80156108f05780601f106108c5576101008083540402835291602001916108f0565b820191906000526020600020905b8154815290600101906020018083116108d357829003601f168201915b50505050508152602001600582015481526020016006820154815260200160078201805461091d9061539e565b80601f01602080910402602001604051908101604052809291908181526020018280546109499061539e565b80156109965780601f1061096b57610100808354040283529160200191610996565b820191906000526020600020905b81548152906001019060200180831161097957829003601f168201915b505050505081526020016008820180546109af9061539e565b80601f01602080910402602001604051908101604052809291908181526020018280546109db9061539e565b8015610a285780601f106109fd57610100808354040283529160200191610a28565b820191906000526020600020905b815481529060010190602001808311610a0b57829003601f168201915b50505091835250506009919091015460ff81161515602083015261010081046001600160a01b03166040830152600160a81b900463ffffffff166060909101528351849084908110610a8a57634e487b7160e01b600052603260045260246000fd5b60200260200101819052508180610aa0906153d9565b9250505b80610aae816153d9565b915050610677565b50909150505b919050565b60038181548110610ad157600080fd5b60009182526020909120600390910201805460018201546002909201546001600160a01b03909116925083565b600080606080606060008060006060600080610b198c6144dc565b905060048181548110610b3c57634e487b7160e01b600052603260045260246000fd5b90600052602060002090600a02016000015460048281548110610b6f57634e487b7160e01b600052603260045260246000fd5b90600052602060002090600a020160010160009054906101000a90046001600160a01b031660048381548110610bb557634e487b7160e01b600052603260045260246000fd5b90600052602060002090600a020160020160048481548110610be757634e487b7160e01b600052603260045260246000fd5b90600052602060002090600a020160030160048581548110610c1957634e487b7160e01b600052603260045260246000fd5b90600052602060002090600a020160040160048681548110610c4b57634e487b7160e01b600052603260045260246000fd5b90600052602060002090600a02016005015460048781548110610c7e57634e487b7160e01b600052603260045260246000fd5b90600052602060002090600a02016006015460048881548110610cb157634e487b7160e01b600052603260045260246000fd5b90600052602060002090600a020160090160009054906101000a900460ff1660048981548110610cf157634e487b7160e01b600052603260045260246000fd5b90600052602060002090600a020160070160048a81548110610d2357634e487b7160e01b600052603260045260246000fd5b90600052602060002090600a020160090160019054906101000a90046001600160a01b0316878054610d549061539e565b80601f0160208091040260200160405190810160405280929190818152602001828054610d809061539e565b8015610dcd5780601f10610da257610100808354040283529160200191610dcd565b820191906000526020600020905b815481529060010190602001808311610db057829003601f168201915b50505050509750868054610de09061539e565b80601f0160208091040260200160405190810160405280929190818152602001828054610e0c9061539e565b8015610e595780601f10610e2e57610100808354040283529160200191610e59565b820191906000526020600020905b815481529060010190602001808311610e3c57829003601f168201915b50505050509650858054610e6c9061539e565b80601f0160208091040260200160405190810160405280929190818152602001828054610e989061539e565b8015610ee55780601f10610eba57610100808354040283529160200191610ee5565b820191906000526020600020905b815481529060010190602001808311610ec857829003601f168201915b50505050509550818054610ef89061539e565b80601f0160208091040260200160405190810160405280929190818152602001828054610f249061539e565b8015610f715780601f10610f4657610100808354040283529160200191610f71565b820191906000526020600020905b815481529060010190602001808311610f5457829003601f168201915b505050505091509a509a509a509a509a509a509a509a509a509a50509193959799509193959799565b600a6020526000908152604090205481565b6001600090815260096020527f92e85d02570a8092d09a6e3a57665bc3815a2699a4074001bf1ccabf660f5a365460609190819067ffffffffffffffff81111561100657634e487b7160e01b600052604160045260246000fd5b60405190808252806020026020018201604052801561103f57816020015b61102c61473f565b8152602001906001900390816110245790505b50905060005b6005548110156114e0576005818154811061107057634e487b7160e01b600052603260045260246000fd5b600091825260209091206008600990920201015460ff161515600114156114ce57600581815481106110b257634e487b7160e01b600052603260045260246000fd5b9060005260206000209060090201604051806101400160405290816000820160009054906101000a90046001600160a01b03166001600160a01b03166001600160a01b03168152602001600182015481526020016002820180546111159061539e565b80601f01602080910402602001604051908101604052809291908181526020018280546111419061539e565b801561118e5780601f106111635761010080835404028352916020019161118e565b820191906000526020600020905b81548152906001019060200180831161117157829003601f168201915b505050505081526020016003820180546111a79061539e565b80601f01602080910402602001604051908101604052809291908181526020018280546111d39061539e565b80156112205780601f106111f557610100808354040283529160200191611220565b820191906000526020600020905b81548152906001019060200180831161120357829003601f168201915b505050505081526020016004820180546112399061539e565b80601f01602080910402602001604051908101604052809291908181526020018280546112659061539e565b80156112b25780601f10611287576101008083540402835291602001916112b2565b820191906000526020600020905b81548152906001019060200180831161129557829003601f168201915b505050505081526020016005820180546112cb9061539e565b80601f01602080910402602001604051908101604052809291908181526020018280546112f79061539e565b80156113445780601f1061131957610100808354040283529160200191611344565b820191906000526020600020905b81548152906001019060200180831161132757829003601f168201915b5050505050815260200160068201805461135d9061539e565b80601f01602080910402602001604051908101604052809291908181526020018280546113899061539e565b80156113d65780601f106113ab576101008083540402835291602001916113d6565b820191906000526020600020905b8154815290600101906020018083116113b957829003601f168201915b505050505081526020016007820180546113ef9061539e565b80601f016020809104026020016040519081016040528092919081815260200182805461141b9061539e565b80156114685780601f1061143d57610100808354040283529160200191611468565b820191906000526020600020905b81548152906001019060200180831161144b57829003601f168201915b50505091835250506008919091015460ff8082161515602084015261010090910416151560409091015282518390859081106114b457634e487b7160e01b600052603260045260246000fd5b602002602001018190525082806114ca906153d9565b9350505b806114d8816153d9565b915050611045565b509150505b90565b6000818152600860205260408120546060919067ffffffffffffffff81111561152157634e487b7160e01b600052604160045260246000fd5b60405190808252806020026020018201604052801561155a57816020015b61154761473f565b81526020019060019003908161153f5790505b5090506000805b600554811015610ab657846005828154811061158d57634e487b7160e01b600052603260045260246000fd5b90600052602060002090600902016001015414156119e257600581815481106115c657634e487b7160e01b600052603260045260246000fd5b9060005260206000209060090201604051806101400160405290816000820160009054906101000a90046001600160a01b03166001600160a01b03166001600160a01b03168152602001600182015481526020016002820180546116299061539e565b80601f01602080910402602001604051908101604052809291908181526020018280546116559061539e565b80156116a25780601f10611677576101008083540402835291602001916116a2565b820191906000526020600020905b81548152906001019060200180831161168557829003601f168201915b505050505081526020016003820180546116bb9061539e565b80601f01602080910402602001604051908101604052809291908181526020018280546116e79061539e565b80156117345780601f1061170957610100808354040283529160200191611734565b820191906000526020600020905b81548152906001019060200180831161171757829003601f168201915b5050505050815260200160048201805461174d9061539e565b80601f01602080910402602001604051908101604052809291908181526020018280546117799061539e565b80156117c65780601f1061179b576101008083540402835291602001916117c6565b820191906000526020600020905b8154815290600101906020018083116117a957829003601f168201915b505050505081526020016005820180546117df9061539e565b80601f016020809104026020016040519081016040528092919081815260200182805461180b9061539e565b80156118585780601f1061182d57610100808354040283529160200191611858565b820191906000526020600020905b81548152906001019060200180831161183b57829003601f168201915b505050505081526020016006820180546118719061539e565b80601f016020809104026020016040519081016040528092919081815260200182805461189d9061539e565b80156118ea5780601f106118bf576101008083540402835291602001916118ea565b820191906000526020600020905b8154815290600101906020018083116118cd57829003601f168201915b505050505081526020016007820180546119039061539e565b80601f016020809104026020016040519081016040528092919081815260200182805461192f9061539e565b801561197c5780601f106119515761010080835404028352916020019161197c565b820191906000526020600020905b81548152906001019060200180831161195f57829003601f168201915b50505091835250506008919091015460ff8082161515602084015261010090910416151560409091015283518490849081106119c857634e487b7160e01b600052603260045260246000fd5b602002602001018190525081806119de906153d9565b9250505b806119ec816153d9565b915050611561565b60048181548110611a0457600080fd5b60009182526020909120600a90910201805460018201546002830180549294506001600160a01b039091169291611a3a9061539e565b80601f0160208091040260200160405190810160405280929190818152602001828054611a669061539e565b8015611ab35780601f10611a8857610100808354040283529160200191611ab3565b820191906000526020600020905b815481529060010190602001808311611a9657829003601f168201915b505050505090806003018054611ac89061539e565b80601f0160208091040260200160405190810160405280929190818152602001828054611af49061539e565b8015611b415780601f10611b1657610100808354040283529160200191611b41565b820191906000526020600020905b815481529060010190602001808311611b2457829003601f168201915b505050505090806004018054611b569061539e565b80601f0160208091040260200160405190810160405280929190818152602001828054611b829061539e565b8015611bcf5780601f10611ba457610100808354040283529160200191611bcf565b820191906000526020600020905b815481529060010190602001808311611bb257829003601f168201915b505050505090806005015490806006015490806007018054611bf09061539e565b80601f0160208091040260200160405190810160405280929190818152602001828054611c1c9061539e565b8015611c695780601f10611c3e57610100808354040283529160200191611c69565b820191906000526020600020905b815481529060010190602001808311611c4c57829003601f168201915b505050505090806008018054611c7e9061539e565b80601f0160208091040260200160405190810160405280929190818152602001828054611caa9061539e565b8015611cf75780601f10611ccc57610100808354040283529160200191611cf7565b820191906000526020600020905b815481529060010190602001808311611cda57829003601f168201915b5050506009909301549192505060ff8116906001600160a01b036101008204169063ffffffff600160a81b909104168c565b60058181548110611d3957600080fd5b60009182526020909120600990910201805460018201546002830180546001600160a01b039093169450909291611d6f9061539e565b80601f0160208091040260200160405190810160405280929190818152602001828054611d9b9061539e565b8015611de85780601f10611dbd57610100808354040283529160200191611de8565b820191906000526020600020905b815481529060010190602001808311611dcb57829003601f168201915b505050505090806003018054611dfd9061539e565b80601f0160208091040260200160405190810160405280929190818152602001828054611e299061539e565b8015611e765780601f10611e4b57610100808354040283529160200191611e76565b820191906000526020600020905b815481529060010190602001808311611e5957829003601f168201915b505050505090806004018054611e8b9061539e565b80601f0160208091040260200160405190810160405280929190818152602001828054611eb79061539e565b8015611f045780601f10611ed957610100808354040283529160200191611f04565b820191906000526020600020905b815481529060010190602001808311611ee757829003601f168201915b505050505090806005018054611f199061539e565b80601f0160208091040260200160405190810160405280929190818152602001828054611f459061539e565b8015611f925780601f10611f6757610100808354040283529160200191611f92565b820191906000526020600020905b815481529060010190602001808311611f7557829003601f168201915b505050505090806006018054611fa79061539e565b80601f0160208091040260200160405190810160405280929190818152602001828054611fd39061539e565b80156120205780601f10611ff557610100808354040283529160200191612020565b820191906000526020600020905b81548152906001019060200180831161200357829003601f168201915b5050505050908060070180546120359061539e565b80601f01602080910402602001604051908101604052809291908181526020018280546120619061539e565b80156120ae5780601f10612083576101008083540402835291602001916120ae565b820191906000526020600020905b81548152906001019060200180831161209157829003601f168201915b5050506008909301549192505060ff808216916101009004168a565b60606005805480602002602001604051908101604052809291908181526020016000905b828210156124d657600084815260209081902060408051610140810182526009860290920180546001600160a01b03168352600181015493830193909352600283018054929392918401916121429061539e565b80601f016020809104026020016040519081016040528092919081815260200182805461216e9061539e565b80156121bb5780601f10612190576101008083540402835291602001916121bb565b820191906000526020600020905b81548152906001019060200180831161219e57829003601f168201915b505050505081526020016003820180546121d49061539e565b80601f01602080910402602001604051908101604052809291908181526020018280546122009061539e565b801561224d5780601f106122225761010080835404028352916020019161224d565b820191906000526020600020905b81548152906001019060200180831161223057829003601f168201915b505050505081526020016004820180546122669061539e565b80601f01602080910402602001604051908101604052809291908181526020018280546122929061539e565b80156122df5780601f106122b4576101008083540402835291602001916122df565b820191906000526020600020905b8154815290600101906020018083116122c257829003601f168201915b505050505081526020016005820180546122f89061539e565b80601f01602080910402602001604051908101604052809291908181526020018280546123249061539e565b80156123715780601f1061234657610100808354040283529160200191612371565b820191906000526020600020905b81548152906001019060200180831161235457829003601f168201915b5050505050815260200160068201805461238a9061539e565b80601f01602080910402602001604051908101604052809291908181526020018280546123b69061539e565b80156124035780601f106123d857610100808354040283529160200191612403565b820191906000526020600020905b8154815290600101906020018083116123e657829003601f168201915b5050505050815260200160078201805461241c9061539e565b80601f01602080910402602001604051908101604052809291908181526020018280546124489061539e565b80156124955780601f1061246a57610100808354040283529160200191612495565b820191906000526020600020905b81548152906001019060200180831161247857829003601f168201915b50505091835250506008919091015460ff808216151560208085019190915261010090920416151560409092019190915290825260019290920191016120ee565b50505050905090565b6000818152600760205260408120546060919067ffffffffffffffff81111561251857634e487b7160e01b600052604160045260246000fd5b60405190808252806020026020018201604052801561255157816020015b61253e61479f565b8152602001906001900390816125365790505b5090506000805b600354811015610ab657846003828154811061258457634e487b7160e01b600052603260045260246000fd5b906000526020600020906003020160020154141561263c57600381815481106125bd57634e487b7160e01b600052603260045260246000fd5b600091825260209182902060408051606081018252600390930290910180546001600160a01b0316835260018101549383019390935260029092015491810191909152835184908490811061262257634e487b7160e01b600052603260045260246000fd5b60200260200101819052508180612638906153d9565b9250505b80612646816153d9565b915050612558565b60005481565b6000805b6004548110156126cc57336001600160a01b03166004828154811061268d57634e487b7160e01b600052603260045260246000fd5b600091825260209091206001600a9092020101546001600160a01b031614156126ba5760019150506114e5565b806126c4816153d9565b915050612658565b506000905090565b60006126df826144dc565b90506004818154811061270257634e487b7160e01b600052603260045260246000fd5b60009182526020909120600a90910201600101546001600160a01b031633146127465760405162461bcd60e51b815260040161273d90615135565b60405180910390fd5b306001600160a01b03166004828154811061277157634e487b7160e01b600052603260045260246000fd5b90600052602060002090600a020160010160009054906101000a90046001600160a01b03166001600160a01b03167fc677ee22205cecb2dd893a25f6fb1ead51dba3b724dbc541169086863a2ca396600484815481106127e157634e487b7160e01b600052603260045260246000fd5b90600052602060002090600a02016006015460405161280091906151fe565b60405180910390a360006004828154811061282b57634e487b7160e01b600052603260045260246000fd5b90600052602060002090600a020160090160006101000a81548160ff021916908315150217905550426004828154811061287557634e487b7160e01b600052603260045260246000fd5b90600052602060002090600a020160090160156101000a81548163ffffffff021916908363ffffffff16021790555060005b6005548110156129495782600582815481106128d357634e487b7160e01b600052603260045260246000fd5b90600052602060002090600902016001015414156129375760006005828154811061290e57634e487b7160e01b600052603260045260246000fd5b906000526020600020906009020160080160016101000a81548160ff0219169083151502179055505b80612941816153d9565b9150506128a7565b50306001600160a01b03166004828154811061297557634e487b7160e01b600052603260045260246000fd5b90600052602060002090600a020160010160009054906101000a90046001600160a01b03166001600160a01b03167fa43e0a4d4c286e55da31fef2f0f60c4887ad5eed3cac930656a11a77dc9fe7a4600484815481106129e557634e487b7160e01b600052603260045260246000fd5b90600052602060002090600a020160060154604051612a0491906151fe565b60405180910390a35050565b604080516101408101825233815260208101899052908101879052606081018690526080810185905260a0810184905260c0810183905260e08101829052600061010082018190526001610120830152612a69896144dc565b9050336001600160a01b031660048281548110612a9657634e487b7160e01b600052603260045260246000fd5b600091825260209091206001600a9092020101546001600160a01b03161415612ad15760405162461bcd60e51b815260040161273d90615108565b336001600160a01b031660048281548110612afc57634e487b7160e01b600052603260045260246000fd5b60009182526020909120600a909102016009015461010090046001600160a01b03161415612b3c5760405162461bcd60e51b815260040161273d90615108565b4260048281548110612b5e57634e487b7160e01b600052603260045260246000fd5b60009182526020909120600a9091020160090154600160a81b900463ffffffff1611612bca57600060048281548110612ba757634e487b7160e01b600052603260045260246000fd5b60009182526020909120600a90910201600901805460ff19169115159190911790555b60048181548110612beb57634e487b7160e01b600052603260045260246000fd5b600091825260209091206009600a90920201015460ff16612c1e5760405162461bcd60e51b815260040161273d9061507a565b60055460009067ffffffffffffffff811115612c4a57634e487b7160e01b600052604160045260246000fd5b604051908082528060200260200182016040528015612c8357816020015b612c7061473f565b815260200190600190039081612c685790505b509050612c8e6120ca565b905060005b8151811015612d4d57336001600160a01b0316828281518110612cc657634e487b7160e01b600052603260045260246000fd5b6020026020010151600001516001600160a01b03161415612d3b5760058181548110612d0257634e487b7160e01b600052603260045260246000fd5b6000918252602090912060099091020160080154610100900460ff1615612d3b5760405162461bcd60e51b815260040161273d90615197565b80612d45816153d9565b915050612c93565b506005805460018101825560009190915283517f036b6384b5eca791c62761152d0c79bb0604c104a5fb6f4eb0703f3154bb3db0600990920291820180546001600160a01b0319166001600160a01b039092169190911781556020808601517f036b6384b5eca791c62761152d0c79bb0604c104a5fb6f4eb0703f3154bb3db1840155604086015180518794612e09937f036b6384b5eca791c62761152d0c79bb0604c104a5fb6f4eb0703f3154bb3db29091019201906147c9565b5060608201518051612e259160038401916020909101906147c9565b5060808201518051612e419160048401916020909101906147c9565b5060a08201518051612e5d9160058401916020909101906147c9565b5060c08201518051612e799160068401916020909101906147c9565b5060e08201518051612e959160078401916020909101906147c9565b50610100828101516008928301805461012090950151151590920261ff001991151560ff19909516949094171692909217909155602080850151600090815291905260408120805491612ee7836153d9565b919050555050505050505050505050565b600080612f04846144dc565b905060048181548110612f2757634e487b7160e01b600052603260045260246000fd5b60009182526020909120600a90910201600101546001600160a01b03163314612f625760405162461bcd60e51b815260040161273d90615135565b6000612f6d84614556565b905060058181548110612f9057634e487b7160e01b600052603260045260246000fd5b600091825260209091206008600990920201015460ff1615612fc45760405162461bcd60e51b815260040161273d906150a9565b600160058281548110612fe757634e487b7160e01b600052603260045260246000fd5b906000526020600020906009020160080160006101000a81548160ff021916908315150217905550600960006005838154811061303457634e487b7160e01b600052603260045260246000fd5b600091825260208083206008600990930201919091015460ff16151583528201929092526040018120805491613069836153d9565b9190505550600a60006005838154811061309357634e487b7160e01b600052603260045260246000fd5b906000526020600020906009020160010154815260200190815260200160002060008154809291906130c4906153d9565b9190505550600581815481106130ea57634e487b7160e01b600052603260045260246000fd5b600091825260209091206009909102016008015460ff1695945050505050565b60606004805480602002602001604051908101604052809291908181526020016000905b828210156124d65760008481526020908190206040805161018081018252600a86029092018054835260018101546001600160a01b031693830193909352600283018054929392918401916131829061539e565b80601f01602080910402602001604051908101604052809291908181526020018280546131ae9061539e565b80156131fb5780601f106131d0576101008083540402835291602001916131fb565b820191906000526020600020905b8154815290600101906020018083116131de57829003601f168201915b505050505081526020016003820180546132149061539e565b80601f01602080910402602001604051908101604052809291908181526020018280546132409061539e565b801561328d5780601f106132625761010080835404028352916020019161328d565b820191906000526020600020905b81548152906001019060200180831161327057829003601f168201915b505050505081526020016004820180546132a69061539e565b80601f01602080910402602001604051908101604052809291908181526020018280546132d29061539e565b801561331f5780601f106132f45761010080835404028352916020019161331f565b820191906000526020600020905b81548152906001019060200180831161330257829003601f168201915b50505050508152602001600582015481526020016006820154815260200160078201805461334c9061539e565b80601f01602080910402602001604051908101604052809291908181526020018280546133789061539e565b80156133c55780601f1061339a576101008083540402835291602001916133c5565b820191906000526020600020905b8154815290600101906020018083116133a857829003601f168201915b505050505081526020016008820180546133de9061539e565b80601f016020809104026020016040519081016040528092919081815260200182805461340a9061539e565b80156134575780601f1061342c57610100808354040283529160200191613457565b820191906000526020600020905b81548152906001019060200180831161343a57829003601f168201915b50505091835250506009919091015460ff8116151560208084019190915261010082046001600160a01b03166040840152600160a81b90910463ffffffff16606090920191909152908252600192909201910161312e565b6001600160a01b031660009081526006602052604090205490565b60606003805480602002602001604051908101604052809291908181526020016000905b828210156124d6576000848152602090819020604080516060810182526003860290920180546001600160a01b03168352600180820154848601526002909101549183019190915290835290920191016134ee565b60066020526000908152604090205481565b60096020526000908152604090205481565b60076020526000908152604090205481565b6001600090815260096020527f92e85d02570a8092d09a6e3a57665bc3815a2699a4074001bf1ccabf660f5a36546060919067ffffffffffffffff8111156135d157634e487b7160e01b600052604160045260246000fd5b60405190808252806020026020018201604052801561360a57816020015b6135f761473f565b8152602001906001900390816135ef5790505b509050613615610fac565b6000848152600a602052604081205491925090819067ffffffffffffffff81111561365057634e487b7160e01b600052604160045260246000fd5b60405190808252806020026020018201604052801561368957816020015b61367661473f565b81526020019060019003908161366e5790505b50905060005b835181101561373f57858482815181106136b957634e487b7160e01b600052603260045260246000fd5b602002602001015160200151141561372d578381815181106136eb57634e487b7160e01b600052603260045260246000fd5b602002602001015182848151811061371357634e487b7160e01b600052603260045260246000fd5b60200260200101819052508280613729906153d9565b9350505b80613737816153d9565b91505061368f565b50949350505050565b60009081526007602052604090205490565b60015481565b6000806060806060806060806000806137788b614556565b90506005818154811061379b57634e487b7160e01b600052603260045260246000fd5b6000918252602090912060099091020154600580546001600160a01b0390921691839081106137da57634e487b7160e01b600052603260045260246000fd5b9060005260206000209060090201600101546005838154811061380d57634e487b7160e01b600052603260045260246000fd5b90600052602060002090600902016002016005848154811061383f57634e487b7160e01b600052603260045260246000fd5b90600052602060002090600902016003016005858154811061387157634e487b7160e01b600052603260045260246000fd5b9060005260206000209060090201600401600586815481106138a357634e487b7160e01b600052603260045260246000fd5b9060005260206000209060090201600501600587815481106138d557634e487b7160e01b600052603260045260246000fd5b90600052602060002090600902016006016005888154811061390757634e487b7160e01b600052603260045260246000fd5b90600052602060002090600902016007016005898154811061393957634e487b7160e01b600052603260045260246000fd5b906000526020600020906009020160080160009054906101000a900460ff168680546139649061539e565b80601f01602080910402602001604051908101604052809291908181526020018280546139909061539e565b80156139dd5780601f106139b2576101008083540402835291602001916139dd565b820191906000526020600020905b8154815290600101906020018083116139c057829003601f168201915b505050505096508580546139f09061539e565b80601f0160208091040260200160405190810160405280929190818152602001828054613a1c9061539e565b8015613a695780601f10613a3e57610100808354040283529160200191613a69565b820191906000526020600020905b815481529060010190602001808311613a4c57829003601f168201915b50505050509550848054613a7c9061539e565b80601f0160208091040260200160405190810160405280929190818152602001828054613aa89061539e565b8015613af55780601f10613aca57610100808354040283529160200191613af5565b820191906000526020600020905b815481529060010190602001808311613ad857829003601f168201915b50505050509450838054613b089061539e565b80601f0160208091040260200160405190810160405280929190818152602001828054613b349061539e565b8015613b815780601f10613b5657610100808354040283529160200191613b81565b820191906000526020600020905b815481529060010190602001808311613b6457829003601f168201915b50505050509350828054613b949061539e565b80601f0160208091040260200160405190810160405280929190818152602001828054613bc09061539e565b8015613c0d5780601f10613be257610100808354040283529160200191613c0d565b820191906000526020600020905b815481529060010190602001808311613bf057829003601f168201915b50505050509250818054613c209061539e565b80601f0160208091040260200160405190810160405280929190818152602001828054613c4c9061539e565b8015613c995780601f10613c6e57610100808354040283529160200191613c99565b820191906000526020600020905b815481529060010190602001808311613c7c57829003601f168201915b50505050509150995099509950995099509950995099509950509193959799909294969850565b60006040518061018001604052806000548152602001336001600160a01b0316815260200189815260200188815260200187815260200186815260200160008152602001858152602001848152602001600115158152602001836001600160a01b0316815260200160015442613d369190615366565b63ffffffff1690529050336001600160a01b0383161415613d695760405162461bcd60e51b815260040161273d90615034565b6004805460018101825560009190915281517f8a35acfbc15ff81a39ae7d344fd709f28e8600b4aa8c65c6b64bfe7fe36bd19b600a9092029182019081556020808401517f8a35acfbc15ff81a39ae7d344fd709f28e8600b4aa8c65c6b64bfe7fe36bd19c840180546001600160a01b0319166001600160a01b03909216919091179055604084015180518594613e26937f8a35acfbc15ff81a39ae7d344fd709f28e8600b4aa8c65c6b64bfe7fe36bd19d9091019201906147c9565b5060608201518051613e429160038401916020909101906147c9565b5060808201518051613e5e9160048401916020909101906147c9565b5060a0820151600582015560c0820151600682015560e08201518051613e8e9160078401916020909101906147c9565b506101008201518051613eab9160088401916020909101906147c9565b50610120820151600990910180546101408401516101609094015163ffffffff16600160a81b0263ffffffff60a81b196001600160a01b0390951661010002610100600160a81b031994151560ff199093169290921793909316179290921617905560008054613f1a906144dc565b90504260048281548110613f3e57634e487b7160e01b600052603260045260246000fd5b60009182526020909120600a9091020160090154600160a81b900463ffffffff1611613faa57600060048281548110613f8757634e487b7160e01b600052603260045260246000fd5b60009182526020909120600a90910201600901805460ff19169115159190911790555b600080549080613fb9836153d9565b90915550506020808301516001600160a01b03166000908152600690915260408120805491613fe7836153d9565b9091555050604051309033907fb3baea71d4ddbfbb72a19472613826fbe33d620e97614dae28fd277f229fedd890614020908b90615021565b60405180910390a3505050505050505050565b60008061403f836144dc565b90506004818154811061406257634e487b7160e01b600052603260045260246000fd5b60009182526020909120600a90910201600101546001600160a01b0316331461409d5760405162461bcd60e51b815260040161273d90615135565b6000838152600a602052604081205467ffffffffffffffff8111156140d257634e487b7160e01b600052604160045260246000fd5b60405190808252806020026020018201604052801561410b57816020015b6140f861473f565b8152602001906001900390816140f05790505b50905061411784613579565b80519091508061420f576004838154811061414257634e487b7160e01b600052603260045260246000fd5b90600052602060002090600a020160090160019054906101000a90046001600160a01b03166001600160a01b03166108fc6004858154811061419457634e487b7160e01b600052603260045260246000fd5b90600052602060002090600a0201600601549081150290604051600060405180830381858888f193505050501580156141d1573d6000803e3d6000fd5b50600483815481106141f357634e487b7160e01b600052603260045260246000fd5b90600052602060002090600a0201600601549350505050610abc565b600061421c826001615366565b6004858154811061423d57634e487b7160e01b600052603260045260246000fd5b90600052602060002090600a020160060154614259919061537e565b90506004848154811061427c57634e487b7160e01b600052603260045260246000fd5b600091825260208220600a9190910201600901546040516101009091046001600160a01b0316916108fc841502918491818181858888f193505050501580156142c9573d6000803e3d6000fd5b5060005b8281101561434c578381815181106142f557634e487b7160e01b600052603260045260246000fd5b6020026020010151600001516001600160a01b03166108fc839081150290604051600060405180830381858888f19350505050158015614339573d6000803e3d6000fd5b5080614344816153d9565b9150506142cd565b509350610abc92505050565b60086020526000908152604090205481565b60025481565b60045490565b600034116143965760405162461bcd60e51b815260040161273d906150d3565b60006143a1826144dc565b9050600481815481106143c457634e487b7160e01b600052603260045260246000fd5b600091825260209091206009600a90920201015460ff166143f75760405162461bcd60e51b815260040161273d9061507a565b61440134836145e1565b346004828154811061442357634e487b7160e01b600052603260045260246000fd5b90600052602060002090600a020160060160008282546144439190615366565b92505081905550426004828154811061446c57634e487b7160e01b600052603260045260246000fd5b60009182526020909120600a9091020160090154600160a81b900463ffffffff16116144d8576000600482815481106144b557634e487b7160e01b600052603260045260246000fd5b60009182526020909120600a90910201600901805460ff19169115159190911790555b5050565b6000805b60045481101561453d57826004828154811061450c57634e487b7160e01b600052603260045260246000fd5b90600052602060002090600a020160000154141561452b579050610abc565b80614535816153d9565b9150506144e0565b5060405162461bcd60e51b815260040161273d906151ce565b6000805b6005548110156145c857826001600160a01b03166005828154811061458f57634e487b7160e01b600052603260045260246000fd5b60009182526020909120600990910201546001600160a01b031614156145b6579050610abc565b806145c0816153d9565b91505061455a565b5060405162461bcd60e51b815260040161273d90615160565b60408051606081018252338152602080820185815282840185815260038054600181018255600082815286517fc2575a0e9e593c00f959f8c92f12db2869c3395a3b0502d05e2516446f71f85b9290930291820180546001600160a01b0319166001600160a01b039094169390931790925592517fc2575a0e9e593c00f959f8c92f12db2869c3395a3b0502d05e2516446f71f85c84015590517fc2575a0e9e593c00f959f8c92f12db2869c3395a3b0502d05e2516446f71f85d9092018290559081526007909152918220805491926146ba836153d9565b9190505550505050565b6040518061018001604052806000815260200160006001600160a01b031681526020016060815260200160608152602001606081526020016000815260200160008152602001606081526020016060815260200160001515815260200160006001600160a01b03168152602001600063ffffffff1681525090565b60405180610140016040528060006001600160a01b03168152602001600081526020016060815260200160608152602001606081526020016060815260200160608152602001606081526020016000151581526020016000151581525090565b604051806060016040528060006001600160a01b0316815260200160008152602001600081525090565b8280546147d59061539e565b90600052602060002090601f0160209004810192826147f7576000855561483d565b82601f1061481057805160ff191683800117855561483d565b8280016001018555821561483d579182015b8281111561483d578251825591602001919060010190614822565b5061484992915061484d565b5090565b5b80821115614849576000815560010161484e565b80356001600160a01b0381168114610abc57600080fd5b600082601f830112614889578081fd5b813567ffffffffffffffff808211156148a4576148a461540a565b604051601f8301601f1916810160200182811182821017156148c8576148c861540a565b6040528281528483016020018610156148df578384fd5b82602086016020830137918201602001929092529392505050565b60006020828403121561490b578081fd5b61491482614862565b9392505050565b60006020828403121561492c578081fd5b81358015158114614914578182fd5b600080600080600080600060e0888a031215614955578283fd5b873567ffffffffffffffff8082111561496c578485fd5b6149788b838c01614879565b985060208a013591508082111561498d578485fd5b6149998b838c01614879565b975060408a01359150808211156149ae578485fd5b6149ba8b838c01614879565b965060608a0135955060808a01359150808211156149d6578485fd5b6149e28b838c01614879565b945060a08a01359150808211156149f7578384fd5b50614a048a828b01614879565b925050614a1360c08901614862565b905092959891949750929550565b600060208284031215614a32578081fd5b5035919050565b60008060408385031215614a4b578182fd5b82359150614a5b60208401614862565b90509250929050565b600080600080600080600060e0888a031215614a7e578283fd5b87359650602088013567ffffffffffffffff80821115614a9c578485fd5b614aa88b838c01614879565b975060408a0135915080821115614abd578485fd5b614ac98b838c01614879565b965060608a0135915080821115614ade578485fd5b614aea8b838c01614879565b955060808a0135915080821115614aff578485fd5b614b0b8b838c01614879565b945060a08a0135915080821115614b20578384fd5b614b2c8b838c01614879565b935060c08a0135915080821115614b41578283fd5b50614b4e8a828b01614879565b91505092959891949750929550565b6001600160a01b03169052565b15159052565b60008151808452815b81811015614b9557602081850181015186830182015201614b79565b81811115614ba65782602083870101525b50601f01601f19169290920160200192915050565b63ffffffff169052565b6001600160a01b038b168152602081018a905261014060408201819052600090614bf18382018c614b70565b90508281036060840152614c05818b614b70565b90508281036080840152614c19818a614b70565b905082810360a0840152614c2d8189614b70565b905082810360c0840152614c418188614b70565b905082810360e0840152614c558187614b70565b94151561010084015250509015156101209091015298975050505050505050565b6001600160a01b038a1681526020810189905261012060408201819052600090614ca28382018b614b70565b90508281036060840152614cb6818a614b70565b90508281036080840152614cca8189614b70565b905082810360a0840152614cde8188614b70565b905082810360c0840152614cf28187614b70565b905082810360e0840152614d068186614b70565b9150508215156101008301529a9950505050505050505050565b6001600160a01b039390931683526020830191909152604082015260600190565b602080825282518282018190526000919060409081850190868401855b82811015614d9657815180516001600160a01b0316855286810151878601528501518585015260609093019290850190600101614d5e565b5091979650505050505050565b60208082528251828201819052600091906040908185019080840286018301878501865b83811015614edf57603f1989840301855281516101808151855288820151614df18a870182614b5d565b50878201518189870152614e0782870182614b70565b91505060608083015186830382880152614e218382614b70565b9250505060808083015186830382880152614e3c8382614b70565b9250505060a080830151818701525060c080830151818701525060e08083015186830382880152614e6d8382614b70565b925050506101008083015186830382880152614e898382614b70565b9250505061012080830151614ea082880182614b6a565b505061014080830151614eb582880182614b5d565b50506101609182015191614ecb86820184614bbb565b509588019593505090860190600101614dc7565b509098975050505050505050565b60208082528251828201819052600091906040908185019080840286018301878501865b83811015614edf57603f198984030185528151610140614f32858351614b5d565b8882015189860152878201518189870152614f4f82870182614b70565b91505060608083015186830382880152614f698382614b70565b9250505060808083015186830382880152614f848382614b70565b9250505060a08083015186830382880152614f9f8382614b70565b9250505060c08083015186830382880152614fba8382614b70565b9250505060e08083015186830382880152614fd58382614b70565b9250505061010080830151614fec82880182614b6a565b5050610120918201519161500286820184614b6a565b509588019593505090860190600101614f11565b901515815260200190565b6000602082526149146020830184614b70565b60208082526026908201527f646f6573206e6f7420616c6c6f7720796f7520746f20626520746865207265636040820152651a5c1a595b9d60d21b606082015260800190565b602080825260159082015274151a19481c1c9bd9dc985b481a5cc818db1bdcd959605a1b604082015260600190565b60208082526010908201526f1059191c995cdcc8185c1c1c9bdd995960821b604082015260600190565b6020808252818101527f506c6561736520646f6e6f7465206d6f7265207468656e203020616d6f756e74604082015260600190565b6020808252601390820152723cb7ba9031b0b73737ba103932b3b4b9ba32b960691b604082015260600190565b6020808252601190820152701e5bdd481a185d99481b9bc81c9a59da1d607a1b604082015260600190565b60208082526017908201527f526563656976657220646f6573206e6f74206578697374000000000000000000604082015260600190565b6020808252601a908201527f796f752061726520616c72656164792072656769737465726564000000000000604082015260600190565b602080825260169082015275141c9bda9958dd08191bd95cc81b9bdd08195e1a5cdd60521b604082015260600190565b90815260200190565b8c81526001600160a01b038c166020820152610180604082018190526000906152328382018e614b70565b90508281036060840152615246818d614b70565b9050828103608084015261525a818c614b70565b90508960a08401528860c084015282810360e084015261527a8189614b70565b905082810361010084015261528f8188614b70565b9150506152a0610120830186614b6a565b6152ae610140830185614b5d565b6152bc610160830184614bbb565b9d9c50505050505050505050505050565b8a81526001600160a01b038a81166020830152610140604083018190526000916152f98483018d614b70565b9150838203606085015261530d828c614b70565b91508382036080850152615321828b614b70565b91508860a08501528760c085015286151560e085015283820361010085015261534a8287614b70565b925080851661012085015250509b9a5050505050505050505050565b60008219821115615379576153796153f4565b500190565b60008261539957634e487b7160e01b81526012600452602481fd5b500490565b6002810460018216806153b257607f821691505b602082108114156153d357634e487b7160e01b600052602260045260246000fd5b50919050565b60006000198214156153ed576153ed6153f4565b5060010190565b634e487b7160e01b600052601160045260246000fd5b634e487b7160e01b600052604160045260246000fdfea264697066735822122094485ec115658afdb5d545b88d4963694907590fb96fefe1e38e3a191e6b852264736f6c63430008000033",
  "immutableReferences": {},
  "source": "// SPDX-License-Identifier: MIT\npragma solidity ^0.8.0;\n\ncontract Charity {\n    \n    struct Project {\n        uint256 id;\n        address payable program_creator;\n        string projectName;\n        string location;\n        string description;\n        uint256 amountNeeded;\n        uint256 amountDonated;\n        string imageUrl;\n        string imageUrl1;\n        bool ongoing;\n        address payable recipient;\n        uint32 readyTime;\n    }\n\n    struct Donor {\n        address donorAddress;\n        uint256 amount;\n        uint256 projectID;\n    }\n    \n    struct Receiver {\n        address payable receiverAddress;\n        uint256 projectID;\n        string nameR;\n        string locationR;\n        string descriptionR;\n        string CMND;\n        string imageUrlR;\n        string imageUrl1R;\n        bool take;\n        bool asked;\n    }\n    uint256 public nextId = 1;\n    uint public cooldownTime = 10 minutes;\n    uint public end;\n    Donor[] public allDonors;   // mang donate\n    Project[] public allProjects; //mang project\n    Receiver[] public allReceviver; //mang nguoi nhan\n    mapping (address => uint256) public ownerProjectAmount;\n    mapping (uint256 => uint256) public IDDonateAmount;\n    mapping (uint256 => uint256) public IDReceiverAmount;\n    mapping (bool => uint256) public ReceiverAmountTake;\n    mapping (uint256 => uint256) public IDReceiverAmountTake;\n    \n    function createDonationStruct(uint256 amount, uint256 id) internal {Donor memory newDonor = Donor(\n        {donorAddress: msg.sender,\n            amount: amount,\n            projectID: id\n        });\n        allDonors.push(newDonor);\n        IDDonateAmount[newDonor.projectID]++;\n    }\n\n    function donate(uint256 id) public payable {\n        require(msg.value > 0, 'Please donote more then 0 amount');\n        //tm project\n\n        uint256 i = find(id);\n\n        require(allProjects[i].ongoing != false,'The program is closed');\n        createDonationStruct(msg.value, id);\n        allProjects[i].amountDonated += msg.value;\n\n        if(allProjects[i].readyTime <= block.timestamp){\n            allProjects[i].ongoing = false;\n        }  \n    }\n    \n    // to  project ku gi ng h (tn, m t, s tin cn, nh)\n    function createProjectStruct(string memory name,string memory location,string memory description,uint256 amountNeeded,string memory imageUrl,string memory imageUrl1,address recipient) public {\n        Project memory newProject = Project({\n            id: nextId,\n            program_creator: payable(msg.sender),\n            projectName: name,\n            location:location,\n            description: description,\n            amountNeeded: amountNeeded,\n            amountDonated: 0,\n            imageUrl: imageUrl,\n            imageUrl1: imageUrl1,\n            ongoing: true,\n            recipient: payable(recipient),\n            readyTime: uint32(block.timestamp + cooldownTime)\n        });\n        \n        require(msg.sender != recipient,'does not allow you to be the recipient');\n        allProjects.push(newProject);\n        uint256 i = find(nextId);\n        if(allProjects[i].readyTime <= block.timestamp){\n            allProjects[i].ongoing = false;\n        }  \n        nextId++;\n        \n        ownerProjectAmount[newProject.program_creator]++;        \n        emit Project_Created(msg.sender, address(this), description);\n    }\n    function getAllDonors()public view returns(Donor[] memory){\n        return allDonors;\n    }\n    \n    function getAllProjects() public view returns(Project[] memory){\n        return allProjects;\n    }\n    \n    function getAllidDonateLength(uint256 id) public view returns (uint256) {\n        return IDDonateAmount[id];\n    }\n    \n    //danh sch ng h ca mt chng trnh\n    function getDonor(uint256 id)public view returns(Donor[] memory){\n        Donor[] memory result = new Donor[](IDDonateAmount[id]);\n        uint256 count;\n        for(uint256 i=0;i<allDonors.length;i++){\n            if(allDonors[i].projectID == id){\n                result[count] = allDonors[i];\n                count++;\n            }\n          }\n      return result;\n    }\n    \n    function getAllOwnerProjectsLength(address _owner) public view returns (uint256) {\n        return ownerProjectAmount[_owner];\n    }\n    \n    // danh sch chng trnh ca mt ti khon \n    function getOwnerProjects(address _owner) public view returns (Project[] memory ) {\n        Project[] memory result = new Project[](ownerProjectAmount[_owner]);\n        \n        uint count=0;\n        for(uint i=0;i<allProjects.length;i++){\n            if(allProjects[i].program_creator == _owner){\n                result[count]=allProjects[i];\n                count++;\n            }\n        }\n        return result;  \n        }\n    \n    \n    // tm project theo id\n    function find(uint256 id) internal view returns (uint256) {\n        for (uint256 i = 0; i < allProjects.length; i++) {\n            if (allProjects[i].id == id) {\n                return i;\n            }\n        }\n        revert('Project does not exist');\n    }\n    // tm receiver theo address\n    function findAdd(address a) internal view returns (uint256) {\n        for (uint256 i = 0; i < allReceviver.length; i++) {\n            if (allReceviver[i].receiverAddress == a) {\n                return i;\n            }\n        }\n        revert('Receiver does not exist');\n    }\n\n\n    function _isReady(Project storage _project) internal view returns (bool) {\n        return (_project.readyTime <= block.timestamp);\n    }\n\n    function getAllProjectsLength() public view returns (uint256) {\n        return allProjects.length;\n    }\n    \n    // dng chng trnh \n    function endProject(uint256 id) public {\n        uint256 i = find(id);\n        require(msg.sender == allProjects[i].program_creator,'you have no right');\n        emit Goal_Reached(\n            allProjects[i].program_creator,\n            address(this),\n            allProjects[i].amountDonated\n        );\n        allProjects[i].ongoing = false;\n        allProjects[i].readyTime = uint32(block.timestamp);\n        \n        for(uint256 p; p < allReceviver.length;p++){\n            if(allReceviver[p].projectID == id){\n                allReceviver[p].asked = false;\n            }\n\n        }\n        emit Project_Ended(\n            allProjects[i].program_creator,\n            address(this),\n            allProjects[i].amountDonated\n        );\n        \n    }\n\n    // chuyn tin cho ngi th hng\n    function pay(uint256 id)public payable returns(uint256 ethers){\n        uint256 i = find(id);\n        require(msg.sender == allProjects[i].program_creator,'you have no right');\n        Receiver[] memory result = new Receiver[](IDReceiverAmountTake[id]);\n        result = getIdRTake(id);\n        uint256 a = result.length;\n        if(a==0){\n            allProjects[i].recipient.transfer(allProjects[i].amountDonated);\n            return allProjects[i].amountDonated;\n        }else{\n            uint b = allProjects[i].amountDonated / (a+1);\n            allProjects[i].recipient.transfer(b);\n            for(uint256 p=0; p<a; p++){\n            result[p].receiverAddress.transfer(b);\n            }\n            return b;\n        } \n    }\n\n    //xem mt project\n    function readSingleProject(uint256 id)\n        public\n        view\n        returns (\n            uint256,\n            address,\n            string memory,\n            string memory,\n            string memory,\n            uint256,\n            uint256,\n            bool,\n            string memory,\n            address\n        )\n    {\n        uint256 i = find(id);\n        return (\n            allProjects[i].id,\n            allProjects[i].program_creator,\n            allProjects[i].projectName,\n            allProjects[i].location,\n            allProjects[i].description,\n            allProjects[i].amountNeeded,\n            allProjects[i].amountDonated,\n            allProjects[i].ongoing,\n            allProjects[i].imageUrl,\n            allProjects[i].recipient\n        );\n    }\n    // kim tra project c phi ca a ch ny hay khng\n    function isCharity() public view returns (bool) {\n        for (uint256 i = 0; i < allProjects.length; i++) {\n            if (allProjects[i].program_creator == msg.sender) {\n                return true;\n            }\n        }\n        return false;\n    }\n    \n    function createRegistered_recipientStruct(uint256 id,string memory nameR,string memory locationR, string memory descriptionR,string memory CMND,string memory imageUrlR,string memory imageUrl1R) public {\n        Receiver memory newReceiver = Receiver(\n        {receiverAddress: payable(msg.sender),\n            projectID: id,\n            nameR: nameR,\n            locationR: locationR,\n            descriptionR: descriptionR,\n            CMND: CMND,\n            imageUrlR: imageUrlR,\n            imageUrl1R: imageUrl1R,\n            take: false,\n            asked: true\n        });\n        uint256 i = find(id);\n        require(allProjects[i].program_creator != msg.sender,'you cannot register');\n        require(allProjects[i].recipient != msg.sender,'you cannot register');\n        if(allProjects[i].readyTime <= block.timestamp){\n            allProjects[i].ongoing = false;\n        }  \n        require(allProjects[i].ongoing != false,'The program is closed');\n        \n        Receiver[] memory result = new Receiver[](allReceviver.length);\n        result = getAllReceiver();\n        for(uint256 j=0;j<result.length;j++){ \n            if(result[j].receiverAddress == msg.sender){\n                require(allReceviver[j].asked == false,'you are already registered');\n            }\n            //require(msg.sender != result[j].receiverAddress,'you are already registered');\n        }\n        allReceviver.push(newReceiver);\n        IDReceiverAmount[newReceiver.projectID]++;\n    }\n \n    function getAllReceiver() public view returns(Receiver[] memory){\n        return allReceviver;\n    }\n    // ly ngi nhn theo 1 chng trnh\n    function getIdReceiver(uint256 id)public view returns(Receiver[] memory){\n        Receiver[] memory result = new Receiver[](IDReceiverAmount[id]);\n        uint256 count;  \n        for(uint256 i=0;i<allReceviver.length;i++){\n            if(allReceviver[i].projectID == id){\n                result[count] = allReceviver[i];\n                count++;\n           }\n          }\n      return result;\n    }\n    // ly mng s ngi c duyt\n    function SetTake()public view returns (Receiver[] memory ){\n        uint count=0;\n        Receiver[] memory result = new Receiver[](ReceiverAmountTake[true]);\n        for(uint256 i=0;i<allReceviver.length;i++){\n            if(allReceviver[i].take == true){\n                result[count] = allReceviver[i];\n                count++;\n           }\n        }\n        return result;\n    }\n\n    //ly mng ngi c duyt theo chng trnh\n    function getIdRTake(uint256 id)public view returns (Receiver[] memory ){\n        Receiver[] memory settake = new Receiver[](ReceiverAmountTake[true]);\n        settake = SetTake();\n        uint count=0;\n        Receiver[] memory result = new Receiver[](IDReceiverAmountTake[id]);\n        for(uint256 i=0;i<settake.length;i++){\n            if(settake[i].projectID == id){\n                result[count] = settake[i];\n                count++;\n           }\n        }\n        return result;\n    }\n\n    // ph duyt ngi nhn theo tng chng trnh\n    function approveReceiver(uint256 id, address a)public returns(bool b){\n        uint256 p = find(id);\n        require(msg.sender == allProjects[p].program_creator,'you have no right');\n\n        uint256 i = findAdd(a);\n        require(allReceviver[i].take == false,'Address approved');\n        allReceviver[i].take = true;\n        ReceiverAmountTake[allReceviver[i].take]++;     \n        IDReceiverAmountTake[allReceviver[i].projectID]++;\n        return allReceviver[i].take;\n    }\n    \n\n    // xem thng tin ngi nhn\n    function readSingleReceiver(address a)\n        public\n        view\n        returns (\n            address,\n            uint256,\n            string memory,\n            string memory,\n            string memory,\n            string memory,\n            string memory,\n            string memory,\n            bool\n        )\n    {\n        uint256 i = findAdd(a);\n        return (\n            allReceviver[i].receiverAddress,\n            allReceviver[i].projectID,\n            allReceviver[i].nameR,\n            allReceviver[i].locationR,\n            allReceviver[i].descriptionR,\n            allReceviver[i].CMND,\n            allReceviver[i].imageUrlR,\n            allReceviver[i].imageUrl1R,\n            allReceviver[i].take\n        );\n    }\n\n   \n\n\n    //     //EVENTS\n    // s kin khi hp ng c to. Hin th a ch ch s hu, a ch hp ng v m t v hot ng gy qu\n    event Project_Created(\n        address indexed _from,\n        address indexed _project,\n        string _desription\n    );\n    // s kin khi tin c tng. Hin th a ch ca nh ti tr, hp ng gy qu c tng v gi tr c tng\n    event Funds_Donated(\n        address indexed _from,\n        address indexed _contract,\n        uint256 _value\n    );\n    // s kin khi t c mc tiu gy qu. Hin th a ch ngi nhn, a ch hp ng v s tin huy ng c\n    event Goal_Reached(\n        address indexed _from,\n        address indexed _contract,\n        uint256 _value\n    );\n    // s kin khi ngi nhn / ch s hu hp ng kt thc t gy qu. Hin th a ch ch s hu, a ch hp ng v s tin b k khai\n    event Project_Ended(\n        address indexed _from,\n        address indexed _contract,\n        uint256 _value\n    );\n \n} ",
  "sourcePath": "/Users/nguyenngocha/Desktop/project-charity-dapp/contracts/Charity.sol",
  "compiler": {
    "name": "solc",
    "version": "0.8.0+commit.c7dfd78e.Emscripten.clang"
  },
  "schemaVersion": "3.4.3",
  "updatedAt": "2021-12-19T12:14:08.506Z",
  "networkType": "ethereum",
  "devdoc": {
    "kind": "dev",
    "methods": {},
    "version": 1
  },
  "userdoc": {
    "kind": "user",
    "methods": {},
    "version": 1
  }
}