{
  "contractName": "Charity",
  "abi": [
    {
      "anonymous": false,
      "inputs": [
        {
          "indexed": true,
          "internalType": "address",
          "name": "_from",
          "type": "address"
        },
        {
          "indexed": true,
          "internalType": "address",
          "name": "_contract",
          "type": "address"
        },
        {
          "indexed": false,
          "internalType": "uint256",
          "name": "_value",
          "type": "uint256"
        }
      ],
      "name": "Funds_Donated",
      "type": "event"
    },
    {
      "anonymous": false,
      "inputs": [
        {
          "indexed": true,
          "internalType": "address",
          "name": "_from",
          "type": "address"
        },
        {
          "indexed": true,
          "internalType": "address",
          "name": "_contract",
          "type": "address"
        },
        {
          "indexed": false,
          "internalType": "uint256",
          "name": "_value",
          "type": "uint256"
        }
      ],
      "name": "Goal_Reached",
      "type": "event"
    },
    {
      "anonymous": false,
      "inputs": [
        {
          "indexed": true,
          "internalType": "address",
          "name": "_from",
          "type": "address"
        },
        {
          "indexed": true,
          "internalType": "address",
          "name": "_project",
          "type": "address"
        },
        {
          "indexed": false,
          "internalType": "string",
          "name": "_desription",
          "type": "string"
        }
      ],
      "name": "Project_Created",
      "type": "event"
    },
    {
      "anonymous": false,
      "inputs": [
        {
          "indexed": true,
          "internalType": "address",
          "name": "_from",
          "type": "address"
        },
        {
          "indexed": true,
          "internalType": "address",
          "name": "_contract",
          "type": "address"
        },
        {
          "indexed": false,
          "internalType": "uint256",
          "name": "_value",
          "type": "uint256"
        }
      ],
      "name": "Project_Ended",
      "type": "event"
    },
    {
      "inputs": [
        {
          "internalType": "uint256",
          "name": "",
          "type": "uint256"
        }
      ],
      "name": "IDDonateAmount",
      "outputs": [
        {
          "internalType": "uint256",
          "name": "",
          "type": "uint256"
        }
      ],
      "stateMutability": "view",
      "type": "function",
      "constant": true
    },
    {
      "inputs": [
        {
          "internalType": "uint256",
          "name": "",
          "type": "uint256"
        }
      ],
      "name": "IDReceiverAmount",
      "outputs": [
        {
          "internalType": "uint256",
          "name": "",
          "type": "uint256"
        }
      ],
      "stateMutability": "view",
      "type": "function",
      "constant": true
    },
    {
      "inputs": [
        {
          "internalType": "uint256",
          "name": "",
          "type": "uint256"
        }
      ],
      "name": "allDonors",
      "outputs": [
        {
          "internalType": "address",
          "name": "donorAddress",
          "type": "address"
        },
        {
          "internalType": "uint256",
          "name": "amount",
          "type": "uint256"
        },
        {
          "internalType": "uint256",
          "name": "projectID",
          "type": "uint256"
        }
      ],
      "stateMutability": "view",
      "type": "function",
      "constant": true
    },
    {
      "inputs": [
        {
          "internalType": "uint256",
          "name": "",
          "type": "uint256"
        }
      ],
      "name": "allProjects",
      "outputs": [
        {
          "internalType": "uint256",
          "name": "id",
          "type": "uint256"
        },
        {
          "internalType": "address payable",
          "name": "program_creator",
          "type": "address"
        },
        {
          "internalType": "string",
          "name": "projectName",
          "type": "string"
        },
        {
          "internalType": "string",
          "name": "location",
          "type": "string"
        },
        {
          "internalType": "string",
          "name": "description",
          "type": "string"
        },
        {
          "internalType": "uint256",
          "name": "amountNeeded",
          "type": "uint256"
        },
        {
          "internalType": "uint256",
          "name": "amountDonated",
          "type": "uint256"
        },
        {
          "internalType": "string",
          "name": "imageUrl",
          "type": "string"
        },
        {
          "internalType": "bool",
          "name": "ongoing",
          "type": "bool"
        },
        {
          "internalType": "address",
          "name": "projectAddress",
          "type": "address"
        },
        {
          "internalType": "address payable",
          "name": "recipient",
          "type": "address"
        },
        {
          "internalType": "uint32",
          "name": "readyTime",
          "type": "uint32"
        }
      ],
      "stateMutability": "view",
      "type": "function",
      "constant": true
    },
    {
      "inputs": [
        {
          "internalType": "uint256",
          "name": "",
          "type": "uint256"
        }
      ],
      "name": "allReceviver",
      "outputs": [
        {
          "internalType": "address payable",
          "name": "receiverAddress",
          "type": "address"
        },
        {
          "internalType": "uint256",
          "name": "projectID",
          "type": "uint256"
        }
      ],
      "stateMutability": "view",
      "type": "function",
      "constant": true
    },
    {
      "inputs": [],
      "name": "nextId",
      "outputs": [
        {
          "internalType": "uint256",
          "name": "",
          "type": "uint256"
        }
      ],
      "stateMutability": "view",
      "type": "function",
      "constant": true
    },
    {
      "inputs": [
        {
          "internalType": "address",
          "name": "",
          "type": "address"
        }
      ],
      "name": "ownerProjectAmount",
      "outputs": [
        {
          "internalType": "uint256",
          "name": "",
          "type": "uint256"
        }
      ],
      "stateMutability": "view",
      "type": "function",
      "constant": true
    },
    {
      "inputs": [
        {
          "internalType": "uint256",
          "name": "id",
          "type": "uint256"
        }
      ],
      "name": "donate",
      "outputs": [],
      "stateMutability": "payable",
      "type": "function",
      "payable": true
    },
    {
      "inputs": [
        {
          "internalType": "string",
          "name": "name",
          "type": "string"
        },
        {
          "internalType": "string",
          "name": "location",
          "type": "string"
        },
        {
          "internalType": "string",
          "name": "description",
          "type": "string"
        },
        {
          "internalType": "uint256",
          "name": "amountNeeded",
          "type": "uint256"
        },
        {
          "internalType": "string",
          "name": "imageUrl",
          "type": "string"
        },
        {
          "internalType": "address",
          "name": "recipient",
          "type": "address"
        }
      ],
      "name": "createProjectStruct",
      "outputs": [],
      "stateMutability": "nonpayable",
      "type": "function"
    },
    {
      "inputs": [],
      "name": "getAllDonors",
      "outputs": [
        {
          "components": [
            {
              "internalType": "address",
              "name": "donorAddress",
              "type": "address"
            },
            {
              "internalType": "uint256",
              "name": "amount",
              "type": "uint256"
            },
            {
              "internalType": "uint256",
              "name": "projectID",
              "type": "uint256"
            }
          ],
          "internalType": "struct Charity.Donor[]",
          "name": "",
          "type": "tuple[]"
        }
      ],
      "stateMutability": "view",
      "type": "function",
      "constant": true
    },
    {
      "inputs": [],
      "name": "getAllProjects",
      "outputs": [
        {
          "components": [
            {
              "internalType": "uint256",
              "name": "id",
              "type": "uint256"
            },
            {
              "internalType": "address payable",
              "name": "program_creator",
              "type": "address"
            },
            {
              "internalType": "string",
              "name": "projectName",
              "type": "string"
            },
            {
              "internalType": "string",
              "name": "location",
              "type": "string"
            },
            {
              "internalType": "string",
              "name": "description",
              "type": "string"
            },
            {
              "internalType": "uint256",
              "name": "amountNeeded",
              "type": "uint256"
            },
            {
              "internalType": "uint256",
              "name": "amountDonated",
              "type": "uint256"
            },
            {
              "internalType": "string",
              "name": "imageUrl",
              "type": "string"
            },
            {
              "internalType": "bool",
              "name": "ongoing",
              "type": "bool"
            },
            {
              "internalType": "address",
              "name": "projectAddress",
              "type": "address"
            },
            {
              "internalType": "address payable",
              "name": "recipient",
              "type": "address"
            },
            {
              "internalType": "uint32",
              "name": "readyTime",
              "type": "uint32"
            }
          ],
          "internalType": "struct Charity.Project[]",
          "name": "",
          "type": "tuple[]"
        }
      ],
      "stateMutability": "view",
      "type": "function",
      "constant": true
    },
    {
      "inputs": [
        {
          "internalType": "uint256",
          "name": "id",
          "type": "uint256"
        }
      ],
      "name": "getAllidDonateLength",
      "outputs": [
        {
          "internalType": "uint256",
          "name": "",
          "type": "uint256"
        }
      ],
      "stateMutability": "view",
      "type": "function",
      "constant": true
    },
    {
      "inputs": [
        {
          "internalType": "uint256",
          "name": "id",
          "type": "uint256"
        }
      ],
      "name": "getDonor",
      "outputs": [
        {
          "components": [
            {
              "internalType": "address",
              "name": "donorAddress",
              "type": "address"
            },
            {
              "internalType": "uint256",
              "name": "amount",
              "type": "uint256"
            },
            {
              "internalType": "uint256",
              "name": "projectID",
              "type": "uint256"
            }
          ],
          "internalType": "struct Charity.Donor[]",
          "name": "",
          "type": "tuple[]"
        }
      ],
      "stateMutability": "view",
      "type": "function",
      "constant": true
    },
    {
      "inputs": [
        {
          "internalType": "address",
          "name": "_owner",
          "type": "address"
        }
      ],
      "name": "getAllOwnerProjectsLength",
      "outputs": [
        {
          "internalType": "uint256",
          "name": "",
          "type": "uint256"
        }
      ],
      "stateMutability": "view",
      "type": "function",
      "constant": true
    },
    {
      "inputs": [
        {
          "internalType": "address",
          "name": "_owner",
          "type": "address"
        }
      ],
      "name": "getOwnerProjects",
      "outputs": [
        {
          "components": [
            {
              "internalType": "uint256",
              "name": "id",
              "type": "uint256"
            },
            {
              "internalType": "address payable",
              "name": "program_creator",
              "type": "address"
            },
            {
              "internalType": "string",
              "name": "projectName",
              "type": "string"
            },
            {
              "internalType": "string",
              "name": "location",
              "type": "string"
            },
            {
              "internalType": "string",
              "name": "description",
              "type": "string"
            },
            {
              "internalType": "uint256",
              "name": "amountNeeded",
              "type": "uint256"
            },
            {
              "internalType": "uint256",
              "name": "amountDonated",
              "type": "uint256"
            },
            {
              "internalType": "string",
              "name": "imageUrl",
              "type": "string"
            },
            {
              "internalType": "bool",
              "name": "ongoing",
              "type": "bool"
            },
            {
              "internalType": "address",
              "name": "projectAddress",
              "type": "address"
            },
            {
              "internalType": "address payable",
              "name": "recipient",
              "type": "address"
            },
            {
              "internalType": "uint32",
              "name": "readyTime",
              "type": "uint32"
            }
          ],
          "internalType": "struct Charity.Project[]",
          "name": "",
          "type": "tuple[]"
        }
      ],
      "stateMutability": "view",
      "type": "function",
      "constant": true
    },
    {
      "inputs": [],
      "name": "getAllProjectsLength",
      "outputs": [
        {
          "internalType": "uint256",
          "name": "",
          "type": "uint256"
        }
      ],
      "stateMutability": "view",
      "type": "function",
      "constant": true
    },
    {
      "inputs": [
        {
          "internalType": "uint256",
          "name": "id",
          "type": "uint256"
        }
      ],
      "name": "endProject",
      "outputs": [],
      "stateMutability": "nonpayable",
      "type": "function"
    },
    {
      "inputs": [
        {
          "internalType": "uint256",
          "name": "id",
          "type": "uint256"
        }
      ],
      "name": "pay",
      "outputs": [
        {
          "internalType": "uint256",
          "name": "ethers",
          "type": "uint256"
        }
      ],
      "stateMutability": "payable",
      "type": "function",
      "payable": true
    },
    {
      "inputs": [
        {
          "internalType": "uint256",
          "name": "id",
          "type": "uint256"
        }
      ],
      "name": "readSingleProject",
      "outputs": [
        {
          "internalType": "uint256",
          "name": "",
          "type": "uint256"
        },
        {
          "internalType": "address",
          "name": "",
          "type": "address"
        },
        {
          "internalType": "string",
          "name": "",
          "type": "string"
        },
        {
          "internalType": "string",
          "name": "",
          "type": "string"
        },
        {
          "internalType": "string",
          "name": "",
          "type": "string"
        },
        {
          "internalType": "uint256",
          "name": "",
          "type": "uint256"
        },
        {
          "internalType": "uint256",
          "name": "",
          "type": "uint256"
        },
        {
          "internalType": "bool",
          "name": "",
          "type": "bool"
        },
        {
          "internalType": "string",
          "name": "",
          "type": "string"
        },
        {
          "internalType": "address",
          "name": "",
          "type": "address"
        },
        {
          "internalType": "address",
          "name": "",
          "type": "address"
        }
      ],
      "stateMutability": "view",
      "type": "function",
      "constant": true
    },
    {
      "inputs": [],
      "name": "isCharity",
      "outputs": [
        {
          "internalType": "bool",
          "name": "",
          "type": "bool"
        }
      ],
      "stateMutability": "view",
      "type": "function",
      "constant": true
    },
    {
      "inputs": [
        {
          "internalType": "uint256",
          "name": "id",
          "type": "uint256"
        }
      ],
      "name": "Registered_recipient",
      "outputs": [],
      "stateMutability": "nonpayable",
      "type": "function"
    },
    {
      "inputs": [],
      "name": "getAllReceiver",
      "outputs": [
        {
          "components": [
            {
              "internalType": "address payable",
              "name": "receiverAddress",
              "type": "address"
            },
            {
              "internalType": "uint256",
              "name": "projectID",
              "type": "uint256"
            }
          ],
          "internalType": "struct Charity.Receiver[]",
          "name": "",
          "type": "tuple[]"
        }
      ],
      "stateMutability": "view",
      "type": "function",
      "constant": true
    },
    {
      "inputs": [
        {
          "internalType": "uint256",
          "name": "id",
          "type": "uint256"
        }
      ],
      "name": "getIdReceiver",
      "outputs": [
        {
          "components": [
            {
              "internalType": "address payable",
              "name": "receiverAddress",
              "type": "address"
            },
            {
              "internalType": "uint256",
              "name": "projectID",
              "type": "uint256"
            }
          ],
          "internalType": "struct Charity.Receiver[]",
          "name": "",
          "type": "tuple[]"
        }
      ],
      "stateMutability": "view",
      "type": "function",
      "constant": true
    }
  ],
  "bytecode": "0x60806040526001600055601e60015534801561001a57600080fd5b50612fde8061002a6000396000f3fe6080604052600436106101405760003560e01c8063744bc369116100b6578063a74bb4ad1161006f578063a74bb4ad146103c6578063aa8c508f146103e6578063c290d69114610406578063ecb85d3414610419578063efd5bf8b14610439578063f14faf6f1461044e57610140565b8063744bc3691461031c57806380d038291461033c57806396d7e11d1461035157806398e36b04146103715780639ba4734614610386578063a07fb6d2146103a657610140565b80635529274e116101085780635529274e14610246578063561ff027146102745780636136a9061461028957806361b8ce8c146102b65780636d7932d1146102d857806374312220146102fa57610140565b8063246f220b146101455780632c3e69631461017b5780633330d8ca146101aa57806346fa52a2146101e157806353b3194c1461020e575b600080fd5b34801561015157600080fd5b50610165610160366004612875565b610461565b6040516101729190612a73565b60405180910390f35b34801561018757600080fd5b5061019b610196366004612957565b6108ab565b604051610172939291906129f0565b3480156101b657600080fd5b506101ca6101c5366004612957565b6108e8565b6040516101729b9a99989796959493929190612e4b565b3480156101ed57600080fd5b506102016101fc366004612957565b610dd0565b6040516101729190612bb6565b34801561021a57600080fd5b5061022e610229366004612957565b610f2f565b6040516101729c9b9a99989796959493929190612d91565b34801561025257600080fd5b50610266610261366004612957565b6111e0565b6040516101729291906129d7565b34801561028057600080fd5b50610201611218565b34801561029557600080fd5b506102a96102a4366004612957565b61128e565b6040516101729190612a11565b3480156102c257600080fd5b506102cb6113fd565b6040516101729190612d88565b3480156102e457600080fd5b506102ed611403565b6040516101729190612c01565b34801561030657600080fd5b5061031a610315366004612957565b611483565b005b34801561032857600080fd5b5061031a610337366004612957565b61166b565b34801561034857600080fd5b506101656118ed565b34801561035d57600080fd5b506102cb61036c366004612875565b611c0b565b34801561037d57600080fd5b506102a9611c26565b34801561039257600080fd5b506102cb6103a1366004612875565b611c9f565b3480156103b257600080fd5b5061031a6103c1366004612896565b611cb1565b3480156103d257600080fd5b506102cb6103e1366004612957565b611f96565b3480156103f257600080fd5b506102cb610401366004612957565b611fa8565b6102cb610414366004612957565b611fba565b34801561042557600080fd5b506102cb610434366004612957565b6122da565b34801561044557600080fd5b506102cb6122ec565b61031a61045c366004612957565b6122f2565b6001600160a01b0381166000908152600560205260408120546060919067ffffffffffffffff8111156104a457634e487b7160e01b600052604160045260246000fd5b6040519080825280602002602001820160405280156104dd57816020015b6104ca61267f565b8152602001906001900390816104c25790505b5090506000805b6003548110156108a057846001600160a01b03166003828154811061051957634e487b7160e01b600052603260045260246000fd5b600091825260209091206001600a9092020101546001600160a01b0316141561088e576003818154811061055d57634e487b7160e01b600052603260045260246000fd5b90600052602060002090600a020160405180610180016040529081600082015481526020016001820160009054906101000a90046001600160a01b03166001600160a01b03166001600160a01b031681526020016002820180546105c090612f26565b80601f01602080910402602001604051908101604052809291908181526020018280546105ec90612f26565b80156106395780601f1061060e57610100808354040283529160200191610639565b820191906000526020600020905b81548152906001019060200180831161061c57829003601f168201915b5050505050815260200160038201805461065290612f26565b80601f016020809104026020016040519081016040528092919081815260200182805461067e90612f26565b80156106cb5780601f106106a0576101008083540402835291602001916106cb565b820191906000526020600020905b8154815290600101906020018083116106ae57829003601f168201915b505050505081526020016004820180546106e490612f26565b80601f016020809104026020016040519081016040528092919081815260200182805461071090612f26565b801561075d5780601f106107325761010080835404028352916020019161075d565b820191906000526020600020905b81548152906001019060200180831161074057829003601f168201915b50505050508152602001600582015481526020016006820154815260200160078201805461078a90612f26565b80601f01602080910402602001604051908101604052809291908181526020018280546107b690612f26565b80156108035780601f106107d857610100808354040283529160200191610803565b820191906000526020600020905b8154815290600101906020018083116107e657829003601f168201915b5050509183525050600882015460ff81161515602083015261010090046001600160a01b0390811660408301526009909201549182166060820152600160a01b90910463ffffffff16608090910152835184908490811061087457634e487b7160e01b600052603260045260246000fd5b6020026020010181905250818061088a90612f61565b9250505b8061089881612f61565b9150506104e4565b50909150505b919050565b600281815481106108bb57600080fd5b60009182526020909120600390910201805460018201546002909201546001600160a01b03909116925083565b60008060608060606000806000606060008060006109058d612455565b90506003818154811061092857634e487b7160e01b600052603260045260246000fd5b90600052602060002090600a0201600001546003828154811061095b57634e487b7160e01b600052603260045260246000fd5b90600052602060002090600a020160010160009054906101000a90046001600160a01b0316600383815481106109a157634e487b7160e01b600052603260045260246000fd5b90600052602060002090600a0201600201600384815481106109d357634e487b7160e01b600052603260045260246000fd5b90600052602060002090600a020160030160038581548110610a0557634e487b7160e01b600052603260045260246000fd5b90600052602060002090600a020160040160038681548110610a3757634e487b7160e01b600052603260045260246000fd5b90600052602060002090600a02016005015460038781548110610a6a57634e487b7160e01b600052603260045260246000fd5b90600052602060002090600a02016006015460038881548110610a9d57634e487b7160e01b600052603260045260246000fd5b90600052602060002090600a020160080160009054906101000a900460ff1660038981548110610add57634e487b7160e01b600052603260045260246000fd5b90600052602060002090600a020160070160038a81548110610b0f57634e487b7160e01b600052603260045260246000fd5b90600052602060002090600a020160080160019054906101000a90046001600160a01b031660038b81548110610b5557634e487b7160e01b600052603260045260246000fd5b90600052602060002090600a020160090160009054906101000a90046001600160a01b0316888054610b8690612f26565b80601f0160208091040260200160405190810160405280929190818152602001828054610bb290612f26565b8015610bff5780601f10610bd457610100808354040283529160200191610bff565b820191906000526020600020905b815481529060010190602001808311610be257829003601f168201915b50505050509850878054610c1290612f26565b80601f0160208091040260200160405190810160405280929190818152602001828054610c3e90612f26565b8015610c8b5780601f10610c6057610100808354040283529160200191610c8b565b820191906000526020600020905b815481529060010190602001808311610c6e57829003601f168201915b50505050509750868054610c9e90612f26565b80601f0160208091040260200160405190810160405280929190818152602001828054610cca90612f26565b8015610d175780601f10610cec57610100808354040283529160200191610d17565b820191906000526020600020905b815481529060010190602001808311610cfa57829003601f168201915b50505050509650828054610d2a90612f26565b80601f0160208091040260200160405190810160405280929190818152602001828054610d5690612f26565b8015610da35780601f10610d7857610100808354040283529160200191610da3565b820191906000526020600020905b815481529060010190602001808311610d8657829003601f168201915b505050505092509b509b509b509b509b509b509b509b509b509b509b505091939597999b90929496989a50565b6000818152600760205260408120546060919067ffffffffffffffff811115610e0957634e487b7160e01b600052604160045260246000fd5b604051908082528060200260200182016040528015610e4257816020015b610e2f612703565b815260200190600190039081610e275790505b5090506000805b6004548110156108a0578460048281548110610e7557634e487b7160e01b600052603260045260246000fd5b9060005260206000209060020201600101541415610f1d5760048181548110610eae57634e487b7160e01b600052603260045260246000fd5b60009182526020918290206040805180820190915260029092020180546001600160a01b0316825260010154918101919091528351849084908110610f0357634e487b7160e01b600052603260045260246000fd5b60200260200101819052508180610f1990612f61565b9250505b80610f2781612f61565b915050610e49565b60038181548110610f3f57600080fd5b60009182526020909120600a90910201805460018201546002830180549294506001600160a01b039091169291610f7590612f26565b80601f0160208091040260200160405190810160405280929190818152602001828054610fa190612f26565b8015610fee5780601f10610fc357610100808354040283529160200191610fee565b820191906000526020600020905b815481529060010190602001808311610fd157829003601f168201915b50505050509080600301805461100390612f26565b80601f016020809104026020016040519081016040528092919081815260200182805461102f90612f26565b801561107c5780601f106110515761010080835404028352916020019161107c565b820191906000526020600020905b81548152906001019060200180831161105f57829003601f168201915b50505050509080600401805461109190612f26565b80601f01602080910402602001604051908101604052809291908181526020018280546110bd90612f26565b801561110a5780601f106110df5761010080835404028352916020019161110a565b820191906000526020600020905b8154815290600101906020018083116110ed57829003601f168201915b50505050509080600501549080600601549080600701805461112b90612f26565b80601f016020809104026020016040519081016040528092919081815260200182805461115790612f26565b80156111a45780601f10611179576101008083540402835291602001916111a4565b820191906000526020600020905b81548152906001019060200180831161118757829003601f168201915b505050506008830154600990930154919260ff8116926101009091046001600160a01b039081169250811690600160a01b900463ffffffff168c565b600481815481106111f057600080fd5b6000918252602090912060029091020180546001909101546001600160a01b03909116915082565b60606004805480602002602001604051908101604052809291908181526020016000905b82821015611284576000848152602090819020604080518082019091526002850290910180546001600160a01b0316825260019081015482840152908352909201910161123c565b5050505090505b90565b6000818152600660205260408120546060919067ffffffffffffffff8111156112c757634e487b7160e01b600052604160045260246000fd5b60405190808252806020026020018201604052801561130057816020015b6112ed61271a565b8152602001906001900390816112e55790505b5090506000805b6002548110156108a057846002828154811061133357634e487b7160e01b600052603260045260246000fd5b90600052602060002090600302016002015414156113eb576002818154811061136c57634e487b7160e01b600052603260045260246000fd5b600091825260209182902060408051606081018252600390930290910180546001600160a01b031683526001810154938301939093526002909201549181019190915283518490849081106113d157634e487b7160e01b600052603260045260246000fd5b602002602001018190525081806113e790612f61565b9250505b806113f581612f61565b915050611307565b60005481565b6000805b60035481101561147b57336001600160a01b03166003828154811061143c57634e487b7160e01b600052603260045260246000fd5b600091825260209091206001600a9092020101546001600160a01b0316141561146957600191505061128b565b8061147381612f61565b915050611407565b506000905090565b600061148e82612455565b9050336001600160a01b0316600382815481106114bb57634e487b7160e01b600052603260045260246000fd5b600091825260209091206001600a9092020101546001600160a01b031614156114ff5760405162461bcd60e51b81526004016114f690612cc9565b60405180910390fd5b336001600160a01b03166003828154811061152a57634e487b7160e01b600052603260045260246000fd5b600091825260209091206009600a9092020101546001600160a01b031614156115655760405162461bcd60e51b81526004016114f690612cc9565b60008281526007602052604081205467ffffffffffffffff81111561159a57634e487b7160e01b600052604160045260246000fd5b6040519080825280602002602001820160405280156115d357816020015b6115c0612703565b8152602001906001900390816115b85790505b5090506115df83610dd0565b905060005b815181101561165c5781818151811061160d57634e487b7160e01b600052603260045260246000fd5b6020026020010151600001516001600160a01b0316336001600160a01b0316141561164a5760405162461bcd60e51b81526004016114f690612d21565b8061165481612f61565b9150506115e4565b50611666836124cf565b505050565b600061167682612455565b905060006003838154811061169b57634e487b7160e01b600052603260045260246000fd5b90600052602060002090600a020190506116b481612584565b6116bd57600080fd5b600382815481106116de57634e487b7160e01b600052603260045260246000fd5b60009182526020909120600a90910201600101546001600160a01b031633146117195760405162461bcd60e51b81526004016114f690612cf6565b306001600160a01b03166003838154811061174457634e487b7160e01b600052603260045260246000fd5b90600052602060002090600a020160010160009054906101000a90046001600160a01b03166001600160a01b03167fc677ee22205cecb2dd893a25f6fb1ead51dba3b724dbc541169086863a2ca396600385815481106117b457634e487b7160e01b600052603260045260246000fd5b90600052602060002090600a0201600601546040516117d39190612d88565b60405180910390a36000600383815481106117fe57634e487b7160e01b600052603260045260246000fd5b90600052602060002090600a020160080160006101000a81548160ff021916908315150217905550306001600160a01b03166003838154811061185157634e487b7160e01b600052603260045260246000fd5b90600052602060002090600a020160010160009054906101000a90046001600160a01b03166001600160a01b03167fa43e0a4d4c286e55da31fef2f0f60c4887ad5eed3cac930656a11a77dc9fe7a4600385815481106118c157634e487b7160e01b600052603260045260246000fd5b90600052602060002090600a0201600601546040516118e09190612d88565b60405180910390a3505050565b60606003805480602002602001604051908101604052809291908181526020016000905b828210156112845760008481526020908190206040805161018081018252600a86029092018054835260018101546001600160a01b0316938301939093526002830180549293929184019161196590612f26565b80601f016020809104026020016040519081016040528092919081815260200182805461199190612f26565b80156119de5780601f106119b3576101008083540402835291602001916119de565b820191906000526020600020905b8154815290600101906020018083116119c157829003601f168201915b505050505081526020016003820180546119f790612f26565b80601f0160208091040260200160405190810160405280929190818152602001828054611a2390612f26565b8015611a705780601f10611a4557610100808354040283529160200191611a70565b820191906000526020600020905b815481529060010190602001808311611a5357829003601f168201915b50505050508152602001600482018054611a8990612f26565b80601f0160208091040260200160405190810160405280929190818152602001828054611ab590612f26565b8015611b025780601f10611ad757610100808354040283529160200191611b02565b820191906000526020600020905b815481529060010190602001808311611ae557829003601f168201915b505050505081526020016005820154815260200160068201548152602001600782018054611b2f90612f26565b80601f0160208091040260200160405190810160405280929190818152602001828054611b5b90612f26565b8015611ba85780601f10611b7d57610100808354040283529160200191611ba8565b820191906000526020600020905b815481529060010190602001808311611b8b57829003601f168201915b5050509183525050600882015460ff811615156020808401919091526001600160a01b0361010090920482166040840152600990930154908116606083015263ffffffff600160a01b909104166080909101529082526001929092019101611911565b6001600160a01b031660009081526005602052604090205490565b60606002805480602002602001604051908101604052809291908181526020016000905b82821015611284576000848152602090819020604080516060810182526003860290920180546001600160a01b0316835260018082015484860152600290910154918301919091529083529092019101611c4a565b60056020526000908152604090205481565b60006040518061018001604052806000548152602001336001600160a01b0316815260200188815260200187815260200186815260200185815260200160008152602001848152602001600115158152602001306001600160a01b03168152602001836001600160a01b0316815260200160015442611d309190612eee565b63ffffffff1690529050336001600160a01b0383161415611d635760405162461bcd60e51b81526004016114f690612c1f565b6003805460018101825560009190915281517fc2575a0e9e593c00f959f8c92f12db2869c3395a3b0502d05e2516446f71f85b600a9092029182019081556020808401517fc2575a0e9e593c00f959f8c92f12db2869c3395a3b0502d05e2516446f71f85c840180546001600160a01b0319166001600160a01b03909216919091179055604084015180518594611e20937fc2575a0e9e593c00f959f8c92f12db2869c3395a3b0502d05e2516446f71f85d909101920190612744565b5060608201518051611e3c916003840191602090910190612744565b5060808201518051611e58916004840191602090910190612744565b5060a0820151600582015560c0820151600682015560e08201518051611e88916007840191602090910190612744565b50610100828101516008830180546101208601516001600160a01b03908116909402610100600160a81b031993151560ff199092169190911792909216919091179055610140830151600990920180546101609094015163ffffffff16600160a01b0263ffffffff60a01b19939092166001600160a01b03199094169390931791909116179055600080549080611f1e83612f61565b90915550506020808201516001600160a01b03166000908152600590915260408120805491611f4c83612f61565b9091555050604051309033907fb3baea71d4ddbfbb72a19472613826fbe33d620e97614dae28fd277f229fedd890611f85908990612c0c565b60405180910390a350505050505050565b60066020526000908152604090205481565b60009081526006602052604090205490565b600080611fc683612455565b905060038181548110611fe957634e487b7160e01b600052603260045260246000fd5b60009182526020909120600a90910201600101546001600160a01b031633146120245760405162461bcd60e51b81526004016114f690612cf6565b60008381526007602052604081205467ffffffffffffffff81111561205957634e487b7160e01b600052604160045260246000fd5b60405190808252806020026020018201604052801561209257816020015b61207f612703565b8152602001906001900390816120775790505b50905061209e84610dd0565b80519091508061219657600383815481106120c957634e487b7160e01b600052603260045260246000fd5b90600052602060002090600a020160090160009054906101000a90046001600160a01b03166001600160a01b03166108fc6003858154811061211b57634e487b7160e01b600052603260045260246000fd5b90600052602060002090600a0201600601549081150290604051600060405180830381858888f19350505050158015612158573d6000803e3d6000fd5b506003838154811061217a57634e487b7160e01b600052603260045260246000fd5b90600052602060002090600a02016006015493505050506108a6565b60006121a3826001612eee565b600385815481106121c457634e487b7160e01b600052603260045260246000fd5b90600052602060002090600a0201600601546121e09190612f06565b90506003848154811061220357634e487b7160e01b600052603260045260246000fd5b6000918252602082206009600a9092020101546040516001600160a01b039091169183156108fc02918491818181858888f1935050505015801561224b573d6000803e3d6000fd5b5060005b828110156122ce5783818151811061227757634e487b7160e01b600052603260045260246000fd5b6020026020010151600001516001600160a01b03166108fc839081150290604051600060405180830381858888f193505050501580156122bb573d6000803e3d6000fd5b50806122c681612f61565b91505061224f565b5093506108a692505050565b60076020526000908152604090205481565b60035490565b600034116123125760405162461bcd60e51b81526004016114f690612c94565b600061231d82612455565b90506003818154811061234057634e487b7160e01b600052603260045260246000fd5b600091825260209091206008600a90920201015460ff166123735760405162461bcd60e51b81526004016114f690612c65565b61237d348361259c565b346003828154811061239f57634e487b7160e01b600052603260045260246000fd5b90600052602060002090600a020160060160008282546123bf9190612eee565b9091555050604051309033907f702ce8e2a7e3a8bc7ba50d9187386c652637c1e0a97f4c8ad4c2481e1ae0861a906123f8903490612d88565b60405180910390a3426003828154811061242257634e487b7160e01b600052603260045260246000fd5b60009182526020909120600a9091020160090154600160a01b900463ffffffff1611612451576124518261166b565b5050565b6000805b6003548110156124b657826003828154811061248557634e487b7160e01b600052603260045260246000fd5b90600052602060002090600a02016000015414156124a45790506108a6565b806124ae81612f61565b915050612459565b5060405162461bcd60e51b81526004016114f690612d58565b604080518082018252338152602080820184815260048054600181018255600091825284517f8a35acfbc15ff81a39ae7d344fd709f28e8600b4aa8c65c6b64bfe7fe36bd19b600290920291820180546001600160a01b0319166001600160a01b0390921691909117905591517f8a35acfbc15ff81a39ae7d344fd709f28e8600b4aa8c65c6b64bfe7fe36bd19c90920182905590815260079091529182208054919261257b83612f61565b91905055505050565b6009015442600160a01b90910463ffffffff16111590565b60408051606081018252338152602080820185815282840185815260028054600181018255600091825285517f405787fa12a823e0f2b7631cc41b3ba8828b3321ca811111fa75cd3aa3bb5ace600390920291820180546001600160a01b0319166001600160a01b0390921691909117905592517f405787fa12a823e0f2b7631cc41b3ba8828b3321ca811111fa75cd3aa3bb5acf84015590517f405787fa12a823e0f2b7631cc41b3ba8828b3321ca811111fa75cd3aa3bb5ad090920182905590815260069091529182208054919261267583612f61565b9190505550505050565b6040518061018001604052806000815260200160006001600160a01b0316815260200160608152602001606081526020016060815260200160008152602001600081526020016060815260200160001515815260200160006001600160a01b0316815260200160006001600160a01b03168152602001600063ffffffff1681525090565b604080518082019091526000808252602082015290565b604051806060016040528060006001600160a01b0316815260200160008152602001600081525090565b82805461275090612f26565b90600052602060002090601f01602090048101928261277257600085556127b8565b82601f1061278b57805160ff19168380011785556127b8565b828001600101855582156127b8579182015b828111156127b857825182559160200191906001019061279d565b506127c49291506127c8565b5090565b5b808211156127c457600081556001016127c9565b80356001600160a01b03811681146108a657600080fd5b600082601f830112612804578081fd5b813567ffffffffffffffff8082111561281f5761281f612f92565b604051601f8301601f19168101602001828111828210171561284357612843612f92565b60405282815284830160200186101561285a578384fd5b82602086016020830137918201602001929092529392505050565b600060208284031215612886578081fd5b61288f826127dd565b9392505050565b60008060008060008060c087890312156128ae578182fd5b863567ffffffffffffffff808211156128c5578384fd5b6128d18a838b016127f4565b975060208901359150808211156128e6578384fd5b6128f28a838b016127f4565b96506040890135915080821115612907578384fd5b6129138a838b016127f4565b955060608901359450608089013591508082111561292f578384fd5b5061293c89828a016127f4565b92505061294b60a088016127dd565b90509295509295509295565b600060208284031215612968578081fd5b5035919050565b6001600160a01b03169052565b15159052565b60008151808452815b818110156129a75760208185018101518683018201520161298b565b818111156129b85782602083870101525b50601f01601f19169290920160200192915050565b63ffffffff169052565b6001600160a01b03929092168252602082015260400190565b6001600160a01b039390931683526020830191909152604082015260600190565b602080825282518282018190526000919060409081850190868401855b82811015612a6657815180516001600160a01b0316855286810151878601528501518585015260609093019290850190600101612a2e565b5091979650505050505050565b60208082528251828201819052600091906040908185019080840286018301878501865b83811015612ba857603f1989840301855281516101808151855288820151612ac18a87018261296f565b50878201518189870152612ad782870182612982565b91505060608083015186830382880152612af18382612982565b9250505060808083015186830382880152612b0c8382612982565b9250505060a080830151818701525060c080830151818701525060e08083015186830382880152612b3d8382612982565b9250505061010080830151612b548288018261297c565b505061012080830151612b698288018261296f565b505061014080830151612b7e8288018261296f565b50506101609182015191612b94868201846129cd565b509588019593505090860190600101612a97565b509098975050505050505050565b602080825282518282018190526000919060409081850190868401855b82811015612a6657815180516001600160a01b03168552860151868501529284019290850190600101612bd3565b901515815260200190565b60006020825261288f6020830184612982565b60208082526026908201527f646f6573206e6f7420616c6c6f7720796f7520746f20626520746865207265636040820152651a5c1a595b9d60d21b606082015260800190565b602080825260159082015274151a19481c1c9bd9dc985b481a5cc818db1bdcd959605a1b604082015260600190565b6020808252818101527f506c6561736520646f6e6f7465206d6f7265207468656e203020616d6f756e74604082015260600190565b6020808252601390820152723cb7ba9031b0b73737ba103932b3b4b9ba32b960691b604082015260600190565b6020808252601190820152701e5bdd481a185d99481b9bc81c9a59da1d607a1b604082015260600190565b6020808252601a908201527f796f752061726520616c72656164792072656769737465726564000000000000604082015260600190565b602080825260169082015275141c9bda9958dd08191bd95cc81b9bdd08195e1a5cdd60521b604082015260600190565b90815260200190565b8c81526001600160a01b038c16602082015261018060408201819052600090612dbc8382018e612982565b90508281036060840152612dd0818d612982565b90508281036080840152612de4818c612982565b90508960a08401528860c084015282810360e0840152612e048189612982565b915050851515610100830152612e1e61012083018661296f565b612e2c61014083018561296f565b612e3a6101608301846129cd565b9d9c50505050505050505050505050565b8b81526001600160a01b038b8116602083015261016060408301819052600091612e778483018e612982565b91508382036060850152612e8b828d612982565b91508382036080850152612e9f828c612982565b91508960a08501528860c085015287151560e0850152838203610100850152612ec88288612982565b925080861661012085015280851661014085015250509c9b505050505050505050505050565b60008219821115612f0157612f01612f7c565b500190565b600082612f2157634e487b7160e01b81526012600452602481fd5b500490565b600281046001821680612f3a57607f821691505b60208210811415612f5b57634e487b7160e01b600052602260045260246000fd5b50919050565b6000600019821415612f7557612f75612f7c565b5060010190565b634e487b7160e01b600052601160045260246000fd5b634e487b7160e01b600052604160045260246000fdfea26469706673582212209ab4f2b10c25a0fa225fd62f2cefc8518964c0a7cecce77b14ef9d8b1a9947e164736f6c63430008000033",
  "immutableReferences": {},
  "source": "// SPDX-License-Identifier: MIT\npragma solidity ^0.8.0;\n\ncontract Charity {\n    \n    struct Project {\n        uint256 id;\n        address payable program_creator;\n        string projectName;\n        string location;\n        string description;\n        uint256 amountNeeded;\n        uint256 amountDonated;\n        string imageUrl;\n        bool ongoing;\n        address projectAddress;\n        address payable recipient;\n        uint32 readyTime;\n    }\n\n    struct Donor {\n        address donorAddress;\n        uint256 amount;\n        uint256 projectID;\n    }\n    \n    struct Receiver {\n        address payable receiverAddress;\n        uint256 projectID;\n    }\n    uint256 public nextId = 1;\n    uint cooldownTime = 30 seconds;\n    Donor[] public allDonors;   // mang donate\n    Project[] public allProjects; //mang project\n    Receiver[] public allReceviver; //mang nguoi nhan\n    mapping (address => uint256) public ownerProjectAmount;\n    mapping (uint256 => uint256) public IDDonateAmount;\n    mapping (uint256 => uint256) public IDReceiverAmount;\n    \n    function createDonationStruct(uint256 amount, uint256 id) internal {Donor memory newDonor = Donor(\n        {donorAddress: msg.sender,\n            amount: amount,\n            projectID: id\n        });\n        allDonors.push(newDonor);\n        IDDonateAmount[newDonor.projectID]++;\n    }\n\n    function donate(uint256 id) public payable {\n        require(msg.value > 0, 'Please donote more then 0 amount');\n        //tm project\n\n        uint256 i = find(id);\n        // require(\n        //     allProjects[i].program_creator != msg.sender,\n        //     'Please donate from another wallet'\n        // );\n        // require(isCharity() == false, 'cannot donate.');\n        require(allProjects[i].ongoing != false,'The program is closed');\n        // require(allProjects[i].amountDonated < allProjects[i].amountNeeded, 'the project already raised enough money');\n        createDonationStruct(msg.value, id);\n        // this.balance.transfer(msg.value);\n        allProjects[i].amountDonated += msg.value;\n        emit Funds_Donated(msg.sender, address(this), msg.value);\n        // if (allProjects[i].amountDonated >= allProjects[i].amountNeeded) {\n        //     //chy chc nng  kt thc d n\n        //     endProject(allProjects[i].id);\n        //     // emit Goal_Reached(\n        //     //     allProjects[i].program_creator,\n        //     //     address(this),\n        //     //     allProjects[i].amountDonated\n        //     // );\n        // }\n        if(allProjects[i].readyTime <= block.timestamp){\n            endProject(id);\n        }\n        \n    }\n    // to  project ku gi ng h (tn, m t, s tin cn, nh)\n    function createProjectStruct(string memory name,string memory location,string memory description,uint256 amountNeeded,string memory imageUrl,address recipient) public {\n        Project memory newProject = Project({\n            id: nextId,\n            program_creator: payable(msg.sender),\n            projectName: name,\n            location:location,\n            description: description,\n            amountNeeded: amountNeeded,\n            amountDonated: 0,\n            imageUrl: imageUrl,\n            ongoing: true,\n            projectAddress: address(this),\n            recipient: payable(recipient),\n            readyTime: uint32(block.timestamp + cooldownTime)\n        });\n        require(msg.sender != recipient,'does not allow you to be the recipient');\n        allProjects.push(newProject);\n        nextId++;\n        ownerProjectAmount[newProject.program_creator]++;\n        \n        emit Project_Created(msg.sender, address(this), description);\n    }\n    function getAllDonors()public view returns(Donor[] memory){\n        return allDonors;\n    }\n    \n    function getAllProjects() public view returns(Project[] memory){\n        return allProjects;\n    }\n    \n    function getAllidDonateLength(uint256 id) public view returns (uint256) {\n        return IDDonateAmount[id];\n    }\n    \n    //danh sch ng h ca mt chng trnh\n    function getDonor(uint256 id)public view returns(Donor[] memory){\n        Donor[] memory result = new Donor[](IDDonateAmount[id]);\n        uint256 count;\n        for(uint256 i=0;i<allDonors.length;i++){\n            if(allDonors[i].projectID == id){\n                result[count] = allDonors[i];\n                count++;\n            }\n          }\n      return result;\n    }\n    \n    function getAllOwnerProjectsLength(address _owner) public view returns (uint256) {\n        return ownerProjectAmount[_owner];\n    }\n    \n    // danh sch chng trnh ca mt ti khon \n    function getOwnerProjects(address _owner) public view returns (Project[] memory ) {\n        Project[] memory result = new Project[](ownerProjectAmount[_owner]);\n        \n      uint count=0;\n      for(uint i=0;i<allProjects.length;i++){\n          if(allProjects[i].program_creator == _owner){\n              result[count]=allProjects[i];\n              count++;\n          }\n      }\n      return result;\n      \n    }\n    \n    \n    // tm project theo id\n    function find(uint256 id) internal view returns (uint256) {\n        for (uint256 i = 0; i < allProjects.length; i++) {\n            if (allProjects[i].id == id) {\n                return i;\n            }\n        }\n        revert('Project does not exist');\n    }\n\n\n    function _isReady(Project storage _project) internal view returns (bool) {\n        return (_project.readyTime <= block.timestamp);\n    }\n\n    function getAllProjectsLength() public view returns (uint256) {\n        return allProjects.length;\n    }\n    \n    // dng chng trnh \n    function endProject(uint256 id) public {\n        uint256 i = find(id);\n        // require(\n        //     allProjects[i].amountDonated >= allProjects[i].amountNeeded,\n        //     'project doesnt have enough money'\n        // );\n        Project storage myProject = allProjects[id];\n        require(_isReady(myProject));\n        require(msg.sender == allProjects[i].program_creator,'you have no right');\n        emit Goal_Reached(\n            allProjects[i].program_creator,\n            address(this),\n            allProjects[i].amountDonated\n        );\n        allProjects[i].ongoing = false;\n        emit Project_Ended(\n            allProjects[i].program_creator,\n            address(this),\n            allProjects[i].amountDonated\n        );\n      \n        // //allProjects[i].program_creator.transfer(allProjects[i].amountDonated); // gi s d ti khon n program_creator\n        \n    }\n    // chuyn tin cho ngi th hng\n    function pay(uint256 id)public payable returns(uint256 ethers){\n        uint256 i = find(id);\n        require(msg.sender == allProjects[i].program_creator,'you have no right');\n        Receiver[] memory result = new Receiver[](IDReceiverAmount[id]);\n        result = getIdReceiver(id);\n        uint256 a = result.length;\n        if(a==0){\n            allProjects[i].recipient.transfer(allProjects[i].amountDonated);\n            return allProjects[i].amountDonated;\n        }else{\n            uint b = allProjects[i].amountDonated / (a+1);\n            allProjects[i].recipient.transfer(b);\n            for(uint256 p=0; p<a; p++){\n            result[p].receiverAddress.transfer(b);\n            }\n            return b;\n        }\n        \n    }\n\n    // function _isReady(Project storage _project) internal view returns (bool) {\n    //     return (_project.readyTime <= block.timestamp);\n    // }\n    \n\n    //xem mt project\n    function readSingleProject(uint256 id)\n        public\n        view\n        returns (\n            uint256,\n            address,\n            string memory,\n            string memory,\n            string memory,\n            uint256,\n            uint256,\n            bool,\n            string memory,\n            address,\n            address\n        )\n    {\n        uint256 i = find(id);\n        return (\n            allProjects[i].id,\n            allProjects[i].program_creator,\n            allProjects[i].projectName,\n            allProjects[i].location,\n            allProjects[i].description,\n            allProjects[i].amountNeeded,\n            allProjects[i].amountDonated,\n            allProjects[i].ongoing,\n            allProjects[i].imageUrl,\n            allProjects[i].projectAddress,\n            allProjects[i].recipient\n        );\n    }\n    // kim tra project c phi ca a ch ny hay khng\n    function isCharity() public view returns (bool) {\n        for (uint256 i = 0; i < allProjects.length; i++) {\n            if (allProjects[i].program_creator == msg.sender) {\n                return true;\n            }\n        }\n        return false;\n    }\n    // function () external fall {\n    //     revert('not sure what you are doing');\n    // }\n    // to ngi nhn ng h\n    function createRegistered_recipientStruct(uint256 id) internal {Receiver memory newReceiver = Receiver(\n        {receiverAddress: payable(msg.sender),\n            projectID: id\n        });\n        allReceviver.push(newReceiver);\n        IDReceiverAmount[newReceiver.projectID]++;\n    }\n    function Registered_recipient (uint256 id)public{\n        uint256 i = find(id);\n        require(allProjects[i].program_creator != msg.sender,'you cannot register');\n        require(allProjects[i].recipient != msg.sender,'you cannot register');\n        Receiver[] memory result = new Receiver[](IDReceiverAmount[id]);\n        result = getIdReceiver(id);\n        for(uint256 j=0;j<result.length;j++){\n            require(msg.sender != result[j].receiverAddress,'you are already registered');\n        }\n        createRegistered_recipientStruct(id);\n        \n    }\n    function getAllReceiver() public view returns(Receiver[] memory){\n        return allReceviver;\n    }\n    // ly ngi nhn theo 1 chng trnh\n    function getIdReceiver(uint256 id)public view returns(Receiver[] memory){\n        Receiver[] memory result = new Receiver[](IDReceiverAmount[id]);\n        uint256 count;\n        for(uint256 i=0;i<allReceviver.length;i++){\n            if(allReceviver[i].projectID == id){\n                result[count] = allReceviver[i];\n                count++;\n            }\n          }\n      return result;\n    }\n\n\n    //     //EVENTS\n    // s kin khi hp ng c to. Hin th a ch ch s hu, a ch hp ng v m t v hot ng gy qu\n    event Project_Created(\n        address indexed _from,\n        address indexed _project,\n        string _desription\n    );\n    // s kin khi tin c tng. Hin th a ch ca nh ti tr, hp ng gy qu c tng v gi tr c tng\n    event Funds_Donated(\n        address indexed _from,\n        address indexed _contract,\n        uint256 _value\n    );\n    // s kin khi t c mc tiu gy qu. Hin th a ch ngi nhn, a ch hp ng v s tin huy ng c\n    event Goal_Reached(\n        address indexed _from,\n        address indexed _contract,\n        uint256 _value\n    );\n    // s kin khi ngi nhn / ch s hu hp ng kt thc t gy qu. Hin th a ch ch s hu, a ch hp ng v s tin b k khai\n    event Project_Ended(\n        address indexed _from,\n        address indexed _contract,\n        uint256 _value\n    );\n}",
  "sourcePath": "/Users/nguyenngocha/Desktop/o an/project-charity-dapp/contracts/Charity.sol",
  "compiler": {
    "name": "solc",
    "version": "0.8.0+commit.c7dfd78e.Emscripten.clang"
  },
  "schemaVersion": "3.4.3",
  "updatedAt": "2021-11-26T04:23:29.686Z",
  "networkType": "ethereum",
  "devdoc": {
    "kind": "dev",
    "methods": {},
    "version": 1
  },
  "userdoc": {
    "kind": "user",
    "methods": {},
    "version": 1
  }
}