{
  "contractName": "Charity",
  "abi": [
    {
      "anonymous": false,
      "inputs": [
        {
          "indexed": true,
          "internalType": "address",
          "name": "_from",
          "type": "address"
        },
        {
          "indexed": true,
          "internalType": "address",
          "name": "_contract",
          "type": "address"
        },
        {
          "indexed": false,
          "internalType": "uint256",
          "name": "_value",
          "type": "uint256"
        }
      ],
      "name": "Funds_Donated",
      "type": "event"
    },
    {
      "anonymous": false,
      "inputs": [
        {
          "indexed": true,
          "internalType": "address",
          "name": "_from",
          "type": "address"
        },
        {
          "indexed": true,
          "internalType": "address",
          "name": "_contract",
          "type": "address"
        },
        {
          "indexed": false,
          "internalType": "uint256",
          "name": "_value",
          "type": "uint256"
        }
      ],
      "name": "Goal_Reached",
      "type": "event"
    },
    {
      "anonymous": false,
      "inputs": [
        {
          "indexed": true,
          "internalType": "address",
          "name": "_from",
          "type": "address"
        },
        {
          "indexed": true,
          "internalType": "address",
          "name": "_project",
          "type": "address"
        },
        {
          "indexed": false,
          "internalType": "string",
          "name": "_desription",
          "type": "string"
        }
      ],
      "name": "Project_Created",
      "type": "event"
    },
    {
      "anonymous": false,
      "inputs": [
        {
          "indexed": true,
          "internalType": "address",
          "name": "_from",
          "type": "address"
        },
        {
          "indexed": true,
          "internalType": "address",
          "name": "_contract",
          "type": "address"
        },
        {
          "indexed": false,
          "internalType": "uint256",
          "name": "_value",
          "type": "uint256"
        }
      ],
      "name": "Project_Ended",
      "type": "event"
    },
    {
      "inputs": [
        {
          "internalType": "uint256",
          "name": "",
          "type": "uint256"
        }
      ],
      "name": "IDDonateAmount",
      "outputs": [
        {
          "internalType": "uint256",
          "name": "",
          "type": "uint256"
        }
      ],
      "stateMutability": "view",
      "type": "function",
      "constant": true
    },
    {
      "inputs": [
        {
          "internalType": "uint256",
          "name": "",
          "type": "uint256"
        }
      ],
      "name": "IDReceiverAmount",
      "outputs": [
        {
          "internalType": "uint256",
          "name": "",
          "type": "uint256"
        }
      ],
      "stateMutability": "view",
      "type": "function",
      "constant": true
    },
    {
      "inputs": [
        {
          "internalType": "bool",
          "name": "",
          "type": "bool"
        }
      ],
      "name": "IDReceiverAmountTake",
      "outputs": [
        {
          "internalType": "uint256",
          "name": "",
          "type": "uint256"
        }
      ],
      "stateMutability": "view",
      "type": "function",
      "constant": true
    },
    {
      "inputs": [
        {
          "internalType": "uint256",
          "name": "",
          "type": "uint256"
        }
      ],
      "name": "allDonors",
      "outputs": [
        {
          "internalType": "address",
          "name": "donorAddress",
          "type": "address"
        },
        {
          "internalType": "uint256",
          "name": "amount",
          "type": "uint256"
        },
        {
          "internalType": "uint256",
          "name": "projectID",
          "type": "uint256"
        }
      ],
      "stateMutability": "view",
      "type": "function",
      "constant": true
    },
    {
      "inputs": [
        {
          "internalType": "uint256",
          "name": "",
          "type": "uint256"
        }
      ],
      "name": "allProjects",
      "outputs": [
        {
          "internalType": "uint256",
          "name": "id",
          "type": "uint256"
        },
        {
          "internalType": "address payable",
          "name": "program_creator",
          "type": "address"
        },
        {
          "internalType": "string",
          "name": "projectName",
          "type": "string"
        },
        {
          "internalType": "string",
          "name": "location",
          "type": "string"
        },
        {
          "internalType": "string",
          "name": "description",
          "type": "string"
        },
        {
          "internalType": "uint256",
          "name": "amountNeeded",
          "type": "uint256"
        },
        {
          "internalType": "uint256",
          "name": "amountDonated",
          "type": "uint256"
        },
        {
          "internalType": "string",
          "name": "imageUrl",
          "type": "string"
        },
        {
          "internalType": "string",
          "name": "imageUrl1",
          "type": "string"
        },
        {
          "internalType": "bool",
          "name": "ongoing",
          "type": "bool"
        },
        {
          "internalType": "address payable",
          "name": "recipient",
          "type": "address"
        },
        {
          "internalType": "uint32",
          "name": "readyTime",
          "type": "uint32"
        }
      ],
      "stateMutability": "view",
      "type": "function",
      "constant": true
    },
    {
      "inputs": [
        {
          "internalType": "uint256",
          "name": "",
          "type": "uint256"
        }
      ],
      "name": "allReceviver",
      "outputs": [
        {
          "internalType": "address payable",
          "name": "receiverAddress",
          "type": "address"
        },
        {
          "internalType": "uint256",
          "name": "projectID",
          "type": "uint256"
        },
        {
          "internalType": "string",
          "name": "nameR",
          "type": "string"
        },
        {
          "internalType": "string",
          "name": "locationR",
          "type": "string"
        },
        {
          "internalType": "string",
          "name": "descriptionR",
          "type": "string"
        },
        {
          "internalType": "string",
          "name": "CMND",
          "type": "string"
        },
        {
          "internalType": "string",
          "name": "imageUrlR",
          "type": "string"
        },
        {
          "internalType": "string",
          "name": "imageUrl1R",
          "type": "string"
        },
        {
          "internalType": "bool",
          "name": "take",
          "type": "bool"
        }
      ],
      "stateMutability": "view",
      "type": "function",
      "constant": true
    },
    {
      "inputs": [],
      "name": "nextId",
      "outputs": [
        {
          "internalType": "uint256",
          "name": "",
          "type": "uint256"
        }
      ],
      "stateMutability": "view",
      "type": "function",
      "constant": true
    },
    {
      "inputs": [
        {
          "internalType": "address",
          "name": "",
          "type": "address"
        }
      ],
      "name": "ownerProjectAmount",
      "outputs": [
        {
          "internalType": "uint256",
          "name": "",
          "type": "uint256"
        }
      ],
      "stateMutability": "view",
      "type": "function",
      "constant": true
    },
    {
      "inputs": [
        {
          "internalType": "uint256",
          "name": "id",
          "type": "uint256"
        }
      ],
      "name": "donate",
      "outputs": [],
      "stateMutability": "payable",
      "type": "function",
      "payable": true
    },
    {
      "inputs": [
        {
          "internalType": "string",
          "name": "name",
          "type": "string"
        },
        {
          "internalType": "string",
          "name": "location",
          "type": "string"
        },
        {
          "internalType": "string",
          "name": "description",
          "type": "string"
        },
        {
          "internalType": "uint256",
          "name": "amountNeeded",
          "type": "uint256"
        },
        {
          "internalType": "string",
          "name": "imageUrl",
          "type": "string"
        },
        {
          "internalType": "string",
          "name": "imageUrl1",
          "type": "string"
        },
        {
          "internalType": "address",
          "name": "recipient",
          "type": "address"
        }
      ],
      "name": "createProjectStruct",
      "outputs": [],
      "stateMutability": "nonpayable",
      "type": "function"
    },
    {
      "inputs": [],
      "name": "getAllDonors",
      "outputs": [
        {
          "components": [
            {
              "internalType": "address",
              "name": "donorAddress",
              "type": "address"
            },
            {
              "internalType": "uint256",
              "name": "amount",
              "type": "uint256"
            },
            {
              "internalType": "uint256",
              "name": "projectID",
              "type": "uint256"
            }
          ],
          "internalType": "struct Charity.Donor[]",
          "name": "",
          "type": "tuple[]"
        }
      ],
      "stateMutability": "view",
      "type": "function",
      "constant": true
    },
    {
      "inputs": [],
      "name": "getAllProjects",
      "outputs": [
        {
          "components": [
            {
              "internalType": "uint256",
              "name": "id",
              "type": "uint256"
            },
            {
              "internalType": "address payable",
              "name": "program_creator",
              "type": "address"
            },
            {
              "internalType": "string",
              "name": "projectName",
              "type": "string"
            },
            {
              "internalType": "string",
              "name": "location",
              "type": "string"
            },
            {
              "internalType": "string",
              "name": "description",
              "type": "string"
            },
            {
              "internalType": "uint256",
              "name": "amountNeeded",
              "type": "uint256"
            },
            {
              "internalType": "uint256",
              "name": "amountDonated",
              "type": "uint256"
            },
            {
              "internalType": "string",
              "name": "imageUrl",
              "type": "string"
            },
            {
              "internalType": "string",
              "name": "imageUrl1",
              "type": "string"
            },
            {
              "internalType": "bool",
              "name": "ongoing",
              "type": "bool"
            },
            {
              "internalType": "address payable",
              "name": "recipient",
              "type": "address"
            },
            {
              "internalType": "uint32",
              "name": "readyTime",
              "type": "uint32"
            }
          ],
          "internalType": "struct Charity.Project[]",
          "name": "",
          "type": "tuple[]"
        }
      ],
      "stateMutability": "view",
      "type": "function",
      "constant": true
    },
    {
      "inputs": [
        {
          "internalType": "uint256",
          "name": "id",
          "type": "uint256"
        }
      ],
      "name": "getAllidDonateLength",
      "outputs": [
        {
          "internalType": "uint256",
          "name": "",
          "type": "uint256"
        }
      ],
      "stateMutability": "view",
      "type": "function",
      "constant": true
    },
    {
      "inputs": [
        {
          "internalType": "uint256",
          "name": "id",
          "type": "uint256"
        }
      ],
      "name": "getDonor",
      "outputs": [
        {
          "components": [
            {
              "internalType": "address",
              "name": "donorAddress",
              "type": "address"
            },
            {
              "internalType": "uint256",
              "name": "amount",
              "type": "uint256"
            },
            {
              "internalType": "uint256",
              "name": "projectID",
              "type": "uint256"
            }
          ],
          "internalType": "struct Charity.Donor[]",
          "name": "",
          "type": "tuple[]"
        }
      ],
      "stateMutability": "view",
      "type": "function",
      "constant": true
    },
    {
      "inputs": [
        {
          "internalType": "address",
          "name": "_owner",
          "type": "address"
        }
      ],
      "name": "getAllOwnerProjectsLength",
      "outputs": [
        {
          "internalType": "uint256",
          "name": "",
          "type": "uint256"
        }
      ],
      "stateMutability": "view",
      "type": "function",
      "constant": true
    },
    {
      "inputs": [
        {
          "internalType": "address",
          "name": "_owner",
          "type": "address"
        }
      ],
      "name": "getOwnerProjects",
      "outputs": [
        {
          "components": [
            {
              "internalType": "uint256",
              "name": "id",
              "type": "uint256"
            },
            {
              "internalType": "address payable",
              "name": "program_creator",
              "type": "address"
            },
            {
              "internalType": "string",
              "name": "projectName",
              "type": "string"
            },
            {
              "internalType": "string",
              "name": "location",
              "type": "string"
            },
            {
              "internalType": "string",
              "name": "description",
              "type": "string"
            },
            {
              "internalType": "uint256",
              "name": "amountNeeded",
              "type": "uint256"
            },
            {
              "internalType": "uint256",
              "name": "amountDonated",
              "type": "uint256"
            },
            {
              "internalType": "string",
              "name": "imageUrl",
              "type": "string"
            },
            {
              "internalType": "string",
              "name": "imageUrl1",
              "type": "string"
            },
            {
              "internalType": "bool",
              "name": "ongoing",
              "type": "bool"
            },
            {
              "internalType": "address payable",
              "name": "recipient",
              "type": "address"
            },
            {
              "internalType": "uint32",
              "name": "readyTime",
              "type": "uint32"
            }
          ],
          "internalType": "struct Charity.Project[]",
          "name": "",
          "type": "tuple[]"
        }
      ],
      "stateMutability": "view",
      "type": "function",
      "constant": true
    },
    {
      "inputs": [],
      "name": "getAllProjectsLength",
      "outputs": [
        {
          "internalType": "uint256",
          "name": "",
          "type": "uint256"
        }
      ],
      "stateMutability": "view",
      "type": "function",
      "constant": true
    },
    {
      "inputs": [
        {
          "internalType": "uint256",
          "name": "id",
          "type": "uint256"
        }
      ],
      "name": "endProject",
      "outputs": [],
      "stateMutability": "nonpayable",
      "type": "function"
    },
    {
      "inputs": [
        {
          "internalType": "uint256",
          "name": "id",
          "type": "uint256"
        }
      ],
      "name": "pay",
      "outputs": [
        {
          "internalType": "uint256",
          "name": "ethers",
          "type": "uint256"
        }
      ],
      "stateMutability": "payable",
      "type": "function",
      "payable": true
    },
    {
      "inputs": [
        {
          "internalType": "uint256",
          "name": "id",
          "type": "uint256"
        }
      ],
      "name": "readSingleProject",
      "outputs": [
        {
          "internalType": "uint256",
          "name": "",
          "type": "uint256"
        },
        {
          "internalType": "address",
          "name": "",
          "type": "address"
        },
        {
          "internalType": "string",
          "name": "",
          "type": "string"
        },
        {
          "internalType": "string",
          "name": "",
          "type": "string"
        },
        {
          "internalType": "string",
          "name": "",
          "type": "string"
        },
        {
          "internalType": "uint256",
          "name": "",
          "type": "uint256"
        },
        {
          "internalType": "uint256",
          "name": "",
          "type": "uint256"
        },
        {
          "internalType": "bool",
          "name": "",
          "type": "bool"
        },
        {
          "internalType": "string",
          "name": "",
          "type": "string"
        },
        {
          "internalType": "address",
          "name": "",
          "type": "address"
        }
      ],
      "stateMutability": "view",
      "type": "function",
      "constant": true
    },
    {
      "inputs": [],
      "name": "isCharity",
      "outputs": [
        {
          "internalType": "bool",
          "name": "",
          "type": "bool"
        }
      ],
      "stateMutability": "view",
      "type": "function",
      "constant": true
    },
    {
      "inputs": [
        {
          "internalType": "uint256",
          "name": "id",
          "type": "uint256"
        },
        {
          "internalType": "string",
          "name": "nameR",
          "type": "string"
        },
        {
          "internalType": "string",
          "name": "locationR",
          "type": "string"
        },
        {
          "internalType": "string",
          "name": "descriptionR",
          "type": "string"
        },
        {
          "internalType": "string",
          "name": "CMND",
          "type": "string"
        },
        {
          "internalType": "string",
          "name": "imageUrlR",
          "type": "string"
        },
        {
          "internalType": "string",
          "name": "imageUrl1R",
          "type": "string"
        }
      ],
      "name": "createRegistered_recipientStruct",
      "outputs": [],
      "stateMutability": "nonpayable",
      "type": "function"
    },
    {
      "inputs": [],
      "name": "getAllReceiver",
      "outputs": [
        {
          "components": [
            {
              "internalType": "address payable",
              "name": "receiverAddress",
              "type": "address"
            },
            {
              "internalType": "uint256",
              "name": "projectID",
              "type": "uint256"
            },
            {
              "internalType": "string",
              "name": "nameR",
              "type": "string"
            },
            {
              "internalType": "string",
              "name": "locationR",
              "type": "string"
            },
            {
              "internalType": "string",
              "name": "descriptionR",
              "type": "string"
            },
            {
              "internalType": "string",
              "name": "CMND",
              "type": "string"
            },
            {
              "internalType": "string",
              "name": "imageUrlR",
              "type": "string"
            },
            {
              "internalType": "string",
              "name": "imageUrl1R",
              "type": "string"
            },
            {
              "internalType": "bool",
              "name": "take",
              "type": "bool"
            }
          ],
          "internalType": "struct Charity.Receiver[]",
          "name": "",
          "type": "tuple[]"
        }
      ],
      "stateMutability": "view",
      "type": "function",
      "constant": true
    },
    {
      "inputs": [
        {
          "internalType": "uint256",
          "name": "id",
          "type": "uint256"
        }
      ],
      "name": "getIdReceiver",
      "outputs": [
        {
          "components": [
            {
              "internalType": "address payable",
              "name": "receiverAddress",
              "type": "address"
            },
            {
              "internalType": "uint256",
              "name": "projectID",
              "type": "uint256"
            },
            {
              "internalType": "string",
              "name": "nameR",
              "type": "string"
            },
            {
              "internalType": "string",
              "name": "locationR",
              "type": "string"
            },
            {
              "internalType": "string",
              "name": "descriptionR",
              "type": "string"
            },
            {
              "internalType": "string",
              "name": "CMND",
              "type": "string"
            },
            {
              "internalType": "string",
              "name": "imageUrlR",
              "type": "string"
            },
            {
              "internalType": "string",
              "name": "imageUrl1R",
              "type": "string"
            },
            {
              "internalType": "bool",
              "name": "take",
              "type": "bool"
            }
          ],
          "internalType": "struct Charity.Receiver[]",
          "name": "",
          "type": "tuple[]"
        }
      ],
      "stateMutability": "view",
      "type": "function",
      "constant": true
    },
    {
      "inputs": [],
      "name": "getIdReceiverTake",
      "outputs": [
        {
          "components": [
            {
              "internalType": "address payable",
              "name": "receiverAddress",
              "type": "address"
            },
            {
              "internalType": "uint256",
              "name": "projectID",
              "type": "uint256"
            },
            {
              "internalType": "string",
              "name": "nameR",
              "type": "string"
            },
            {
              "internalType": "string",
              "name": "locationR",
              "type": "string"
            },
            {
              "internalType": "string",
              "name": "descriptionR",
              "type": "string"
            },
            {
              "internalType": "string",
              "name": "CMND",
              "type": "string"
            },
            {
              "internalType": "string",
              "name": "imageUrlR",
              "type": "string"
            },
            {
              "internalType": "string",
              "name": "imageUrl1R",
              "type": "string"
            },
            {
              "internalType": "bool",
              "name": "take",
              "type": "bool"
            }
          ],
          "internalType": "struct Charity.Receiver[]",
          "name": "",
          "type": "tuple[]"
        }
      ],
      "stateMutability": "view",
      "type": "function",
      "constant": true
    },
    {
      "inputs": [
        {
          "internalType": "address",
          "name": "a",
          "type": "address"
        }
      ],
      "name": "approveReceiver",
      "outputs": [],
      "stateMutability": "nonpayable",
      "type": "function"
    },
    {
      "inputs": [
        {
          "internalType": "address",
          "name": "a",
          "type": "address"
        }
      ],
      "name": "readSingleReceiver",
      "outputs": [
        {
          "internalType": "address",
          "name": "",
          "type": "address"
        },
        {
          "internalType": "uint256",
          "name": "",
          "type": "uint256"
        },
        {
          "internalType": "string",
          "name": "",
          "type": "string"
        },
        {
          "internalType": "string",
          "name": "",
          "type": "string"
        },
        {
          "internalType": "string",
          "name": "",
          "type": "string"
        },
        {
          "internalType": "string",
          "name": "",
          "type": "string"
        },
        {
          "internalType": "string",
          "name": "",
          "type": "string"
        },
        {
          "internalType": "string",
          "name": "",
          "type": "string"
        },
        {
          "internalType": "bool",
          "name": "",
          "type": "bool"
        }
      ],
      "stateMutability": "view",
      "type": "function",
      "constant": true
    }
  ],
  "bytecode": "0x6080604052600160005561025860015534801561001b57600080fd5b50614cfc8061002b6000396000f3fe60806040526004361061019c5760003560e01c8063744bc369116100ec578063aa8c508f1161008a578063c290d69111610064578063c290d691146104dd578063ecb85d34146104f0578063efd5bf8b14610510578063f14faf6f146105255761019c565b8063aa8c508f1461047d578063bc5edcdf1461049d578063be88322b146104bd5761019c565b806396d7e11d116100c657806396d7e11d1461040857806398e36b04146104285780639ba473461461043d578063a74bb4ad1461045d5761019c565b8063744bc369146103b35780637a5bdeb1146103d357806380d03829146103f35761019c565b80635529274e1161015957806361b8ce8c1161013357806361b8ce8c146103455780636c4ffc921461035a5780636d7932d11461036f57806372dbb89f146103915761019c565b80635529274e146102ce578063561ff027146103035780636136a906146103185761019c565b80631048e659146101a1578063246f220b146101d75780632c3e6963146102045780633330d8ca1461023357806346fa52a21461026957806353b3194c14610296575b600080fd5b3480156101ad57600080fd5b506101c16101bc3660046142db565b610538565b6040516101ce9190614aa4565b60405180910390f35b3480156101e357600080fd5b506101f76101f23660046142ba565b61054a565b6040516101ce9190614687565b34801561021057600080fd5b5061022461021f3660046143e1565b610a17565b6040516101ce93929190614604565b34801561023f57600080fd5b5061025361024e3660046143e1565b610a54565b6040516101ce9a99989796959493929190614b73565b34801561027557600080fd5b506102896102843660046143e1565b610ef0565b6040516101ce91906147d1565b3480156102a257600080fd5b506102b66102b13660046143e1565b6113ec565b6040516101ce9c9b9a99989796959493929190614aad565b3480156102da57600080fd5b506102ee6102e93660046143e1565b611721565b6040516101ce9998979695949392919061455a565b34801561030f57600080fd5b50610289611ab9565b34801561032457600080fd5b506103386103333660046143e1565b611eb8565b6040516101ce9190614625565b34801561035157600080fd5b506101c1612027565b34801561036657600080fd5b5061028961202d565b34801561037b57600080fd5b50610384612558565b6040516101ce91906148e6565b34801561039d57600080fd5b506103b16103ac3660046142ba565b6125d8565b005b3480156103bf57600080fd5b506103b16103ce3660046143e1565b6126bf565b3480156103df57600080fd5b506103b16103ee3660046143f9565b61294c565b3480156103ff57600080fd5b506101f7612d5b565b34801561041457600080fd5b506101c16104233660046142ba565b613100565b34801561043457600080fd5b5061033861311b565b34801561044957600080fd5b506101c16104583660046142ba565b613194565b34801561046957600080fd5b506101c16104783660046143e1565b6131a6565b34801561048957600080fd5b506101c16104983660046143e1565b6131b8565b3480156104a957600080fd5b506102ee6104b83660046142ba565b6131ca565b3480156104c957600080fd5b506103b16104d83660046142fb565b61372a565b6101c16104eb3660046143e1565b6139ff565b3480156104fc57600080fd5b506101c161050b3660046143e1565b613d2a565b34801561051c57600080fd5b506101c1613d3c565b6103b16105333660046143e1565b613d42565b60086020526000908152604090205481565b6001600160a01b0381166000908152600560205260408120546060919067ffffffffffffffff81111561058d57634e487b7160e01b600052604160045260246000fd5b6040519080825280602002602001820160405280156105c657816020015b6105b361408d565b8152602001906001900390816105ab5790505b5090506000805b600354811015610a0c57846001600160a01b03166003828154811061060257634e487b7160e01b600052603260045260246000fd5b600091825260209091206001600a9092020101546001600160a01b031614156109fa576003818154811061064657634e487b7160e01b600052603260045260246000fd5b90600052602060002090600a020160405180610180016040529081600082015481526020016001820160009054906101000a90046001600160a01b03166001600160a01b03166001600160a01b031681526020016002820180546106a990614c44565b80601f01602080910402602001604051908101604052809291908181526020018280546106d590614c44565b80156107225780601f106106f757610100808354040283529160200191610722565b820191906000526020600020905b81548152906001019060200180831161070557829003601f168201915b5050505050815260200160038201805461073b90614c44565b80601f016020809104026020016040519081016040528092919081815260200182805461076790614c44565b80156107b45780601f10610789576101008083540402835291602001916107b4565b820191906000526020600020905b81548152906001019060200180831161079757829003601f168201915b505050505081526020016004820180546107cd90614c44565b80601f01602080910402602001604051908101604052809291908181526020018280546107f990614c44565b80156108465780601f1061081b57610100808354040283529160200191610846565b820191906000526020600020905b81548152906001019060200180831161082957829003601f168201915b50505050508152602001600582015481526020016006820154815260200160078201805461087390614c44565b80601f016020809104026020016040519081016040528092919081815260200182805461089f90614c44565b80156108ec5780601f106108c1576101008083540402835291602001916108ec565b820191906000526020600020905b8154815290600101906020018083116108cf57829003601f168201915b5050505050815260200160088201805461090590614c44565b80601f016020809104026020016040519081016040528092919081815260200182805461093190614c44565b801561097e5780601f106109535761010080835404028352916020019161097e565b820191906000526020600020905b81548152906001019060200180831161096157829003601f168201915b50505091835250506009919091015460ff81161515602083015261010081046001600160a01b03166040830152600160a81b900463ffffffff1660609091015283518490849081106109e057634e487b7160e01b600052603260045260246000fd5b602002602001018190525081806109f690614c7f565b9250505b80610a0481614c7f565b9150506105cd565b50909150505b919050565b60028181548110610a2757600080fd5b60009182526020909120600390910201805460018201546002909201546001600160a01b03909116925083565b600080606080606060008060006060600080610a6f8c613ea5565b905060038181548110610a9257634e487b7160e01b600052603260045260246000fd5b90600052602060002090600a02016000015460038281548110610ac557634e487b7160e01b600052603260045260246000fd5b90600052602060002090600a020160010160009054906101000a90046001600160a01b031660038381548110610b0b57634e487b7160e01b600052603260045260246000fd5b90600052602060002090600a020160020160038481548110610b3d57634e487b7160e01b600052603260045260246000fd5b90600052602060002090600a020160030160038581548110610b6f57634e487b7160e01b600052603260045260246000fd5b90600052602060002090600a020160040160038681548110610ba157634e487b7160e01b600052603260045260246000fd5b90600052602060002090600a02016005015460038781548110610bd457634e487b7160e01b600052603260045260246000fd5b90600052602060002090600a02016006015460038881548110610c0757634e487b7160e01b600052603260045260246000fd5b90600052602060002090600a020160090160009054906101000a900460ff1660038981548110610c4757634e487b7160e01b600052603260045260246000fd5b90600052602060002090600a020160070160038a81548110610c7957634e487b7160e01b600052603260045260246000fd5b90600052602060002090600a020160090160019054906101000a90046001600160a01b0316878054610caa90614c44565b80601f0160208091040260200160405190810160405280929190818152602001828054610cd690614c44565b8015610d235780601f10610cf857610100808354040283529160200191610d23565b820191906000526020600020905b815481529060010190602001808311610d0657829003601f168201915b50505050509750868054610d3690614c44565b80601f0160208091040260200160405190810160405280929190818152602001828054610d6290614c44565b8015610daf5780601f10610d8457610100808354040283529160200191610daf565b820191906000526020600020905b815481529060010190602001808311610d9257829003601f168201915b50505050509650858054610dc290614c44565b80601f0160208091040260200160405190810160405280929190818152602001828054610dee90614c44565b8015610e3b5780601f10610e1057610100808354040283529160200191610e3b565b820191906000526020600020905b815481529060010190602001808311610e1e57829003601f168201915b50505050509550818054610e4e90614c44565b80601f0160208091040260200160405190810160405280929190818152602001828054610e7a90614c44565b8015610ec75780601f10610e9c57610100808354040283529160200191610ec7565b820191906000526020600020905b815481529060010190602001808311610eaa57829003601f168201915b505050505091509a509a509a509a509a509a509a509a509a509a50509193959799509193959799565b6000818152600760205260408120546060919067ffffffffffffffff811115610f2957634e487b7160e01b600052604160045260246000fd5b604051908082528060200260200182016040528015610f6257816020015b610f4f614108565b815260200190600190039081610f475790505b5090506000805b600454811015610a0c578460048281548110610f9557634e487b7160e01b600052603260045260246000fd5b90600052602060002090600902016001015414156113da5760048181548110610fce57634e487b7160e01b600052603260045260246000fd5b9060005260206000209060090201604051806101200160405290816000820160009054906101000a90046001600160a01b03166001600160a01b03166001600160a01b031681526020016001820154815260200160028201805461103190614c44565b80601f016020809104026020016040519081016040528092919081815260200182805461105d90614c44565b80156110aa5780601f1061107f576101008083540402835291602001916110aa565b820191906000526020600020905b81548152906001019060200180831161108d57829003601f168201915b505050505081526020016003820180546110c390614c44565b80601f01602080910402602001604051908101604052809291908181526020018280546110ef90614c44565b801561113c5780601f106111115761010080835404028352916020019161113c565b820191906000526020600020905b81548152906001019060200180831161111f57829003601f168201915b5050505050815260200160048201805461115590614c44565b80601f016020809104026020016040519081016040528092919081815260200182805461118190614c44565b80156111ce5780601f106111a3576101008083540402835291602001916111ce565b820191906000526020600020905b8154815290600101906020018083116111b157829003601f168201915b505050505081526020016005820180546111e790614c44565b80601f016020809104026020016040519081016040528092919081815260200182805461121390614c44565b80156112605780601f1061123557610100808354040283529160200191611260565b820191906000526020600020905b81548152906001019060200180831161124357829003601f168201915b5050505050815260200160068201805461127990614c44565b80601f01602080910402602001604051908101604052809291908181526020018280546112a590614c44565b80156112f25780601f106112c7576101008083540402835291602001916112f2565b820191906000526020600020905b8154815290600101906020018083116112d557829003601f168201915b5050505050815260200160078201805461130b90614c44565b80601f016020809104026020016040519081016040528092919081815260200182805461133790614c44565b80156113845780601f1061135957610100808354040283529160200191611384565b820191906000526020600020905b81548152906001019060200180831161136757829003601f168201915b50505091835250506008919091015460ff16151560209091015283518490849081106113c057634e487b7160e01b600052603260045260246000fd5b602002602001018190525081806113d690614c7f565b9250505b806113e481614c7f565b915050610f69565b600381815481106113fc57600080fd5b60009182526020909120600a90910201805460018201546002830180549294506001600160a01b03909116929161143290614c44565b80601f016020809104026020016040519081016040528092919081815260200182805461145e90614c44565b80156114ab5780601f10611480576101008083540402835291602001916114ab565b820191906000526020600020905b81548152906001019060200180831161148e57829003601f168201915b5050505050908060030180546114c090614c44565b80601f01602080910402602001604051908101604052809291908181526020018280546114ec90614c44565b80156115395780601f1061150e57610100808354040283529160200191611539565b820191906000526020600020905b81548152906001019060200180831161151c57829003601f168201915b50505050509080600401805461154e90614c44565b80601f016020809104026020016040519081016040528092919081815260200182805461157a90614c44565b80156115c75780601f1061159c576101008083540402835291602001916115c7565b820191906000526020600020905b8154815290600101906020018083116115aa57829003601f168201915b5050505050908060050154908060060154908060070180546115e890614c44565b80601f016020809104026020016040519081016040528092919081815260200182805461161490614c44565b80156116615780601f1061163657610100808354040283529160200191611661565b820191906000526020600020905b81548152906001019060200180831161164457829003601f168201915b50505050509080600801805461167690614c44565b80601f01602080910402602001604051908101604052809291908181526020018280546116a290614c44565b80156116ef5780601f106116c4576101008083540402835291602001916116ef565b820191906000526020600020905b8154815290600101906020018083116116d257829003601f168201915b5050506009909301549192505060ff8116906001600160a01b036101008204169063ffffffff600160a81b909104168c565b6004818154811061173157600080fd5b60009182526020909120600990910201805460018201546002830180546001600160a01b03909316945090929161176790614c44565b80601f016020809104026020016040519081016040528092919081815260200182805461179390614c44565b80156117e05780601f106117b5576101008083540402835291602001916117e0565b820191906000526020600020905b8154815290600101906020018083116117c357829003601f168201915b5050505050908060030180546117f590614c44565b80601f016020809104026020016040519081016040528092919081815260200182805461182190614c44565b801561186e5780601f106118435761010080835404028352916020019161186e565b820191906000526020600020905b81548152906001019060200180831161185157829003601f168201915b50505050509080600401805461188390614c44565b80601f01602080910402602001604051908101604052809291908181526020018280546118af90614c44565b80156118fc5780601f106118d1576101008083540402835291602001916118fc565b820191906000526020600020905b8154815290600101906020018083116118df57829003601f168201915b50505050509080600501805461191190614c44565b80601f016020809104026020016040519081016040528092919081815260200182805461193d90614c44565b801561198a5780601f1061195f5761010080835404028352916020019161198a565b820191906000526020600020905b81548152906001019060200180831161196d57829003601f168201915b50505050509080600601805461199f90614c44565b80601f01602080910402602001604051908101604052809291908181526020018280546119cb90614c44565b8015611a185780601f106119ed57610100808354040283529160200191611a18565b820191906000526020600020905b8154815290600101906020018083116119fb57829003601f168201915b505050505090806007018054611a2d90614c44565b80601f0160208091040260200160405190810160405280929190818152602001828054611a5990614c44565b8015611aa65780601f10611a7b57610100808354040283529160200191611aa6565b820191906000526020600020905b815481529060010190602001808311611a8957829003601f168201915b5050506008909301549192505060ff1689565b60606004805480602002602001604051908101604052809291908181526020016000905b82821015611eae57600084815260209081902060408051610120810182526009860290920180546001600160a01b0316835260018101549383019390935260028301805492939291840191611b3190614c44565b80601f0160208091040260200160405190810160405280929190818152602001828054611b5d90614c44565b8015611baa5780601f10611b7f57610100808354040283529160200191611baa565b820191906000526020600020905b815481529060010190602001808311611b8d57829003601f168201915b50505050508152602001600382018054611bc390614c44565b80601f0160208091040260200160405190810160405280929190818152602001828054611bef90614c44565b8015611c3c5780601f10611c1157610100808354040283529160200191611c3c565b820191906000526020600020905b815481529060010190602001808311611c1f57829003601f168201915b50505050508152602001600482018054611c5590614c44565b80601f0160208091040260200160405190810160405280929190818152602001828054611c8190614c44565b8015611cce5780601f10611ca357610100808354040283529160200191611cce565b820191906000526020600020905b815481529060010190602001808311611cb157829003601f168201915b50505050508152602001600582018054611ce790614c44565b80601f0160208091040260200160405190810160405280929190818152602001828054611d1390614c44565b8015611d605780601f10611d3557610100808354040283529160200191611d60565b820191906000526020600020905b815481529060010190602001808311611d4357829003601f168201915b50505050508152602001600682018054611d7990614c44565b80601f0160208091040260200160405190810160405280929190818152602001828054611da590614c44565b8015611df25780601f10611dc757610100808354040283529160200191611df2565b820191906000526020600020905b815481529060010190602001808311611dd557829003601f168201915b50505050508152602001600782018054611e0b90614c44565b80601f0160208091040260200160405190810160405280929190818152602001828054611e3790614c44565b8015611e845780601f10611e5957610100808354040283529160200191611e84565b820191906000526020600020905b815481529060010190602001808311611e6757829003601f168201915b50505091835250506008919091015460ff1615156020918201529082526001929092019101611add565b5050505090505b90565b6000818152600660205260408120546060919067ffffffffffffffff811115611ef157634e487b7160e01b600052604160045260246000fd5b604051908082528060200260200182016040528015611f2a57816020015b611f1761415f565b815260200190600190039081611f0f5790505b5090506000805b600254811015610a0c578460028281548110611f5d57634e487b7160e01b600052603260045260246000fd5b90600052602060002090600302016002015414156120155760028181548110611f9657634e487b7160e01b600052603260045260246000fd5b600091825260209182902060408051606081018252600390930290910180546001600160a01b03168352600181015493830193909352600290920154918101919091528351849084908110611ffb57634e487b7160e01b600052603260045260246000fd5b6020026020010181905250818061201190614c7f565b9250505b8061201f81614c7f565b915050611f31565b60005481565b6001600090815260086020527fad67d757c34507f157cacfa2e3153e9f260a2244f30428821be7be64587ac55f546060919067ffffffffffffffff81111561208557634e487b7160e01b600052604160045260246000fd5b6040519080825280602002602001820160405280156120be57816020015b6120ab614108565b8152602001906001900390816120a35790505b5090506000805b60045481101561255057600481815481106120f057634e487b7160e01b600052603260045260246000fd5b600091825260209091206008600990920201015460ff1615156001141561253e576004818154811061213257634e487b7160e01b600052603260045260246000fd5b9060005260206000209060090201604051806101200160405290816000820160009054906101000a90046001600160a01b03166001600160a01b03166001600160a01b031681526020016001820154815260200160028201805461219590614c44565b80601f01602080910402602001604051908101604052809291908181526020018280546121c190614c44565b801561220e5780601f106121e35761010080835404028352916020019161220e565b820191906000526020600020905b8154815290600101906020018083116121f157829003601f168201915b5050505050815260200160038201805461222790614c44565b80601f016020809104026020016040519081016040528092919081815260200182805461225390614c44565b80156122a05780601f10612275576101008083540402835291602001916122a0565b820191906000526020600020905b81548152906001019060200180831161228357829003601f168201915b505050505081526020016004820180546122b990614c44565b80601f01602080910402602001604051908101604052809291908181526020018280546122e590614c44565b80156123325780601f1061230757610100808354040283529160200191612332565b820191906000526020600020905b81548152906001019060200180831161231557829003601f168201915b5050505050815260200160058201805461234b90614c44565b80601f016020809104026020016040519081016040528092919081815260200182805461237790614c44565b80156123c45780601f10612399576101008083540402835291602001916123c4565b820191906000526020600020905b8154815290600101906020018083116123a757829003601f168201915b505050505081526020016006820180546123dd90614c44565b80601f016020809104026020016040519081016040528092919081815260200182805461240990614c44565b80156124565780601f1061242b57610100808354040283529160200191612456565b820191906000526020600020905b81548152906001019060200180831161243957829003601f168201915b5050505050815260200160078201805461246f90614c44565b80601f016020809104026020016040519081016040528092919081815260200182805461249b90614c44565b80156124e85780601f106124bd576101008083540402835291602001916124e8565b820191906000526020600020905b8154815290600101906020018083116124cb57829003601f168201915b50505091835250506008919091015460ff161515602090910152835184908490811061252457634e487b7160e01b600052603260045260246000fd5b6020026020010181905250818061253a90614c7f565b9250505b8061254881614c7f565b9150506120c5565b509091505090565b6000805b6003548110156125d057336001600160a01b03166003828154811061259157634e487b7160e01b600052603260045260246000fd5b600091825260209091206001600a9092020101546001600160a01b031614156125be576001915050611eb5565b806125c881614c7f565b91505061255c565b506000905090565b60006125e382613f1f565b90506125ed612558565b15156001146126175760405162461bcd60e51b815260040161260e906149db565b60405180910390fd5b60016004828154811061263a57634e487b7160e01b600052603260045260246000fd5b60009182526020822060086009909202018101805493151560ff1990941693909317909255600480548490811061268157634e487b7160e01b600052603260045260246000fd5b600091825260208083206008600990930201919091015460ff161515835282019290925260400181208054916126b683614c7f565b91905055505050565b60006126ca82613ea5565b9050600381815481106126ed57634e487b7160e01b600052603260045260246000fd5b60009182526020909120600a90910201600101546001600160a01b031633146127285760405162461bcd60e51b815260040161260e906149db565b306001600160a01b03166003828154811061275357634e487b7160e01b600052603260045260246000fd5b90600052602060002090600a020160010160009054906101000a90046001600160a01b03166001600160a01b03167fc677ee22205cecb2dd893a25f6fb1ead51dba3b724dbc541169086863a2ca396600384815481106127c357634e487b7160e01b600052603260045260246000fd5b90600052602060002090600a0201600601546040516127e29190614aa4565b60405180910390a360006003828154811061280d57634e487b7160e01b600052603260045260246000fd5b90600052602060002090600a020160090160006101000a81548160ff021916908315150217905550426003828154811061285757634e487b7160e01b600052603260045260246000fd5b90600052602060002090600a020160090160156101000a81548163ffffffff021916908363ffffffff160217905550306001600160a01b0316600382815481106128b157634e487b7160e01b600052603260045260246000fd5b90600052602060002090600a020160010160009054906101000a90046001600160a01b03166001600160a01b03167fa43e0a4d4c286e55da31fef2f0f60c4887ad5eed3cac930656a11a77dc9fe7a46003848154811061292157634e487b7160e01b600052603260045260246000fd5b90600052602060002090600a0201600601546040516129409190614aa4565b60405180910390a35050565b6000604051806101200160405280336001600160a01b0316815260200189815260200188815260200187815260200186815260200185815260200184815260200183815260200160001515815250905060006129a789613ea5565b9050336001600160a01b0316600382815481106129d457634e487b7160e01b600052603260045260246000fd5b600091825260209091206001600a9092020101546001600160a01b03161415612a0f5760405162461bcd60e51b815260040161260e906149ae565b336001600160a01b031660038281548110612a3a57634e487b7160e01b600052603260045260246000fd5b60009182526020909120600a909102016009015461010090046001600160a01b03161415612a7a5760405162461bcd60e51b815260040161260e906149ae565b60038181548110612a9b57634e487b7160e01b600052603260045260246000fd5b600091825260209091206009600a90920201015460ff16612ace5760405162461bcd60e51b815260040161260e9061494a565b60008981526007602052604081205467ffffffffffffffff811115612b0357634e487b7160e01b600052604160045260246000fd5b604051908082528060200260200182016040528015612b3c57816020015b612b29614108565b815260200190600190039081612b215790505b509050612b488a610ef0565b905060005b8151811015612bc557818181518110612b7657634e487b7160e01b600052603260045260246000fd5b6020026020010151600001516001600160a01b0316336001600160a01b03161415612bb35760405162461bcd60e51b815260040161260e90614a3d565b80612bbd81614c7f565b915050612b4d565b506004805460018101825560009190915283517f8a35acfbc15ff81a39ae7d344fd709f28e8600b4aa8c65c6b64bfe7fe36bd19b600990920291820180546001600160a01b0319166001600160a01b039092169190911781556020808601517f8a35acfbc15ff81a39ae7d344fd709f28e8600b4aa8c65c6b64bfe7fe36bd19c840155604086015180518794612c81937f8a35acfbc15ff81a39ae7d344fd709f28e8600b4aa8c65c6b64bfe7fe36bd19d909101920190614189565b5060608201518051612c9d916003840191602090910190614189565b5060808201518051612cb9916004840191602090910190614189565b5060a08201518051612cd5916005840191602090910190614189565b5060c08201518051612cf1916006840191602090910190614189565b5060e08201518051612d0d916007840191602090910190614189565b5061010091909101516008909101805460ff19169115159190911790556020838101516000908152600790915260408120805491612d4a83614c7f565b919050555050505050505050505050565b60606003805480602002602001604051908101604052809291908181526020016000905b82821015611eae5760008481526020908190206040805161018081018252600a86029092018054835260018101546001600160a01b03169383019390935260028301805492939291840191612dd390614c44565b80601f0160208091040260200160405190810160405280929190818152602001828054612dff90614c44565b8015612e4c5780601f10612e2157610100808354040283529160200191612e4c565b820191906000526020600020905b815481529060010190602001808311612e2f57829003601f168201915b50505050508152602001600382018054612e6590614c44565b80601f0160208091040260200160405190810160405280929190818152602001828054612e9190614c44565b8015612ede5780601f10612eb357610100808354040283529160200191612ede565b820191906000526020600020905b815481529060010190602001808311612ec157829003601f168201915b50505050508152602001600482018054612ef790614c44565b80601f0160208091040260200160405190810160405280929190818152602001828054612f2390614c44565b8015612f705780601f10612f4557610100808354040283529160200191612f70565b820191906000526020600020905b815481529060010190602001808311612f5357829003601f168201915b505050505081526020016005820154815260200160068201548152602001600782018054612f9d90614c44565b80601f0160208091040260200160405190810160405280929190818152602001828054612fc990614c44565b80156130165780601f10612feb57610100808354040283529160200191613016565b820191906000526020600020905b815481529060010190602001808311612ff957829003601f168201915b5050505050815260200160088201805461302f90614c44565b80601f016020809104026020016040519081016040528092919081815260200182805461305b90614c44565b80156130a85780601f1061307d576101008083540402835291602001916130a8565b820191906000526020600020905b81548152906001019060200180831161308b57829003601f168201915b50505091835250506009919091015460ff8116151560208084019190915261010082046001600160a01b03166040840152600160a81b90910463ffffffff166060909201919091529082526001929092019101612d7f565b6001600160a01b031660009081526005602052604090205490565b60606002805480602002602001604051908101604052809291908181526020016000905b82821015611eae576000848152602090819020604080516060810182526003860290920180546001600160a01b031683526001808201548486015260029091015491830191909152908352909201910161313f565b60056020526000908152604090205481565b60066020526000908152604090205481565b60009081526006602052604090205490565b6000806060806060806060806000806131e28b613f1f565b90506004818154811061320557634e487b7160e01b600052603260045260246000fd5b6000918252602090912060099091020154600480546001600160a01b03909216918390811061324457634e487b7160e01b600052603260045260246000fd5b9060005260206000209060090201600101546004838154811061327757634e487b7160e01b600052603260045260246000fd5b9060005260206000209060090201600201600484815481106132a957634e487b7160e01b600052603260045260246000fd5b9060005260206000209060090201600301600485815481106132db57634e487b7160e01b600052603260045260246000fd5b90600052602060002090600902016004016004868154811061330d57634e487b7160e01b600052603260045260246000fd5b90600052602060002090600902016005016004878154811061333f57634e487b7160e01b600052603260045260246000fd5b90600052602060002090600902016006016004888154811061337157634e487b7160e01b600052603260045260246000fd5b9060005260206000209060090201600701600489815481106133a357634e487b7160e01b600052603260045260246000fd5b906000526020600020906009020160080160009054906101000a900460ff168680546133ce90614c44565b80601f01602080910402602001604051908101604052809291908181526020018280546133fa90614c44565b80156134475780601f1061341c57610100808354040283529160200191613447565b820191906000526020600020905b81548152906001019060200180831161342a57829003601f168201915b5050505050965085805461345a90614c44565b80601f016020809104026020016040519081016040528092919081815260200182805461348690614c44565b80156134d35780601f106134a8576101008083540402835291602001916134d3565b820191906000526020600020905b8154815290600101906020018083116134b657829003601f168201915b505050505095508480546134e690614c44565b80601f016020809104026020016040519081016040528092919081815260200182805461351290614c44565b801561355f5780601f106135345761010080835404028352916020019161355f565b820191906000526020600020905b81548152906001019060200180831161354257829003601f168201915b5050505050945083805461357290614c44565b80601f016020809104026020016040519081016040528092919081815260200182805461359e90614c44565b80156135eb5780601f106135c0576101008083540402835291602001916135eb565b820191906000526020600020905b8154815290600101906020018083116135ce57829003601f168201915b505050505093508280546135fe90614c44565b80601f016020809104026020016040519081016040528092919081815260200182805461362a90614c44565b80156136775780601f1061364c57610100808354040283529160200191613677565b820191906000526020600020905b81548152906001019060200180831161365a57829003601f168201915b5050505050925081805461368a90614c44565b80601f01602080910402602001604051908101604052809291908181526020018280546136b690614c44565b80156137035780601f106136d857610100808354040283529160200191613703565b820191906000526020600020905b8154815290600101906020018083116136e657829003601f168201915b50505050509150995099509950995099509950995099509950509193959799909294969850565b60006040518061018001604052806000548152602001336001600160a01b0316815260200189815260200188815260200187815260200186815260200160008152602001858152602001848152602001600115158152602001836001600160a01b03168152602001600154426137a09190614c0c565b63ffffffff1690529050336001600160a01b03831614156137d35760405162461bcd60e51b815260040161260e90614904565b6003805460018101825560009190915281517fc2575a0e9e593c00f959f8c92f12db2869c3395a3b0502d05e2516446f71f85b600a9092029182019081556020808401517fc2575a0e9e593c00f959f8c92f12db2869c3395a3b0502d05e2516446f71f85c840180546001600160a01b0319166001600160a01b03909216919091179055604084015180518594613890937fc2575a0e9e593c00f959f8c92f12db2869c3395a3b0502d05e2516446f71f85d909101920190614189565b50606082015180516138ac916003840191602090910190614189565b50608082015180516138c8916004840191602090910190614189565b5060a0820151600582015560c0820151600682015560e082015180516138f8916007840191602090910190614189565b506101008201518051613915916008840191602090910190614189565b50610120820151600990910180546101408401516101609094015163ffffffff16600160a81b0263ffffffff60a81b196001600160a01b0390951661010002610100600160a81b031994151560ff199093169290921793909316179290921617905560008054908061398683614c7f565b90915550506020808201516001600160a01b031660009081526005909152604081208054916139b483614c7f565b9091555050604051309033907fb3baea71d4ddbfbb72a19472613826fbe33d620e97614dae28fd277f229fedd8906139ed908a906148f1565b60405180910390a35050505050505050565b6000600181613a0d84613ea5565b905060038181548110613a3057634e487b7160e01b600052603260045260246000fd5b60009182526020909120600a90910201600101546001600160a01b03163314613a6b5760405162461bcd60e51b815260040161260e906149db565b81151560009081526008602052604081205467ffffffffffffffff811115613aa357634e487b7160e01b600052604160045260246000fd5b604051908082528060200260200182016040528015613adc57816020015b613ac9614108565b815260200190600190039081613ac15790505b509050613ae761202d565b805190915080613be05760038381548110613b1257634e487b7160e01b600052603260045260246000fd5b90600052602060002090600a020160090160019054906101000a90046001600160a01b03166001600160a01b03166108fc60038581548110613b6457634e487b7160e01b600052603260045260246000fd5b90600052602060002090600a0201600601549081150290604051600060405180830381858888f19350505050158015613ba1573d6000803e3d6000fd5b5060038381548110613bc357634e487b7160e01b600052603260045260246000fd5b90600052602060002090600a020160060154945050505050610a12565b6000613bed826001614c0c565b60038581548110613c0e57634e487b7160e01b600052603260045260246000fd5b90600052602060002090600a020160060154613c2a9190614c24565b905060038481548110613c4d57634e487b7160e01b600052603260045260246000fd5b600091825260208220600a9190910201600901546040516101009091046001600160a01b0316916108fc841502918491818181858888f19350505050158015613c9a573d6000803e3d6000fd5b5060005b82811015613d1d57838181518110613cc657634e487b7160e01b600052603260045260246000fd5b6020026020010151600001516001600160a01b03166108fc839081150290604051600060405180830381858888f19350505050158015613d0a573d6000803e3d6000fd5b5080613d1581614c7f565b915050613c9e565b509450610a129350505050565b60076020526000908152604090205481565b60035490565b60003411613d625760405162461bcd60e51b815260040161260e90614979565b6000613d6d82613ea5565b905060038181548110613d9057634e487b7160e01b600052603260045260246000fd5b600091825260209091206009600a90920201015460ff16613dc35760405162461bcd60e51b815260040161260e9061494a565b613dcd3483613faa565b3460038281548110613def57634e487b7160e01b600052603260045260246000fd5b90600052602060002090600a02016006016000828254613e0f9190614c0c565b9091555050604051309033907f702ce8e2a7e3a8bc7ba50d9187386c652637c1e0a97f4c8ad4c2481e1ae0861a90613e48903490614aa4565b60405180910390a34260038281548110613e7257634e487b7160e01b600052603260045260246000fd5b60009182526020909120600a9091020160090154600160a81b900463ffffffff1611613ea157613ea1826126bf565b5050565b6000805b600354811015613f06578260038281548110613ed557634e487b7160e01b600052603260045260246000fd5b90600052602060002090600a0201600001541415613ef4579050610a12565b80613efe81614c7f565b915050613ea9565b5060405162461bcd60e51b815260040161260e90614a74565b6000805b600454811015613f9157826001600160a01b031660048281548110613f5857634e487b7160e01b600052603260045260246000fd5b60009182526020909120600990910201546001600160a01b03161415613f7f579050610a12565b80613f8981614c7f565b915050613f23565b5060405162461bcd60e51b815260040161260e90614a06565b60408051606081018252338152602080820185815282840185815260028054600181018255600091825285517f405787fa12a823e0f2b7631cc41b3ba8828b3321ca811111fa75cd3aa3bb5ace600390920291820180546001600160a01b0319166001600160a01b0390921691909117905592517f405787fa12a823e0f2b7631cc41b3ba8828b3321ca811111fa75cd3aa3bb5acf84015590517f405787fa12a823e0f2b7631cc41b3ba8828b3321ca811111fa75cd3aa3bb5ad090920182905590815260069091529182208054919261408383614c7f565b9190505550505050565b6040518061018001604052806000815260200160006001600160a01b031681526020016060815260200160608152602001606081526020016000815260200160008152602001606081526020016060815260200160001515815260200160006001600160a01b03168152602001600063ffffffff1681525090565b60405180610120016040528060006001600160a01b03168152602001600081526020016060815260200160608152602001606081526020016060815260200160608152602001606081526020016000151581525090565b604051806060016040528060006001600160a01b0316815260200160008152602001600081525090565b82805461419590614c44565b90600052602060002090601f0160209004810192826141b757600085556141fd565b82601f106141d057805160ff19168380011785556141fd565b828001600101855582156141fd579182015b828111156141fd5782518255916020019190600101906141e2565b5061420992915061420d565b5090565b5b80821115614209576000815560010161420e565b80356001600160a01b0381168114610a1257600080fd5b600082601f830112614249578081fd5b813567ffffffffffffffff8082111561426457614264614cb0565b604051601f8301601f19168101602001828111828210171561428857614288614cb0565b60405282815284830160200186101561429f578384fd5b82602086016020830137918201602001929092529392505050565b6000602082840312156142cb578081fd5b6142d482614222565b9392505050565b6000602082840312156142ec578081fd5b813580151581146142d4578182fd5b600080600080600080600060e0888a031215614315578283fd5b873567ffffffffffffffff8082111561432c578485fd5b6143388b838c01614239565b985060208a013591508082111561434d578485fd5b6143598b838c01614239565b975060408a013591508082111561436e578485fd5b61437a8b838c01614239565b965060608a0135955060808a0135915080821115614396578485fd5b6143a28b838c01614239565b945060a08a01359150808211156143b7578384fd5b506143c48a828b01614239565b9250506143d360c08901614222565b905092959891949750929550565b6000602082840312156143f2578081fd5b5035919050565b600080600080600080600060e0888a031215614413578283fd5b87359650602088013567ffffffffffffffff80821115614431578485fd5b61443d8b838c01614239565b975060408a0135915080821115614452578485fd5b61445e8b838c01614239565b965060608a0135915080821115614473578485fd5b61447f8b838c01614239565b955060808a0135915080821115614494578485fd5b6144a08b838c01614239565b945060a08a01359150808211156144b5578384fd5b6144c18b838c01614239565b935060c08a01359150808211156144d6578283fd5b506144e38a828b01614239565b91505092959891949750929550565b6001600160a01b03169052565b15159052565b60008151808452815b8181101561452a5760208185018101518683018201520161450e565b8181111561453b5782602083870101525b50601f01601f19169290920160200192915050565b63ffffffff169052565b6001600160a01b038a16815260208101899052610120604082018190526000906145868382018b614505565b9050828103606084015261459a818a614505565b905082810360808401526145ae8189614505565b905082810360a08401526145c28188614505565b905082810360c08401526145d68187614505565b905082810360e08401526145ea8186614505565b9150508215156101008301529a9950505050505050505050565b6001600160a01b039390931683526020830191909152604082015260600190565b602080825282518282018190526000919060409081850190868401855b8281101561467a57815180516001600160a01b0316855286810151878601528501518585015260609093019290850190600101614642565b5091979650505050505050565b60208082528251828201819052600091906040908185019080840286018301878501865b838110156147c357603f19898403018552815161018081518552888201516146d58a8701826144f2565b508782015181898701526146eb82870182614505565b915050606080830151868303828801526147058382614505565b92505050608080830151868303828801526147208382614505565b9250505060a080830151818701525060c080830151818701525060e080830151868303828801526147518382614505565b92505050610100808301518683038288015261476d8382614505565b9250505061012080830151614784828801826144ff565b505061014080830151614799828801826144f2565b505061016091820151916147af86820184614550565b5095880195935050908601906001016146ab565b509098975050505050505050565b60208082528251828201819052600091906040908185019080840286018301878501865b838110156147c357603f1989840301855281516101206148168583516144f2565b888201518986015287820151818987015261483382870182614505565b9150506060808301518683038288015261484d8382614505565b92505050608080830151868303828801526148688382614505565b9250505060a080830151868303828801526148838382614505565b9250505060c0808301518683038288015261489e8382614505565b9250505060e080830151868303828801526148b98382614505565b925050506101008083015192506148d2818701846144ff565b5095880195935050908601906001016147f5565b901515815260200190565b6000602082526142d46020830184614505565b60208082526026908201527f646f6573206e6f7420616c6c6f7720796f7520746f20626520746865207265636040820152651a5c1a595b9d60d21b606082015260800190565b602080825260159082015274151a19481c1c9bd9dc985b481a5cc818db1bdcd959605a1b604082015260600190565b6020808252818101527f506c6561736520646f6e6f7465206d6f7265207468656e203020616d6f756e74604082015260600190565b6020808252601390820152723cb7ba9031b0b73737ba103932b3b4b9ba32b960691b604082015260600190565b6020808252601190820152701e5bdd481a185d99481b9bc81c9a59da1d607a1b604082015260600190565b60208082526017908201527f526563656976657220646f6573206e6f74206578697374000000000000000000604082015260600190565b6020808252601a908201527f796f752061726520616c72656164792072656769737465726564000000000000604082015260600190565b602080825260169082015275141c9bda9958dd08191bd95cc81b9bdd08195e1a5cdd60521b604082015260600190565b90815260200190565b8c81526001600160a01b038c16602082015261018060408201819052600090614ad88382018e614505565b90508281036060840152614aec818d614505565b90508281036080840152614b00818c614505565b90508960a08401528860c084015282810360e0840152614b208189614505565b9050828103610100840152614b358188614505565b915050614b466101208301866144ff565b614b546101408301856144f2565b614b62610160830184614550565b9d9c50505050505050505050505050565b8a81526001600160a01b038a8116602083015261014060408301819052600091614b9f8483018d614505565b91508382036060850152614bb3828c614505565b91508382036080850152614bc7828b614505565b91508860a08501528760c085015286151560e0850152838203610100850152614bf08287614505565b925080851661012085015250509b9a5050505050505050505050565b60008219821115614c1f57614c1f614c9a565b500190565b600082614c3f57634e487b7160e01b81526012600452602481fd5b500490565b600281046001821680614c5857607f821691505b60208210811415614c7957634e487b7160e01b600052602260045260246000fd5b50919050565b6000600019821415614c9357614c93614c9a565b5060010190565b634e487b7160e01b600052601160045260246000fd5b634e487b7160e01b600052604160045260246000fdfea264697066735822122007a63455cfcba37a698223310259f80659c461f0a0ca45b8c2d65be29eaf23c764736f6c63430008000033",
  "immutableReferences": {},
  "source": "// SPDX-License-Identifier: MIT\npragma solidity ^0.8.0;\n\ncontract Charity {\n    \n    struct Project {\n        uint256 id;\n        address payable program_creator;\n        string projectName;\n        string location;\n        string description;\n        uint256 amountNeeded;\n        uint256 amountDonated;\n        string imageUrl;\n        string imageUrl1;\n        bool ongoing;\n        //address projectAddress;\n        address payable recipient;\n        uint32 readyTime;\n    }\n\n    struct Donor {\n        address donorAddress;\n        uint256 amount;\n        uint256 projectID;\n    }\n    \n    struct Receiver {\n        address payable receiverAddress;\n        uint256 projectID;\n        string nameR;\n        string locationR;\n        string descriptionR;\n        string CMND;\n        string imageUrlR;\n        string imageUrl1R;\n        bool take;\n    }\n    uint256 public nextId = 1;\n    uint cooldownTime = 10 minutes;\n    Donor[] public allDonors;   // mang donate\n    Project[] public allProjects; //mang project\n    Receiver[] public allReceviver; //mang nguoi nhan\n    mapping (address => uint256) public ownerProjectAmount;\n    mapping (uint256 => uint256) public IDDonateAmount;\n    mapping (uint256 => uint256) public IDReceiverAmount;\n    mapping (bool => uint256) public IDReceiverAmountTake;\n    \n    function createDonationStruct(uint256 amount, uint256 id) internal {Donor memory newDonor = Donor(\n        {donorAddress: msg.sender,\n            amount: amount,\n            projectID: id\n        });\n        allDonors.push(newDonor);\n        IDDonateAmount[newDonor.projectID]++;\n    }\n\n    function donate(uint256 id) public payable {\n        require(msg.value > 0, 'Please donote more then 0 amount');\n        //tm project\n\n        uint256 i = find(id);\n        // require(\n        //     allProjects[i].program_creator != msg.sender,\n        //     'Please donate from another wallet'\n        // );\n        // require(isCharity() == false, 'cannot donate.');\n        require(allProjects[i].ongoing != false,'The program is closed');\n        // require(allProjects[i].amountDonated < allProjects[i].amountNeeded, 'the project already raised enough money');\n        createDonationStruct(msg.value, id);\n        // this.balance.transfer(msg.value);\n        allProjects[i].amountDonated += msg.value;\n        emit Funds_Donated(msg.sender, address(this), msg.value);\n        // if (allProjects[i].amountDonated >= allProjects[i].amountNeeded) {\n        //     //chy chc nng  kt thc d n\n        //     endProject(allProjects[i].id);\n        //     // emit Goal_Reached(\n        //     //     allProjects[i].program_creator,\n        //     //     address(this),\n        //     //     allProjects[i].amountDonated\n        //     // );\n        // }\n        if(allProjects[i].readyTime <= block.timestamp){\n            endProject(id);\n        }\n        \n    }\n    // to  project ku gi ng h (tn, m t, s tin cn, nh)\n    function createProjectStruct(string memory name,string memory location,string memory description,uint256 amountNeeded,string memory imageUrl,string memory imageUrl1,address recipient) public {\n        Project memory newProject = Project({\n            id: nextId,\n            program_creator: payable(msg.sender),\n            projectName: name,\n            location:location,\n            description: description,\n            amountNeeded: amountNeeded,\n            amountDonated: 0,\n            imageUrl: imageUrl,\n            imageUrl1: imageUrl1,\n            ongoing: true,\n            // projectAddress: address(this),\n            recipient: payable(recipient),\n            readyTime: uint32(block.timestamp + cooldownTime)\n        });\n        require(msg.sender != recipient,'does not allow you to be the recipient');\n        allProjects.push(newProject);\n        nextId++;\n        ownerProjectAmount[newProject.program_creator]++;\n        \n        emit Project_Created(msg.sender, address(this), description);\n    }\n    function getAllDonors()public view returns(Donor[] memory){\n        return allDonors;\n    }\n    \n    function getAllProjects() public view returns(Project[] memory){\n        return allProjects;\n    }\n    \n    function getAllidDonateLength(uint256 id) public view returns (uint256) {\n        return IDDonateAmount[id];\n    }\n    \n    //danh sch ng h ca mt chng trnh\n    function getDonor(uint256 id)public view returns(Donor[] memory){\n        Donor[] memory result = new Donor[](IDDonateAmount[id]);\n        uint256 count;\n        for(uint256 i=0;i<allDonors.length;i++){\n            if(allDonors[i].projectID == id){\n                result[count] = allDonors[i];\n                count++;\n            }\n          }\n      return result;\n    }\n    \n    function getAllOwnerProjectsLength(address _owner) public view returns (uint256) {\n        return ownerProjectAmount[_owner];\n    }\n    \n    // danh sch chng trnh ca mt ti khon \n    function getOwnerProjects(address _owner) public view returns (Project[] memory ) {\n        Project[] memory result = new Project[](ownerProjectAmount[_owner]);\n        \n      uint count=0;\n      for(uint i=0;i<allProjects.length;i++){\n          if(allProjects[i].program_creator == _owner){\n              result[count]=allProjects[i];\n              count++;\n          }\n      }\n      return result;\n      \n    }\n    \n    \n    // tm project theo id\n    function find(uint256 id) internal view returns (uint256) {\n        for (uint256 i = 0; i < allProjects.length; i++) {\n            if (allProjects[i].id == id) {\n                return i;\n            }\n        }\n        revert('Project does not exist');\n    }\n    // tm receiver theo address\n    function findAdd(address a) internal view returns (uint256) {\n        for (uint256 i = 0; i < allReceviver.length; i++) {\n            if (allReceviver[i].receiverAddress == a) {\n                return i;\n            }\n        }\n        revert('Receiver does not exist');\n    }\n\n\n    function _isReady(Project storage _project) internal view returns (bool) {\n        return (_project.readyTime <= block.timestamp);\n    }\n\n    function getAllProjectsLength() public view returns (uint256) {\n        return allProjects.length;\n    }\n    \n    // dng chng trnh \n    function endProject(uint256 id) public {\n        uint256 i = find(id);\n        // require(\n        //     allProjects[i].amountDonated >= allProjects[i].amountNeeded,\n        //     'project doesnt have enough money'\n        // );\n        // Project storage myProject = allProjects[id];\n        // require(_isReady(myProject));\n        require(msg.sender == allProjects[i].program_creator,'you have no right');\n        emit Goal_Reached(\n            allProjects[i].program_creator,\n            address(this),\n            allProjects[i].amountDonated\n        );\n        allProjects[i].ongoing = false;\n        allProjects[i].readyTime = uint32(block.timestamp);\n        emit Project_Ended(\n            allProjects[i].program_creator,\n            address(this),\n            allProjects[i].amountDonated\n        );\n      \n         //allProjects[i].program_creator.transfer(allProjects[i].amountDonated); // gi s d ti khon n program_creator\n        \n    }\n\n    // chuyn tin cho ngi th hng\n    function pay(uint256 id)public payable returns(uint256 ethers){\n        bool check = true;\n        uint256 i = find(id);\n        require(msg.sender == allProjects[i].program_creator,'you have no right');\n        Receiver[] memory result = new Receiver[](IDReceiverAmountTake[check]);\n        result = getIdReceiverTake();\n        uint256 a = result.length;\n        if(a==0){\n            allProjects[i].recipient.transfer(allProjects[i].amountDonated);\n            return allProjects[i].amountDonated;\n        }else{\n            uint b = allProjects[i].amountDonated / (a+1);\n            allProjects[i].recipient.transfer(b);\n            for(uint256 p=0; p<a; p++){\n            result[p].receiverAddress.transfer(b);\n            }\n            return b;\n        } \n    }\n\n    //xem mt project\n    function readSingleProject(uint256 id)\n        public\n        view\n        returns (\n            uint256,\n            address,\n            string memory,\n            string memory,\n            string memory,\n            uint256,\n            uint256,\n            bool,\n            string memory,\n            address\n        )\n    {\n        uint256 i = find(id);\n        return (\n            allProjects[i].id,\n            allProjects[i].program_creator,\n            allProjects[i].projectName,\n            allProjects[i].location,\n            allProjects[i].description,\n            allProjects[i].amountNeeded,\n            allProjects[i].amountDonated,\n            allProjects[i].ongoing,\n            allProjects[i].imageUrl,\n    \n            //allProjects[i].projectAddress,\n            allProjects[i].recipient\n        );\n    }\n    // kim tra project c phi ca a ch ny hay khng\n    function isCharity() public view returns (bool) {\n        for (uint256 i = 0; i < allProjects.length; i++) {\n            if (allProjects[i].program_creator == msg.sender) {\n                return true;\n            }\n        }\n        return false;\n    }\n    \n    // function () external fall {\n    //     revert('not sure what you are doing');\n    // }\n    // to ngi nhn ng h\n    function createRegistered_recipientStruct(uint256 id,string memory nameR,string memory locationR, string memory descriptionR,string memory CMND,string memory imageUrlR,string memory imageUrl1R) public {\n        Receiver memory newReceiver = Receiver(\n        {receiverAddress: payable(msg.sender),\n            projectID: id,\n            nameR: nameR,\n            locationR: locationR,\n            descriptionR: descriptionR,\n            CMND: CMND,\n            imageUrlR: imageUrlR,\n            imageUrl1R: imageUrl1R,\n            take: false\n        });\n        uint256 i = find(id);\n        require(allProjects[i].program_creator != msg.sender,'you cannot register');\n        require(allProjects[i].recipient != msg.sender,'you cannot register');\n        require(allProjects[i].ongoing != false,'The program is closed');\n        Receiver[] memory result = new Receiver[](IDReceiverAmount[id]);\n        result = getIdReceiver(id);\n        for(uint256 j=0;j<result.length;j++){\n            require(msg.sender != result[j].receiverAddress,'you are already registered');\n        }\n        allReceviver.push(newReceiver);\n        IDReceiverAmount[newReceiver.projectID]++;\n    }\n \n    function getAllReceiver() public view returns(Receiver[] memory){\n        return allReceviver;\n    }\n    // ly ngi nhn theo 1 chng trnh\n    function getIdReceiver(uint256 id)public view returns(Receiver[] memory){\n        Receiver[] memory result = new Receiver[](IDReceiverAmount[id]);\n        uint256 count;  \n        for(uint256 i=0;i<allReceviver.length;i++){\n            if(allReceviver[i].projectID == id){\n                result[count] = allReceviver[i];\n                count++;\n           }\n          }\n      return result;\n    }\n    // ly s ngi c duyt\n    function getIdReceiverTake()public view returns(Receiver[] memory){\n        Receiver[] memory result = new Receiver[](IDReceiverAmountTake[true]);\n        uint256 count;  \n        for(uint256 i=0;i<allReceviver.length;i++){\n            if(allReceviver[i].take == true){\n                result[count] = allReceviver[i];\n                count++;\n           }\n          }\n      return result;\n    }\n    // ph duyt ngi nhn\n    function approveReceiver(address a)public {\n        uint256 i = findAdd(a);\n        require(isCharity() == true, 'you have no right');\n        \n        allReceviver[i].take = true;\n        IDReceiverAmountTake[allReceviver[i].take]++;\n    }\n\n    // xem thng tin ngi nhn\n    function readSingleReceiver(address a)\n        public\n        view\n        returns (\n            address,\n            uint256,\n            string memory,\n            string memory,\n            string memory,\n            string memory,\n            string memory,\n            string memory,\n            bool\n        )\n    {\n        uint256 i = findAdd(a);\n        return (\n            allReceviver[i].receiverAddress,\n            allReceviver[i].projectID,\n            allReceviver[i].nameR,\n            allReceviver[i].locationR,\n            allReceviver[i].descriptionR,\n            allReceviver[i].CMND,\n            allReceviver[i].imageUrlR,\n            allReceviver[i].imageUrl1R,\n            allReceviver[i].take\n        );\n    }\n\n   \n\n\n    //     //EVENTS\n    // s kin khi hp ng c to. Hin th a ch ch s hu, a ch hp ng v m t v hot ng gy qu\n    event Project_Created(\n        address indexed _from,\n        address indexed _project,\n        string _desription\n    );\n    // s kin khi tin c tng. Hin th a ch ca nh ti tr, hp ng gy qu c tng v gi tr c tng\n    event Funds_Donated(\n        address indexed _from,\n        address indexed _contract,\n        uint256 _value\n    );\n    // s kin khi t c mc tiu gy qu. Hin th a ch ngi nhn, a ch hp ng v s tin huy ng c\n    event Goal_Reached(\n        address indexed _from,\n        address indexed _contract,\n        uint256 _value\n    );\n    // s kin khi ngi nhn / ch s hu hp ng kt thc t gy qu. Hin th a ch ch s hu, a ch hp ng v s tin b k khai\n    event Project_Ended(\n        address indexed _from,\n        address indexed _contract,\n        uint256 _value\n    );\n \n} ",
  "sourcePath": "/Users/nguyenngocha/Desktop/o an/project-charity-dapp/contracts/Charity.sol",
  "compiler": {
    "name": "solc",
    "version": "0.8.0+commit.c7dfd78e.Emscripten.clang"
  },
  "schemaVersion": "3.4.3",
  "updatedAt": "2021-12-07T20:52:19.357Z",
  "networkType": "ethereum",
  "devdoc": {
    "kind": "dev",
    "methods": {},
    "version": 1
  },
  "userdoc": {
    "kind": "user",
    "methods": {},
    "version": 1
  }
}