{
  "contractName": "Charity",
  "abi": [
    {
      "anonymous": false,
      "inputs": [
        {
          "indexed": true,
          "internalType": "address",
          "name": "_from",
          "type": "address"
        },
        {
          "indexed": true,
          "internalType": "address",
          "name": "_contract",
          "type": "address"
        },
        {
          "indexed": false,
          "internalType": "uint256",
          "name": "_value",
          "type": "uint256"
        }
      ],
      "name": "Funds_Donated",
      "type": "event"
    },
    {
      "anonymous": false,
      "inputs": [
        {
          "indexed": true,
          "internalType": "address",
          "name": "_from",
          "type": "address"
        },
        {
          "indexed": true,
          "internalType": "address",
          "name": "_contract",
          "type": "address"
        },
        {
          "indexed": false,
          "internalType": "uint256",
          "name": "_value",
          "type": "uint256"
        }
      ],
      "name": "Goal_Reached",
      "type": "event"
    },
    {
      "anonymous": false,
      "inputs": [
        {
          "indexed": true,
          "internalType": "address",
          "name": "_from",
          "type": "address"
        },
        {
          "indexed": true,
          "internalType": "address",
          "name": "_project",
          "type": "address"
        },
        {
          "indexed": false,
          "internalType": "string",
          "name": "_desription",
          "type": "string"
        }
      ],
      "name": "Project_Created",
      "type": "event"
    },
    {
      "anonymous": false,
      "inputs": [
        {
          "indexed": true,
          "internalType": "address",
          "name": "_from",
          "type": "address"
        },
        {
          "indexed": true,
          "internalType": "address",
          "name": "_contract",
          "type": "address"
        },
        {
          "indexed": false,
          "internalType": "uint256",
          "name": "_value",
          "type": "uint256"
        }
      ],
      "name": "Project_Ended",
      "type": "event"
    },
    {
      "inputs": [
        {
          "internalType": "uint256",
          "name": "",
          "type": "uint256"
        }
      ],
      "name": "IDDonateAmount",
      "outputs": [
        {
          "internalType": "uint256",
          "name": "",
          "type": "uint256"
        }
      ],
      "stateMutability": "view",
      "type": "function",
      "constant": true
    },
    {
      "inputs": [
        {
          "internalType": "uint256",
          "name": "",
          "type": "uint256"
        }
      ],
      "name": "IDReceiverAmount",
      "outputs": [
        {
          "internalType": "uint256",
          "name": "",
          "type": "uint256"
        }
      ],
      "stateMutability": "view",
      "type": "function",
      "constant": true
    },
    {
      "inputs": [
        {
          "internalType": "uint256",
          "name": "",
          "type": "uint256"
        }
      ],
      "name": "allDonors",
      "outputs": [
        {
          "internalType": "address",
          "name": "donorAddress",
          "type": "address"
        },
        {
          "internalType": "uint256",
          "name": "amount",
          "type": "uint256"
        },
        {
          "internalType": "uint256",
          "name": "projectID",
          "type": "uint256"
        }
      ],
      "stateMutability": "view",
      "type": "function",
      "constant": true
    },
    {
      "inputs": [
        {
          "internalType": "uint256",
          "name": "",
          "type": "uint256"
        }
      ],
      "name": "allProjects",
      "outputs": [
        {
          "internalType": "uint256",
          "name": "id",
          "type": "uint256"
        },
        {
          "internalType": "address payable",
          "name": "program_creator",
          "type": "address"
        },
        {
          "internalType": "string",
          "name": "projectName",
          "type": "string"
        },
        {
          "internalType": "string",
          "name": "location",
          "type": "string"
        },
        {
          "internalType": "string",
          "name": "description",
          "type": "string"
        },
        {
          "internalType": "uint256",
          "name": "amountNeeded",
          "type": "uint256"
        },
        {
          "internalType": "uint256",
          "name": "amountDonated",
          "type": "uint256"
        },
        {
          "internalType": "string",
          "name": "imageUrl",
          "type": "string"
        },
        {
          "internalType": "string",
          "name": "imageUrl1",
          "type": "string"
        },
        {
          "internalType": "bool",
          "name": "ongoing",
          "type": "bool"
        },
        {
          "internalType": "address payable",
          "name": "recipient",
          "type": "address"
        },
        {
          "internalType": "uint32",
          "name": "readyTime",
          "type": "uint32"
        }
      ],
      "stateMutability": "view",
      "type": "function",
      "constant": true
    },
    {
      "inputs": [
        {
          "internalType": "uint256",
          "name": "",
          "type": "uint256"
        }
      ],
      "name": "allReceviver",
      "outputs": [
        {
          "internalType": "address payable",
          "name": "receiverAddress",
          "type": "address"
        },
        {
          "internalType": "uint256",
          "name": "projectID",
          "type": "uint256"
        }
      ],
      "stateMutability": "view",
      "type": "function",
      "constant": true
    },
    {
      "inputs": [],
      "name": "nextId",
      "outputs": [
        {
          "internalType": "uint256",
          "name": "",
          "type": "uint256"
        }
      ],
      "stateMutability": "view",
      "type": "function",
      "constant": true
    },
    {
      "inputs": [
        {
          "internalType": "address",
          "name": "",
          "type": "address"
        }
      ],
      "name": "ownerProjectAmount",
      "outputs": [
        {
          "internalType": "uint256",
          "name": "",
          "type": "uint256"
        }
      ],
      "stateMutability": "view",
      "type": "function",
      "constant": true
    },
    {
      "inputs": [
        {
          "internalType": "uint256",
          "name": "id",
          "type": "uint256"
        }
      ],
      "name": "donate",
      "outputs": [],
      "stateMutability": "payable",
      "type": "function",
      "payable": true
    },
    {
      "inputs": [
        {
          "internalType": "string",
          "name": "name",
          "type": "string"
        },
        {
          "internalType": "string",
          "name": "location",
          "type": "string"
        },
        {
          "internalType": "string",
          "name": "description",
          "type": "string"
        },
        {
          "internalType": "uint256",
          "name": "amountNeeded",
          "type": "uint256"
        },
        {
          "internalType": "string",
          "name": "imageUrl",
          "type": "string"
        },
        {
          "internalType": "string",
          "name": "imageUrl1",
          "type": "string"
        },
        {
          "internalType": "address",
          "name": "recipient",
          "type": "address"
        }
      ],
      "name": "createProjectStruct",
      "outputs": [],
      "stateMutability": "nonpayable",
      "type": "function"
    },
    {
      "inputs": [],
      "name": "getAllDonors",
      "outputs": [
        {
          "components": [
            {
              "internalType": "address",
              "name": "donorAddress",
              "type": "address"
            },
            {
              "internalType": "uint256",
              "name": "amount",
              "type": "uint256"
            },
            {
              "internalType": "uint256",
              "name": "projectID",
              "type": "uint256"
            }
          ],
          "internalType": "struct Charity.Donor[]",
          "name": "",
          "type": "tuple[]"
        }
      ],
      "stateMutability": "view",
      "type": "function",
      "constant": true
    },
    {
      "inputs": [],
      "name": "getAllProjects",
      "outputs": [
        {
          "components": [
            {
              "internalType": "uint256",
              "name": "id",
              "type": "uint256"
            },
            {
              "internalType": "address payable",
              "name": "program_creator",
              "type": "address"
            },
            {
              "internalType": "string",
              "name": "projectName",
              "type": "string"
            },
            {
              "internalType": "string",
              "name": "location",
              "type": "string"
            },
            {
              "internalType": "string",
              "name": "description",
              "type": "string"
            },
            {
              "internalType": "uint256",
              "name": "amountNeeded",
              "type": "uint256"
            },
            {
              "internalType": "uint256",
              "name": "amountDonated",
              "type": "uint256"
            },
            {
              "internalType": "string",
              "name": "imageUrl",
              "type": "string"
            },
            {
              "internalType": "string",
              "name": "imageUrl1",
              "type": "string"
            },
            {
              "internalType": "bool",
              "name": "ongoing",
              "type": "bool"
            },
            {
              "internalType": "address payable",
              "name": "recipient",
              "type": "address"
            },
            {
              "internalType": "uint32",
              "name": "readyTime",
              "type": "uint32"
            }
          ],
          "internalType": "struct Charity.Project[]",
          "name": "",
          "type": "tuple[]"
        }
      ],
      "stateMutability": "view",
      "type": "function",
      "constant": true
    },
    {
      "inputs": [
        {
          "internalType": "uint256",
          "name": "id",
          "type": "uint256"
        }
      ],
      "name": "getAllidDonateLength",
      "outputs": [
        {
          "internalType": "uint256",
          "name": "",
          "type": "uint256"
        }
      ],
      "stateMutability": "view",
      "type": "function",
      "constant": true
    },
    {
      "inputs": [
        {
          "internalType": "uint256",
          "name": "id",
          "type": "uint256"
        }
      ],
      "name": "getDonor",
      "outputs": [
        {
          "components": [
            {
              "internalType": "address",
              "name": "donorAddress",
              "type": "address"
            },
            {
              "internalType": "uint256",
              "name": "amount",
              "type": "uint256"
            },
            {
              "internalType": "uint256",
              "name": "projectID",
              "type": "uint256"
            }
          ],
          "internalType": "struct Charity.Donor[]",
          "name": "",
          "type": "tuple[]"
        }
      ],
      "stateMutability": "view",
      "type": "function",
      "constant": true
    },
    {
      "inputs": [
        {
          "internalType": "address",
          "name": "_owner",
          "type": "address"
        }
      ],
      "name": "getAllOwnerProjectsLength",
      "outputs": [
        {
          "internalType": "uint256",
          "name": "",
          "type": "uint256"
        }
      ],
      "stateMutability": "view",
      "type": "function",
      "constant": true
    },
    {
      "inputs": [
        {
          "internalType": "address",
          "name": "_owner",
          "type": "address"
        }
      ],
      "name": "getOwnerProjects",
      "outputs": [
        {
          "components": [
            {
              "internalType": "uint256",
              "name": "id",
              "type": "uint256"
            },
            {
              "internalType": "address payable",
              "name": "program_creator",
              "type": "address"
            },
            {
              "internalType": "string",
              "name": "projectName",
              "type": "string"
            },
            {
              "internalType": "string",
              "name": "location",
              "type": "string"
            },
            {
              "internalType": "string",
              "name": "description",
              "type": "string"
            },
            {
              "internalType": "uint256",
              "name": "amountNeeded",
              "type": "uint256"
            },
            {
              "internalType": "uint256",
              "name": "amountDonated",
              "type": "uint256"
            },
            {
              "internalType": "string",
              "name": "imageUrl",
              "type": "string"
            },
            {
              "internalType": "string",
              "name": "imageUrl1",
              "type": "string"
            },
            {
              "internalType": "bool",
              "name": "ongoing",
              "type": "bool"
            },
            {
              "internalType": "address payable",
              "name": "recipient",
              "type": "address"
            },
            {
              "internalType": "uint32",
              "name": "readyTime",
              "type": "uint32"
            }
          ],
          "internalType": "struct Charity.Project[]",
          "name": "",
          "type": "tuple[]"
        }
      ],
      "stateMutability": "view",
      "type": "function",
      "constant": true
    },
    {
      "inputs": [],
      "name": "getAllProjectsLength",
      "outputs": [
        {
          "internalType": "uint256",
          "name": "",
          "type": "uint256"
        }
      ],
      "stateMutability": "view",
      "type": "function",
      "constant": true
    },
    {
      "inputs": [
        {
          "internalType": "uint256",
          "name": "id",
          "type": "uint256"
        }
      ],
      "name": "endProject",
      "outputs": [],
      "stateMutability": "nonpayable",
      "type": "function"
    },
    {
      "inputs": [
        {
          "internalType": "uint256",
          "name": "id",
          "type": "uint256"
        }
      ],
      "name": "pay",
      "outputs": [
        {
          "internalType": "uint256",
          "name": "ethers",
          "type": "uint256"
        }
      ],
      "stateMutability": "payable",
      "type": "function",
      "payable": true
    },
    {
      "inputs": [
        {
          "internalType": "uint256",
          "name": "id",
          "type": "uint256"
        }
      ],
      "name": "readSingleProject",
      "outputs": [
        {
          "internalType": "uint256",
          "name": "",
          "type": "uint256"
        },
        {
          "internalType": "address",
          "name": "",
          "type": "address"
        },
        {
          "internalType": "string",
          "name": "",
          "type": "string"
        },
        {
          "internalType": "string",
          "name": "",
          "type": "string"
        },
        {
          "internalType": "string",
          "name": "",
          "type": "string"
        },
        {
          "internalType": "uint256",
          "name": "",
          "type": "uint256"
        },
        {
          "internalType": "uint256",
          "name": "",
          "type": "uint256"
        },
        {
          "internalType": "bool",
          "name": "",
          "type": "bool"
        },
        {
          "internalType": "string",
          "name": "",
          "type": "string"
        },
        {
          "internalType": "address",
          "name": "",
          "type": "address"
        }
      ],
      "stateMutability": "view",
      "type": "function",
      "constant": true
    },
    {
      "inputs": [],
      "name": "isCharity",
      "outputs": [
        {
          "internalType": "bool",
          "name": "",
          "type": "bool"
        }
      ],
      "stateMutability": "view",
      "type": "function",
      "constant": true
    },
    {
      "inputs": [
        {
          "internalType": "uint256",
          "name": "id",
          "type": "uint256"
        }
      ],
      "name": "Registered_recipient",
      "outputs": [],
      "stateMutability": "nonpayable",
      "type": "function"
    },
    {
      "inputs": [],
      "name": "getAllReceiver",
      "outputs": [
        {
          "components": [
            {
              "internalType": "address payable",
              "name": "receiverAddress",
              "type": "address"
            },
            {
              "internalType": "uint256",
              "name": "projectID",
              "type": "uint256"
            }
          ],
          "internalType": "struct Charity.Receiver[]",
          "name": "",
          "type": "tuple[]"
        }
      ],
      "stateMutability": "view",
      "type": "function",
      "constant": true
    },
    {
      "inputs": [
        {
          "internalType": "uint256",
          "name": "id",
          "type": "uint256"
        }
      ],
      "name": "getIdReceiver",
      "outputs": [
        {
          "components": [
            {
              "internalType": "address payable",
              "name": "receiverAddress",
              "type": "address"
            },
            {
              "internalType": "uint256",
              "name": "projectID",
              "type": "uint256"
            }
          ],
          "internalType": "struct Charity.Receiver[]",
          "name": "",
          "type": "tuple[]"
        }
      ],
      "stateMutability": "view",
      "type": "function",
      "constant": true
    }
  ],
  "bytecode": "0x6080604052600160005560b460015534801561001a57600080fd5b506131348061002a6000396000f3fe6080604052600436106101405760003560e01c8063744bc369116100b6578063aa8c508f1161006f578063aa8c508f146103c5578063be88322b146103e5578063c290d69114610405578063ecb85d3414610418578063efd5bf8b14610438578063f14faf6f1461044d57610140565b8063744bc3691461031b57806380d038291461033b57806396d7e11d1461035057806398e36b04146103705780639ba4734614610385578063a74bb4ad146103a557610140565b80635529274e116101085780635529274e14610245578063561ff027146102735780636136a9061461028857806361b8ce8c146102b55780636d7932d1146102d757806374312220146102f957610140565b8063246f220b146101455780632c3e69631461017b5780633330d8ca146101aa57806346fa52a2146101e057806353b3194c1461020d575b600080fd5b34801561015157600080fd5b5061016561016036600461299d565b610460565b6040516101729190612bc0565b60405180910390f35b34801561018757600080fd5b5061019b610196366004612aa4565b61092d565b60405161017293929190612b3d565b3480156101b657600080fd5b506101ca6101c5366004612aa4565b61096a565b6040516101729a99989796959493929190612fab565b3480156101ec57600080fd5b506102006101fb366004612aa4565b610e06565b6040516101729190612d0a565b34801561021957600080fd5b5061022d610228366004612aa4565b610f65565b6040516101729c9b9a99989796959493929190612ee5565b34801561025157600080fd5b50610265610260366004612aa4565b61129a565b604051610172929190612b24565b34801561027f57600080fd5b506102006112d2565b34801561029457600080fd5b506102a86102a3366004612aa4565b611348565b6040516101729190612b5e565b3480156102c157600080fd5b506102ca6114b7565b6040516101729190612edc565b3480156102e357600080fd5b506102ec6114bd565b6040516101729190612d55565b34801561030557600080fd5b50610319610314366004612aa4565b61153d565b005b34801561032757600080fd5b50610319610336366004612aa4565b61177e565b34801561034757600080fd5b506101656119ba565b34801561035c57600080fd5b506102ca61036b36600461299d565b611d5f565b34801561037c57600080fd5b506102a8611d7a565b34801561039157600080fd5b506102ca6103a036600461299d565b611df3565b3480156103b157600080fd5b506102ca6103c0366004612aa4565b611e05565b3480156103d157600080fd5b506102ca6103e0366004612aa4565b611e17565b3480156103f157600080fd5b506103196104003660046129be565b611e29565b6102ca610413366004612aa4565b6120fe565b34801561042457600080fd5b506102ca610433366004612aa4565b612423565b34801561044457600080fd5b506102ca612435565b61031961045b366004612aa4565b61243b565b6001600160a01b0381166000908152600560205260408120546060919067ffffffffffffffff8111156104a357634e487b7160e01b600052604160045260246000fd5b6040519080825280602002602001820160405280156104dc57816020015b6104c96127b0565b8152602001906001900390816104c15790505b5090506000805b60035481101561092257846001600160a01b03166003828154811061051857634e487b7160e01b600052603260045260246000fd5b600091825260209091206001600a9092020101546001600160a01b03161415610910576003818154811061055c57634e487b7160e01b600052603260045260246000fd5b90600052602060002090600a020160405180610180016040529081600082015481526020016001820160009054906101000a90046001600160a01b03166001600160a01b03166001600160a01b031681526020016002820180546105bf9061307c565b80601f01602080910402602001604051908101604052809291908181526020018280546105eb9061307c565b80156106385780601f1061060d57610100808354040283529160200191610638565b820191906000526020600020905b81548152906001019060200180831161061b57829003601f168201915b505050505081526020016003820180546106519061307c565b80601f016020809104026020016040519081016040528092919081815260200182805461067d9061307c565b80156106ca5780601f1061069f576101008083540402835291602001916106ca565b820191906000526020600020905b8154815290600101906020018083116106ad57829003601f168201915b505050505081526020016004820180546106e39061307c565b80601f016020809104026020016040519081016040528092919081815260200182805461070f9061307c565b801561075c5780601f106107315761010080835404028352916020019161075c565b820191906000526020600020905b81548152906001019060200180831161073f57829003601f168201915b5050505050815260200160058201548152602001600682015481526020016007820180546107899061307c565b80601f01602080910402602001604051908101604052809291908181526020018280546107b59061307c565b80156108025780601f106107d757610100808354040283529160200191610802565b820191906000526020600020905b8154815290600101906020018083116107e557829003601f168201915b5050505050815260200160088201805461081b9061307c565b80601f01602080910402602001604051908101604052809291908181526020018280546108479061307c565b80156108945780601f1061086957610100808354040283529160200191610894565b820191906000526020600020905b81548152906001019060200180831161087757829003601f168201915b50505091835250506009919091015460ff81161515602083015261010081046001600160a01b03166040830152600160a81b900463ffffffff1660609091015283518490849081106108f657634e487b7160e01b600052603260045260246000fd5b6020026020010181905250818061090c906130b7565b9250505b8061091a816130b7565b9150506104e3565b50909150505b919050565b6002818154811061093d57600080fd5b60009182526020909120600390910201805460018201546002909201546001600160a01b03909116925083565b6000806060806060600080600060606000806109858c61259e565b9050600381815481106109a857634e487b7160e01b600052603260045260246000fd5b90600052602060002090600a020160000154600382815481106109db57634e487b7160e01b600052603260045260246000fd5b90600052602060002090600a020160010160009054906101000a90046001600160a01b031660038381548110610a2157634e487b7160e01b600052603260045260246000fd5b90600052602060002090600a020160020160038481548110610a5357634e487b7160e01b600052603260045260246000fd5b90600052602060002090600a020160030160038581548110610a8557634e487b7160e01b600052603260045260246000fd5b90600052602060002090600a020160040160038681548110610ab757634e487b7160e01b600052603260045260246000fd5b90600052602060002090600a02016005015460038781548110610aea57634e487b7160e01b600052603260045260246000fd5b90600052602060002090600a02016006015460038881548110610b1d57634e487b7160e01b600052603260045260246000fd5b90600052602060002090600a020160090160009054906101000a900460ff1660038981548110610b5d57634e487b7160e01b600052603260045260246000fd5b90600052602060002090600a020160070160038a81548110610b8f57634e487b7160e01b600052603260045260246000fd5b90600052602060002090600a020160090160019054906101000a90046001600160a01b0316878054610bc09061307c565b80601f0160208091040260200160405190810160405280929190818152602001828054610bec9061307c565b8015610c395780601f10610c0e57610100808354040283529160200191610c39565b820191906000526020600020905b815481529060010190602001808311610c1c57829003601f168201915b50505050509750868054610c4c9061307c565b80601f0160208091040260200160405190810160405280929190818152602001828054610c789061307c565b8015610cc55780601f10610c9a57610100808354040283529160200191610cc5565b820191906000526020600020905b815481529060010190602001808311610ca857829003601f168201915b50505050509650858054610cd89061307c565b80601f0160208091040260200160405190810160405280929190818152602001828054610d049061307c565b8015610d515780601f10610d2657610100808354040283529160200191610d51565b820191906000526020600020905b815481529060010190602001808311610d3457829003601f168201915b50505050509550818054610d649061307c565b80601f0160208091040260200160405190810160405280929190818152602001828054610d909061307c565b8015610ddd5780601f10610db257610100808354040283529160200191610ddd565b820191906000526020600020905b815481529060010190602001808311610dc057829003601f168201915b505050505091509a509a509a509a509a509a509a509a509a509a50509193959799509193959799565b6000818152600760205260408120546060919067ffffffffffffffff811115610e3f57634e487b7160e01b600052604160045260246000fd5b604051908082528060200260200182016040528015610e7857816020015b610e6561282b565b815260200190600190039081610e5d5790505b5090506000805b600454811015610922578460048281548110610eab57634e487b7160e01b600052603260045260246000fd5b9060005260206000209060020201600101541415610f535760048181548110610ee457634e487b7160e01b600052603260045260246000fd5b60009182526020918290206040805180820190915260029092020180546001600160a01b0316825260010154918101919091528351849084908110610f3957634e487b7160e01b600052603260045260246000fd5b60200260200101819052508180610f4f906130b7565b9250505b80610f5d816130b7565b915050610e7f565b60038181548110610f7557600080fd5b60009182526020909120600a90910201805460018201546002830180549294506001600160a01b039091169291610fab9061307c565b80601f0160208091040260200160405190810160405280929190818152602001828054610fd79061307c565b80156110245780601f10610ff957610100808354040283529160200191611024565b820191906000526020600020905b81548152906001019060200180831161100757829003601f168201915b5050505050908060030180546110399061307c565b80601f01602080910402602001604051908101604052809291908181526020018280546110659061307c565b80156110b25780601f10611087576101008083540402835291602001916110b2565b820191906000526020600020905b81548152906001019060200180831161109557829003601f168201915b5050505050908060040180546110c79061307c565b80601f01602080910402602001604051908101604052809291908181526020018280546110f39061307c565b80156111405780601f1061111557610100808354040283529160200191611140565b820191906000526020600020905b81548152906001019060200180831161112357829003601f168201915b5050505050908060050154908060060154908060070180546111619061307c565b80601f016020809104026020016040519081016040528092919081815260200182805461118d9061307c565b80156111da5780601f106111af576101008083540402835291602001916111da565b820191906000526020600020905b8154815290600101906020018083116111bd57829003601f168201915b5050505050908060080180546111ef9061307c565b80601f016020809104026020016040519081016040528092919081815260200182805461121b9061307c565b80156112685780601f1061123d57610100808354040283529160200191611268565b820191906000526020600020905b81548152906001019060200180831161124b57829003601f168201915b5050506009909301549192505060ff8116906001600160a01b036101008204169063ffffffff600160a81b909104168c565b600481815481106112aa57600080fd5b6000918252602090912060029091020180546001909101546001600160a01b03909116915082565b60606004805480602002602001604051908101604052809291908181526020016000905b8282101561133e576000848152602090819020604080518082019091526002850290910180546001600160a01b031682526001908101548284015290835290920191016112f6565b5050505090505b90565b6000818152600660205260408120546060919067ffffffffffffffff81111561138157634e487b7160e01b600052604160045260246000fd5b6040519080825280602002602001820160405280156113ba57816020015b6113a7612842565b81526020019060019003908161139f5790505b5090506000805b6002548110156109225784600282815481106113ed57634e487b7160e01b600052603260045260246000fd5b90600052602060002090600302016002015414156114a5576002818154811061142657634e487b7160e01b600052603260045260246000fd5b600091825260209182902060408051606081018252600390930290910180546001600160a01b0316835260018101549383019390935260029092015491810191909152835184908490811061148b57634e487b7160e01b600052603260045260246000fd5b602002602001018190525081806114a1906130b7565b9250505b806114af816130b7565b9150506113c1565b60005481565b6000805b60035481101561153557336001600160a01b0316600382815481106114f657634e487b7160e01b600052603260045260246000fd5b600091825260209091206001600a9092020101546001600160a01b03161415611523576001915050611345565b8061152d816130b7565b9150506114c1565b506000905090565b60006115488261259e565b9050336001600160a01b03166003828154811061157557634e487b7160e01b600052603260045260246000fd5b600091825260209091206001600a9092020101546001600160a01b031614156115b95760405162461bcd60e51b81526004016115b090612e1d565b60405180910390fd5b336001600160a01b0316600382815481106115e457634e487b7160e01b600052603260045260246000fd5b60009182526020909120600a909102016009015461010090046001600160a01b031614156116245760405162461bcd60e51b81526004016115b090612e1d565b6003818154811061164557634e487b7160e01b600052603260045260246000fd5b600091825260209091206009600a90920201015460ff166116785760405162461bcd60e51b81526004016115b090612db9565b60008281526007602052604081205467ffffffffffffffff8111156116ad57634e487b7160e01b600052604160045260246000fd5b6040519080825280602002602001820160405280156116e657816020015b6116d361282b565b8152602001906001900390816116cb5790505b5090506116f283610e06565b905060005b815181101561176f5781818151811061172057634e487b7160e01b600052603260045260246000fd5b6020026020010151600001516001600160a01b0316336001600160a01b0316141561175d5760405162461bcd60e51b81526004016115b090612e75565b80611767816130b7565b9150506116f7565b5061177983612618565b505050565b60006117898261259e565b9050600381815481106117ac57634e487b7160e01b600052603260045260246000fd5b60009182526020909120600a90910201600101546001600160a01b031633146117e75760405162461bcd60e51b81526004016115b090612e4a565b306001600160a01b03166003828154811061181257634e487b7160e01b600052603260045260246000fd5b90600052602060002090600a020160010160009054906101000a90046001600160a01b03166001600160a01b03167fc677ee22205cecb2dd893a25f6fb1ead51dba3b724dbc541169086863a2ca3966003848154811061188257634e487b7160e01b600052603260045260246000fd5b90600052602060002090600a0201600601546040516118a19190612edc565b60405180910390a36000600382815481106118cc57634e487b7160e01b600052603260045260246000fd5b90600052602060002090600a020160090160006101000a81548160ff021916908315150217905550306001600160a01b03166003828154811061191f57634e487b7160e01b600052603260045260246000fd5b90600052602060002090600a020160010160009054906101000a90046001600160a01b03166001600160a01b03167fa43e0a4d4c286e55da31fef2f0f60c4887ad5eed3cac930656a11a77dc9fe7a46003848154811061198f57634e487b7160e01b600052603260045260246000fd5b90600052602060002090600a0201600601546040516119ae9190612edc565b60405180910390a35050565b60606003805480602002602001604051908101604052809291908181526020016000905b8282101561133e5760008481526020908190206040805161018081018252600a86029092018054835260018101546001600160a01b03169383019390935260028301805492939291840191611a329061307c565b80601f0160208091040260200160405190810160405280929190818152602001828054611a5e9061307c565b8015611aab5780601f10611a8057610100808354040283529160200191611aab565b820191906000526020600020905b815481529060010190602001808311611a8e57829003601f168201915b50505050508152602001600382018054611ac49061307c565b80601f0160208091040260200160405190810160405280929190818152602001828054611af09061307c565b8015611b3d5780601f10611b1257610100808354040283529160200191611b3d565b820191906000526020600020905b815481529060010190602001808311611b2057829003601f168201915b50505050508152602001600482018054611b569061307c565b80601f0160208091040260200160405190810160405280929190818152602001828054611b829061307c565b8015611bcf5780601f10611ba457610100808354040283529160200191611bcf565b820191906000526020600020905b815481529060010190602001808311611bb257829003601f168201915b505050505081526020016005820154815260200160068201548152602001600782018054611bfc9061307c565b80601f0160208091040260200160405190810160405280929190818152602001828054611c289061307c565b8015611c755780601f10611c4a57610100808354040283529160200191611c75565b820191906000526020600020905b815481529060010190602001808311611c5857829003601f168201915b50505050508152602001600882018054611c8e9061307c565b80601f0160208091040260200160405190810160405280929190818152602001828054611cba9061307c565b8015611d075780601f10611cdc57610100808354040283529160200191611d07565b820191906000526020600020905b815481529060010190602001808311611cea57829003601f168201915b50505091835250506009919091015460ff8116151560208084019190915261010082046001600160a01b03166040840152600160a81b90910463ffffffff1660609092019190915290825260019290920191016119de565b6001600160a01b031660009081526005602052604090205490565b60606002805480602002602001604051908101604052809291908181526020016000905b8282101561133e576000848152602090819020604080516060810182526003860290920180546001600160a01b0316835260018082015484860152600290910154918301919091529083529092019101611d9e565b60056020526000908152604090205481565b60066020526000908152604090205481565b60009081526006602052604090205490565b60006040518061018001604052806000548152602001336001600160a01b0316815260200189815260200188815260200187815260200186815260200160008152602001858152602001848152602001600115158152602001836001600160a01b0316815260200160015442611e9f9190613044565b63ffffffff1690529050336001600160a01b0383161415611ed25760405162461bcd60e51b81526004016115b090612d73565b6003805460018101825560009190915281517fc2575a0e9e593c00f959f8c92f12db2869c3395a3b0502d05e2516446f71f85b600a9092029182019081556020808401517fc2575a0e9e593c00f959f8c92f12db2869c3395a3b0502d05e2516446f71f85c840180546001600160a01b0319166001600160a01b03909216919091179055604084015180518594611f8f937fc2575a0e9e593c00f959f8c92f12db2869c3395a3b0502d05e2516446f71f85d90910192019061286c565b5060608201518051611fab91600384019160209091019061286c565b5060808201518051611fc791600484019160209091019061286c565b5060a0820151600582015560c0820151600682015560e08201518051611ff791600784019160209091019061286c565b50610100820151805161201491600884019160209091019061286c565b50610120820151600990910180546101408401516101609094015163ffffffff16600160a81b0263ffffffff60a81b196001600160a01b0390951661010002610100600160a81b031994151560ff1990931692909217939093161792909216179055600080549080612085836130b7565b90915550506020808201516001600160a01b031660009081526005909152604081208054916120b3836130b7565b9091555050604051309033907fb3baea71d4ddbfbb72a19472613826fbe33d620e97614dae28fd277f229fedd8906120ec908a90612d60565b60405180910390a35050505050505050565b60008061210a8361259e565b90506003818154811061212d57634e487b7160e01b600052603260045260246000fd5b60009182526020909120600a90910201600101546001600160a01b031633146121685760405162461bcd60e51b81526004016115b090612e4a565b60008381526007602052604081205467ffffffffffffffff81111561219d57634e487b7160e01b600052604160045260246000fd5b6040519080825280602002602001820160405280156121d657816020015b6121c361282b565b8152602001906001900390816121bb5790505b5090506121e284610e06565b8051909150806122da576003838154811061220d57634e487b7160e01b600052603260045260246000fd5b90600052602060002090600a020160090160019054906101000a90046001600160a01b03166001600160a01b03166108fc6003858154811061225f57634e487b7160e01b600052603260045260246000fd5b90600052602060002090600a0201600601549081150290604051600060405180830381858888f1935050505015801561229c573d6000803e3d6000fd5b50600383815481106122be57634e487b7160e01b600052603260045260246000fd5b90600052602060002090600a0201600601549350505050610928565b60006122e7826001613044565b6003858154811061230857634e487b7160e01b600052603260045260246000fd5b90600052602060002090600a020160060154612324919061305c565b90506003848154811061234757634e487b7160e01b600052603260045260246000fd5b600091825260208220600a9190910201600901546040516101009091046001600160a01b0316916108fc841502918491818181858888f19350505050158015612394573d6000803e3d6000fd5b5060005b82811015612417578381815181106123c057634e487b7160e01b600052603260045260246000fd5b6020026020010151600001516001600160a01b03166108fc839081150290604051600060405180830381858888f19350505050158015612404573d6000803e3d6000fd5b508061240f816130b7565b915050612398565b50935061092892505050565b60076020526000908152604090205481565b60035490565b6000341161245b5760405162461bcd60e51b81526004016115b090612de8565b60006124668261259e565b90506003818154811061248957634e487b7160e01b600052603260045260246000fd5b600091825260209091206009600a90920201015460ff166124bc5760405162461bcd60e51b81526004016115b090612db9565b6124c634836126cd565b34600382815481106124e857634e487b7160e01b600052603260045260246000fd5b90600052602060002090600a020160060160008282546125089190613044565b9091555050604051309033907f702ce8e2a7e3a8bc7ba50d9187386c652637c1e0a97f4c8ad4c2481e1ae0861a90612541903490612edc565b60405180910390a3426003828154811061256b57634e487b7160e01b600052603260045260246000fd5b60009182526020909120600a9091020160090154600160a81b900463ffffffff161161259a5761259a8261177e565b5050565b6000805b6003548110156125ff5782600382815481106125ce57634e487b7160e01b600052603260045260246000fd5b90600052602060002090600a02016000015414156125ed579050610928565b806125f7816130b7565b9150506125a2565b5060405162461bcd60e51b81526004016115b090612eac565b604080518082018252338152602080820184815260048054600181018255600091825284517f8a35acfbc15ff81a39ae7d344fd709f28e8600b4aa8c65c6b64bfe7fe36bd19b600290920291820180546001600160a01b0319166001600160a01b0390921691909117905591517f8a35acfbc15ff81a39ae7d344fd709f28e8600b4aa8c65c6b64bfe7fe36bd19c9092018290559081526007909152918220805491926126c4836130b7565b91905055505050565b60408051606081018252338152602080820185815282840185815260028054600181018255600091825285517f405787fa12a823e0f2b7631cc41b3ba8828b3321ca811111fa75cd3aa3bb5ace600390920291820180546001600160a01b0319166001600160a01b0390921691909117905592517f405787fa12a823e0f2b7631cc41b3ba8828b3321ca811111fa75cd3aa3bb5acf84015590517f405787fa12a823e0f2b7631cc41b3ba8828b3321ca811111fa75cd3aa3bb5ad09092018290559081526006909152918220805491926127a6836130b7565b9190505550505050565b6040518061018001604052806000815260200160006001600160a01b031681526020016060815260200160608152602001606081526020016000815260200160008152602001606081526020016060815260200160001515815260200160006001600160a01b03168152602001600063ffffffff1681525090565b604080518082019091526000808252602082015290565b604051806060016040528060006001600160a01b0316815260200160008152602001600081525090565b8280546128789061307c565b90600052602060002090601f01602090048101928261289a57600085556128e0565b82601f106128b357805160ff19168380011785556128e0565b828001600101855582156128e0579182015b828111156128e05782518255916020019190600101906128c5565b506128ec9291506128f0565b5090565b5b808211156128ec57600081556001016128f1565b80356001600160a01b038116811461092857600080fd5b600082601f83011261292c578081fd5b813567ffffffffffffffff80821115612947576129476130e8565b604051601f8301601f19168101602001828111828210171561296b5761296b6130e8565b604052828152848301602001861015612982578384fd5b82602086016020830137918201602001929092529392505050565b6000602082840312156129ae578081fd5b6129b782612905565b9392505050565b600080600080600080600060e0888a0312156129d8578283fd5b873567ffffffffffffffff808211156129ef578485fd5b6129fb8b838c0161291c565b985060208a0135915080821115612a10578485fd5b612a1c8b838c0161291c565b975060408a0135915080821115612a31578485fd5b612a3d8b838c0161291c565b965060608a0135955060808a0135915080821115612a59578485fd5b612a658b838c0161291c565b945060a08a0135915080821115612a7a578384fd5b50612a878a828b0161291c565b925050612a9660c08901612905565b905092959891949750929550565b600060208284031215612ab5578081fd5b5035919050565b6001600160a01b03169052565b15159052565b60008151808452815b81811015612af457602081850181015186830182015201612ad8565b81811115612b055782602083870101525b50601f01601f19169290920160200192915050565b63ffffffff169052565b6001600160a01b03929092168252602082015260400190565b6001600160a01b039390931683526020830191909152604082015260600190565b602080825282518282018190526000919060409081850190868401855b82811015612bb357815180516001600160a01b0316855286810151878601528501518585015260609093019290850190600101612b7b565b5091979650505050505050565b60208082528251828201819052600091906040908185019080840286018301878501865b83811015612cfc57603f1989840301855281516101808151855288820151612c0e8a870182612abc565b50878201518189870152612c2482870182612acf565b91505060608083015186830382880152612c3e8382612acf565b9250505060808083015186830382880152612c598382612acf565b9250505060a080830151818701525060c080830151818701525060e08083015186830382880152612c8a8382612acf565b925050506101008083015186830382880152612ca68382612acf565b9250505061012080830151612cbd82880182612ac9565b505061014080830151612cd282880182612abc565b50506101609182015191612ce886820184612b1a565b509588019593505090860190600101612be4565b509098975050505050505050565b602080825282518282018190526000919060409081850190868401855b82811015612bb357815180516001600160a01b03168552860151868501529284019290850190600101612d27565b901515815260200190565b6000602082526129b76020830184612acf565b60208082526026908201527f646f6573206e6f7420616c6c6f7720796f7520746f20626520746865207265636040820152651a5c1a595b9d60d21b606082015260800190565b602080825260159082015274151a19481c1c9bd9dc985b481a5cc818db1bdcd959605a1b604082015260600190565b6020808252818101527f506c6561736520646f6e6f7465206d6f7265207468656e203020616d6f756e74604082015260600190565b6020808252601390820152723cb7ba9031b0b73737ba103932b3b4b9ba32b960691b604082015260600190565b6020808252601190820152701e5bdd481a185d99481b9bc81c9a59da1d607a1b604082015260600190565b6020808252601a908201527f796f752061726520616c72656164792072656769737465726564000000000000604082015260600190565b602080825260169082015275141c9bda9958dd08191bd95cc81b9bdd08195e1a5cdd60521b604082015260600190565b90815260200190565b8c81526001600160a01b038c16602082015261018060408201819052600090612f108382018e612acf565b90508281036060840152612f24818d612acf565b90508281036080840152612f38818c612acf565b90508960a08401528860c084015282810360e0840152612f588189612acf565b9050828103610100840152612f6d8188612acf565b915050612f7e610120830186612ac9565b612f8c610140830185612abc565b612f9a610160830184612b1a565b9d9c50505050505050505050505050565b8a81526001600160a01b038a8116602083015261014060408301819052600091612fd78483018d612acf565b91508382036060850152612feb828c612acf565b91508382036080850152612fff828b612acf565b91508860a08501528760c085015286151560e08501528382036101008501526130288287612acf565b925080851661012085015250509b9a5050505050505050505050565b60008219821115613057576130576130d2565b500190565b60008261307757634e487b7160e01b81526012600452602481fd5b500490565b60028104600182168061309057607f821691505b602082108114156130b157634e487b7160e01b600052602260045260246000fd5b50919050565b60006000198214156130cb576130cb6130d2565b5060010190565b634e487b7160e01b600052601160045260246000fd5b634e487b7160e01b600052604160045260246000fdfea26469706673582212200c635c46b6a8a30f8231f56d4f4cf66433278dba256c4f5587fd2f4c5647f8b064736f6c63430008000033",
  "immutableReferences": {},
  "source": "// SPDX-License-Identifier: MIT\npragma solidity ^0.8.0;\n\ncontract Charity {\n    \n    struct Project {\n        uint256 id;\n        address payable program_creator;\n        string projectName;\n        string location;\n        string description;\n        uint256 amountNeeded;\n        uint256 amountDonated;\n        string imageUrl;\n        string imageUrl1;\n        bool ongoing;\n        //address projectAddress;\n        address payable recipient;\n        uint32 readyTime;\n    }\n\n    struct Donor {\n        address donorAddress;\n        uint256 amount;\n        uint256 projectID;\n    }\n    \n    struct Receiver {\n        address payable receiverAddress;\n        uint256 projectID;\n    }\n    uint256 public nextId = 1;\n    uint cooldownTime = 3 minutes;\n    Donor[] public allDonors;   // mang donate\n    Project[] public allProjects; //mang project\n    Receiver[] public allReceviver; //mang nguoi nhan\n    mapping (address => uint256) public ownerProjectAmount;\n    mapping (uint256 => uint256) public IDDonateAmount;\n    mapping (uint256 => uint256) public IDReceiverAmount;\n    \n    function createDonationStruct(uint256 amount, uint256 id) internal {Donor memory newDonor = Donor(\n        {donorAddress: msg.sender,\n            amount: amount,\n            projectID: id\n        });\n        allDonors.push(newDonor);\n        IDDonateAmount[newDonor.projectID]++;\n    }\n\n    function donate(uint256 id) public payable {\n        require(msg.value > 0, 'Please donote more then 0 amount');\n        //tm project\n\n        uint256 i = find(id);\n        // require(\n        //     allProjects[i].program_creator != msg.sender,\n        //     'Please donate from another wallet'\n        // );\n        // require(isCharity() == false, 'cannot donate.');\n        require(allProjects[i].ongoing != false,'The program is closed');\n        // require(allProjects[i].amountDonated < allProjects[i].amountNeeded, 'the project already raised enough money');\n        createDonationStruct(msg.value, id);\n        // this.balance.transfer(msg.value);\n        allProjects[i].amountDonated += msg.value;\n        emit Funds_Donated(msg.sender, address(this), msg.value);\n        // if (allProjects[i].amountDonated >= allProjects[i].amountNeeded) {\n        //     //chy chc nng  kt thc d n\n        //     endProject(allProjects[i].id);\n        //     // emit Goal_Reached(\n        //     //     allProjects[i].program_creator,\n        //     //     address(this),\n        //     //     allProjects[i].amountDonated\n        //     // );\n        // }\n        if(allProjects[i].readyTime <= block.timestamp){\n            endProject(id);\n        }\n        \n    }\n    // to  project ku gi ng h (tn, m t, s tin cn, nh)\n    function createProjectStruct(string memory name,string memory location,string memory description,uint256 amountNeeded,string memory imageUrl,string memory imageUrl1,address recipient) public {\n        Project memory newProject = Project({\n            id: nextId,\n            program_creator: payable(msg.sender),\n            projectName: name,\n            location:location,\n            description: description,\n            amountNeeded: amountNeeded,\n            amountDonated: 0,\n            imageUrl: imageUrl,\n            imageUrl1: imageUrl1,\n            ongoing: true,\n            // projectAddress: address(this),\n            recipient: payable(recipient),\n            readyTime: uint32(block.timestamp + cooldownTime)\n        });\n        require(msg.sender != recipient,'does not allow you to be the recipient');\n        allProjects.push(newProject);\n        nextId++;\n        ownerProjectAmount[newProject.program_creator]++;\n        \n        emit Project_Created(msg.sender, address(this), description);\n    }\n    function getAllDonors()public view returns(Donor[] memory){\n        return allDonors;\n    }\n    \n    function getAllProjects() public view returns(Project[] memory){\n        return allProjects;\n    }\n    \n    function getAllidDonateLength(uint256 id) public view returns (uint256) {\n        return IDDonateAmount[id];\n    }\n    \n    //danh sch ng h ca mt chng trnh\n    function getDonor(uint256 id)public view returns(Donor[] memory){\n        Donor[] memory result = new Donor[](IDDonateAmount[id]);\n        uint256 count;\n        for(uint256 i=0;i<allDonors.length;i++){\n            if(allDonors[i].projectID == id){\n                result[count] = allDonors[i];\n                count++;\n            }\n          }\n      return result;\n    }\n    \n    function getAllOwnerProjectsLength(address _owner) public view returns (uint256) {\n        return ownerProjectAmount[_owner];\n    }\n    \n    // danh sch chng trnh ca mt ti khon \n    function getOwnerProjects(address _owner) public view returns (Project[] memory ) {\n        Project[] memory result = new Project[](ownerProjectAmount[_owner]);\n        \n      uint count=0;\n      for(uint i=0;i<allProjects.length;i++){\n          if(allProjects[i].program_creator == _owner){\n              result[count]=allProjects[i];\n              count++;\n          }\n      }\n      return result;\n      \n    }\n    \n    \n    // tm project theo id\n    function find(uint256 id) internal view returns (uint256) {\n        for (uint256 i = 0; i < allProjects.length; i++) {\n            if (allProjects[i].id == id) {\n                return i;\n            }\n        }\n        revert('Project does not exist');\n    }\n\n\n    function _isReady(Project storage _project) internal view returns (bool) {\n        return (_project.readyTime <= block.timestamp);\n    }\n\n    function getAllProjectsLength() public view returns (uint256) {\n        return allProjects.length;\n    }\n    \n    // dng chng trnh \n    function endProject(uint256 id) public {\n        uint256 i = find(id);\n        // require(\n        //     allProjects[i].amountDonated >= allProjects[i].amountNeeded,\n        //     'project doesnt have enough money'\n        // );\n        // Project storage myProject = allProjects[id];\n        // require(_isReady(myProject));\n        require(msg.sender == allProjects[i].program_creator,'you have no right');\n        emit Goal_Reached(\n            allProjects[i].program_creator,\n            address(this),\n            allProjects[i].amountDonated\n        );\n        allProjects[i].ongoing = false;\n        emit Project_Ended(\n            allProjects[i].program_creator,\n            address(this),\n            allProjects[i].amountDonated\n        );\n      \n        // //allProjects[i].program_creator.transfer(allProjects[i].amountDonated); // gi s d ti khon n program_creator\n        \n    }\n    // chuyn tin cho ngi th hng\n    function pay(uint256 id)public payable returns(uint256 ethers){\n        uint256 i = find(id);\n        require(msg.sender == allProjects[i].program_creator,'you have no right');\n        Receiver[] memory result = new Receiver[](IDReceiverAmount[id]);\n        result = getIdReceiver(id);\n        uint256 a = result.length;\n        if(a==0){\n            allProjects[i].recipient.transfer(allProjects[i].amountDonated);\n            return allProjects[i].amountDonated;\n        }else{\n            uint b = allProjects[i].amountDonated / (a+1);\n            allProjects[i].recipient.transfer(b);\n            for(uint256 p=0; p<a; p++){\n            result[p].receiverAddress.transfer(b);\n            }\n            return b;\n        }\n        \n    }\n\n    // function _isReady(Project storage _project) internal view returns (bool) {\n    //     return (_project.readyTime <= block.timestamp);\n    // }\n    \n\n    //xem mt project\n    function readSingleProject(uint256 id)\n        public\n        view\n        returns (\n            uint256,\n            address,\n            string memory,\n            string memory,\n            string memory,\n            uint256,\n            uint256,\n            bool,\n            string memory,\n   \n            //address,\n            address\n        )\n    {\n        uint256 i = find(id);\n        return (\n            allProjects[i].id,\n            allProjects[i].program_creator,\n            allProjects[i].projectName,\n            allProjects[i].location,\n            allProjects[i].description,\n            allProjects[i].amountNeeded,\n            allProjects[i].amountDonated,\n            allProjects[i].ongoing,\n            allProjects[i].imageUrl,\n    \n            //allProjects[i].projectAddress,\n            allProjects[i].recipient\n        );\n    }\n    // kim tra project c phi ca a ch ny hay khng\n    function isCharity() public view returns (bool) {\n        for (uint256 i = 0; i < allProjects.length; i++) {\n            if (allProjects[i].program_creator == msg.sender) {\n                return true;\n            }\n        }\n        return false;\n    }\n    // function () external fall {\n    //     revert('not sure what you are doing');\n    // }\n    // to ngi nhn ng h\n    function createRegistered_recipientStruct(uint256 id) internal {Receiver memory newReceiver = Receiver(\n        {receiverAddress: payable(msg.sender),\n            projectID: id\n        });\n        allReceviver.push(newReceiver);\n        IDReceiverAmount[newReceiver.projectID]++;\n    }\n    function Registered_recipient (uint256 id)public{\n        uint256 i = find(id);\n        require(allProjects[i].program_creator != msg.sender,'you cannot register');\n        require(allProjects[i].recipient != msg.sender,'you cannot register');\n        require(allProjects[i].ongoing != false,'The program is closed');\n        Receiver[] memory result = new Receiver[](IDReceiverAmount[id]);\n        result = getIdReceiver(id);\n        for(uint256 j=0;j<result.length;j++){\n            require(msg.sender != result[j].receiverAddress,'you are already registered');\n        }\n        createRegistered_recipientStruct(id);\n        \n    }\n    function getAllReceiver() public view returns(Receiver[] memory){\n        return allReceviver;\n    }\n    // ly ngi nhn theo 1 chng trnh\n    function getIdReceiver(uint256 id)public view returns(Receiver[] memory){\n        Receiver[] memory result = new Receiver[](IDReceiverAmount[id]);\n        uint256 count;\n        for(uint256 i=0;i<allReceviver.length;i++){\n            if(allReceviver[i].projectID == id){\n                result[count] = allReceviver[i];\n                count++;\n            }\n          }\n      return result;\n    }\n\n\n    //     //EVENTS\n    // s kin khi hp ng c to. Hin th a ch ch s hu, a ch hp ng v m t v hot ng gy qu\n    event Project_Created(\n        address indexed _from,\n        address indexed _project,\n        string _desription\n    );\n    // s kin khi tin c tng. Hin th a ch ca nh ti tr, hp ng gy qu c tng v gi tr c tng\n    event Funds_Donated(\n        address indexed _from,\n        address indexed _contract,\n        uint256 _value\n    );\n    // s kin khi t c mc tiu gy qu. Hin th a ch ngi nhn, a ch hp ng v s tin huy ng c\n    event Goal_Reached(\n        address indexed _from,\n        address indexed _contract,\n        uint256 _value\n    );\n    // s kin khi ngi nhn / ch s hu hp ng kt thc t gy qu. Hin th a ch ch s hu, a ch hp ng v s tin b k khai\n    event Project_Ended(\n        address indexed _from,\n        address indexed _contract,\n        uint256 _value\n    );\n} ",
  "sourcePath": "/Users/nguyenngocha/Desktop/o an/project-charity-dapp/contracts/Charity.sol",
  "compiler": {
    "name": "solc",
    "version": "0.8.0+commit.c7dfd78e.Emscripten.clang"
  },
  "schemaVersion": "3.4.3",
  "updatedAt": "2021-11-28T15:00:11.179Z",
  "networkType": "ethereum",
  "devdoc": {
    "kind": "dev",
    "methods": {},
    "version": 1
  },
  "userdoc": {
    "kind": "user",
    "methods": {},
    "version": 1
  }
}