{
  "contractName": "Charity",
  "abi": [
    {
      "anonymous": false,
      "inputs": [
        {
          "indexed": true,
          "internalType": "address",
          "name": "_from",
          "type": "address"
        },
        {
          "indexed": true,
          "internalType": "address",
          "name": "_contract",
          "type": "address"
        },
        {
          "indexed": false,
          "internalType": "uint256",
          "name": "_value",
          "type": "uint256"
        }
      ],
      "name": "Funds_Donated",
      "type": "event"
    },
    {
      "anonymous": false,
      "inputs": [
        {
          "indexed": true,
          "internalType": "address",
          "name": "_from",
          "type": "address"
        },
        {
          "indexed": true,
          "internalType": "address",
          "name": "_contract",
          "type": "address"
        },
        {
          "indexed": false,
          "internalType": "uint256",
          "name": "_value",
          "type": "uint256"
        }
      ],
      "name": "Goal_Reached",
      "type": "event"
    },
    {
      "anonymous": false,
      "inputs": [
        {
          "indexed": true,
          "internalType": "address",
          "name": "_from",
          "type": "address"
        },
        {
          "indexed": true,
          "internalType": "address",
          "name": "_project",
          "type": "address"
        },
        {
          "indexed": false,
          "internalType": "string",
          "name": "_desription",
          "type": "string"
        }
      ],
      "name": "Project_Created",
      "type": "event"
    },
    {
      "anonymous": false,
      "inputs": [
        {
          "indexed": true,
          "internalType": "address",
          "name": "_from",
          "type": "address"
        },
        {
          "indexed": true,
          "internalType": "address",
          "name": "_contract",
          "type": "address"
        },
        {
          "indexed": false,
          "internalType": "uint256",
          "name": "_value",
          "type": "uint256"
        }
      ],
      "name": "Project_Ended",
      "type": "event"
    },
    {
      "inputs": [
        {
          "internalType": "uint256",
          "name": "",
          "type": "uint256"
        }
      ],
      "name": "IDDonateAmount",
      "outputs": [
        {
          "internalType": "uint256",
          "name": "",
          "type": "uint256"
        }
      ],
      "stateMutability": "view",
      "type": "function",
      "constant": true
    },
    {
      "inputs": [
        {
          "internalType": "uint256",
          "name": "",
          "type": "uint256"
        }
      ],
      "name": "IDReceiverAmount",
      "outputs": [
        {
          "internalType": "uint256",
          "name": "",
          "type": "uint256"
        }
      ],
      "stateMutability": "view",
      "type": "function",
      "constant": true
    },
    {
      "inputs": [
        {
          "internalType": "uint256",
          "name": "",
          "type": "uint256"
        }
      ],
      "name": "allDonors",
      "outputs": [
        {
          "internalType": "address",
          "name": "donorAddress",
          "type": "address"
        },
        {
          "internalType": "uint256",
          "name": "amount",
          "type": "uint256"
        },
        {
          "internalType": "uint256",
          "name": "projectID",
          "type": "uint256"
        }
      ],
      "stateMutability": "view",
      "type": "function",
      "constant": true
    },
    {
      "inputs": [
        {
          "internalType": "uint256",
          "name": "",
          "type": "uint256"
        }
      ],
      "name": "allProjects",
      "outputs": [
        {
          "internalType": "uint256",
          "name": "id",
          "type": "uint256"
        },
        {
          "internalType": "address payable",
          "name": "program_creator",
          "type": "address"
        },
        {
          "internalType": "string",
          "name": "projectName",
          "type": "string"
        },
        {
          "internalType": "string",
          "name": "location",
          "type": "string"
        },
        {
          "internalType": "string",
          "name": "description",
          "type": "string"
        },
        {
          "internalType": "uint256",
          "name": "amountNeeded",
          "type": "uint256"
        },
        {
          "internalType": "uint256",
          "name": "amountDonated",
          "type": "uint256"
        },
        {
          "internalType": "string",
          "name": "imageUrl",
          "type": "string"
        },
        {
          "internalType": "string",
          "name": "imageUrl1",
          "type": "string"
        },
        {
          "internalType": "bool",
          "name": "ongoing",
          "type": "bool"
        },
        {
          "internalType": "address payable",
          "name": "recipient",
          "type": "address"
        },
        {
          "internalType": "uint32",
          "name": "readyTime",
          "type": "uint32"
        }
      ],
      "stateMutability": "view",
      "type": "function",
      "constant": true
    },
    {
      "inputs": [
        {
          "internalType": "uint256",
          "name": "",
          "type": "uint256"
        }
      ],
      "name": "allReceviver",
      "outputs": [
        {
          "internalType": "address payable",
          "name": "receiverAddress",
          "type": "address"
        },
        {
          "internalType": "uint256",
          "name": "projectID",
          "type": "uint256"
        },
        {
          "internalType": "string",
          "name": "nameR",
          "type": "string"
        },
        {
          "internalType": "string",
          "name": "locationR",
          "type": "string"
        },
        {
          "internalType": "string",
          "name": "descriptionR",
          "type": "string"
        }
      ],
      "stateMutability": "view",
      "type": "function",
      "constant": true
    },
    {
      "inputs": [],
      "name": "nextId",
      "outputs": [
        {
          "internalType": "uint256",
          "name": "",
          "type": "uint256"
        }
      ],
      "stateMutability": "view",
      "type": "function",
      "constant": true
    },
    {
      "inputs": [
        {
          "internalType": "address",
          "name": "",
          "type": "address"
        }
      ],
      "name": "ownerProjectAmount",
      "outputs": [
        {
          "internalType": "uint256",
          "name": "",
          "type": "uint256"
        }
      ],
      "stateMutability": "view",
      "type": "function",
      "constant": true
    },
    {
      "inputs": [
        {
          "internalType": "uint256",
          "name": "id",
          "type": "uint256"
        }
      ],
      "name": "donate",
      "outputs": [],
      "stateMutability": "payable",
      "type": "function",
      "payable": true
    },
    {
      "inputs": [
        {
          "internalType": "string",
          "name": "name",
          "type": "string"
        },
        {
          "internalType": "string",
          "name": "location",
          "type": "string"
        },
        {
          "internalType": "string",
          "name": "description",
          "type": "string"
        },
        {
          "internalType": "uint256",
          "name": "amountNeeded",
          "type": "uint256"
        },
        {
          "internalType": "string",
          "name": "imageUrl",
          "type": "string"
        },
        {
          "internalType": "string",
          "name": "imageUrl1",
          "type": "string"
        },
        {
          "internalType": "address",
          "name": "recipient",
          "type": "address"
        }
      ],
      "name": "createProjectStruct",
      "outputs": [],
      "stateMutability": "nonpayable",
      "type": "function"
    },
    {
      "inputs": [],
      "name": "getAllDonors",
      "outputs": [
        {
          "components": [
            {
              "internalType": "address",
              "name": "donorAddress",
              "type": "address"
            },
            {
              "internalType": "uint256",
              "name": "amount",
              "type": "uint256"
            },
            {
              "internalType": "uint256",
              "name": "projectID",
              "type": "uint256"
            }
          ],
          "internalType": "struct Charity.Donor[]",
          "name": "",
          "type": "tuple[]"
        }
      ],
      "stateMutability": "view",
      "type": "function",
      "constant": true
    },
    {
      "inputs": [],
      "name": "getAllProjects",
      "outputs": [
        {
          "components": [
            {
              "internalType": "uint256",
              "name": "id",
              "type": "uint256"
            },
            {
              "internalType": "address payable",
              "name": "program_creator",
              "type": "address"
            },
            {
              "internalType": "string",
              "name": "projectName",
              "type": "string"
            },
            {
              "internalType": "string",
              "name": "location",
              "type": "string"
            },
            {
              "internalType": "string",
              "name": "description",
              "type": "string"
            },
            {
              "internalType": "uint256",
              "name": "amountNeeded",
              "type": "uint256"
            },
            {
              "internalType": "uint256",
              "name": "amountDonated",
              "type": "uint256"
            },
            {
              "internalType": "string",
              "name": "imageUrl",
              "type": "string"
            },
            {
              "internalType": "string",
              "name": "imageUrl1",
              "type": "string"
            },
            {
              "internalType": "bool",
              "name": "ongoing",
              "type": "bool"
            },
            {
              "internalType": "address payable",
              "name": "recipient",
              "type": "address"
            },
            {
              "internalType": "uint32",
              "name": "readyTime",
              "type": "uint32"
            }
          ],
          "internalType": "struct Charity.Project[]",
          "name": "",
          "type": "tuple[]"
        }
      ],
      "stateMutability": "view",
      "type": "function",
      "constant": true
    },
    {
      "inputs": [
        {
          "internalType": "uint256",
          "name": "id",
          "type": "uint256"
        }
      ],
      "name": "getAllidDonateLength",
      "outputs": [
        {
          "internalType": "uint256",
          "name": "",
          "type": "uint256"
        }
      ],
      "stateMutability": "view",
      "type": "function",
      "constant": true
    },
    {
      "inputs": [
        {
          "internalType": "uint256",
          "name": "id",
          "type": "uint256"
        }
      ],
      "name": "getDonor",
      "outputs": [
        {
          "components": [
            {
              "internalType": "address",
              "name": "donorAddress",
              "type": "address"
            },
            {
              "internalType": "uint256",
              "name": "amount",
              "type": "uint256"
            },
            {
              "internalType": "uint256",
              "name": "projectID",
              "type": "uint256"
            }
          ],
          "internalType": "struct Charity.Donor[]",
          "name": "",
          "type": "tuple[]"
        }
      ],
      "stateMutability": "view",
      "type": "function",
      "constant": true
    },
    {
      "inputs": [
        {
          "internalType": "address",
          "name": "_owner",
          "type": "address"
        }
      ],
      "name": "getAllOwnerProjectsLength",
      "outputs": [
        {
          "internalType": "uint256",
          "name": "",
          "type": "uint256"
        }
      ],
      "stateMutability": "view",
      "type": "function",
      "constant": true
    },
    {
      "inputs": [
        {
          "internalType": "address",
          "name": "_owner",
          "type": "address"
        }
      ],
      "name": "getOwnerProjects",
      "outputs": [
        {
          "components": [
            {
              "internalType": "uint256",
              "name": "id",
              "type": "uint256"
            },
            {
              "internalType": "address payable",
              "name": "program_creator",
              "type": "address"
            },
            {
              "internalType": "string",
              "name": "projectName",
              "type": "string"
            },
            {
              "internalType": "string",
              "name": "location",
              "type": "string"
            },
            {
              "internalType": "string",
              "name": "description",
              "type": "string"
            },
            {
              "internalType": "uint256",
              "name": "amountNeeded",
              "type": "uint256"
            },
            {
              "internalType": "uint256",
              "name": "amountDonated",
              "type": "uint256"
            },
            {
              "internalType": "string",
              "name": "imageUrl",
              "type": "string"
            },
            {
              "internalType": "string",
              "name": "imageUrl1",
              "type": "string"
            },
            {
              "internalType": "bool",
              "name": "ongoing",
              "type": "bool"
            },
            {
              "internalType": "address payable",
              "name": "recipient",
              "type": "address"
            },
            {
              "internalType": "uint32",
              "name": "readyTime",
              "type": "uint32"
            }
          ],
          "internalType": "struct Charity.Project[]",
          "name": "",
          "type": "tuple[]"
        }
      ],
      "stateMutability": "view",
      "type": "function",
      "constant": true
    },
    {
      "inputs": [],
      "name": "getAllProjectsLength",
      "outputs": [
        {
          "internalType": "uint256",
          "name": "",
          "type": "uint256"
        }
      ],
      "stateMutability": "view",
      "type": "function",
      "constant": true
    },
    {
      "inputs": [
        {
          "internalType": "uint256",
          "name": "id",
          "type": "uint256"
        }
      ],
      "name": "endProject",
      "outputs": [],
      "stateMutability": "nonpayable",
      "type": "function"
    },
    {
      "inputs": [
        {
          "internalType": "uint256",
          "name": "id",
          "type": "uint256"
        }
      ],
      "name": "pay",
      "outputs": [
        {
          "internalType": "uint256",
          "name": "ethers",
          "type": "uint256"
        }
      ],
      "stateMutability": "payable",
      "type": "function",
      "payable": true
    },
    {
      "inputs": [
        {
          "internalType": "uint256",
          "name": "id",
          "type": "uint256"
        }
      ],
      "name": "readSingleProject",
      "outputs": [
        {
          "internalType": "uint256",
          "name": "",
          "type": "uint256"
        },
        {
          "internalType": "address",
          "name": "",
          "type": "address"
        },
        {
          "internalType": "string",
          "name": "",
          "type": "string"
        },
        {
          "internalType": "string",
          "name": "",
          "type": "string"
        },
        {
          "internalType": "string",
          "name": "",
          "type": "string"
        },
        {
          "internalType": "uint256",
          "name": "",
          "type": "uint256"
        },
        {
          "internalType": "uint256",
          "name": "",
          "type": "uint256"
        },
        {
          "internalType": "bool",
          "name": "",
          "type": "bool"
        },
        {
          "internalType": "string",
          "name": "",
          "type": "string"
        },
        {
          "internalType": "address",
          "name": "",
          "type": "address"
        }
      ],
      "stateMutability": "view",
      "type": "function",
      "constant": true
    },
    {
      "inputs": [],
      "name": "isCharity",
      "outputs": [
        {
          "internalType": "bool",
          "name": "",
          "type": "bool"
        }
      ],
      "stateMutability": "view",
      "type": "function",
      "constant": true
    },
    {
      "inputs": [
        {
          "internalType": "uint256",
          "name": "id",
          "type": "uint256"
        },
        {
          "internalType": "string",
          "name": "nameR",
          "type": "string"
        },
        {
          "internalType": "string",
          "name": "locationR",
          "type": "string"
        },
        {
          "internalType": "string",
          "name": "descriptionR",
          "type": "string"
        }
      ],
      "name": "createRegistered_recipientStruct",
      "outputs": [],
      "stateMutability": "nonpayable",
      "type": "function"
    },
    {
      "inputs": [],
      "name": "getAllReceiver",
      "outputs": [
        {
          "components": [
            {
              "internalType": "address payable",
              "name": "receiverAddress",
              "type": "address"
            },
            {
              "internalType": "uint256",
              "name": "projectID",
              "type": "uint256"
            },
            {
              "internalType": "string",
              "name": "nameR",
              "type": "string"
            },
            {
              "internalType": "string",
              "name": "locationR",
              "type": "string"
            },
            {
              "internalType": "string",
              "name": "descriptionR",
              "type": "string"
            }
          ],
          "internalType": "struct Charity.Receiver[]",
          "name": "",
          "type": "tuple[]"
        }
      ],
      "stateMutability": "view",
      "type": "function",
      "constant": true
    },
    {
      "inputs": [
        {
          "internalType": "uint256",
          "name": "id",
          "type": "uint256"
        }
      ],
      "name": "getIdReceiver",
      "outputs": [
        {
          "components": [
            {
              "internalType": "address payable",
              "name": "receiverAddress",
              "type": "address"
            },
            {
              "internalType": "uint256",
              "name": "projectID",
              "type": "uint256"
            },
            {
              "internalType": "string",
              "name": "nameR",
              "type": "string"
            },
            {
              "internalType": "string",
              "name": "locationR",
              "type": "string"
            },
            {
              "internalType": "string",
              "name": "descriptionR",
              "type": "string"
            }
          ],
          "internalType": "struct Charity.Receiver[]",
          "name": "",
          "type": "tuple[]"
        }
      ],
      "stateMutability": "view",
      "type": "function",
      "constant": true
    }
  ],
  "bytecode": "0x6080604052600160005561012c60015534801561001b57600080fd5b506138a68061002b6000396000f3fe6080604052600436106101405760003560e01c8063744bc369116100b6578063aa8c508f1161006f578063aa8c508f146103c8578063be88322b146103e8578063c290d69114610408578063ecb85d341461041b578063efd5bf8b1461043b578063f14faf6f1461045057610140565b8063744bc3691461031e57806380d038291461033e57806396d7e11d1461035357806398e36b04146103735780639ba4734614610388578063a74bb4ad146103a857610140565b806353b3194c1161010857806353b3194c1461022f5780635529274e14610267578063561ff027146102985780636136a906146102ad57806361b8ce8c146102da5780636d7932d1146102fc57610140565b8063246f220b146101455780632931d9781461017b5780632c3e69631461019d5780633330d8ca146101cc57806346fa52a214610202575b600080fd5b34801561015157600080fd5b50610165610160366004612fdb565b610463565b60405161017291906132cc565b60405180910390f35b34801561018757600080fd5b5061019b6101963660046130fa565b610930565b005b3480156101a957600080fd5b506101bd6101b83660046130e2565b610caf565b60405161017293929190613249565b3480156101d857600080fd5b506101ec6101e73660046130e2565b610cec565b6040516101729a9998979695949392919061371d565b34801561020e57600080fd5b5061022261021d3660046130e2565b611188565b6040516101729190613416565b34801561023b57600080fd5b5061024f61024a3660046130e2565b6114ba565b6040516101729c9b9a99989796959493929190613657565b34801561027357600080fd5b506102876102823660046130e2565b6117ef565b6040516101729594939291906131f0565b3480156102a457600080fd5b506102226119d4565b3480156102b957600080fd5b506102cd6102c83660046130e2565b611c0a565b604051610172919061326a565b3480156102e657600080fd5b506102ef611d79565b604051610172919061364e565b34801561030857600080fd5b50610311611d7f565b60405161017291906134c7565b34801561032a57600080fd5b5061019b6103393660046130e2565b611dff565b34801561034a57600080fd5b5061016561208c565b34801561035f57600080fd5b506102ef61036e366004612fdb565b612431565b34801561037f57600080fd5b506102cd61244c565b34801561039457600080fd5b506102ef6103a3366004612fdb565b6124c5565b3480156103b457600080fd5b506102ef6103c33660046130e2565b6124d7565b3480156103d457600080fd5b506102ef6103e33660046130e2565b6124e9565b3480156103f457600080fd5b5061019b610403366004612ffc565b6124fb565b6102ef6104163660046130e2565b6127d0565b34801561042757600080fd5b506102ef6104363660046130e2565b612af5565b34801561044757600080fd5b506102ef612b07565b61019b61045e3660046130e2565b612b0d565b6001600160a01b0381166000908152600560205260408120546060919067ffffffffffffffff8111156104a657634e487b7160e01b600052604160045260246000fd5b6040519080825280602002602001820160405280156104df57816020015b6104cc612dcd565b8152602001906001900390816104c45790505b5090506000805b60035481101561092557846001600160a01b03166003828154811061051b57634e487b7160e01b600052603260045260246000fd5b600091825260209091206001600a9092020101546001600160a01b03161415610913576003818154811061055f57634e487b7160e01b600052603260045260246000fd5b90600052602060002090600a020160405180610180016040529081600082015481526020016001820160009054906101000a90046001600160a01b03166001600160a01b03166001600160a01b031681526020016002820180546105c2906137ee565b80601f01602080910402602001604051908101604052809291908181526020018280546105ee906137ee565b801561063b5780601f106106105761010080835404028352916020019161063b565b820191906000526020600020905b81548152906001019060200180831161061e57829003601f168201915b50505050508152602001600382018054610654906137ee565b80601f0160208091040260200160405190810160405280929190818152602001828054610680906137ee565b80156106cd5780601f106106a2576101008083540402835291602001916106cd565b820191906000526020600020905b8154815290600101906020018083116106b057829003601f168201915b505050505081526020016004820180546106e6906137ee565b80601f0160208091040260200160405190810160405280929190818152602001828054610712906137ee565b801561075f5780601f106107345761010080835404028352916020019161075f565b820191906000526020600020905b81548152906001019060200180831161074257829003601f168201915b50505050508152602001600582015481526020016006820154815260200160078201805461078c906137ee565b80601f01602080910402602001604051908101604052809291908181526020018280546107b8906137ee565b80156108055780601f106107da57610100808354040283529160200191610805565b820191906000526020600020905b8154815290600101906020018083116107e857829003601f168201915b5050505050815260200160088201805461081e906137ee565b80601f016020809104026020016040519081016040528092919081815260200182805461084a906137ee565b80156108975780601f1061086c57610100808354040283529160200191610897565b820191906000526020600020905b81548152906001019060200180831161087a57829003601f168201915b50505091835250506009919091015460ff81161515602083015261010081046001600160a01b03166040830152600160a81b900463ffffffff1660609091015283518490849081106108f957634e487b7160e01b600052603260045260246000fd5b6020026020010181905250818061090f90613829565b9250505b8061091d81613829565b9150506104e6565b50909150505b919050565b6040805160a081018252338152602081018690529081018490526060810183905260808101829052600061096386612c70565b9050336001600160a01b03166003828154811061099057634e487b7160e01b600052603260045260246000fd5b600091825260209091206001600a9092020101546001600160a01b031614156109d45760405162461bcd60e51b81526004016109cb9061358f565b60405180910390fd5b336001600160a01b0316600382815481106109ff57634e487b7160e01b600052603260045260246000fd5b60009182526020909120600a909102016009015461010090046001600160a01b03161415610a3f5760405162461bcd60e51b81526004016109cb9061358f565b60038181548110610a6057634e487b7160e01b600052603260045260246000fd5b600091825260209091206009600a90920201015460ff16610a935760405162461bcd60e51b81526004016109cb9061352b565b60008681526007602052604081205467ffffffffffffffff811115610ac857634e487b7160e01b600052604160045260246000fd5b604051908082528060200260200182016040528015610b0157816020015b610aee612e48565b815260200190600190039081610ae65790505b509050610b0d87611188565b905060005b8151811015610b8a57818181518110610b3b57634e487b7160e01b600052603260045260246000fd5b6020026020010151600001516001600160a01b0316336001600160a01b03161415610b785760405162461bcd60e51b81526004016109cb906135e7565b80610b8281613829565b915050610b12565b506004805460018101825560009190915283517f8a35acfbc15ff81a39ae7d344fd709f28e8600b4aa8c65c6b64bfe7fe36bd19b600590920291820180546001600160a01b0319166001600160a01b039092169190911781556020808601517f8a35acfbc15ff81a39ae7d344fd709f28e8600b4aa8c65c6b64bfe7fe36bd19c840155604086015180518794610c46937f8a35acfbc15ff81a39ae7d344fd709f28e8600b4aa8c65c6b64bfe7fe36bd19d909101920190612e80565b5060608201518051610c62916003840191602090910190612e80565b5060808201518051610c7e916004840191602090910190612e80565b5050506020808401516000908152600790915260408120805491610ca183613829565b919050555050505050505050565b60028181548110610cbf57600080fd5b60009182526020909120600390910201805460018201546002909201546001600160a01b03909116925083565b600080606080606060008060006060600080610d078c612c70565b905060038181548110610d2a57634e487b7160e01b600052603260045260246000fd5b90600052602060002090600a02016000015460038281548110610d5d57634e487b7160e01b600052603260045260246000fd5b90600052602060002090600a020160010160009054906101000a90046001600160a01b031660038381548110610da357634e487b7160e01b600052603260045260246000fd5b90600052602060002090600a020160020160038481548110610dd557634e487b7160e01b600052603260045260246000fd5b90600052602060002090600a020160030160038581548110610e0757634e487b7160e01b600052603260045260246000fd5b90600052602060002090600a020160040160038681548110610e3957634e487b7160e01b600052603260045260246000fd5b90600052602060002090600a02016005015460038781548110610e6c57634e487b7160e01b600052603260045260246000fd5b90600052602060002090600a02016006015460038881548110610e9f57634e487b7160e01b600052603260045260246000fd5b90600052602060002090600a020160090160009054906101000a900460ff1660038981548110610edf57634e487b7160e01b600052603260045260246000fd5b90600052602060002090600a020160070160038a81548110610f1157634e487b7160e01b600052603260045260246000fd5b90600052602060002090600a020160090160019054906101000a90046001600160a01b0316878054610f42906137ee565b80601f0160208091040260200160405190810160405280929190818152602001828054610f6e906137ee565b8015610fbb5780601f10610f9057610100808354040283529160200191610fbb565b820191906000526020600020905b815481529060010190602001808311610f9e57829003601f168201915b50505050509750868054610fce906137ee565b80601f0160208091040260200160405190810160405280929190818152602001828054610ffa906137ee565b80156110475780601f1061101c57610100808354040283529160200191611047565b820191906000526020600020905b81548152906001019060200180831161102a57829003601f168201915b5050505050965085805461105a906137ee565b80601f0160208091040260200160405190810160405280929190818152602001828054611086906137ee565b80156110d35780601f106110a8576101008083540402835291602001916110d3565b820191906000526020600020905b8154815290600101906020018083116110b657829003601f168201915b505050505095508180546110e6906137ee565b80601f0160208091040260200160405190810160405280929190818152602001828054611112906137ee565b801561115f5780601f106111345761010080835404028352916020019161115f565b820191906000526020600020905b81548152906001019060200180831161114257829003601f168201915b505050505091509a509a509a509a509a509a509a509a509a509a50509193959799509193959799565b6000818152600760205260408120546060919067ffffffffffffffff8111156111c157634e487b7160e01b600052604160045260246000fd5b6040519080825280602002602001820160405280156111fa57816020015b6111e7612e48565b8152602001906001900390816111df5790505b5090506000805b60045481101561092557846004828154811061122d57634e487b7160e01b600052603260045260246000fd5b90600052602060002090600502016001015414156114a8576004818154811061126657634e487b7160e01b600052603260045260246000fd5b90600052602060002090600502016040518060a00160405290816000820160009054906101000a90046001600160a01b03166001600160a01b03166001600160a01b03168152602001600182015481526020016002820180546112c8906137ee565b80601f01602080910402602001604051908101604052809291908181526020018280546112f4906137ee565b80156113415780601f1061131657610100808354040283529160200191611341565b820191906000526020600020905b81548152906001019060200180831161132457829003601f168201915b5050505050815260200160038201805461135a906137ee565b80601f0160208091040260200160405190810160405280929190818152602001828054611386906137ee565b80156113d35780601f106113a8576101008083540402835291602001916113d3565b820191906000526020600020905b8154815290600101906020018083116113b657829003601f168201915b505050505081526020016004820180546113ec906137ee565b80601f0160208091040260200160405190810160405280929190818152602001828054611418906137ee565b80156114655780601f1061143a57610100808354040283529160200191611465565b820191906000526020600020905b81548152906001019060200180831161144857829003601f168201915b50505050508152505083838151811061148e57634e487b7160e01b600052603260045260246000fd5b602002602001018190525081806114a490613829565b9250505b806114b281613829565b915050611201565b600381815481106114ca57600080fd5b60009182526020909120600a90910201805460018201546002830180549294506001600160a01b039091169291611500906137ee565b80601f016020809104026020016040519081016040528092919081815260200182805461152c906137ee565b80156115795780601f1061154e57610100808354040283529160200191611579565b820191906000526020600020905b81548152906001019060200180831161155c57829003601f168201915b50505050509080600301805461158e906137ee565b80601f01602080910402602001604051908101604052809291908181526020018280546115ba906137ee565b80156116075780601f106115dc57610100808354040283529160200191611607565b820191906000526020600020905b8154815290600101906020018083116115ea57829003601f168201915b50505050509080600401805461161c906137ee565b80601f0160208091040260200160405190810160405280929190818152602001828054611648906137ee565b80156116955780601f1061166a57610100808354040283529160200191611695565b820191906000526020600020905b81548152906001019060200180831161167857829003601f168201915b5050505050908060050154908060060154908060070180546116b6906137ee565b80601f01602080910402602001604051908101604052809291908181526020018280546116e2906137ee565b801561172f5780601f106117045761010080835404028352916020019161172f565b820191906000526020600020905b81548152906001019060200180831161171257829003601f168201915b505050505090806008018054611744906137ee565b80601f0160208091040260200160405190810160405280929190818152602001828054611770906137ee565b80156117bd5780601f10611792576101008083540402835291602001916117bd565b820191906000526020600020905b8154815290600101906020018083116117a057829003601f168201915b5050506009909301549192505060ff8116906001600160a01b036101008204169063ffffffff600160a81b909104168c565b600481815481106117ff57600080fd5b60009182526020909120600590910201805460018201546002830180546001600160a01b039093169450909291611835906137ee565b80601f0160208091040260200160405190810160405280929190818152602001828054611861906137ee565b80156118ae5780601f10611883576101008083540402835291602001916118ae565b820191906000526020600020905b81548152906001019060200180831161189157829003601f168201915b5050505050908060030180546118c3906137ee565b80601f01602080910402602001604051908101604052809291908181526020018280546118ef906137ee565b801561193c5780601f106119115761010080835404028352916020019161193c565b820191906000526020600020905b81548152906001019060200180831161191f57829003601f168201915b505050505090806004018054611951906137ee565b80601f016020809104026020016040519081016040528092919081815260200182805461197d906137ee565b80156119ca5780601f1061199f576101008083540402835291602001916119ca565b820191906000526020600020905b8154815290600101906020018083116119ad57829003601f168201915b5050505050905085565b60606004805480602002602001604051908101604052809291908181526020016000905b82821015611c005760008481526020908190206040805160a0810182526005860290920180546001600160a01b0316835260018101549383019390935260028301805492939291840191611a4b906137ee565b80601f0160208091040260200160405190810160405280929190818152602001828054611a77906137ee565b8015611ac45780601f10611a9957610100808354040283529160200191611ac4565b820191906000526020600020905b815481529060010190602001808311611aa757829003601f168201915b50505050508152602001600382018054611add906137ee565b80601f0160208091040260200160405190810160405280929190818152602001828054611b09906137ee565b8015611b565780601f10611b2b57610100808354040283529160200191611b56565b820191906000526020600020905b815481529060010190602001808311611b3957829003601f168201915b50505050508152602001600482018054611b6f906137ee565b80601f0160208091040260200160405190810160405280929190818152602001828054611b9b906137ee565b8015611be85780601f10611bbd57610100808354040283529160200191611be8565b820191906000526020600020905b815481529060010190602001808311611bcb57829003601f168201915b505050505081525050815260200190600101906119f8565b5050505090505b90565b6000818152600660205260408120546060919067ffffffffffffffff811115611c4357634e487b7160e01b600052604160045260246000fd5b604051908082528060200260200182016040528015611c7c57816020015b611c69612f04565b815260200190600190039081611c615790505b5090506000805b600254811015610925578460028281548110611caf57634e487b7160e01b600052603260045260246000fd5b9060005260206000209060030201600201541415611d675760028181548110611ce857634e487b7160e01b600052603260045260246000fd5b600091825260209182902060408051606081018252600390930290910180546001600160a01b03168352600181015493830193909352600290920154918101919091528351849084908110611d4d57634e487b7160e01b600052603260045260246000fd5b60200260200101819052508180611d6390613829565b9250505b80611d7181613829565b915050611c83565b60005481565b6000805b600354811015611df757336001600160a01b031660038281548110611db857634e487b7160e01b600052603260045260246000fd5b600091825260209091206001600a9092020101546001600160a01b03161415611de5576001915050611c07565b80611def81613829565b915050611d83565b506000905090565b6000611e0a82612c70565b905060038181548110611e2d57634e487b7160e01b600052603260045260246000fd5b60009182526020909120600a90910201600101546001600160a01b03163314611e685760405162461bcd60e51b81526004016109cb906135bc565b306001600160a01b031660038281548110611e9357634e487b7160e01b600052603260045260246000fd5b90600052602060002090600a020160010160009054906101000a90046001600160a01b03166001600160a01b03167fc677ee22205cecb2dd893a25f6fb1ead51dba3b724dbc541169086863a2ca39660038481548110611f0357634e487b7160e01b600052603260045260246000fd5b90600052602060002090600a020160060154604051611f22919061364e565b60405180910390a3600060038281548110611f4d57634e487b7160e01b600052603260045260246000fd5b90600052602060002090600a020160090160006101000a81548160ff0219169083151502179055504260038281548110611f9757634e487b7160e01b600052603260045260246000fd5b90600052602060002090600a020160090160156101000a81548163ffffffff021916908363ffffffff160217905550306001600160a01b031660038281548110611ff157634e487b7160e01b600052603260045260246000fd5b90600052602060002090600a020160010160009054906101000a90046001600160a01b03166001600160a01b03167fa43e0a4d4c286e55da31fef2f0f60c4887ad5eed3cac930656a11a77dc9fe7a46003848154811061206157634e487b7160e01b600052603260045260246000fd5b90600052602060002090600a020160060154604051612080919061364e565b60405180910390a35050565b60606003805480602002602001604051908101604052809291908181526020016000905b82821015611c005760008481526020908190206040805161018081018252600a86029092018054835260018101546001600160a01b03169383019390935260028301805492939291840191612104906137ee565b80601f0160208091040260200160405190810160405280929190818152602001828054612130906137ee565b801561217d5780601f106121525761010080835404028352916020019161217d565b820191906000526020600020905b81548152906001019060200180831161216057829003601f168201915b50505050508152602001600382018054612196906137ee565b80601f01602080910402602001604051908101604052809291908181526020018280546121c2906137ee565b801561220f5780601f106121e45761010080835404028352916020019161220f565b820191906000526020600020905b8154815290600101906020018083116121f257829003601f168201915b50505050508152602001600482018054612228906137ee565b80601f0160208091040260200160405190810160405280929190818152602001828054612254906137ee565b80156122a15780601f10612276576101008083540402835291602001916122a1565b820191906000526020600020905b81548152906001019060200180831161228457829003601f168201915b5050505050815260200160058201548152602001600682015481526020016007820180546122ce906137ee565b80601f01602080910402602001604051908101604052809291908181526020018280546122fa906137ee565b80156123475780601f1061231c57610100808354040283529160200191612347565b820191906000526020600020905b81548152906001019060200180831161232a57829003601f168201915b50505050508152602001600882018054612360906137ee565b80601f016020809104026020016040519081016040528092919081815260200182805461238c906137ee565b80156123d95780601f106123ae576101008083540402835291602001916123d9565b820191906000526020600020905b8154815290600101906020018083116123bc57829003601f168201915b50505091835250506009919091015460ff8116151560208084019190915261010082046001600160a01b03166040840152600160a81b90910463ffffffff1660609092019190915290825260019290920191016120b0565b6001600160a01b031660009081526005602052604090205490565b60606002805480602002602001604051908101604052809291908181526020016000905b82821015611c00576000848152602090819020604080516060810182526003860290920180546001600160a01b0316835260018082015484860152600290910154918301919091529083529092019101612470565b60056020526000908152604090205481565b60066020526000908152604090205481565b60009081526006602052604090205490565b60006040518061018001604052806000548152602001336001600160a01b0316815260200189815260200188815260200187815260200186815260200160008152602001858152602001848152602001600115158152602001836001600160a01b031681526020016001544261257191906137b6565b63ffffffff1690529050336001600160a01b03831614156125a45760405162461bcd60e51b81526004016109cb906134e5565b6003805460018101825560009190915281517fc2575a0e9e593c00f959f8c92f12db2869c3395a3b0502d05e2516446f71f85b600a9092029182019081556020808401517fc2575a0e9e593c00f959f8c92f12db2869c3395a3b0502d05e2516446f71f85c840180546001600160a01b0319166001600160a01b03909216919091179055604084015180518594612661937fc2575a0e9e593c00f959f8c92f12db2869c3395a3b0502d05e2516446f71f85d909101920190612e80565b506060820151805161267d916003840191602090910190612e80565b5060808201518051612699916004840191602090910190612e80565b5060a0820151600582015560c0820151600682015560e082015180516126c9916007840191602090910190612e80565b5061010082015180516126e6916008840191602090910190612e80565b50610120820151600990910180546101408401516101609094015163ffffffff16600160a81b0263ffffffff60a81b196001600160a01b0390951661010002610100600160a81b031994151560ff199093169290921793909316179290921617905560008054908061275783613829565b90915550506020808201516001600160a01b0316600090815260059091526040812080549161278583613829565b9091555050604051309033907fb3baea71d4ddbfbb72a19472613826fbe33d620e97614dae28fd277f229fedd8906127be908a906134d2565b60405180910390a35050505050505050565b6000806127dc83612c70565b9050600381815481106127ff57634e487b7160e01b600052603260045260246000fd5b60009182526020909120600a90910201600101546001600160a01b0316331461283a5760405162461bcd60e51b81526004016109cb906135bc565b60008381526007602052604081205467ffffffffffffffff81111561286f57634e487b7160e01b600052604160045260246000fd5b6040519080825280602002602001820160405280156128a857816020015b612895612e48565b81526020019060019003908161288d5790505b5090506128b484611188565b8051909150806129ac57600383815481106128df57634e487b7160e01b600052603260045260246000fd5b90600052602060002090600a020160090160019054906101000a90046001600160a01b03166001600160a01b03166108fc6003858154811061293157634e487b7160e01b600052603260045260246000fd5b90600052602060002090600a0201600601549081150290604051600060405180830381858888f1935050505015801561296e573d6000803e3d6000fd5b506003838154811061299057634e487b7160e01b600052603260045260246000fd5b90600052602060002090600a020160060154935050505061092b565b60006129b98260016137b6565b600385815481106129da57634e487b7160e01b600052603260045260246000fd5b90600052602060002090600a0201600601546129f691906137ce565b905060038481548110612a1957634e487b7160e01b600052603260045260246000fd5b600091825260208220600a9190910201600901546040516101009091046001600160a01b0316916108fc841502918491818181858888f19350505050158015612a66573d6000803e3d6000fd5b5060005b82811015612ae957838181518110612a9257634e487b7160e01b600052603260045260246000fd5b6020026020010151600001516001600160a01b03166108fc839081150290604051600060405180830381858888f19350505050158015612ad6573d6000803e3d6000fd5b5080612ae181613829565b915050612a6a565b50935061092b92505050565b60076020526000908152604090205481565b60035490565b60003411612b2d5760405162461bcd60e51b81526004016109cb9061355a565b6000612b3882612c70565b905060038181548110612b5b57634e487b7160e01b600052603260045260246000fd5b600091825260209091206009600a90920201015460ff16612b8e5760405162461bcd60e51b81526004016109cb9061352b565b612b983483612cea565b3460038281548110612bba57634e487b7160e01b600052603260045260246000fd5b90600052602060002090600a02016006016000828254612bda91906137b6565b9091555050604051309033907f702ce8e2a7e3a8bc7ba50d9187386c652637c1e0a97f4c8ad4c2481e1ae0861a90612c1390349061364e565b60405180910390a34260038281548110612c3d57634e487b7160e01b600052603260045260246000fd5b60009182526020909120600a9091020160090154600160a81b900463ffffffff1611612c6c57612c6c82611dff565b5050565b6000805b600354811015612cd1578260038281548110612ca057634e487b7160e01b600052603260045260246000fd5b90600052602060002090600a0201600001541415612cbf57905061092b565b80612cc981613829565b915050612c74565b5060405162461bcd60e51b81526004016109cb9061361e565b60408051606081018252338152602080820185815282840185815260028054600181018255600091825285517f405787fa12a823e0f2b7631cc41b3ba8828b3321ca811111fa75cd3aa3bb5ace600390920291820180546001600160a01b0319166001600160a01b0390921691909117905592517f405787fa12a823e0f2b7631cc41b3ba8828b3321ca811111fa75cd3aa3bb5acf84015590517f405787fa12a823e0f2b7631cc41b3ba8828b3321ca811111fa75cd3aa3bb5ad0909201829055908152600690915291822080549192612dc383613829565b9190505550505050565b6040518061018001604052806000815260200160006001600160a01b031681526020016060815260200160608152602001606081526020016000815260200160008152602001606081526020016060815260200160001515815260200160006001600160a01b03168152602001600063ffffffff1681525090565b6040518060a0016040528060006001600160a01b03168152602001600081526020016060815260200160608152602001606081525090565b828054612e8c906137ee565b90600052602060002090601f016020900481019282612eae5760008555612ef4565b82601f10612ec757805160ff1916838001178555612ef4565b82800160010185558215612ef4579182015b82811115612ef4578251825591602001919060010190612ed9565b50612f00929150612f2e565b5090565b604051806060016040528060006001600160a01b0316815260200160008152602001600081525090565b5b80821115612f005760008155600101612f2f565b80356001600160a01b038116811461092b57600080fd5b600082601f830112612f6a578081fd5b813567ffffffffffffffff80821115612f8557612f8561385a565b604051601f8301601f191681016020018281118282101715612fa957612fa961385a565b604052828152848301602001861015612fc0578384fd5b82602086016020830137918201602001929092529392505050565b600060208284031215612fec578081fd5b612ff582612f43565b9392505050565b600080600080600080600060e0888a031215613016578283fd5b873567ffffffffffffffff8082111561302d578485fd5b6130398b838c01612f5a565b985060208a013591508082111561304e578485fd5b61305a8b838c01612f5a565b975060408a013591508082111561306f578485fd5b61307b8b838c01612f5a565b965060608a0135955060808a0135915080821115613097578485fd5b6130a38b838c01612f5a565b945060a08a01359150808211156130b8578384fd5b506130c58a828b01612f5a565b9250506130d460c08901612f43565b905092959891949750929550565b6000602082840312156130f3578081fd5b5035919050565b6000806000806080858703121561310f578384fd5b84359350602085013567ffffffffffffffff8082111561312d578485fd5b61313988838901612f5a565b9450604087013591508082111561314e578384fd5b61315a88838901612f5a565b9350606087013591508082111561316f578283fd5b5061317c87828801612f5a565b91505092959194509250565b6001600160a01b03169052565b15159052565b60008151808452815b818110156131c0576020818501810151868301820152016131a4565b818111156131d15782602083870101525b50601f01601f19169290920160200192915050565b63ffffffff169052565b600060018060a01b038716825285602083015260a0604083015261321760a083018661319b565b8281036060840152613229818661319b565b9050828103608084015261323d818561319b565b98975050505050505050565b6001600160a01b039390931683526020830191909152604082015260600190565b602080825282518282018190526000919060409081850190868401855b828110156132bf57815180516001600160a01b0316855286810151878601528501518585015260609093019290850190600101613287565b5091979650505050505050565b60208082528251828201819052600091906040908185019080840286018301878501865b8381101561340857603f198984030185528151610180815185528882015161331a8a870182613188565b508782015181898701526133308287018261319b565b9150506060808301518683038288015261334a838261319b565b9250505060808083015186830382880152613365838261319b565b9250505060a080830151818701525060c080830151818701525060e08083015186830382880152613396838261319b565b9250505061010080830151868303828801526133b2838261319b565b92505050610120808301516133c982880182613195565b5050610140808301516133de82880182613188565b505061016091820151916133f4868201846131e6565b5095880195935050908601906001016132f0565b509098975050505050505050565b60208082528251828201819052600091906040908185019080840286018301878501865b8381101561340857888303603f19018552815180516001600160a01b0316845287810151888501528681015160a08886018190529061347b8287018261319b565b91505060608083015186830382880152613495838261319b565b92505050608080830151925085820381870152506134b3818361319b565b96890196945050509086019060010161343a565b901515815260200190565b600060208252612ff5602083018461319b565b60208082526026908201527f646f6573206e6f7420616c6c6f7720796f7520746f20626520746865207265636040820152651a5c1a595b9d60d21b606082015260800190565b602080825260159082015274151a19481c1c9bd9dc985b481a5cc818db1bdcd959605a1b604082015260600190565b6020808252818101527f506c6561736520646f6e6f7465206d6f7265207468656e203020616d6f756e74604082015260600190565b6020808252601390820152723cb7ba9031b0b73737ba103932b3b4b9ba32b960691b604082015260600190565b6020808252601190820152701e5bdd481a185d99481b9bc81c9a59da1d607a1b604082015260600190565b6020808252601a908201527f796f752061726520616c72656164792072656769737465726564000000000000604082015260600190565b602080825260169082015275141c9bda9958dd08191bd95cc81b9bdd08195e1a5cdd60521b604082015260600190565b90815260200190565b8c81526001600160a01b038c166020820152610180604082018190526000906136828382018e61319b565b90508281036060840152613696818d61319b565b905082810360808401526136aa818c61319b565b90508960a08401528860c084015282810360e08401526136ca818961319b565b90508281036101008401526136df818861319b565b9150506136f0610120830186613195565b6136fe610140830185613188565b61370c6101608301846131e6565b9d9c50505050505050505050505050565b8a81526001600160a01b038a81166020830152610140604083018190526000916137498483018d61319b565b9150838203606085015261375d828c61319b565b91508382036080850152613771828b61319b565b91508860a08501528760c085015286151560e085015283820361010085015261379a828761319b565b925080851661012085015250509b9a5050505050505050505050565b600082198211156137c9576137c9613844565b500190565b6000826137e957634e487b7160e01b81526012600452602481fd5b500490565b60028104600182168061380257607f821691505b6020821081141561382357634e487b7160e01b600052602260045260246000fd5b50919050565b600060001982141561383d5761383d613844565b5060010190565b634e487b7160e01b600052601160045260246000fd5b634e487b7160e01b600052604160045260246000fdfea2646970667358221220d89a36255dbdb088bc8059f4a9d98460f4844c75cd55def642a3eebdfd7d9bc364736f6c63430008000033",
  "immutableReferences": {},
  "source": "// SPDX-License-Identifier: MIT\npragma solidity ^0.8.0;\n\ncontract Charity {\n    \n    struct Project {\n        uint256 id;\n        address payable program_creator;\n        string projectName;\n        string location;\n        string description;\n        uint256 amountNeeded;\n        uint256 amountDonated;\n        string imageUrl;\n        string imageUrl1;\n        bool ongoing;\n        //address projectAddress;\n        address payable recipient;\n        uint32 readyTime;\n    }\n\n    struct Donor {\n        address donorAddress;\n        uint256 amount;\n        uint256 projectID;\n    }\n    \n    struct Receiver {\n        address payable receiverAddress;\n        uint256 projectID;\n        string nameR;\n        string locationR;\n        string descriptionR;\n    }\n    uint256 public nextId = 1;\n    uint cooldownTime = 5 minutes;\n    Donor[] public allDonors;   // mang donate\n    Project[] public allProjects; //mang project\n    Receiver[] public allReceviver; //mang nguoi nhan\n    mapping (address => uint256) public ownerProjectAmount;\n    mapping (uint256 => uint256) public IDDonateAmount;\n    mapping (uint256 => uint256) public IDReceiverAmount;\n    \n    function createDonationStruct(uint256 amount, uint256 id) internal {Donor memory newDonor = Donor(\n        {donorAddress: msg.sender,\n            amount: amount,\n            projectID: id\n        });\n        allDonors.push(newDonor);\n        IDDonateAmount[newDonor.projectID]++;\n    }\n\n    function donate(uint256 id) public payable {\n        require(msg.value > 0, 'Please donote more then 0 amount');\n        //tm project\n\n        uint256 i = find(id);\n        // require(\n        //     allProjects[i].program_creator != msg.sender,\n        //     'Please donate from another wallet'\n        // );\n        // require(isCharity() == false, 'cannot donate.');\n        require(allProjects[i].ongoing != false,'The program is closed');\n        // require(allProjects[i].amountDonated < allProjects[i].amountNeeded, 'the project already raised enough money');\n        createDonationStruct(msg.value, id);\n        // this.balance.transfer(msg.value);\n        allProjects[i].amountDonated += msg.value;\n        emit Funds_Donated(msg.sender, address(this), msg.value);\n        // if (allProjects[i].amountDonated >= allProjects[i].amountNeeded) {\n        //     //chy chc nng  kt thc d n\n        //     endProject(allProjects[i].id);\n        //     // emit Goal_Reached(\n        //     //     allProjects[i].program_creator,\n        //     //     address(this),\n        //     //     allProjects[i].amountDonated\n        //     // );\n        // }\n        if(allProjects[i].readyTime <= block.timestamp){\n            endProject(id);\n        }\n        \n    }\n    // to  project ku gi ng h (tn, m t, s tin cn, nh)\n    function createProjectStruct(string memory name,string memory location,string memory description,uint256 amountNeeded,string memory imageUrl,string memory imageUrl1,address recipient) public {\n        Project memory newProject = Project({\n            id: nextId,\n            program_creator: payable(msg.sender),\n            projectName: name,\n            location:location,\n            description: description,\n            amountNeeded: amountNeeded,\n            amountDonated: 0,\n            imageUrl: imageUrl,\n            imageUrl1: imageUrl1,\n            ongoing: true,\n            // projectAddress: address(this),\n            recipient: payable(recipient),\n            readyTime: uint32(block.timestamp + cooldownTime)\n        });\n        require(msg.sender != recipient,'does not allow you to be the recipient');\n        allProjects.push(newProject);\n        nextId++;\n        ownerProjectAmount[newProject.program_creator]++;\n        \n        emit Project_Created(msg.sender, address(this), description);\n    }\n    function getAllDonors()public view returns(Donor[] memory){\n        return allDonors;\n    }\n    \n    function getAllProjects() public view returns(Project[] memory){\n        return allProjects;\n    }\n    \n    function getAllidDonateLength(uint256 id) public view returns (uint256) {\n        return IDDonateAmount[id];\n    }\n    \n    //danh sch ng h ca mt chng trnh\n    function getDonor(uint256 id)public view returns(Donor[] memory){\n        Donor[] memory result = new Donor[](IDDonateAmount[id]);\n        uint256 count;\n        for(uint256 i=0;i<allDonors.length;i++){\n            if(allDonors[i].projectID == id){\n                result[count] = allDonors[i];\n                count++;\n            }\n          }\n      return result;\n    }\n    \n    function getAllOwnerProjectsLength(address _owner) public view returns (uint256) {\n        return ownerProjectAmount[_owner];\n    }\n    \n    // danh sch chng trnh ca mt ti khon \n    function getOwnerProjects(address _owner) public view returns (Project[] memory ) {\n        Project[] memory result = new Project[](ownerProjectAmount[_owner]);\n        \n      uint count=0;\n      for(uint i=0;i<allProjects.length;i++){\n          if(allProjects[i].program_creator == _owner){\n              result[count]=allProjects[i];\n              count++;\n          }\n      }\n      return result;\n      \n    }\n    \n    \n    // tm project theo id\n    function find(uint256 id) internal view returns (uint256) {\n        for (uint256 i = 0; i < allProjects.length; i++) {\n            if (allProjects[i].id == id) {\n                return i;\n            }\n        }\n        revert('Project does not exist');\n    }\n\n\n    function _isReady(Project storage _project) internal view returns (bool) {\n        return (_project.readyTime <= block.timestamp);\n    }\n\n    function getAllProjectsLength() public view returns (uint256) {\n        return allProjects.length;\n    }\n    \n    // dng chng trnh \n    function endProject(uint256 id) public {\n        uint256 i = find(id);\n        // require(\n        //     allProjects[i].amountDonated >= allProjects[i].amountNeeded,\n        //     'project doesnt have enough money'\n        // );\n        // Project storage myProject = allProjects[id];\n        // require(_isReady(myProject));\n        require(msg.sender == allProjects[i].program_creator,'you have no right');\n        emit Goal_Reached(\n            allProjects[i].program_creator,\n            address(this),\n            allProjects[i].amountDonated\n        );\n        allProjects[i].ongoing = false;\n        allProjects[i].readyTime = uint32(block.timestamp);\n        emit Project_Ended(\n            allProjects[i].program_creator,\n            address(this),\n            allProjects[i].amountDonated\n        );\n      \n        // //allProjects[i].program_creator.transfer(allProjects[i].amountDonated); // gi s d ti khon n program_creator\n        \n    }\n    // chuyn tin cho ngi th hng\n    function pay(uint256 id)public payable returns(uint256 ethers){\n        uint256 i = find(id);\n        require(msg.sender == allProjects[i].program_creator,'you have no right');\n        Receiver[] memory result = new Receiver[](IDReceiverAmount[id]);\n        result = getIdReceiver(id);\n        uint256 a = result.length;\n        if(a==0){\n            allProjects[i].recipient.transfer(allProjects[i].amountDonated);\n            return allProjects[i].amountDonated;\n        }else{\n            uint b = allProjects[i].amountDonated / (a+1);\n            allProjects[i].recipient.transfer(b);\n            for(uint256 p=0; p<a; p++){\n            result[p].receiverAddress.transfer(b);\n            }\n            return b;\n        }\n        \n    }\n\n    // function _isReady(Project storage _project) internal view returns (bool) {\n    //     return (_project.readyTime <= block.timestamp);\n    // }\n    \n\n    //xem mt project\n    function readSingleProject(uint256 id)\n        public\n        view\n        returns (\n            uint256,\n            address,\n            string memory,\n            string memory,\n            string memory,\n            uint256,\n            uint256,\n            bool,\n            string memory,\n   \n            //address,\n            address\n        )\n    {\n        uint256 i = find(id);\n        return (\n            allProjects[i].id,\n            allProjects[i].program_creator,\n            allProjects[i].projectName,\n            allProjects[i].location,\n            allProjects[i].description,\n            allProjects[i].amountNeeded,\n            allProjects[i].amountDonated,\n            allProjects[i].ongoing,\n            allProjects[i].imageUrl,\n    \n            //allProjects[i].projectAddress,\n            allProjects[i].recipient\n        );\n    }\n    // kim tra project c phi ca a ch ny hay khng\n    function isCharity() public view returns (bool) {\n        for (uint256 i = 0; i < allProjects.length; i++) {\n            if (allProjects[i].program_creator == msg.sender) {\n                return true;\n            }\n        }\n        return false;\n    }\n    // function () external fall {\n    //     revert('not sure what you are doing');\n    // }\n    // to ngi nhn ng h\n    function createRegistered_recipientStruct(uint256 id,string memory nameR,string memory locationR, string memory descriptionR) public {\n        Receiver memory newReceiver = Receiver(\n        {receiverAddress: payable(msg.sender),\n            projectID: id,\n            nameR: nameR,\n            locationR: locationR,\n            descriptionR: descriptionR\n        });\n        uint256 i = find(id);\n        require(allProjects[i].program_creator != msg.sender,'you cannot register');\n        require(allProjects[i].recipient != msg.sender,'you cannot register');\n        require(allProjects[i].ongoing != false,'The program is closed');\n        Receiver[] memory result = new Receiver[](IDReceiverAmount[id]);\n        result = getIdReceiver(id);\n        for(uint256 j=0;j<result.length;j++){\n            require(msg.sender != result[j].receiverAddress,'you are already registered');\n        }\n        allReceviver.push(newReceiver);\n        IDReceiverAmount[newReceiver.projectID]++;\n    }\n    // function Registered_recipient (uint256 id)public{\n    //     uint256 i = find(id);\n    //     require(allProjects[i].program_creator != msg.sender,'you cannot register');\n    //     require(allProjects[i].recipient != msg.sender,'you cannot register');\n    //     require(allProjects[i].ongoing != false,'The program is closed');\n    //     Receiver[] memory result = new Receiver[](IDReceiverAmount[id]);\n    //     result = getIdReceiver(id);\n    //     for(uint256 j=0;j<result.length;j++){\n    //         require(msg.sender != result[j].receiverAddress,'you are already registered');\n    //     }\n    //     createRegistered_recipientStruct(id);\n        \n    // }\n    function getAllReceiver() public view returns(Receiver[] memory){\n        return allReceviver;\n    }\n    // ly ngi nhn theo 1 chng trnh\n    function getIdReceiver(uint256 id)public view returns(Receiver[] memory){\n        Receiver[] memory result = new Receiver[](IDReceiverAmount[id]);\n        uint256 count;\n        for(uint256 i=0;i<allReceviver.length;i++){\n            if(allReceviver[i].projectID == id){\n                result[count] = allReceviver[i];\n                count++;\n            }\n          }\n      return result;\n    }\n\n\n    //     //EVENTS\n    // s kin khi hp ng c to. Hin th a ch ch s hu, a ch hp ng v m t v hot ng gy qu\n    event Project_Created(\n        address indexed _from,\n        address indexed _project,\n        string _desription\n    );\n    // s kin khi tin c tng. Hin th a ch ca nh ti tr, hp ng gy qu c tng v gi tr c tng\n    event Funds_Donated(\n        address indexed _from,\n        address indexed _contract,\n        uint256 _value\n    );\n    // s kin khi t c mc tiu gy qu. Hin th a ch ngi nhn, a ch hp ng v s tin huy ng c\n    event Goal_Reached(\n        address indexed _from,\n        address indexed _contract,\n        uint256 _value\n    );\n    // s kin khi ngi nhn / ch s hu hp ng kt thc t gy qu. Hin th a ch ch s hu, a ch hp ng v s tin b k khai\n    event Project_Ended(\n        address indexed _from,\n        address indexed _contract,\n        uint256 _value\n    );\n} ",
  "sourcePath": "/Users/nguyenngocha/Desktop/o an/project-charity-dapp/contracts/Charity.sol",
  "compiler": {
    "name": "solc",
    "version": "0.8.0+commit.c7dfd78e.Emscripten.clang"
  },
  "schemaVersion": "3.4.3",
  "updatedAt": "2021-12-06T17:42:12.609Z",
  "networkType": "ethereum",
  "devdoc": {
    "kind": "dev",
    "methods": {},
    "version": 1
  },
  "userdoc": {
    "kind": "user",
    "methods": {},
    "version": 1
  }
}