{
  "contractName": "Charity",
  "abi": [
    {
      "anonymous": false,
      "inputs": [
        {
          "indexed": true,
          "internalType": "address",
          "name": "_from",
          "type": "address"
        },
        {
          "indexed": true,
          "internalType": "address",
          "name": "_contract",
          "type": "address"
        },
        {
          "indexed": false,
          "internalType": "uint256",
          "name": "_value",
          "type": "uint256"
        }
      ],
      "name": "Funds_Donated",
      "type": "event"
    },
    {
      "anonymous": false,
      "inputs": [
        {
          "indexed": true,
          "internalType": "address",
          "name": "_from",
          "type": "address"
        },
        {
          "indexed": true,
          "internalType": "address",
          "name": "_contract",
          "type": "address"
        },
        {
          "indexed": false,
          "internalType": "uint256",
          "name": "_value",
          "type": "uint256"
        }
      ],
      "name": "Goal_Reached",
      "type": "event"
    },
    {
      "anonymous": false,
      "inputs": [
        {
          "indexed": true,
          "internalType": "address",
          "name": "_from",
          "type": "address"
        },
        {
          "indexed": true,
          "internalType": "address",
          "name": "_project",
          "type": "address"
        },
        {
          "indexed": false,
          "internalType": "string",
          "name": "_desription",
          "type": "string"
        }
      ],
      "name": "Project_Created",
      "type": "event"
    },
    {
      "anonymous": false,
      "inputs": [
        {
          "indexed": true,
          "internalType": "address",
          "name": "_from",
          "type": "address"
        },
        {
          "indexed": true,
          "internalType": "address",
          "name": "_contract",
          "type": "address"
        },
        {
          "indexed": false,
          "internalType": "uint256",
          "name": "_value",
          "type": "uint256"
        }
      ],
      "name": "Project_Ended",
      "type": "event"
    },
    {
      "inputs": [
        {
          "internalType": "uint256",
          "name": "",
          "type": "uint256"
        }
      ],
      "name": "IDDonateAmount",
      "outputs": [
        {
          "internalType": "uint256",
          "name": "",
          "type": "uint256"
        }
      ],
      "stateMutability": "view",
      "type": "function",
      "constant": true
    },
    {
      "inputs": [
        {
          "internalType": "uint256",
          "name": "",
          "type": "uint256"
        }
      ],
      "name": "IDReceiverAmount",
      "outputs": [
        {
          "internalType": "uint256",
          "name": "",
          "type": "uint256"
        }
      ],
      "stateMutability": "view",
      "type": "function",
      "constant": true
    },
    {
      "inputs": [
        {
          "internalType": "uint256",
          "name": "",
          "type": "uint256"
        }
      ],
      "name": "IDReceiverAmountTake",
      "outputs": [
        {
          "internalType": "uint256",
          "name": "",
          "type": "uint256"
        }
      ],
      "stateMutability": "view",
      "type": "function",
      "constant": true
    },
    {
      "inputs": [
        {
          "internalType": "bool",
          "name": "",
          "type": "bool"
        }
      ],
      "name": "ReceiverAmountTake",
      "outputs": [
        {
          "internalType": "uint256",
          "name": "",
          "type": "uint256"
        }
      ],
      "stateMutability": "view",
      "type": "function",
      "constant": true
    },
    {
      "inputs": [
        {
          "internalType": "uint256",
          "name": "",
          "type": "uint256"
        }
      ],
      "name": "allDonors",
      "outputs": [
        {
          "internalType": "address",
          "name": "donorAddress",
          "type": "address"
        },
        {
          "internalType": "uint256",
          "name": "amount",
          "type": "uint256"
        },
        {
          "internalType": "uint256",
          "name": "projectID",
          "type": "uint256"
        }
      ],
      "stateMutability": "view",
      "type": "function",
      "constant": true
    },
    {
      "inputs": [
        {
          "internalType": "uint256",
          "name": "",
          "type": "uint256"
        }
      ],
      "name": "allProjects",
      "outputs": [
        {
          "internalType": "uint256",
          "name": "id",
          "type": "uint256"
        },
        {
          "internalType": "address payable",
          "name": "program_creator",
          "type": "address"
        },
        {
          "internalType": "string",
          "name": "projectName",
          "type": "string"
        },
        {
          "internalType": "string",
          "name": "location",
          "type": "string"
        },
        {
          "internalType": "string",
          "name": "description",
          "type": "string"
        },
        {
          "internalType": "uint256",
          "name": "amountNeeded",
          "type": "uint256"
        },
        {
          "internalType": "uint256",
          "name": "amountDonated",
          "type": "uint256"
        },
        {
          "internalType": "string",
          "name": "imageUrl",
          "type": "string"
        },
        {
          "internalType": "string",
          "name": "imageUrl1",
          "type": "string"
        },
        {
          "internalType": "bool",
          "name": "ongoing",
          "type": "bool"
        },
        {
          "internalType": "address payable",
          "name": "recipient",
          "type": "address"
        },
        {
          "internalType": "uint32",
          "name": "readyTime",
          "type": "uint32"
        }
      ],
      "stateMutability": "view",
      "type": "function",
      "constant": true
    },
    {
      "inputs": [
        {
          "internalType": "uint256",
          "name": "",
          "type": "uint256"
        }
      ],
      "name": "allReceviver",
      "outputs": [
        {
          "internalType": "address payable",
          "name": "receiverAddress",
          "type": "address"
        },
        {
          "internalType": "uint256",
          "name": "projectID",
          "type": "uint256"
        },
        {
          "internalType": "string",
          "name": "nameR",
          "type": "string"
        },
        {
          "internalType": "string",
          "name": "locationR",
          "type": "string"
        },
        {
          "internalType": "string",
          "name": "descriptionR",
          "type": "string"
        },
        {
          "internalType": "string",
          "name": "CMND",
          "type": "string"
        },
        {
          "internalType": "string",
          "name": "imageUrlR",
          "type": "string"
        },
        {
          "internalType": "string",
          "name": "imageUrl1R",
          "type": "string"
        },
        {
          "internalType": "bool",
          "name": "take",
          "type": "bool"
        }
      ],
      "stateMutability": "view",
      "type": "function",
      "constant": true
    },
    {
      "inputs": [],
      "name": "nextId",
      "outputs": [
        {
          "internalType": "uint256",
          "name": "",
          "type": "uint256"
        }
      ],
      "stateMutability": "view",
      "type": "function",
      "constant": true
    },
    {
      "inputs": [
        {
          "internalType": "address",
          "name": "",
          "type": "address"
        }
      ],
      "name": "ownerProjectAmount",
      "outputs": [
        {
          "internalType": "uint256",
          "name": "",
          "type": "uint256"
        }
      ],
      "stateMutability": "view",
      "type": "function",
      "constant": true
    },
    {
      "inputs": [
        {
          "internalType": "uint256",
          "name": "id",
          "type": "uint256"
        }
      ],
      "name": "donate",
      "outputs": [],
      "stateMutability": "payable",
      "type": "function",
      "payable": true
    },
    {
      "inputs": [
        {
          "internalType": "string",
          "name": "name",
          "type": "string"
        },
        {
          "internalType": "string",
          "name": "location",
          "type": "string"
        },
        {
          "internalType": "string",
          "name": "description",
          "type": "string"
        },
        {
          "internalType": "uint256",
          "name": "amountNeeded",
          "type": "uint256"
        },
        {
          "internalType": "string",
          "name": "imageUrl",
          "type": "string"
        },
        {
          "internalType": "string",
          "name": "imageUrl1",
          "type": "string"
        },
        {
          "internalType": "address",
          "name": "recipient",
          "type": "address"
        }
      ],
      "name": "createProjectStruct",
      "outputs": [],
      "stateMutability": "nonpayable",
      "type": "function"
    },
    {
      "inputs": [],
      "name": "getAllDonors",
      "outputs": [
        {
          "components": [
            {
              "internalType": "address",
              "name": "donorAddress",
              "type": "address"
            },
            {
              "internalType": "uint256",
              "name": "amount",
              "type": "uint256"
            },
            {
              "internalType": "uint256",
              "name": "projectID",
              "type": "uint256"
            }
          ],
          "internalType": "struct Charity.Donor[]",
          "name": "",
          "type": "tuple[]"
        }
      ],
      "stateMutability": "view",
      "type": "function",
      "constant": true
    },
    {
      "inputs": [],
      "name": "getAllProjects",
      "outputs": [
        {
          "components": [
            {
              "internalType": "uint256",
              "name": "id",
              "type": "uint256"
            },
            {
              "internalType": "address payable",
              "name": "program_creator",
              "type": "address"
            },
            {
              "internalType": "string",
              "name": "projectName",
              "type": "string"
            },
            {
              "internalType": "string",
              "name": "location",
              "type": "string"
            },
            {
              "internalType": "string",
              "name": "description",
              "type": "string"
            },
            {
              "internalType": "uint256",
              "name": "amountNeeded",
              "type": "uint256"
            },
            {
              "internalType": "uint256",
              "name": "amountDonated",
              "type": "uint256"
            },
            {
              "internalType": "string",
              "name": "imageUrl",
              "type": "string"
            },
            {
              "internalType": "string",
              "name": "imageUrl1",
              "type": "string"
            },
            {
              "internalType": "bool",
              "name": "ongoing",
              "type": "bool"
            },
            {
              "internalType": "address payable",
              "name": "recipient",
              "type": "address"
            },
            {
              "internalType": "uint32",
              "name": "readyTime",
              "type": "uint32"
            }
          ],
          "internalType": "struct Charity.Project[]",
          "name": "",
          "type": "tuple[]"
        }
      ],
      "stateMutability": "view",
      "type": "function",
      "constant": true
    },
    {
      "inputs": [
        {
          "internalType": "uint256",
          "name": "id",
          "type": "uint256"
        }
      ],
      "name": "getAllidDonateLength",
      "outputs": [
        {
          "internalType": "uint256",
          "name": "",
          "type": "uint256"
        }
      ],
      "stateMutability": "view",
      "type": "function",
      "constant": true
    },
    {
      "inputs": [
        {
          "internalType": "uint256",
          "name": "id",
          "type": "uint256"
        }
      ],
      "name": "getDonor",
      "outputs": [
        {
          "components": [
            {
              "internalType": "address",
              "name": "donorAddress",
              "type": "address"
            },
            {
              "internalType": "uint256",
              "name": "amount",
              "type": "uint256"
            },
            {
              "internalType": "uint256",
              "name": "projectID",
              "type": "uint256"
            }
          ],
          "internalType": "struct Charity.Donor[]",
          "name": "",
          "type": "tuple[]"
        }
      ],
      "stateMutability": "view",
      "type": "function",
      "constant": true
    },
    {
      "inputs": [
        {
          "internalType": "address",
          "name": "_owner",
          "type": "address"
        }
      ],
      "name": "getAllOwnerProjectsLength",
      "outputs": [
        {
          "internalType": "uint256",
          "name": "",
          "type": "uint256"
        }
      ],
      "stateMutability": "view",
      "type": "function",
      "constant": true
    },
    {
      "inputs": [
        {
          "internalType": "address",
          "name": "_owner",
          "type": "address"
        }
      ],
      "name": "getOwnerProjects",
      "outputs": [
        {
          "components": [
            {
              "internalType": "uint256",
              "name": "id",
              "type": "uint256"
            },
            {
              "internalType": "address payable",
              "name": "program_creator",
              "type": "address"
            },
            {
              "internalType": "string",
              "name": "projectName",
              "type": "string"
            },
            {
              "internalType": "string",
              "name": "location",
              "type": "string"
            },
            {
              "internalType": "string",
              "name": "description",
              "type": "string"
            },
            {
              "internalType": "uint256",
              "name": "amountNeeded",
              "type": "uint256"
            },
            {
              "internalType": "uint256",
              "name": "amountDonated",
              "type": "uint256"
            },
            {
              "internalType": "string",
              "name": "imageUrl",
              "type": "string"
            },
            {
              "internalType": "string",
              "name": "imageUrl1",
              "type": "string"
            },
            {
              "internalType": "bool",
              "name": "ongoing",
              "type": "bool"
            },
            {
              "internalType": "address payable",
              "name": "recipient",
              "type": "address"
            },
            {
              "internalType": "uint32",
              "name": "readyTime",
              "type": "uint32"
            }
          ],
          "internalType": "struct Charity.Project[]",
          "name": "",
          "type": "tuple[]"
        }
      ],
      "stateMutability": "view",
      "type": "function",
      "constant": true
    },
    {
      "inputs": [],
      "name": "getAllProjectsLength",
      "outputs": [
        {
          "internalType": "uint256",
          "name": "",
          "type": "uint256"
        }
      ],
      "stateMutability": "view",
      "type": "function",
      "constant": true
    },
    {
      "inputs": [
        {
          "internalType": "uint256",
          "name": "id",
          "type": "uint256"
        }
      ],
      "name": "endProject",
      "outputs": [],
      "stateMutability": "nonpayable",
      "type": "function"
    },
    {
      "inputs": [
        {
          "internalType": "uint256",
          "name": "id",
          "type": "uint256"
        }
      ],
      "name": "pay",
      "outputs": [
        {
          "internalType": "uint256",
          "name": "ethers",
          "type": "uint256"
        }
      ],
      "stateMutability": "payable",
      "type": "function",
      "payable": true
    },
    {
      "inputs": [
        {
          "internalType": "uint256",
          "name": "id",
          "type": "uint256"
        }
      ],
      "name": "readSingleProject",
      "outputs": [
        {
          "internalType": "uint256",
          "name": "",
          "type": "uint256"
        },
        {
          "internalType": "address",
          "name": "",
          "type": "address"
        },
        {
          "internalType": "string",
          "name": "",
          "type": "string"
        },
        {
          "internalType": "string",
          "name": "",
          "type": "string"
        },
        {
          "internalType": "string",
          "name": "",
          "type": "string"
        },
        {
          "internalType": "uint256",
          "name": "",
          "type": "uint256"
        },
        {
          "internalType": "uint256",
          "name": "",
          "type": "uint256"
        },
        {
          "internalType": "bool",
          "name": "",
          "type": "bool"
        },
        {
          "internalType": "string",
          "name": "",
          "type": "string"
        },
        {
          "internalType": "address",
          "name": "",
          "type": "address"
        }
      ],
      "stateMutability": "view",
      "type": "function",
      "constant": true
    },
    {
      "inputs": [],
      "name": "isCharity",
      "outputs": [
        {
          "internalType": "bool",
          "name": "",
          "type": "bool"
        }
      ],
      "stateMutability": "view",
      "type": "function",
      "constant": true
    },
    {
      "inputs": [
        {
          "internalType": "uint256",
          "name": "id",
          "type": "uint256"
        },
        {
          "internalType": "string",
          "name": "nameR",
          "type": "string"
        },
        {
          "internalType": "string",
          "name": "locationR",
          "type": "string"
        },
        {
          "internalType": "string",
          "name": "descriptionR",
          "type": "string"
        },
        {
          "internalType": "string",
          "name": "CMND",
          "type": "string"
        },
        {
          "internalType": "string",
          "name": "imageUrlR",
          "type": "string"
        },
        {
          "internalType": "string",
          "name": "imageUrl1R",
          "type": "string"
        }
      ],
      "name": "createRegistered_recipientStruct",
      "outputs": [],
      "stateMutability": "nonpayable",
      "type": "function"
    },
    {
      "inputs": [],
      "name": "getAllReceiver",
      "outputs": [
        {
          "components": [
            {
              "internalType": "address payable",
              "name": "receiverAddress",
              "type": "address"
            },
            {
              "internalType": "uint256",
              "name": "projectID",
              "type": "uint256"
            },
            {
              "internalType": "string",
              "name": "nameR",
              "type": "string"
            },
            {
              "internalType": "string",
              "name": "locationR",
              "type": "string"
            },
            {
              "internalType": "string",
              "name": "descriptionR",
              "type": "string"
            },
            {
              "internalType": "string",
              "name": "CMND",
              "type": "string"
            },
            {
              "internalType": "string",
              "name": "imageUrlR",
              "type": "string"
            },
            {
              "internalType": "string",
              "name": "imageUrl1R",
              "type": "string"
            },
            {
              "internalType": "bool",
              "name": "take",
              "type": "bool"
            }
          ],
          "internalType": "struct Charity.Receiver[]",
          "name": "",
          "type": "tuple[]"
        }
      ],
      "stateMutability": "view",
      "type": "function",
      "constant": true
    },
    {
      "inputs": [
        {
          "internalType": "uint256",
          "name": "id",
          "type": "uint256"
        }
      ],
      "name": "getIdReceiver",
      "outputs": [
        {
          "components": [
            {
              "internalType": "address payable",
              "name": "receiverAddress",
              "type": "address"
            },
            {
              "internalType": "uint256",
              "name": "projectID",
              "type": "uint256"
            },
            {
              "internalType": "string",
              "name": "nameR",
              "type": "string"
            },
            {
              "internalType": "string",
              "name": "locationR",
              "type": "string"
            },
            {
              "internalType": "string",
              "name": "descriptionR",
              "type": "string"
            },
            {
              "internalType": "string",
              "name": "CMND",
              "type": "string"
            },
            {
              "internalType": "string",
              "name": "imageUrlR",
              "type": "string"
            },
            {
              "internalType": "string",
              "name": "imageUrl1R",
              "type": "string"
            },
            {
              "internalType": "bool",
              "name": "take",
              "type": "bool"
            }
          ],
          "internalType": "struct Charity.Receiver[]",
          "name": "",
          "type": "tuple[]"
        }
      ],
      "stateMutability": "view",
      "type": "function",
      "constant": true
    },
    {
      "inputs": [],
      "name": "SetTake",
      "outputs": [
        {
          "components": [
            {
              "internalType": "address payable",
              "name": "receiverAddress",
              "type": "address"
            },
            {
              "internalType": "uint256",
              "name": "projectID",
              "type": "uint256"
            },
            {
              "internalType": "string",
              "name": "nameR",
              "type": "string"
            },
            {
              "internalType": "string",
              "name": "locationR",
              "type": "string"
            },
            {
              "internalType": "string",
              "name": "descriptionR",
              "type": "string"
            },
            {
              "internalType": "string",
              "name": "CMND",
              "type": "string"
            },
            {
              "internalType": "string",
              "name": "imageUrlR",
              "type": "string"
            },
            {
              "internalType": "string",
              "name": "imageUrl1R",
              "type": "string"
            },
            {
              "internalType": "bool",
              "name": "take",
              "type": "bool"
            }
          ],
          "internalType": "struct Charity.Receiver[]",
          "name": "",
          "type": "tuple[]"
        }
      ],
      "stateMutability": "view",
      "type": "function",
      "constant": true
    },
    {
      "inputs": [
        {
          "internalType": "uint256",
          "name": "id",
          "type": "uint256"
        }
      ],
      "name": "getIdRTake",
      "outputs": [
        {
          "components": [
            {
              "internalType": "address payable",
              "name": "receiverAddress",
              "type": "address"
            },
            {
              "internalType": "uint256",
              "name": "projectID",
              "type": "uint256"
            },
            {
              "internalType": "string",
              "name": "nameR",
              "type": "string"
            },
            {
              "internalType": "string",
              "name": "locationR",
              "type": "string"
            },
            {
              "internalType": "string",
              "name": "descriptionR",
              "type": "string"
            },
            {
              "internalType": "string",
              "name": "CMND",
              "type": "string"
            },
            {
              "internalType": "string",
              "name": "imageUrlR",
              "type": "string"
            },
            {
              "internalType": "string",
              "name": "imageUrl1R",
              "type": "string"
            },
            {
              "internalType": "bool",
              "name": "take",
              "type": "bool"
            }
          ],
          "internalType": "struct Charity.Receiver[]",
          "name": "",
          "type": "tuple[]"
        }
      ],
      "stateMutability": "view",
      "type": "function",
      "constant": true
    },
    {
      "inputs": [
        {
          "internalType": "uint256",
          "name": "id",
          "type": "uint256"
        },
        {
          "internalType": "address",
          "name": "a",
          "type": "address"
        }
      ],
      "name": "approveReceiver",
      "outputs": [
        {
          "internalType": "bool",
          "name": "b",
          "type": "bool"
        }
      ],
      "stateMutability": "nonpayable",
      "type": "function"
    },
    {
      "inputs": [
        {
          "internalType": "address",
          "name": "a",
          "type": "address"
        }
      ],
      "name": "readSingleReceiver",
      "outputs": [
        {
          "internalType": "address",
          "name": "",
          "type": "address"
        },
        {
          "internalType": "uint256",
          "name": "",
          "type": "uint256"
        },
        {
          "internalType": "string",
          "name": "",
          "type": "string"
        },
        {
          "internalType": "string",
          "name": "",
          "type": "string"
        },
        {
          "internalType": "string",
          "name": "",
          "type": "string"
        },
        {
          "internalType": "string",
          "name": "",
          "type": "string"
        },
        {
          "internalType": "string",
          "name": "",
          "type": "string"
        },
        {
          "internalType": "string",
          "name": "",
          "type": "string"
        },
        {
          "internalType": "bool",
          "name": "",
          "type": "bool"
        }
      ],
      "stateMutability": "view",
      "type": "function",
      "constant": true
    }
  ],
  "bytecode": "0x6080604052600160005561012c60015534801561001b57600080fd5b506150cd8061002b6000396000f3fe6080604052600436106101c25760003560e01c80637ad82ad2116100f7578063a7a51ad511610095578063c290d69111610064578063c290d69114610543578063ecb85d3414610556578063efd5bf8b14610576578063f14faf6f1461058b576101c2565b8063a7a51ad5146104c3578063aa8c508f146104e3578063bc5edcdf14610503578063be88322b14610523576101c2565b806398e36b04116100d157806398e36b041461044e5780639ba4734614610463578063a1ff481414610483578063a74bb4ad146104a3576101c2565b80637ad82ad2146103f957806380d038291461041957806396d7e11d1461042e576101c2565b80635529274e1161016457806361b8ce8c1161013e57806361b8ce8c146103805780636d7932d114610395578063744bc369146103b75780637a5bdeb1146103d9576101c2565b80635529274e14610309578063561ff0271461033e5780636136a90614610353576101c2565b806336a44c69116101a057806336a44c691461026257806338d434031461028f57806346fa52a2146102b157806353b3194c146102d1576101c2565b8063246f220b146101c75780632c3e6963146101fd5780633330d8ca1461022c575b600080fd5b3480156101d357600080fd5b506101e76101e2366004614636565b61059e565b6040516101f49190614a2e565b60405180910390f35b34801561020957600080fd5b5061021d61021836600461475d565b610a6b565b6040516101f4939291906149ab565b34801561023857600080fd5b5061024c61024736600461475d565b610aa8565b6040516101f49a99989796959493929190614f44565b34801561026e57600080fd5b5061028261027d36600461475d565b610f44565b6040516101f49190614e75565b34801561029b57600080fd5b506102a4610f56565b6040516101f49190614b78565b3480156102bd57600080fd5b506102a46102cc36600461475d565b611482565b3480156102dd57600080fd5b506102f16102ec36600461475d565b61197e565b6040516101f49c9b9a99989796959493929190614e7e565b34801561031557600080fd5b5061032961032436600461475d565b611cb3565b6040516101f499989796959493929190614901565b34801561034a57600080fd5b506102a461204b565b34801561035f57600080fd5b5061037361036e36600461475d565b612449565b6040516101f491906149cc565b34801561038c57600080fd5b506102826125b8565b3480156103a157600080fd5b506103aa6125be565b6040516101f49190614c8d565b3480156103c357600080fd5b506103d76103d236600461475d565b61263e565b005b3480156103e557600080fd5b506103d76103f43660046147a0565b6128d4565b34801561040557600080fd5b506103aa610414366004614775565b612d2a565b34801561042557600080fd5b506101e7612f36565b34801561043a57600080fd5b50610282610449366004614636565b6132db565b34801561045a57600080fd5b506103736132f6565b34801561046f57600080fd5b5061028261047e366004614636565b61336f565b34801561048f57600080fd5b5061028261049e366004614657565b613381565b3480156104af57600080fd5b506102826104be36600461475d565b613393565b3480156104cf57600080fd5b506102a46104de36600461475d565b6133a5565b3480156104ef57600080fd5b506102826104fe36600461475d565b613574565b34801561050f57600080fd5b5061032961051e366004614636565b613586565b34801561052f57600080fd5b506103d761053e366004614677565b613ae6565b61028261055136600461475d565b613dbb565b34801561056257600080fd5b5061028261057136600461475d565b6140e0565b34801561058257600080fd5b506102826140f2565b6103d761059936600461475d565b6140f8565b6001600160a01b0381166000908152600560205260408120546060919067ffffffffffffffff8111156105e157634e487b7160e01b600052604160045260246000fd5b60405190808252806020026020018201604052801561061a57816020015b610607614409565b8152602001906001900390816105ff5790505b5090506000805b600354811015610a6057846001600160a01b03166003828154811061065657634e487b7160e01b600052603260045260246000fd5b600091825260209091206001600a9092020101546001600160a01b03161415610a4e576003818154811061069a57634e487b7160e01b600052603260045260246000fd5b90600052602060002090600a020160405180610180016040529081600082015481526020016001820160009054906101000a90046001600160a01b03166001600160a01b03166001600160a01b031681526020016002820180546106fd90615015565b80601f016020809104026020016040519081016040528092919081815260200182805461072990615015565b80156107765780601f1061074b57610100808354040283529160200191610776565b820191906000526020600020905b81548152906001019060200180831161075957829003601f168201915b5050505050815260200160038201805461078f90615015565b80601f01602080910402602001604051908101604052809291908181526020018280546107bb90615015565b80156108085780601f106107dd57610100808354040283529160200191610808565b820191906000526020600020905b8154815290600101906020018083116107eb57829003601f168201915b5050505050815260200160048201805461082190615015565b80601f016020809104026020016040519081016040528092919081815260200182805461084d90615015565b801561089a5780601f1061086f5761010080835404028352916020019161089a565b820191906000526020600020905b81548152906001019060200180831161087d57829003601f168201915b5050505050815260200160058201548152602001600682015481526020016007820180546108c790615015565b80601f01602080910402602001604051908101604052809291908181526020018280546108f390615015565b80156109405780601f1061091557610100808354040283529160200191610940565b820191906000526020600020905b81548152906001019060200180831161092357829003601f168201915b5050505050815260200160088201805461095990615015565b80601f016020809104026020016040519081016040528092919081815260200182805461098590615015565b80156109d25780601f106109a7576101008083540402835291602001916109d2565b820191906000526020600020905b8154815290600101906020018083116109b557829003601f168201915b50505091835250506009919091015460ff81161515602083015261010081046001600160a01b03166040830152600160a81b900463ffffffff166060909101528351849084908110610a3457634e487b7160e01b600052603260045260246000fd5b60200260200101819052508180610a4a90615050565b9250505b80610a5881615050565b915050610621565b50909150505b919050565b60028181548110610a7b57600080fd5b60009182526020909120600390910201805460018201546002909201546001600160a01b03909116925083565b600080606080606060008060006060600080610ac38c614221565b905060038181548110610ae657634e487b7160e01b600052603260045260246000fd5b90600052602060002090600a02016000015460038281548110610b1957634e487b7160e01b600052603260045260246000fd5b90600052602060002090600a020160010160009054906101000a90046001600160a01b031660038381548110610b5f57634e487b7160e01b600052603260045260246000fd5b90600052602060002090600a020160020160038481548110610b9157634e487b7160e01b600052603260045260246000fd5b90600052602060002090600a020160030160038581548110610bc357634e487b7160e01b600052603260045260246000fd5b90600052602060002090600a020160040160038681548110610bf557634e487b7160e01b600052603260045260246000fd5b90600052602060002090600a02016005015460038781548110610c2857634e487b7160e01b600052603260045260246000fd5b90600052602060002090600a02016006015460038881548110610c5b57634e487b7160e01b600052603260045260246000fd5b90600052602060002090600a020160090160009054906101000a900460ff1660038981548110610c9b57634e487b7160e01b600052603260045260246000fd5b90600052602060002090600a020160070160038a81548110610ccd57634e487b7160e01b600052603260045260246000fd5b90600052602060002090600a020160090160019054906101000a90046001600160a01b0316878054610cfe90615015565b80601f0160208091040260200160405190810160405280929190818152602001828054610d2a90615015565b8015610d775780601f10610d4c57610100808354040283529160200191610d77565b820191906000526020600020905b815481529060010190602001808311610d5a57829003601f168201915b50505050509750868054610d8a90615015565b80601f0160208091040260200160405190810160405280929190818152602001828054610db690615015565b8015610e035780601f10610dd857610100808354040283529160200191610e03565b820191906000526020600020905b815481529060010190602001808311610de657829003601f168201915b50505050509650858054610e1690615015565b80601f0160208091040260200160405190810160405280929190818152602001828054610e4290615015565b8015610e8f5780601f10610e6457610100808354040283529160200191610e8f565b820191906000526020600020905b815481529060010190602001808311610e7257829003601f168201915b50505050509550818054610ea290615015565b80601f0160208091040260200160405190810160405280929190818152602001828054610ece90615015565b8015610f1b5780601f10610ef057610100808354040283529160200191610f1b565b820191906000526020600020905b815481529060010190602001808311610efe57829003601f168201915b505050505091509a509a509a509a509a509a509a509a509a509a50509193959799509193959799565b60096020526000908152604090205481565b6001600090815260086020527fad67d757c34507f157cacfa2e3153e9f260a2244f30428821be7be64587ac55f5460609190819067ffffffffffffffff811115610fb057634e487b7160e01b600052604160045260246000fd5b604051908082528060200260200182016040528015610fe957816020015b610fd6614484565b815260200190600190039081610fce5790505b50905060005b60045481101561147a576004818154811061101a57634e487b7160e01b600052603260045260246000fd5b600091825260209091206008600990920201015460ff16151560011415611468576004818154811061105c57634e487b7160e01b600052603260045260246000fd5b9060005260206000209060090201604051806101200160405290816000820160009054906101000a90046001600160a01b03166001600160a01b03166001600160a01b03168152602001600182015481526020016002820180546110bf90615015565b80601f01602080910402602001604051908101604052809291908181526020018280546110eb90615015565b80156111385780601f1061110d57610100808354040283529160200191611138565b820191906000526020600020905b81548152906001019060200180831161111b57829003601f168201915b5050505050815260200160038201805461115190615015565b80601f016020809104026020016040519081016040528092919081815260200182805461117d90615015565b80156111ca5780601f1061119f576101008083540402835291602001916111ca565b820191906000526020600020905b8154815290600101906020018083116111ad57829003601f168201915b505050505081526020016004820180546111e390615015565b80601f016020809104026020016040519081016040528092919081815260200182805461120f90615015565b801561125c5780601f106112315761010080835404028352916020019161125c565b820191906000526020600020905b81548152906001019060200180831161123f57829003601f168201915b5050505050815260200160058201805461127590615015565b80601f01602080910402602001604051908101604052809291908181526020018280546112a190615015565b80156112ee5780601f106112c3576101008083540402835291602001916112ee565b820191906000526020600020905b8154815290600101906020018083116112d157829003601f168201915b5050505050815260200160068201805461130790615015565b80601f016020809104026020016040519081016040528092919081815260200182805461133390615015565b80156113805780601f1061135557610100808354040283529160200191611380565b820191906000526020600020905b81548152906001019060200180831161136357829003601f168201915b5050505050815260200160078201805461139990615015565b80601f01602080910402602001604051908101604052809291908181526020018280546113c590615015565b80156114125780601f106113e757610100808354040283529160200191611412565b820191906000526020600020905b8154815290600101906020018083116113f557829003601f168201915b50505091835250506008919091015460ff161515602090910152825183908590811061144e57634e487b7160e01b600052603260045260246000fd5b6020026020010181905250828061146490615050565b9350505b8061147281615050565b915050610fef565b509150505b90565b6000818152600760205260408120546060919067ffffffffffffffff8111156114bb57634e487b7160e01b600052604160045260246000fd5b6040519080825280602002602001820160405280156114f457816020015b6114e1614484565b8152602001906001900390816114d95790505b5090506000805b600454811015610a6057846004828154811061152757634e487b7160e01b600052603260045260246000fd5b906000526020600020906009020160010154141561196c576004818154811061156057634e487b7160e01b600052603260045260246000fd5b9060005260206000209060090201604051806101200160405290816000820160009054906101000a90046001600160a01b03166001600160a01b03166001600160a01b03168152602001600182015481526020016002820180546115c390615015565b80601f01602080910402602001604051908101604052809291908181526020018280546115ef90615015565b801561163c5780601f106116115761010080835404028352916020019161163c565b820191906000526020600020905b81548152906001019060200180831161161f57829003601f168201915b5050505050815260200160038201805461165590615015565b80601f016020809104026020016040519081016040528092919081815260200182805461168190615015565b80156116ce5780601f106116a3576101008083540402835291602001916116ce565b820191906000526020600020905b8154815290600101906020018083116116b157829003601f168201915b505050505081526020016004820180546116e790615015565b80601f016020809104026020016040519081016040528092919081815260200182805461171390615015565b80156117605780601f1061173557610100808354040283529160200191611760565b820191906000526020600020905b81548152906001019060200180831161174357829003601f168201915b5050505050815260200160058201805461177990615015565b80601f01602080910402602001604051908101604052809291908181526020018280546117a590615015565b80156117f25780601f106117c7576101008083540402835291602001916117f2565b820191906000526020600020905b8154815290600101906020018083116117d557829003601f168201915b5050505050815260200160068201805461180b90615015565b80601f016020809104026020016040519081016040528092919081815260200182805461183790615015565b80156118845780601f1061185957610100808354040283529160200191611884565b820191906000526020600020905b81548152906001019060200180831161186757829003601f168201915b5050505050815260200160078201805461189d90615015565b80601f01602080910402602001604051908101604052809291908181526020018280546118c990615015565b80156119165780601f106118eb57610100808354040283529160200191611916565b820191906000526020600020905b8154815290600101906020018083116118f957829003601f168201915b50505091835250506008919091015460ff161515602090910152835184908490811061195257634e487b7160e01b600052603260045260246000fd5b6020026020010181905250818061196890615050565b9250505b8061197681615050565b9150506114fb565b6003818154811061198e57600080fd5b60009182526020909120600a90910201805460018201546002830180549294506001600160a01b0390911692916119c490615015565b80601f01602080910402602001604051908101604052809291908181526020018280546119f090615015565b8015611a3d5780601f10611a1257610100808354040283529160200191611a3d565b820191906000526020600020905b815481529060010190602001808311611a2057829003601f168201915b505050505090806003018054611a5290615015565b80601f0160208091040260200160405190810160405280929190818152602001828054611a7e90615015565b8015611acb5780601f10611aa057610100808354040283529160200191611acb565b820191906000526020600020905b815481529060010190602001808311611aae57829003601f168201915b505050505090806004018054611ae090615015565b80601f0160208091040260200160405190810160405280929190818152602001828054611b0c90615015565b8015611b595780601f10611b2e57610100808354040283529160200191611b59565b820191906000526020600020905b815481529060010190602001808311611b3c57829003601f168201915b505050505090806005015490806006015490806007018054611b7a90615015565b80601f0160208091040260200160405190810160405280929190818152602001828054611ba690615015565b8015611bf35780601f10611bc857610100808354040283529160200191611bf3565b820191906000526020600020905b815481529060010190602001808311611bd657829003601f168201915b505050505090806008018054611c0890615015565b80601f0160208091040260200160405190810160405280929190818152602001828054611c3490615015565b8015611c815780601f10611c5657610100808354040283529160200191611c81565b820191906000526020600020905b815481529060010190602001808311611c6457829003601f168201915b5050506009909301549192505060ff8116906001600160a01b036101008204169063ffffffff600160a81b909104168c565b60048181548110611cc357600080fd5b60009182526020909120600990910201805460018201546002830180546001600160a01b039093169450909291611cf990615015565b80601f0160208091040260200160405190810160405280929190818152602001828054611d2590615015565b8015611d725780601f10611d4757610100808354040283529160200191611d72565b820191906000526020600020905b815481529060010190602001808311611d5557829003601f168201915b505050505090806003018054611d8790615015565b80601f0160208091040260200160405190810160405280929190818152602001828054611db390615015565b8015611e005780601f10611dd557610100808354040283529160200191611e00565b820191906000526020600020905b815481529060010190602001808311611de357829003601f168201915b505050505090806004018054611e1590615015565b80601f0160208091040260200160405190810160405280929190818152602001828054611e4190615015565b8015611e8e5780601f10611e6357610100808354040283529160200191611e8e565b820191906000526020600020905b815481529060010190602001808311611e7157829003601f168201915b505050505090806005018054611ea390615015565b80601f0160208091040260200160405190810160405280929190818152602001828054611ecf90615015565b8015611f1c5780601f10611ef157610100808354040283529160200191611f1c565b820191906000526020600020905b815481529060010190602001808311611eff57829003601f168201915b505050505090806006018054611f3190615015565b80601f0160208091040260200160405190810160405280929190818152602001828054611f5d90615015565b8015611faa5780601f10611f7f57610100808354040283529160200191611faa565b820191906000526020600020905b815481529060010190602001808311611f8d57829003601f168201915b505050505090806007018054611fbf90615015565b80601f0160208091040260200160405190810160405280929190818152602001828054611feb90615015565b80156120385780601f1061200d57610100808354040283529160200191612038565b820191906000526020600020905b81548152906001019060200180831161201b57829003601f168201915b5050506008909301549192505060ff1689565b60606004805480602002602001604051908101604052809291908181526020016000905b8282101561244057600084815260209081902060408051610120810182526009860290920180546001600160a01b03168352600181015493830193909352600283018054929392918401916120c390615015565b80601f01602080910402602001604051908101604052809291908181526020018280546120ef90615015565b801561213c5780601f106121115761010080835404028352916020019161213c565b820191906000526020600020905b81548152906001019060200180831161211f57829003601f168201915b5050505050815260200160038201805461215590615015565b80601f016020809104026020016040519081016040528092919081815260200182805461218190615015565b80156121ce5780601f106121a3576101008083540402835291602001916121ce565b820191906000526020600020905b8154815290600101906020018083116121b157829003601f168201915b505050505081526020016004820180546121e790615015565b80601f016020809104026020016040519081016040528092919081815260200182805461221390615015565b80156122605780601f1061223557610100808354040283529160200191612260565b820191906000526020600020905b81548152906001019060200180831161224357829003601f168201915b5050505050815260200160058201805461227990615015565b80601f01602080910402602001604051908101604052809291908181526020018280546122a590615015565b80156122f25780601f106122c7576101008083540402835291602001916122f2565b820191906000526020600020905b8154815290600101906020018083116122d557829003601f168201915b5050505050815260200160068201805461230b90615015565b80601f016020809104026020016040519081016040528092919081815260200182805461233790615015565b80156123845780601f1061235957610100808354040283529160200191612384565b820191906000526020600020905b81548152906001019060200180831161236757829003601f168201915b5050505050815260200160078201805461239d90615015565b80601f01602080910402602001604051908101604052809291908181526020018280546123c990615015565b80156124165780601f106123eb57610100808354040283529160200191612416565b820191906000526020600020905b8154815290600101906020018083116123f957829003601f168201915b50505091835250506008919091015460ff161515602091820152908252600192909201910161206f565b50505050905090565b6000818152600660205260408120546060919067ffffffffffffffff81111561248257634e487b7160e01b600052604160045260246000fd5b6040519080825280602002602001820160405280156124bb57816020015b6124a86144db565b8152602001906001900390816124a05790505b5090506000805b600254811015610a605784600282815481106124ee57634e487b7160e01b600052603260045260246000fd5b90600052602060002090600302016002015414156125a6576002818154811061252757634e487b7160e01b600052603260045260246000fd5b600091825260209182902060408051606081018252600390930290910180546001600160a01b0316835260018101549383019390935260029092015491810191909152835184908490811061258c57634e487b7160e01b600052603260045260246000fd5b602002602001018190525081806125a290615050565b9250505b806125b081615050565b9150506124c2565b60005481565b6000805b60035481101561263657336001600160a01b0316600382815481106125f757634e487b7160e01b600052603260045260246000fd5b600091825260209091206001600a9092020101546001600160a01b0316141561262457600191505061147f565b8061262e81615050565b9150506125c2565b506000905090565b600061264982614221565b90506003818154811061266c57634e487b7160e01b600052603260045260246000fd5b60009182526020909120600a90910201600101546001600160a01b031633146126b05760405162461bcd60e51b81526004016126a790614dac565b60405180910390fd5b306001600160a01b0316600382815481106126db57634e487b7160e01b600052603260045260246000fd5b90600052602060002090600a020160010160009054906101000a90046001600160a01b03166001600160a01b03167fc677ee22205cecb2dd893a25f6fb1ead51dba3b724dbc541169086863a2ca3966003848154811061274b57634e487b7160e01b600052603260045260246000fd5b90600052602060002090600a02016006015460405161276a9190614e75565b60405180910390a360006003828154811061279557634e487b7160e01b600052603260045260246000fd5b90600052602060002090600a020160090160006101000a81548160ff02191690831515021790555042600382815481106127df57634e487b7160e01b600052603260045260246000fd5b90600052602060002090600a020160090160156101000a81548163ffffffff021916908363ffffffff160217905550306001600160a01b03166003828154811061283957634e487b7160e01b600052603260045260246000fd5b90600052602060002090600a020160010160009054906101000a90046001600160a01b03166001600160a01b03167fa43e0a4d4c286e55da31fef2f0f60c4887ad5eed3cac930656a11a77dc9fe7a4600384815481106128a957634e487b7160e01b600052603260045260246000fd5b90600052602060002090600a0201600601546040516128c89190614e75565b60405180910390a35050565b6000604051806101200160405280336001600160a01b03168152602001898152602001888152602001878152602001868152602001858152602001848152602001838152602001600015158152509050600061292f89614221565b9050336001600160a01b03166003828154811061295c57634e487b7160e01b600052603260045260246000fd5b600091825260209091206001600a9092020101546001600160a01b031614156129975760405162461bcd60e51b81526004016126a790614d7f565b336001600160a01b0316600382815481106129c257634e487b7160e01b600052603260045260246000fd5b60009182526020909120600a909102016009015461010090046001600160a01b03161415612a025760405162461bcd60e51b81526004016126a790614d7f565b60038181548110612a2357634e487b7160e01b600052603260045260246000fd5b600091825260209091206009600a90920201015460ff16612a565760405162461bcd60e51b81526004016126a790614cf1565b4260038281548110612a7857634e487b7160e01b600052603260045260246000fd5b60009182526020909120600a9091020160090154600160a81b900463ffffffff1611612aa757612aa78961263e565b60045460009067ffffffffffffffff811115612ad357634e487b7160e01b600052604160045260246000fd5b604051908082528060200260200182016040528015612b0c57816020015b612af9614484565b815260200190600190039081612af15790505b509050612b1761204b565b905060005b8151811015612b9457818181518110612b4557634e487b7160e01b600052603260045260246000fd5b6020026020010151600001516001600160a01b0316336001600160a01b03161415612b825760405162461bcd60e51b81526004016126a790614e0e565b80612b8c81615050565b915050612b1c565b506004805460018101825560009190915283517f8a35acfbc15ff81a39ae7d344fd709f28e8600b4aa8c65c6b64bfe7fe36bd19b600990920291820180546001600160a01b0319166001600160a01b039092169190911781556020808601517f8a35acfbc15ff81a39ae7d344fd709f28e8600b4aa8c65c6b64bfe7fe36bd19c840155604086015180518794612c50937f8a35acfbc15ff81a39ae7d344fd709f28e8600b4aa8c65c6b64bfe7fe36bd19d909101920190614505565b5060608201518051612c6c916003840191602090910190614505565b5060808201518051612c88916004840191602090910190614505565b5060a08201518051612ca4916005840191602090910190614505565b5060c08201518051612cc0916006840191602090910190614505565b5060e08201518051612cdc916007840191602090910190614505565b5061010091909101516008909101805460ff19169115159190911790556020838101516000908152600790915260408120805491612d1983615050565b919050555050505050505050505050565b600080612d3684614221565b905060038181548110612d5957634e487b7160e01b600052603260045260246000fd5b60009182526020909120600a90910201600101546001600160a01b03163314612d945760405162461bcd60e51b81526004016126a790614dac565b6000612d9f8461429b565b905060048181548110612dc257634e487b7160e01b600052603260045260246000fd5b600091825260209091206008600990920201015460ff1615612df65760405162461bcd60e51b81526004016126a790614d20565b600160048281548110612e1957634e487b7160e01b600052603260045260246000fd5b60009182526020822060086009909202018101805493151560ff19909416939093179092556004805484908110612e6057634e487b7160e01b600052603260045260246000fd5b600091825260208083206008600990930201919091015460ff16151583528201929092526040018120805491612e9583615050565b91905055506009600060048381548110612ebf57634e487b7160e01b600052603260045260246000fd5b90600052602060002090600902016001015481526020019081526020016000206000815480929190612ef090615050565b919050555060048181548110612f1657634e487b7160e01b600052603260045260246000fd5b600091825260209091206009909102016008015460ff1695945050505050565b60606003805480602002602001604051908101604052809291908181526020016000905b828210156124405760008481526020908190206040805161018081018252600a86029092018054835260018101546001600160a01b03169383019390935260028301805492939291840191612fae90615015565b80601f0160208091040260200160405190810160405280929190818152602001828054612fda90615015565b80156130275780601f10612ffc57610100808354040283529160200191613027565b820191906000526020600020905b81548152906001019060200180831161300a57829003601f168201915b5050505050815260200160038201805461304090615015565b80601f016020809104026020016040519081016040528092919081815260200182805461306c90615015565b80156130b95780601f1061308e576101008083540402835291602001916130b9565b820191906000526020600020905b81548152906001019060200180831161309c57829003601f168201915b505050505081526020016004820180546130d290615015565b80601f01602080910402602001604051908101604052809291908181526020018280546130fe90615015565b801561314b5780601f106131205761010080835404028352916020019161314b565b820191906000526020600020905b81548152906001019060200180831161312e57829003601f168201915b50505050508152602001600582015481526020016006820154815260200160078201805461317890615015565b80601f01602080910402602001604051908101604052809291908181526020018280546131a490615015565b80156131f15780601f106131c6576101008083540402835291602001916131f1565b820191906000526020600020905b8154815290600101906020018083116131d457829003601f168201915b5050505050815260200160088201805461320a90615015565b80601f016020809104026020016040519081016040528092919081815260200182805461323690615015565b80156132835780601f1061325857610100808354040283529160200191613283565b820191906000526020600020905b81548152906001019060200180831161326657829003601f168201915b50505091835250506009919091015460ff8116151560208084019190915261010082046001600160a01b03166040840152600160a81b90910463ffffffff166060909201919091529082526001929092019101612f5a565b6001600160a01b031660009081526005602052604090205490565b60606002805480602002602001604051908101604052809291908181526020016000905b82821015612440576000848152602090819020604080516060810182526003860290920180546001600160a01b031683526001808201548486015260029091015491830191909152908352909201910161331a565b60056020526000908152604090205481565b60086020526000908152604090205481565b60066020526000908152604090205481565b6001600090815260086020527fad67d757c34507f157cacfa2e3153e9f260a2244f30428821be7be64587ac55f546060919067ffffffffffffffff8111156133fd57634e487b7160e01b600052604160045260246000fd5b60405190808252806020026020018201604052801561343657816020015b613423614484565b81526020019060019003908161341b5790505b509050613441610f56565b60008481526009602052604081205491925090819067ffffffffffffffff81111561347c57634e487b7160e01b600052604160045260246000fd5b6040519080825280602002602001820160405280156134b557816020015b6134a2614484565b81526020019060019003908161349a5790505b50905060005b835181101561356b57858482815181106134e557634e487b7160e01b600052603260045260246000fd5b60200260200101516020015114156135595783818151811061351757634e487b7160e01b600052603260045260246000fd5b602002602001015182848151811061353f57634e487b7160e01b600052603260045260246000fd5b6020026020010181905250828061355590615050565b9350505b8061356381615050565b9150506134bb565b50949350505050565b60009081526006602052604090205490565b60008060608060608060608060008061359e8b61429b565b9050600481815481106135c157634e487b7160e01b600052603260045260246000fd5b6000918252602090912060099091020154600480546001600160a01b03909216918390811061360057634e487b7160e01b600052603260045260246000fd5b9060005260206000209060090201600101546004838154811061363357634e487b7160e01b600052603260045260246000fd5b90600052602060002090600902016002016004848154811061366557634e487b7160e01b600052603260045260246000fd5b90600052602060002090600902016003016004858154811061369757634e487b7160e01b600052603260045260246000fd5b9060005260206000209060090201600401600486815481106136c957634e487b7160e01b600052603260045260246000fd5b9060005260206000209060090201600501600487815481106136fb57634e487b7160e01b600052603260045260246000fd5b90600052602060002090600902016006016004888154811061372d57634e487b7160e01b600052603260045260246000fd5b90600052602060002090600902016007016004898154811061375f57634e487b7160e01b600052603260045260246000fd5b906000526020600020906009020160080160009054906101000a900460ff1686805461378a90615015565b80601f01602080910402602001604051908101604052809291908181526020018280546137b690615015565b80156138035780601f106137d857610100808354040283529160200191613803565b820191906000526020600020905b8154815290600101906020018083116137e657829003601f168201915b5050505050965085805461381690615015565b80601f016020809104026020016040519081016040528092919081815260200182805461384290615015565b801561388f5780601f106138645761010080835404028352916020019161388f565b820191906000526020600020905b81548152906001019060200180831161387257829003601f168201915b505050505095508480546138a290615015565b80601f01602080910402602001604051908101604052809291908181526020018280546138ce90615015565b801561391b5780601f106138f05761010080835404028352916020019161391b565b820191906000526020600020905b8154815290600101906020018083116138fe57829003601f168201915b5050505050945083805461392e90615015565b80601f016020809104026020016040519081016040528092919081815260200182805461395a90615015565b80156139a75780601f1061397c576101008083540402835291602001916139a7565b820191906000526020600020905b81548152906001019060200180831161398a57829003601f168201915b505050505093508280546139ba90615015565b80601f01602080910402602001604051908101604052809291908181526020018280546139e690615015565b8015613a335780601f10613a0857610100808354040283529160200191613a33565b820191906000526020600020905b815481529060010190602001808311613a1657829003601f168201915b50505050509250818054613a4690615015565b80601f0160208091040260200160405190810160405280929190818152602001828054613a7290615015565b8015613abf5780601f10613a9457610100808354040283529160200191613abf565b820191906000526020600020905b815481529060010190602001808311613aa257829003601f168201915b50505050509150995099509950995099509950995099509950509193959799909294969850565b60006040518061018001604052806000548152602001336001600160a01b0316815260200189815260200188815260200187815260200186815260200160008152602001858152602001848152602001600115158152602001836001600160a01b0316815260200160015442613b5c9190614fdd565b63ffffffff1690529050336001600160a01b0383161415613b8f5760405162461bcd60e51b81526004016126a790614cab565b6003805460018101825560009190915281517fc2575a0e9e593c00f959f8c92f12db2869c3395a3b0502d05e2516446f71f85b600a9092029182019081556020808401517fc2575a0e9e593c00f959f8c92f12db2869c3395a3b0502d05e2516446f71f85c840180546001600160a01b0319166001600160a01b03909216919091179055604084015180518594613c4c937fc2575a0e9e593c00f959f8c92f12db2869c3395a3b0502d05e2516446f71f85d909101920190614505565b5060608201518051613c68916003840191602090910190614505565b5060808201518051613c84916004840191602090910190614505565b5060a0820151600582015560c0820151600682015560e08201518051613cb4916007840191602090910190614505565b506101008201518051613cd1916008840191602090910190614505565b50610120820151600990910180546101408401516101609094015163ffffffff16600160a81b0263ffffffff60a81b196001600160a01b0390951661010002610100600160a81b031994151560ff1990931692909217939093161792909216179055600080549080613d4283615050565b90915550506020808201516001600160a01b03166000908152600590915260408120805491613d7083615050565b9091555050604051309033907fb3baea71d4ddbfbb72a19472613826fbe33d620e97614dae28fd277f229fedd890613da9908a90614c98565b60405180910390a35050505050505050565b600080613dc783614221565b905060038181548110613dea57634e487b7160e01b600052603260045260246000fd5b60009182526020909120600a90910201600101546001600160a01b03163314613e255760405162461bcd60e51b81526004016126a790614dac565b60008381526009602052604081205467ffffffffffffffff811115613e5a57634e487b7160e01b600052604160045260246000fd5b604051908082528060200260200182016040528015613e9357816020015b613e80614484565b815260200190600190039081613e785790505b509050613e9f846133a5565b805190915080613f975760038381548110613eca57634e487b7160e01b600052603260045260246000fd5b90600052602060002090600a020160090160019054906101000a90046001600160a01b03166001600160a01b03166108fc60038581548110613f1c57634e487b7160e01b600052603260045260246000fd5b90600052602060002090600a0201600601549081150290604051600060405180830381858888f19350505050158015613f59573d6000803e3d6000fd5b5060038381548110613f7b57634e487b7160e01b600052603260045260246000fd5b90600052602060002090600a0201600601549350505050610a66565b6000613fa4826001614fdd565b60038581548110613fc557634e487b7160e01b600052603260045260246000fd5b90600052602060002090600a020160060154613fe19190614ff5565b90506003848154811061400457634e487b7160e01b600052603260045260246000fd5b600091825260208220600a9190910201600901546040516101009091046001600160a01b0316916108fc841502918491818181858888f19350505050158015614051573d6000803e3d6000fd5b5060005b828110156140d45783818151811061407d57634e487b7160e01b600052603260045260246000fd5b6020026020010151600001516001600160a01b03166108fc839081150290604051600060405180830381858888f193505050501580156140c1573d6000803e3d6000fd5b50806140cc81615050565b915050614055565b509350610a6692505050565b60076020526000908152604090205481565b60035490565b600034116141185760405162461bcd60e51b81526004016126a790614d4a565b600061412382614221565b90506003818154811061414657634e487b7160e01b600052603260045260246000fd5b600091825260209091206009600a90920201015460ff166141795760405162461bcd60e51b81526004016126a790614cf1565b6141833483614326565b34600382815481106141a557634e487b7160e01b600052603260045260246000fd5b90600052602060002090600a020160060160008282546141c59190614fdd565b9250508190555042600382815481106141ee57634e487b7160e01b600052603260045260246000fd5b60009182526020909120600a9091020160090154600160a81b900463ffffffff161161421d5761421d8261263e565b5050565b6000805b60035481101561428257826003828154811061425157634e487b7160e01b600052603260045260246000fd5b90600052602060002090600a0201600001541415614270579050610a66565b8061427a81615050565b915050614225565b5060405162461bcd60e51b81526004016126a790614e45565b6000805b60045481101561430d57826001600160a01b0316600482815481106142d457634e487b7160e01b600052603260045260246000fd5b60009182526020909120600990910201546001600160a01b031614156142fb579050610a66565b8061430581615050565b91505061429f565b5060405162461bcd60e51b81526004016126a790614dd7565b60408051606081018252338152602080820185815282840185815260028054600181018255600091825285517f405787fa12a823e0f2b7631cc41b3ba8828b3321ca811111fa75cd3aa3bb5ace600390920291820180546001600160a01b0319166001600160a01b0390921691909117905592517f405787fa12a823e0f2b7631cc41b3ba8828b3321ca811111fa75cd3aa3bb5acf84015590517f405787fa12a823e0f2b7631cc41b3ba8828b3321ca811111fa75cd3aa3bb5ad09092018290559081526006909152918220805491926143ff83615050565b9190505550505050565b6040518061018001604052806000815260200160006001600160a01b031681526020016060815260200160608152602001606081526020016000815260200160008152602001606081526020016060815260200160001515815260200160006001600160a01b03168152602001600063ffffffff1681525090565b60405180610120016040528060006001600160a01b03168152602001600081526020016060815260200160608152602001606081526020016060815260200160608152602001606081526020016000151581525090565b604051806060016040528060006001600160a01b0316815260200160008152602001600081525090565b82805461451190615015565b90600052602060002090601f0160209004810192826145335760008555614579565b82601f1061454c57805160ff1916838001178555614579565b82800160010185558215614579579182015b8281111561457957825182559160200191906001019061455e565b50614585929150614589565b5090565b5b80821115614585576000815560010161458a565b80356001600160a01b0381168114610a6657600080fd5b600082601f8301126145c5578081fd5b813567ffffffffffffffff808211156145e0576145e0615081565b604051601f8301601f19168101602001828111828210171561460457614604615081565b60405282815284830160200186101561461b578384fd5b82602086016020830137918201602001929092529392505050565b600060208284031215614647578081fd5b6146508261459e565b9392505050565b600060208284031215614668578081fd5b81358015158114614650578182fd5b600080600080600080600060e0888a031215614691578283fd5b873567ffffffffffffffff808211156146a8578485fd5b6146b48b838c016145b5565b985060208a01359150808211156146c9578485fd5b6146d58b838c016145b5565b975060408a01359150808211156146ea578485fd5b6146f68b838c016145b5565b965060608a0135955060808a0135915080821115614712578485fd5b61471e8b838c016145b5565b945060a08a0135915080821115614733578384fd5b506147408a828b016145b5565b92505061474f60c0890161459e565b905092959891949750929550565b60006020828403121561476e578081fd5b5035919050565b60008060408385031215614787578182fd5b823591506147976020840161459e565b90509250929050565b600080600080600080600060e0888a0312156147ba578283fd5b87359650602088013567ffffffffffffffff808211156147d8578485fd5b6147e48b838c016145b5565b975060408a01359150808211156147f9578485fd5b6148058b838c016145b5565b965060608a013591508082111561481a578485fd5b6148268b838c016145b5565b955060808a013591508082111561483b578485fd5b6148478b838c016145b5565b945060a08a013591508082111561485c578384fd5b6148688b838c016145b5565b935060c08a013591508082111561487d578283fd5b5061488a8a828b016145b5565b91505092959891949750929550565b6001600160a01b03169052565b15159052565b60008151808452815b818110156148d1576020818501810151868301820152016148b5565b818111156148e25782602083870101525b50601f01601f19169290920160200192915050565b63ffffffff169052565b6001600160a01b038a168152602081018990526101206040820181905260009061492d8382018b6148ac565b90508281036060840152614941818a6148ac565b9050828103608084015261495581896148ac565b905082810360a084015261496981886148ac565b905082810360c084015261497d81876148ac565b905082810360e084015261499181866148ac565b9150508215156101008301529a9950505050505050505050565b6001600160a01b039390931683526020830191909152604082015260600190565b602080825282518282018190526000919060409081850190868401855b82811015614a2157815180516001600160a01b03168552868101518786015285015185850152606090930192908501906001016149e9565b5091979650505050505050565b60208082528251828201819052600091906040908185019080840286018301878501865b83811015614b6a57603f1989840301855281516101808151855288820151614a7c8a870182614899565b50878201518189870152614a92828701826148ac565b91505060608083015186830382880152614aac83826148ac565b9250505060808083015186830382880152614ac783826148ac565b9250505060a080830151818701525060c080830151818701525060e08083015186830382880152614af883826148ac565b925050506101008083015186830382880152614b1483826148ac565b9250505061012080830151614b2b828801826148a6565b505061014080830151614b4082880182614899565b50506101609182015191614b56868201846148f7565b509588019593505090860190600101614a52565b509098975050505050505050565b60208082528251828201819052600091906040908185019080840286018301878501865b83811015614b6a57603f198984030185528151610120614bbd858351614899565b8882015189860152878201518189870152614bda828701826148ac565b91505060608083015186830382880152614bf483826148ac565b9250505060808083015186830382880152614c0f83826148ac565b9250505060a08083015186830382880152614c2a83826148ac565b9250505060c08083015186830382880152614c4583826148ac565b9250505060e08083015186830382880152614c6083826148ac565b92505050610100808301519250614c79818701846148a6565b509588019593505090860190600101614b9c565b901515815260200190565b60006020825261465060208301846148ac565b60208082526026908201527f646f6573206e6f7420616c6c6f7720796f7520746f20626520746865207265636040820152651a5c1a595b9d60d21b606082015260800190565b602080825260159082015274151a19481c1c9bd9dc985b481a5cc818db1bdcd959605a1b604082015260600190565b60208082526010908201526f1059191c995cdcc8185c1c1c9bdd995960821b604082015260600190565b6020808252818101527f506c6561736520646f6e6f7465206d6f7265207468656e203020616d6f756e74604082015260600190565b6020808252601390820152723cb7ba9031b0b73737ba103932b3b4b9ba32b960691b604082015260600190565b6020808252601190820152701e5bdd481a185d99481b9bc81c9a59da1d607a1b604082015260600190565b60208082526017908201527f526563656976657220646f6573206e6f74206578697374000000000000000000604082015260600190565b6020808252601a908201527f796f752061726520616c72656164792072656769737465726564000000000000604082015260600190565b602080825260169082015275141c9bda9958dd08191bd95cc81b9bdd08195e1a5cdd60521b604082015260600190565b90815260200190565b8c81526001600160a01b038c16602082015261018060408201819052600090614ea98382018e6148ac565b90508281036060840152614ebd818d6148ac565b90508281036080840152614ed1818c6148ac565b90508960a08401528860c084015282810360e0840152614ef181896148ac565b9050828103610100840152614f0681886148ac565b915050614f176101208301866148a6565b614f25610140830185614899565b614f336101608301846148f7565b9d9c50505050505050505050505050565b8a81526001600160a01b038a8116602083015261014060408301819052600091614f708483018d6148ac565b91508382036060850152614f84828c6148ac565b91508382036080850152614f98828b6148ac565b91508860a08501528760c085015286151560e0850152838203610100850152614fc182876148ac565b925080851661012085015250509b9a5050505050505050505050565b60008219821115614ff057614ff061506b565b500190565b60008261501057634e487b7160e01b81526012600452602481fd5b500490565b60028104600182168061502957607f821691505b6020821081141561504a57634e487b7160e01b600052602260045260246000fd5b50919050565b60006000198214156150645761506461506b565b5060010190565b634e487b7160e01b600052601160045260246000fd5b634e487b7160e01b600052604160045260246000fdfea2646970667358221220927fbfff07406fc9e4c67f1f9808144fca81db2f407e89855545892b261f3b3b64736f6c63430008000033",
  "immutableReferences": {},
  "source": "// SPDX-License-Identifier: MIT\npragma solidity ^0.8.0;\n\ncontract Charity {\n    \n    struct Project {\n        uint256 id;\n        address payable program_creator;\n        string projectName;\n        string location;\n        string description;\n        uint256 amountNeeded;\n        uint256 amountDonated;\n        string imageUrl;\n        string imageUrl1;\n        bool ongoing;\n        address payable recipient;\n        uint32 readyTime;\n    }\n\n    struct Donor {\n        address donorAddress;\n        uint256 amount;\n        uint256 projectID;\n    }\n    \n    struct Receiver {\n        address payable receiverAddress;\n        uint256 projectID;\n        string nameR;\n        string locationR;\n        string descriptionR;\n        string CMND;\n        string imageUrlR;\n        string imageUrl1R;\n        bool take;\n    }\n    uint256 public nextId = 1;\n    uint cooldownTime = 5 minutes;\n    Donor[] public allDonors;   // mang donate\n    Project[] public allProjects; //mang project\n    Receiver[] public allReceviver; //mang nguoi nhan\n    mapping (address => uint256) public ownerProjectAmount;\n    mapping (uint256 => uint256) public IDDonateAmount;\n    mapping (uint256 => uint256) public IDReceiverAmount;\n    mapping (bool => uint256) public ReceiverAmountTake;\n    mapping (uint256 => uint256) public IDReceiverAmountTake;\n    \n    function createDonationStruct(uint256 amount, uint256 id) internal {Donor memory newDonor = Donor(\n        {donorAddress: msg.sender,\n            amount: amount,\n            projectID: id\n        });\n        allDonors.push(newDonor);\n        IDDonateAmount[newDonor.projectID]++;\n    }\n\n    function donate(uint256 id) public payable {\n        require(msg.value > 0, 'Please donote more then 0 amount');\n        //tm project\n\n        uint256 i = find(id);\n\n        require(allProjects[i].ongoing != false,'The program is closed');\n        createDonationStruct(msg.value, id);\n        allProjects[i].amountDonated += msg.value;\n\n        if(allProjects[i].readyTime <= block.timestamp){\n            endProject(id);\n        }   \n    }\n    \n    // to  project ku gi ng h (tn, m t, s tin cn, nh)\n    function createProjectStruct(string memory name,string memory location,string memory description,uint256 amountNeeded,string memory imageUrl,string memory imageUrl1,address recipient) public {\n        Project memory newProject = Project({\n            id: nextId,\n            program_creator: payable(msg.sender),\n            projectName: name,\n            location:location,\n            description: description,\n            amountNeeded: amountNeeded,\n            amountDonated: 0,\n            imageUrl: imageUrl,\n            imageUrl1: imageUrl1,\n            ongoing: true,\n            recipient: payable(recipient),\n            readyTime: uint32(block.timestamp + cooldownTime)\n        });\n        require(msg.sender != recipient,'does not allow you to be the recipient');\n        allProjects.push(newProject);\n        nextId++;\n        ownerProjectAmount[newProject.program_creator]++;\n        \n        emit Project_Created(msg.sender, address(this), description);\n    }\n    function getAllDonors()public view returns(Donor[] memory){\n        return allDonors;\n    }\n    \n    function getAllProjects() public view returns(Project[] memory){\n        return allProjects;\n    }\n    \n    function getAllidDonateLength(uint256 id) public view returns (uint256) {\n        return IDDonateAmount[id];\n    }\n    \n    //danh sch ng h ca mt chng trnh\n    function getDonor(uint256 id)public view returns(Donor[] memory){\n        Donor[] memory result = new Donor[](IDDonateAmount[id]);\n        uint256 count;\n        for(uint256 i=0;i<allDonors.length;i++){\n            if(allDonors[i].projectID == id){\n                result[count] = allDonors[i];\n                count++;\n            }\n          }\n      return result;\n    }\n    \n    function getAllOwnerProjectsLength(address _owner) public view returns (uint256) {\n        return ownerProjectAmount[_owner];\n    }\n    \n    // danh sch chng trnh ca mt ti khon \n    function getOwnerProjects(address _owner) public view returns (Project[] memory ) {\n        Project[] memory result = new Project[](ownerProjectAmount[_owner]);\n        \n        uint count=0;\n        for(uint i=0;i<allProjects.length;i++){\n            if(allProjects[i].program_creator == _owner){\n                result[count]=allProjects[i];\n                count++;\n            }\n        }\n        return result;  \n        }\n    \n    \n    // tm project theo id\n    function find(uint256 id) internal view returns (uint256) {\n        for (uint256 i = 0; i < allProjects.length; i++) {\n            if (allProjects[i].id == id) {\n                return i;\n            }\n        }\n        revert('Project does not exist');\n    }\n    // tm receiver theo address\n    function findAdd(address a) internal view returns (uint256) {\n        for (uint256 i = 0; i < allReceviver.length; i++) {\n            if (allReceviver[i].receiverAddress == a) {\n                return i;\n            }\n        }\n        revert('Receiver does not exist');\n    }\n\n\n    function _isReady(Project storage _project) internal view returns (bool) {\n        return (_project.readyTime <= block.timestamp);\n    }\n\n    function getAllProjectsLength() public view returns (uint256) {\n        return allProjects.length;\n    }\n    \n    // dng chng trnh \n    function endProject(uint256 id) public {\n        uint256 i = find(id);\n\n        require(msg.sender == allProjects[i].program_creator,'you have no right');\n        emit Goal_Reached(\n            allProjects[i].program_creator,\n            address(this),\n            allProjects[i].amountDonated\n        );\n        allProjects[i].ongoing = false;\n        allProjects[i].readyTime = uint32(block.timestamp);\n        emit Project_Ended(\n            allProjects[i].program_creator,\n            address(this),\n            allProjects[i].amountDonated\n        );\n\n    }\n\n    // chuyn tin cho ngi th hng\n    function pay(uint256 id)public payable returns(uint256 ethers){\n        uint256 i = find(id);\n        require(msg.sender == allProjects[i].program_creator,'you have no right');\n        Receiver[] memory result = new Receiver[](IDReceiverAmountTake[id]);\n        result = getIdRTake(id);\n        uint256 a = result.length;\n        if(a==0){\n            allProjects[i].recipient.transfer(allProjects[i].amountDonated);\n            return allProjects[i].amountDonated;\n        }else{\n            uint b = allProjects[i].amountDonated / (a+1);\n            allProjects[i].recipient.transfer(b);\n            for(uint256 p=0; p<a; p++){\n            result[p].receiverAddress.transfer(b);\n            }\n            return b;\n        } \n    }\n\n    //xem mt project\n    function readSingleProject(uint256 id)\n        public\n        view\n        returns (\n            uint256,\n            address,\n            string memory,\n            string memory,\n            string memory,\n            uint256,\n            uint256,\n            bool,\n            string memory,\n            address\n        )\n    {\n        uint256 i = find(id);\n        return (\n            allProjects[i].id,\n            allProjects[i].program_creator,\n            allProjects[i].projectName,\n            allProjects[i].location,\n            allProjects[i].description,\n            allProjects[i].amountNeeded,\n            allProjects[i].amountDonated,\n            allProjects[i].ongoing,\n            allProjects[i].imageUrl,\n    \n            //allProjects[i].projectAddress,\n            allProjects[i].recipient\n        );\n    }\n    // kim tra project c phi ca a ch ny hay khng\n    function isCharity() public view returns (bool) {\n        for (uint256 i = 0; i < allProjects.length; i++) {\n            if (allProjects[i].program_creator == msg.sender) {\n                return true;\n            }\n        }\n        return false;\n    }\n    \n    function createRegistered_recipientStruct(uint256 id,string memory nameR,string memory locationR, string memory descriptionR,string memory CMND,string memory imageUrlR,string memory imageUrl1R) public {\n        Receiver memory newReceiver = Receiver(\n        {receiverAddress: payable(msg.sender),\n            projectID: id,\n            nameR: nameR,\n            locationR: locationR,\n            descriptionR: descriptionR,\n            CMND: CMND,\n            imageUrlR: imageUrlR,\n            imageUrl1R: imageUrl1R,\n            take: false\n        });\n        uint256 i = find(id);\n        require(allProjects[i].program_creator != msg.sender,'you cannot register');\n        require(allProjects[i].recipient != msg.sender,'you cannot register');\n        require(allProjects[i].ongoing != false,'The program is closed');\n        if(allProjects[i].readyTime <= block.timestamp){\n            endProject(id);\n        }  \n        Receiver[] memory result = new Receiver[](allReceviver.length);\n        result = getAllReceiver();\n        for(uint256 j=0;j<result.length;j++){\n            require(msg.sender != result[j].receiverAddress,'you are already registered');\n        }\n        allReceviver.push(newReceiver);\n        IDReceiverAmount[newReceiver.projectID]++;\n    }\n \n    function getAllReceiver() public view returns(Receiver[] memory){\n        return allReceviver;\n    }\n    // ly ngi nhn theo 1 chng trnh\n    function getIdReceiver(uint256 id)public view returns(Receiver[] memory){\n        Receiver[] memory result = new Receiver[](IDReceiverAmount[id]);\n        uint256 count;  \n        for(uint256 i=0;i<allReceviver.length;i++){\n            if(allReceviver[i].projectID == id){\n                result[count] = allReceviver[i];\n                count++;\n           }\n          }\n      return result;\n    }\n    // ly mng s ngi c duyt\n    function SetTake()public view returns (Receiver[] memory ){\n        uint count=0;\n        Receiver[] memory result = new Receiver[](ReceiverAmountTake[true]);\n        for(uint256 i=0;i<allReceviver.length;i++){\n            if(allReceviver[i].take == true){\n                result[count] = allReceviver[i];\n                count++;\n           }\n        }\n        return result;\n    }\n    // to s lng ngi c duyt theo tng chng trnh\n    // function getIdReceiverTake(uint256 id) public{\n    //     Receiver[] memory result = new Receiver[](ReceiverAmountTake[true]);\n    //     result = SetTake();\n    //     for(uint256 i; i<result.length;i++){\n    //         if(result[i].projectID == id){\n    //             IDReceiverAmountTake[result[i].projectID]++;\n    //         }\n    //     }\n    // }\n    //ly mng ngi c duyt theo chng trnh\n    function getIdRTake(uint256 id)public view returns (Receiver[] memory ){\n        Receiver[] memory settake = new Receiver[](ReceiverAmountTake[true]);\n        settake = SetTake();\n        uint count=0;\n        Receiver[] memory result = new Receiver[](IDReceiverAmountTake[id]);\n        for(uint256 i=0;i<settake.length;i++){\n            if(settake[i].projectID == id){\n                result[count] = settake[i];\n                count++;\n           }\n        }\n        return result;\n    }\n\n    // ph duyt ngi nhn theo tng chng trnh\n    function approveReceiver(uint256 id, address a)public returns(bool b){\n        uint256 p = find(id);\n        require(msg.sender == allProjects[p].program_creator,'you have no right');\n\n        uint256 i = findAdd(a);\n        require(allReceviver[i].take == false,'Address approved');\n        allReceviver[i].take = true;\n        ReceiverAmountTake[allReceviver[i].take]++;     \n        IDReceiverAmountTake[allReceviver[i].projectID]++;\n        return allReceviver[i].take;\n    }\n    \n\n    // xem thng tin ngi nhn\n    function readSingleReceiver(address a)\n        public\n        view\n        returns (\n            address,\n            uint256,\n            string memory,\n            string memory,\n            string memory,\n            string memory,\n            string memory,\n            string memory,\n            bool\n        )\n    {\n        uint256 i = findAdd(a);\n        return (\n            allReceviver[i].receiverAddress,\n            allReceviver[i].projectID,\n            allReceviver[i].nameR,\n            allReceviver[i].locationR,\n            allReceviver[i].descriptionR,\n            allReceviver[i].CMND,\n            allReceviver[i].imageUrlR,\n            allReceviver[i].imageUrl1R,\n            allReceviver[i].take\n        );\n    }\n\n   \n\n\n    //     //EVENTS\n    // s kin khi hp ng c to. Hin th a ch ch s hu, a ch hp ng v m t v hot ng gy qu\n    event Project_Created(\n        address indexed _from,\n        address indexed _project,\n        string _desription\n    );\n    // s kin khi tin c tng. Hin th a ch ca nh ti tr, hp ng gy qu c tng v gi tr c tng\n    event Funds_Donated(\n        address indexed _from,\n        address indexed _contract,\n        uint256 _value\n    );\n    // s kin khi t c mc tiu gy qu. Hin th a ch ngi nhn, a ch hp ng v s tin huy ng c\n    event Goal_Reached(\n        address indexed _from,\n        address indexed _contract,\n        uint256 _value\n    );\n    // s kin khi ngi nhn / ch s hu hp ng kt thc t gy qu. Hin th a ch ch s hu, a ch hp ng v s tin b k khai\n    event Project_Ended(\n        address indexed _from,\n        address indexed _contract,\n        uint256 _value\n    );\n \n} ",
  "sourcePath": "/Users/nguyenngocha/Desktop/o an/project-charity-dapp/contracts/Charity.sol",
  "compiler": {
    "name": "solc",
    "version": "0.8.0+commit.c7dfd78e.Emscripten.clang"
  },
  "schemaVersion": "3.4.3",
  "updatedAt": "2021-12-11T08:44:08.941Z",
  "networkType": "ethereum",
  "devdoc": {
    "kind": "dev",
    "methods": {},
    "version": 1
  },
  "userdoc": {
    "kind": "user",
    "methods": {},
    "version": 1
  }
}